:40000000023E79008F828E83E0540100000070F82278FFE4F6D8FD023F449000941237EA124AAE124CB29000941237E11235F4FFEF1237F300C303010806012C0902650ADB
:4000400003040B03870C040A10042611043F1C04F640050F45060D4607324707534807745008EF510074F1008DF200E7FC1101FF0000118112477F7BFF7A4079C01249698C
:400080001252A7EF30E10302118180F42212477F905015E0FFEF4401FFEFF07F647E00124DF4905014E0FFEF4401FFEFF07BFF7A4079C61249691252A7EF30E103021181D8
:4000C00080F42212477F905012E0FFEF4401FFEFF07BFF7A4079CC1249691252A7EF30E10302118180F422905011E0FFEF4401FFEFF07BFF7A4079D21249691252A7EF30EB
:40010000E10302118180F42212477F905013E0FFEF4401FFEFF07BFF7A4079D81249691252A7EF30E10302118180F42290501CE0FFEF4401FFEFF090501DE0FFEF4401FF78
:40014000EFF09000EDE0FEA3E0FFE4FCFD12464E900095E475F00112361F9000941237E11235F4FF7E00121F0A90010AE0FF9000D2EFF09000EDE0FEA3E0FFE4FCFD12465C
:400180004E900095E475F00112361F9000941237E11235F4FF7E0012278290010BE0FF9000D4EFF09000FBE0FF9000D6EFF0900102E0FF9000D8EFF09000EBE0FF9000DA70
:4001C000EFF09000F3E0FF9000DCEFF09000F8E0FF9000DEEFF0900106E0FF9000E0EFF09000D0E0FEA3E0FFE4FCFD12464E7BFF7A4079DE1249691252A7EF30E1F97BFFEA
:400200007A4079E01249691252A7EF30E1F97BFF7A4079E21249691252A7EF30E1F97BFF7A4079E21249691252A7EF30E1F97BFF7A4079E41249691252A7EF30E1F97BFF62
:400240007A4079DE1249691252A7EF30E1F97BFF7A4079DE1249691252A7EF30E1F9124AAE124CB2227BFF7A4079BB1249691252A7EF30E1F9124E2190502CE0FFEF54FE39
:40028000FFEFF07F15124F637F15124F637F15124F631250CEEF20E10A1250EE900098EFF080EF7F0E7E00124DF490502CE0FFEF4401FFEFF07F057E00124DF41250DEEF89
:4002C00070030211811250EE900098EFF0900098E0FFEFB4150C900098E0FF900097EFF08005900097E4F0900097E0FF1247E41252A7EF30E1F9124AEF900097E4F090002B
:4003000098E4F022900095E475F00112361F90501CE0FFEF4401FFEFF090501DE0FFEF4401FFEFF09000EDE0FEA3E0FFE4FCFD12464E9000941237E11235F4FF7E00121FE7
:400340000A7BFF7A4079E61249691252A7EF30E1F97BFF7A4079E61249691252A7EF30E1F97BFF7A4079E61249691252A7EF30E1F97BFF7A4079E81249691252A7EF30E1FE
:400380000302118180F422900095E475F00112361F90501CE0FFEF4401FFEFF090501DE0FFEF4401FFEFF09000EDE0FEA3E0FFE4FCFD12464E9000941237E11235F4FF7EF9
:4003C000001227827BFF7A4079E61249691252A7EF30E1F97BFF7A4079E61249691252A7EF30E1F97BFF7A4079E61249691252A7EF30E1F97BFF7A4079E81249691252A7CD
:40040000EF30E10302118180F4221250421251E37BFF7A4079BB1249691252A7EF30E10302118180F4221251EF7BFF7A4079BB1249691252A7EF30E10302118180F42290FB
:400440000095E475F00112361F9000941237E11235F4FFEF600E9000941237E11235F4FFEFB401259000941237E11235F4FF900143EFF07BFF7A4079BB1249691252A7EF9F
:4004800030E10302118180F4229000941237E11235F4FFEFB40F167BFF7A4079BB1249691252A7EF30E10302118180F422900100E4F0900100E0FFEFD3941F501990010006
:4004C000E0FF74092FF582E43401F583E4F0900100E004F080DC9000FEE4F09000F9E4F07BFF7A4079EA1249691252A7EF30E10302118180F42212477F7BFF7A4079BB1230
:4005000049691252A7EF30E10302118180F4227BFF7A4079BB1249691252A7EF30E1F99000F0E4F0905015E0FFEF30E4109000F0E0FFEF4401FF9000F0EFF0800E9000F067
:40054000E0FFEF54FEFF9000F0EFF0905014E0FFEF30E4109000F0E0FFEF4402FF9000F0EFF0800E9000F0E0FFEF54FDFF9000F0EFF0905012E0FFEF30E4109000F0E0FF57
:40058000EF4404FF9000F0EFF0800E9000F0E0FFEF54FBFF9000F0EFF0905013E0FFEF30E4109000F0E0FFEF4408FF9000F0EFF0800E9000F0E0FFEF54F7FF9000F0EFF0BB
:4005C000905011E0FFEF30E4109000F0E0FFEF4410FF9000F0EFF0800E9000F0E0FFEF54EFFF9000F0EFF09000F0E0FFEF541FFF9000F0EFF0124CB29000F0E0FF1247E4D0
:400600001252A7EF30E10302118180F4227BFF7A4079BB1249691252A7EF30E1F99000F0E4F0905016E0FFEF30E4109000F0E0FFEF4401FF9000F0EFF0800E9000F0E0FF38
:40064000EF54FEFF9000F0EFF0905017E0FFEF30E4109000F0E0FFEF4402FF9000F0EFF0800E9000F0E0FFEF54FDFF9000F0EFF0905064E0FFEF30E4109000F0E0FFEF44AD
:4006800004FF9000F0EFF0800E9000F0E0FFEF54FBFF9000F0EFF0905065E0FFEF30E4109000F0E0FFEF4408FF9000F0EFF0800E9000F0E0FFEF54F7FF9000F0EFF09050BB
:4006C00034E0FFEF30E4109000F0E0FFEF4410FF9000F0EFF0800E9000F0E0FFEF54EFFF9000F0EFF0905033E0FFEF30E4109000F0E0FFEF4420FF9000F0EFF0800E900024
:40070000F0E0FFEF54DFFF9000F0EFF09000F0E0FFEF543FFF9000F0EFF0124CB29000F0E0FF1247E41252A7EF30E10302118180F422905033E0FFEF4401FFEFF07BFF7A4F
:400740004079EF1249691252A7EF30E10302118180F422905033E0FFEF54FEFFEFF07BFF7A4079F51249691252A7EF30E10302118180F422900095E475F00112361F9000C0
:40078000941237E11235F4FFEF64017025124C7A7D017F9B7E00123A09124FEE7BFF7A4079BB1249691252A7EF30E10302118180F4229000941237E11235F4FFEF64027015
:4007C00025124C7A7D017F4D7E00123A09124FEE7BFF7A4079BB1249691252A7EF30E10302118180F4229000941237E11235F4FFEF64037025124C7A7D017F257E00123AF5
:4008000009124FEE7BFF7A4079BB1249691252A7EF30E10302118180F4229000941237E11235F4FFEF64047025124C7A7D017F197E00123A09124FEE7BFF7A4079BB1249B5
:40084000691252A7EF30E10302118180F4229000941237E11235F4FFEF64057025124C7A7D017F0C7E00123A09124FEE7BFF7A4079BB1249691252A7EF30E1030211818011
:40088000F4229000941237E11235F4FFEFB40F167BFF7A4079BB1249691252A7EF30E10302118180F422900100E4F0900100E0FFEFD3941F5019900100E0FF74092FF58228
:4008C000E43401F583E4F0900100E004F080DC9000FEE4F09000F9E4F07BFF7A4079EA1249691252A7EF30E10302118180F422900095E475F00112361F9000941237E1124A
:4009000035F4FF9000FFEFF0905033E0FFEF5410FF7E00EF4E60030210AD9000941237E11235F4FFEF1237F309740009C1010A0E020A5B030AA8040AF5050B42060B8F07D5
:400940000BDC080C29090C760A0CC30B0D100C0D5D0D0DAA0E0DF70F0E44100E91110EDE120F2B130F78140FC515101216105F1700001181905016E0FFEF54FEFFEFF090B7
:400980005017E0FFEF54FEFFEFF0905064E0FFEF54FEFFEFF0905065E0FFEF54FEFFEFF0905034E0FFEF54FEFFEFF07BFF7A4079FB1249691252A7EF30E10302118180F4B9
:4009C00022905016E0FFEF4401FFEFF0905017E0FFEF54FEFFEFF0905064E0FFEF54FEFFEFF0905065E0FFEF54FEFFEFF0905034E0FFEF54FEFFEFF07BFF7A417901124958
:400A0000691252A7EF30E10302118180F422905016E0FFEF54FEFFEFF0905017E0FFEF4401FFEFF0905064E0FFEF54FEFFEFF0905065E0FFEF54FEFFEFF0905034E0FFEFD2
:400A400054FEFFEFF07BFF7A4179071249691252A7EF30E10302118180F422905016E0FFEF4401FFEFF0905017E0FFEF4401FFEFF0905064E0FFEF54FEFFEFF0905065E05F
:400A8000FFEF54FEFFEFF0905034E0FFEF54FEFFEFF07BFF7A41790D1249691252A7EF30E10302118180F422905016E0FFEF54FEFFEFF0905017E0FFEF54FEFFEFF0905086
:400AC00064E0FFEF4401FFEFF0905065E0FFEF54FEFFEFF0905034E0FFEF54FEFFEFF07BFF7A4179131249691252A7EF30E10302118180F422905016E0FFEF4401FFEFF0A8
:400B0000905017E0FFEF54FEFFEFF0905064E0FFEF4401FFEFF0905065E0FFEF54FEFFEFF0905034E0FFEF54FEFFEFF07BFF7A4179191249691252A7EF30E1030211818089
:400B4000F422905016E0FFEF54FEFFEFF0905017E0FFEF4401FFEFF0905064E0FFEF4401FFEFF0905065E0FFEF54FEFFEFF0905034E0FFEF54FEFFEFF07BFF7A41791F121A
:400B800049691252A7EF30E10302118180F422905016E0FFEF4401FFEFF0905017E0FFEF4401FFEFF0905064E0FFEF4401FFEFF0905065E0FFEF54FEFFEFF0905034E0FF11
:400BC000EF54FEFFEFF07BFF7A4179251249691252A7EF30E10302118180F422905016E0FFEF54FEFFEFF0905017E0FFEF54FEFFEFF0905064E0FFEF54FEFFEFF090506597
:400C0000E0FFEF4401FFEFF0905034E0FFEF54FEFFEFF07BFF7A41792B1249691252A7EF30E10302118180F422905016E0FFEF4401FFEFF0905017E0FFEF54FEFFEFF09070
:400C40005064E0FFEF54FEFFEFF0905065E0FFEF4401FFEFF0905034E0FFEF54FEFFEFF07BFF7A4179311249691252A7EF30E10302118180F422905016E0FFEF54FEFFEF9B
:400C8000F0905017E0FFEF4401FFEFF0905064E0FFEF54FEFFEFF0905065E0FFEF4401FFEFF0905034E0FFEF54FEFFEFF07BFF7A4179371249691252A7EF30E10302118187
:400CC00080F422905016E0FFEF4401FFEFF0905017E0FFEF4401FFEFF0905064E0FFEF54FEFFEFF0905065E0FFEF4401FFEFF0905034E0FFEF54FEFFEFF07BFF7A41793D1A
:400D00001249691252A7EF30E10302118180F422905016E0FFEF54FEFFEFF0905017E0FFEF54FEFFEFF0905064E0FFEF4401FFEFF0905065E0FFEF4401FFEFF0905034E06F
:400D4000FFEF54FEFFEFF07BFF7A4179431249691252A7EF30E10302118180F422905016E0FFEF4401FFEFF0905017E0FFEF54FEFFEFF0905064E0FFEF4401FFEFF0905077
:400D800065E0FFEF4401FFEFF0905034E0FFEF54FEFFEFF07BFF7A4179491249691252A7EF30E10302118180F422905016E0FFEF54FEFFEFF0905017E0FFEF4401FFEFF0FC
:400DC000905064E0FFEF4401FFEFF0905065E0FFEF4401FFEFF0905034E0FFEF54FEFFEFF07BFF7A41794F1249691252A7EF30E10302118180F422905016E0FFEF4401FF75
:400E0000EFF0905017E0FFEF4401FFEFF0905064E0FFEF4401FFEFF0905065E0FFEF4401FFEFF0905034E0FFEF54FEFFEFF07BFF7A4179551249691252A7EF30E103021186
:400E40008180F422905016E0FFEF54FEFFEFF0905017E0FFEF54FEFFEFF0905064E0FFEF54FEFFEFF0905065E0FFEF54FEFFEFF0905034E0FFEF4401FFEFF07BFF7A41793A
:400E80005B1249691252A7EF30E10302118180F422905016E0FFEF4401FFEFF0905017E0FFEF54FEFFEFF0905064E0FFEF54FEFFEFF0905065E0FFEF54FEFFEFF090503466
:400EC000E0FFEF4401FFEFF07BFF7A4179611249691252A7EF30E10302118180F422905016E0FFEF54FEFFEFF0905017E0FFEF4401FFEFF0905064E0FFEF54FEFFEFF09048
:400F00005065E0FFEF54FEFFEFF0905034E0FFEF4401FFEFF07BFF7A4179671249691252A7EF30E10302118180F422905016E0FFEF4401FFEFF0905017E0FFEF4401FFEF09
:400F4000F0905064E0FFEF54FEFFEFF0905065E0FFEF54FEFFEFF0905034E0FFEF4401FFEFF07BFF7A41796D1249691252A7EF30E10302118180F422905016E0FFEF54FECA
:400F8000FFEFF0905017E0FFEF54FEFFEFF0905064E0FFEF4401FFEFF0905065E0FFEF54FEFFEFF0905034E0FFEF4401FFEFF07BFF7A4179731249691252A7EF30E10302EC
:400FC000118180F422905016E0FFEF4401FFEFF0905017E0FFEF54FEFFEFF0905064E0FFEF4401FFEFF0905065E0FFEF54FEFFEFF0905034E0FFEF4401FFEFF07BFF7A413B
:4010000079791249691252A7EF30E10302118180F422905016E0FFEF54FEFFEFF0905017E0FFEF4401FFEFF0905064E0FFEF4401FFEFF0905065E0FFEF54FEFFEFF090508E
:4010400034E0FFEF4401FFEFF07BFF7A41797F1249691252A7EF30E10302118180F422905016E0FFEF4401FFEFF0905017E0FFEF4401FFEFF0905064E0FFEF4401FFEFF01E
:40108000905065E0FFEF54FEFFEFF0905034E0FFEF4401FFEFF07BFF7A4179851249691252A7EF30E10302118180F42222900100E4F0900100E0FFEFD3941F501990010053
:4010C000E0FF74092FF582E43401F583E4F0900100E004F080DC7F017E007D007C0012464E9000FEE4F09000F9E4F07BFF7A41798B1249691252A7EF30E10302118180F459
:4011000022900095E475F00112361F9000941237E11235F4FFEFB4FF041251D7229000941237E11235F4FFEFB40F137BFF7A4079BB1249691252A7EF20E14680F722900149
:4011400000E4F0900100E0FFEFD3941F5019900100E0FF74092FF582E43401F583E4F0900100E004F080DC9000FEE4F09000F9E4F07BFF7A4079EA1249691252A7EF30E16F
:40118000F9229000A9E4F09000AAE4F09000ABE4F09000AFE4F07F011235951244509000A8EFF09000A9E0FFEF6003021E019000A8E0FFEF64FF7045900100E4F09000A878
:4011C000E0FF900100E0FE74092EF582E43401F583EFF0900100E004F09000A97401F09000AE7402F07BFF7A5179BC1249691252A7EF30E103021E8580F4021E859000A826
:40120000E0FFEF7010124CB29000AAE4F09000A9E4F0021E859000A8E0FFEF640170617BFF7A5179C11249691252A7EF30E1F97BFF7A5179C11249691252A7EF30E1F97B4B
:40124000FF7A5179C11249691252A7EF30E1F97BFF7A5179C31249691252A7EF30E1F9900129E0FF1247E41252A7EF30E1F9900129E4F09000AAE4F09000A9E4F0021E8531
:401280009000A8E0FFEF64F1706C900100E4F0900100E0FFEFD394085019900100E0FF74092FF582E43401F583E4F0900100E004F080DC900100E4F09000A8E0FF90010095
:4012C000E0FE74092EF582E43401F583EFF0900100E0FF74092FF582E43401F583E0FF90012BEFF07F0112356E9000AAE4F09000A9E4F0021E859000A8E0FFEF64F2706CB3
:40130000900100E4F0900100E0FFEFD394085019900100E0FF74092FF582E43401F583E4F0900100E004F080DC900100E4F09000A8E0FF900100E0FE74092EF582E4340132
:40134000F583EFF0900100E0FF74092FF582E43401F583E0FF90012BEFF07F0112356E9000AAE4F09000A9E4F0021E859000A8E0FFEF6403706C900100E4F0900100E0FF65
:40138000EFD394085019900100E0FF74092FF582E43401F583E4F0900100E004F080DC900100E4F09000A8E0FF900100E0FE74092EF582E43401F583EFF0900100E0FF744C
:4013C000092FF582E43401F583E0FF90012BEFF07F0112356E9000AAE4F09000A9E4F0021E859000A8E0FFEF64FC706C900100E4F0900100E0FFEFD394085019900100E0EF
:40140000FF74092FF582E43401F583E4F0900100E004F080DC900100E4F09000A8E0FF900100E0FE74092EF582E43401F583EFF0900100E0FF74092FF582E43401F583E0E3
:40144000FF90012BEFF07F0112356E9000AAE4F09000A9E4F0021E859000A8E0FFEF6406706C900100E4F0900100E0FFEFD394085019900100E0FF74092FF582E43401F554
:4014800083E4F0900100E004F080DC900100E4F09000A8E0FF900100E0FE74092EF582E43401F583EFF0900100E0FF74092FF582E43401F583E0FF90012BEFF07F01123532
:4014C0006E9000AAE4F09000A9E4F0021E859000A8E0FFEF6408702C7BFF7A5179BC1249691252A7EF30E1F9124CB27F271247E41252A7EF30E1F99000AAE4F09000A9E44C
:40150000F0021E859000A8E0FFEF64D070387BFF7A5179BC1249691252A7EF30E1F9124CB27F031247E41252A7EF30E1F97F011247E41252A7EF30E1F99000AAE4F09000C0
:40154000A9E4F0021E859000A8E0FFEF64097045900100E4F09000A8E0FF900100E0FE74092EF582E43401F583EFF0900100E004F09000A97402F09000AE7403F07BFF7A07
:401580005179BC1249691252A7EF30E103021E8580F4021E859000A8E0FFEF640A7043900100E4F09000A8E0FF900100E0FE74092EF582E43401F583EFF0900100E0FF748D
:4015C000092FF582E43401F583E0FF90012BEFF07F0112356E9000AAE4F09000A9E4F0021E859000A8E0FFEF640B7045900100E4F09000A8E0FF900100E0FE74092EF58205
:40160000E43401F583EFF0900100E004F09000A97401F09000AE7402F07BFF7A5179BC1249691252A7EF30E103021E8580F4021E859000A8E0FFEF640C7045900100E4F0F9
:401640009000A8E0FF900100E0FE74092EF582E43401F583EFF0900100E004F09000A97401F09000AE7402F07BFF7A5179BC1249691252A7EF30E103021E8580F4021E85A1
:401680009000A8E0FFEF6410706C900100E4F0900100E0FFEFD394085019900100E0FF74092FF582E43401F583E4F0900100E004F080DC900100E4F09000A8E0FF90010072
:4016C000E0FE74092EF582E43401F583EFF0900100E0FF74092FF582E43401F583E0FF90012BEFF07F0112356E9000AAE4F09000A9E4F0021E859000A8E0FFEF6411706C90
:40170000900100E4F0900100E0FFEFD394085019900100E0FF74092FF582E43401F583E4F0900100E004F080DC900100E4F09000A8E0FF900100E0FE74092EF582E434012E
:40174000F583EFF0900100E0FF74092FF582E43401F583E0FF90012BEFF07F0112356E9000AAE4F09000A9E4F0021E859000A8E0FFEF64186003021939905021E0FFEF3047
:40178000E41090012AE0FFEF4480FF900107EFF0800E90012AE0FFEF547FFF900107EFF0905020E0FFEF30E41090012AE0FFEF4440FF900107EFF0800E90012AE0FFEF5432
:4017C000BFFF900107EFF0905063E0FFEF30E41090012AE0FFEF4420FF90012AEFF0800E90012AE0FFEF54DFFF90012AEFF0905062E0FFEF30E41090012AE0FFEF4410FF06
:40180000900107EFF0800E90012AE0FFEF54EFFF900107EFF0905003E0FFEF30E41090012AE0FFEF4408FF900107EFF0800E90012AE0FFEF54F7FF900107EFF0905002E0A7
:40184000FFEF30E41090012AE0FFEF4404FF900107EFF0800E90012AE0FFEF54FBFF900107EFF0905001E0FFEF30E41090012AE0FFEF4402FF900107EFF0800E90012AE0F2
:40188000FFEF54FDFF900107EFF0905000E0FFEF30E41090012AE0FFEF4401FF900107EFF0800E90012AE0FFEF54FEFF900107EFF0900107E0FFEFF4FF900107EFF090011D
:4018C00007E0FFEF5488FF900107EFF0900107E0FFEF131313541FFF900107EFF07BFF7A5179C11249691252A7EF30E1F97BFF7A5179C11249691252A7EF30E1F97BFF7AB7
:401900005179C11249691252A7EF30E1F97BFF7A5179C31249691252A7EF30E1F9900107E0FF1247E41252A7EF30E1F99000AAE4F09000A9E4F0021E859000A8E0FFEF6429
:401940001C7045900100E4F09000A8E0FF900100E0FE74092EF582E43401F583EFF0900100E004F09000A97401F09000AE7402F07BFF7A5179BC1249691252A7EF30E10326
:40198000021E8580F4021E859000A8E0FFEF6440706C900100E4F0900100E0FFEFD394085019900100E0FF74092FF582E43401F583E4F0900100E004F080DC900100E4F029
:4019C0009000A8E0FF900100E0FE74092EF582E43401F583EFF0900100E0FF74092FF582E43401F583E0FF90012BEFF07F0112356E9000AAE4F09000A9E4F0021E859000AC
:401A0000A8E0FFEF6445706C900100E4F0900100E0FFEFD394085019900100E0FF74092FF582E43401F583E4F0900100E004F080DC900100E4F09000A8E0FF900100E0FE6B
:401A400074092EF582E43401F583EFF0900100E0FF74092FF582E43401F583E0FF90012BEFF07F0112356E9000AAE4F09000A9E4F0021E859000A8E0FFEF6446706C900124
:401A800000E4F0900100E0FFEFD394085019900100E0FF74092FF582E43401F583E4F0900100E004F080DC900100E4F09000A8E0FF900100E0FE74092EF582E43401F583C4
:401AC000EFF0900100E0FF74092FF582E43401F583E0FF90012BEFF07F0112356E9000AAE4F09000A9E4F0021E859000A8E0FFEF6447706C900100E4F0900100E0FFEFD350
:401B000094085019900100E0FF74092FF582E43401F583E4F0900100E004F080DC900100E4F09000A8E0FF900100E0FE74092EF582E43401F583EFF0900100E0FF74092F4E
:401B4000F582E43401F583E0FF90012BEFF07F0112356E9000AAE4F09000A9E4F0021E859000A8E0FFEF6448706C900100E4F0900100E0FFEFD394085019900100E0FF74E0
:401B8000092FF582E43401F583E4F0900100E004F080DC900100E4F09000A8E0FF900100E0FE74092EF582E43401F583EFF0900100E0FF74092FF582E43401F583E0FF9040
:401BC000012BEFF07F0112356E9000AAE4F09000A9E4F0021E859000A8E0FFEF64507045900100E4F09000A8E0FF900100E0FE74092EF582E43401F583EFF0900100E00484
:401C0000F09000A97401F09000AE7402F07BFF7A5179BC1249691252A7EF30E103021E8580F4021E859000A8E0FFEF64517049900100E4F09000A8E0FF900100E0FE74098C
:401C40002EF582E43401F583EFF0900100E004F09000A97401F09000AE7402F0124AAE124CB27BFF7A5179BC1249691252A7EF30E1F9124CB2021E859000A8E0FFEF6455D8
:401C8000702F7BFF7A5179BC1249691252A7EF30E1F9124CB29000A8E0FF1247E41252A7EF30E1F99000AAE4F09000A9E4F0021E859000A8E0FFEFB40D289000AAE4F0908E
:401CC00000A9E4F09001057401F07BFF7A5179BC1249691252A7EF30E1F97F0112356E021E859000A8E0FFEF64DE706E900100E4F0900100E0FFEFD394085019900100E01D
:401D0000FF74092FF582E43401F583E4F0900100E004F080DC900100E4F09000A8E0FF900100E0FE74092EF582E43401F583EFF0900100E004F09000A97402F09000AE7428
:401D400003F07BFF7A5179BC1249691252A7EF30E103021E8580F4021E859000A8E0FFEF64DD70527BFF7A5179BC1249691252A7EF30E1F99000D0E0FEA3E0FFEEFF7E00F0
:401D8000900108EFF0124CB2900108E0FF1247E41252A7EF30E1F99000D0E0FEA3E0FF1247E41252A7EF30E1F99000AAE4F09000A9E4F0021E85900100E4F0900100E0FF4C
:401DC000EFD3941F5019900100E0FF74092FF582E43401F583E4F0900100E004F080DC9000A9E4F09000AAE4F07BFF7A5179C51249691252A7EF30E103021E8580F4021EA3
:401E0000859000A9E0FFEF607C9000A8E0FF900100E0FE74092EF582E43401F583EFF0900100E004F09000A9E014F09000A9E0FFEF704D9000AA7401F0900109E0FFEFB421
:401E4000DE439000D0E4F0A3E4F090010AE0FF7E009000D0EE8FF012361F9000D0E0FEA3E0FFEF7F00FE9000D0EEF0A3EFF090010BE0FF7E009000D0EE8FF012361F8005CC
:401E80009000AAE4F09000AAE0FFEF64016003021196900100E014FFF09000ABEFF09000AEE0FFEF14FF9000ACEFF09000AEE0FF9000ADEFF09000ADE0FFEFD394004036B2
:401EC0009000ABE0FF74092FF582E43401F583E0FF9000ACE0FE742B2EF582E43401F583EFF09000ABE014F09000ACE014F09000ADE014F080BF9000AAE4F07F0112356E85
:401F0000900100E004F0021196229000A0EEF0A3EFF09000A2E4F0A3E4F09000A0E0FEA3E0FFD3EF940FEE6480948040030220C39000A0E0FEA3E0FF74017E00A8070880A7
:401F400005C333CE33CED8F9FF9000A2EEF0A3EFF09000A2E0FEA3E0FFEEFF7E009000A4EFF090502CE0FFEF54FEFFEFF07F00124F639000A4E0FF124F639000A2E0FEA34E
:401F8000E0FF124F631250CEEF30E1F97F0F7E00124DF490502CE0FFEF4401FFEFF07F147E00124DF490502CE0FFEF54FEFFEFF07F01124F637F00124F637F00124F6312AF
:401FC00050CEEF30E1F97F0F7E00124DF490502CE0FFEF4401FFEFF07F147E00124DF490502CE0FFEF54FEFFEFF07F02124F637F00124F637F00124F631250CEEF30E1F90C
:402000007F0F7E00124DF490502CE0FFEF4401FFEFF07F147E00124DF490502CE0FFEF54FEFFEFF07F03124F637F00124F637F00124F631250CEEF30E1F97F0F7E00124D76
:40204000F490502CE0FFEF4401FFEFF07F147E00124DF490502CE0FFEF54FEFFEFF07F08124F637F00124F637F11124F631250CEEF30E1F97F0F7E00124DF490502CE0FFAC
:40208000EF4401FFEFF07F147E00124DF490502CE0FFEF54FEFFEFF07F0F124F637F00124F637F00124F631250CEEF30E1F97F0F7E00124DF490502CE0FFEF4401FFEFF043
:4020C0000227769000A0E0FEA3E0FFC3EF9410EE64809480500302228D9000A0E0FEA3E0FFD3EF941FEE64809480400302228D9000A074FF75F0F012361F9000A0E0FEA382
:40210000E0FF74017E00A807088005C333CE33CED8F9FF9000A2EEF0A3EFF09000A2E0FEA3E0FFEEFF7E009000A4EFF090502CE0FFEF54FEFFEFF07F00124F637F00124F2D
:40214000637F00124F631250CEEF30E1F97F0F7E00124DF490502CE0FFEF4401FFEFF07F147E00124DF490502CE0FFEF54FEFFEFF07F01124F639000A4E0FF124F6390001B
:40218000A2E0FEA3E0FF124F631250CEEF30E1F97F0F7E00124DF490502CE0FFEF4401FFEFF07F147E00124DF490502CE0FFEF54FEFFEFF07F02124F637F00124F637F005F
:4021C000124F631250CEEF30E1F97F0F7E00124DF490502CE0FFEF4401FFEFF07F147E00124DF490502CE0FFEF54FEFFEFF07F03124F637F00124F637F00124F631250CE2C
:40220000EF30E1F97F0F7E00124DF490502CE0FFEF4401FFEFF07F147E00124DF490502CE0FFEF54FEFFEFF07F08124F637F00124F637F12124F631250CEEF30E1F97F0F41
:402240007E00124DF490502CE0FFEF4401FFEFF07F147E00124DF490502CE0FFEF54FEFFEFF07F0F124F637F00124F637F00124F631250CEEF30E1F97F0F7E00124DF49032
:40228000502CE0FFEF4401FFEFF00227769000A0E0FEA3E0FFC3EF9420EE6480948050030224579000A0E0FEA3E0FFD3EF942FEE6480948040030224579000A074FF75F0A3
:4022C000E012361F9000A0E0FEA3E0FF74017E00A807088005C333CE33CED8F9FF9000A2EEF0A3EFF09000A2E0FEA3E0FFEEFF7E009000A4EFF090502CE0FFEF54FEFFEF87
:40230000F07F00124F637F00124F637F00124F631250CEEF30E1F97F0F7E00124DF490502CE0FFEF4401FFEFF07F147E00124DF490502CE0FFEF54FEFFEFF07F01124F63AD
:402340007F00124F637F00124F631250CEEF30E1F97F0F7E00124DF490502CE0FFEF4401FFEFF07F147E00124DF490502CE0FFEF54FEFFEFF07F02124F639000A4E0FF127A
:402380004F639000A2E0FEA3E0FF124F631250CEEF30E1F97F0F7E00124DF490502CE0FFEF4401FFEFF07F147E00124DF490502CE0FFEF54FEFFEFF07F03124F637F00124B
:4023C0004F637F00124F631250CEEF30E1F97F0F7E00124DF490502CE0FFEF4401FFEFF07F147E00124DF490502CE0FFEF54FEFFEFF07F08124F637F00124F637F14124F73
:40240000631250CEEF30E1F97F0F7E00124DF490502CE0FFEF4401FFEFF07F147E00124DF490502CE0FFEF54FEFFEFF07F0F124F637F00124F637F00124F631250CEEF301F
:40244000E1F97F0F7E00124DF490502CE0FFEF4401FFEFF00227769000A0E0FEA3E0FFC3EF9430EE6480948050030226219000A0E0FEA3E0FFD3EF943FEE648094804003B1
:402480000226219000A074FF75F0D012361F9000A0E0FEA3E0FF74017E00A807088005C333CE33CED8F9FF9000A2EEF0A3EFF09000A2E0FEA3E0FFEEFF7E009000A4EFF09E
:4024C00090502CE0FFEF54FEFFEFF07F00124F637F00124F637F00124F631250CEEF30E1F97F0F7E00124DF490502CE0FFEF4401FFEFF07F147E00124DF490502CE0FFEF46
:4025000054FEFFEFF07F01124F637F00124F637F00124F631250CEEF30E1F97F0F7E00124DF490502CE0FFEF4401FFEFF07F147E00124DF490502CE0FFEF54FEFFEFF07F2F
:4025400002124F637F00124F637F00124F631250CEEF30E1F97F0F7E00124DF490502CE0FFEF4401FFEFF07F147E00124DF490502CE0FFEF54FEFFEFF07F03124F63900046
:40258000A4E0FF124F639000A2E0FEA3E0FF124F631250CEEF30E1F97F0F7E00124DF490502CE0FFEF4401FFEFF07F147E00124DF490502CE0FFEF54FEFFEFF07F08124FA3
:4025C000637F00124F637F18124F631250CEEF30E1F97F0F7E00124DF490502CE0FFEF4401FFEFF07F147E00124DF490502CE0FFEF54FEFFEFF07F0F124F637F00124F6352
:402600007F00124F631250CEEF30E1F97F0F7E00124DF490502CE0FFEF4401FFEFF002277690502CE0FFEF54FEFFEFF07F00124F637F00124F637F00124F631250CEEF3011
:40264000E1F97F0F7E00124DF490502CE0FFEF4401FFEFF07F147E00124DF490502CE0FFEF54FEFFEFF07F01124F637F00124F637F00124F631250CEEF30E1F97F0F7E00B7
:40268000124DF490502CE0FFEF4401FFEFF07F147E00124DF490502CE0FFEF54FEFFEFF07F02124F637F00124F637F00124F631250CEEF30E1F97F0F7E00124DF490502CFD
:4026C000E0FFEF4401FFEFF07F147E00124DF490502CE0FFEF54FEFFEFF07F03124F637F00124F637F00124F631250CEEF30E1F97F0F7E00124DF490502CE0FFEF4401FF09
:40270000EFF07F147E00124DF490502CE0FFEF54FEFFEFF07F08124F637F00124F637F00124F631250CEEF30E1F97F0F7E00124DF490502CE0FFEF4401FFEFF07F147E00E5
:40274000124DF490502CE0FFEF54FEFFEFF07F0F124F637F00124F637F00124F631250CEEF30E1F97F0F7E00124DF490502CE0FFEF4401FFEFF07F0A7E007D007C00124647
:402780004E229000A0EEF0A3EFF09000A2E4F0A3E4F09000A0E0FEA3E0FFD3EF940FEE64809480400302293B9000A0E0FEA3E0FF74017E00A807088005C333CE33CED8F9C3
:4027C000FF9000A2EEF0A3EFF09000A2E0FEA3E0FFEEFF7E009000A4EFF090502CE0FFEF54FEFFEFF07F04124F639000A4E0FF124F639000A2E0FEA3E0FF124F631250CE8A
:40280000EF30E1F97F0F7E00124DF490502CE0FFEF4401FFEFF07F147E00124DF490502CE0FFEF54FEFFEFF07F05124F637F00124F637F00124F631250CEEF30E1F97F0F50
:402840007E00124DF490502CE0FFEF4401FFEFF07F147E00124DF490502CE0FFEF54FEFFEFF07F06124F637F00124F637F00124F631250CEEF30E1F97F0F7E00124DF49035
:40288000502CE0FFEF4401FFEFF07F147E00124DF490502CE0FFEF54FEFFEFF07F07124F637F00124F637F00124F631250CEEF30E1F97F0F7E00124DF490502CE0FFEF44C7
:4028C00001FFEFF07F147E00124DF490502CE0FFEF54FEFFEFF07F09124F637F00124F637F11124F631250CEEF30E1F97F0F7E00124DF490502CE0FFEF4401FFEFF07F1490
:402900007E00124DF490502CE0FFEF54FEFFEFF07F0F124F637F00124F637F00124F631250CEEF30E1F97F0F7E00124DF490502CE0FFEF4401FFEFF0022FEE9000A0E0FE32
:40294000A3E0FFC3EF9410EE648094805003022B059000A0E0FEA3E0FFD3EF941FEE648094804003022B059000A074FF75F0F012361F9000A0E0FEA3E0FF74017E00A80723
:40298000088005C333CE33CED8F9FF9000A2EEF0A3EFF09000A2E0FEA3E0FFEEFF7E009000A4EFF090502CE0FFEF54FEFFEFF07F04124F637F00124F637F00124F6312501A
:4029C000CEEF30E1F97F0F7E00124DF490502CE0FFEF4401FFEFF07F147E00124DF490502CE0FFEF54FEFFEFF07F05124F639000A4E0FF124F639000A2E0FEA3E0FF124F34
:402A0000631250CEEF30E1F97F0F7E00124DF490502CE0FFEF4401FFEFF07F147E00124DF490502CE0FFEF54FEFFEFF07F06124F637F00124F637F00124F631250CEEF3022
:402A4000E1F97F0F7E00124DF490502CE0FFEF4401FFEFF07F147E00124DF490502CE0FFEF54FEFFEFF07F07124F637F00124F637F00124F631250CEEF30E1F97F0F7E00AD
:402A8000124DF490502CE0FFEF4401FFEFF07F147E00124DF490502CE0FFEF54FEFFEFF07F09124F637F00124F637F12124F631250CEEF30E1F97F0F7E00124DF490502CE0
:402AC000E0FFEF4401FFEFF07F147E00124DF490502CE0FFEF54FEFFEFF07F0F124F637F00124F637F00124F631250CEEF30E1F97F0F7E00124DF490502CE0FFEF4401FFF9
:402B0000EFF0022FEE9000A0E0FEA3E0FFC3EF9420EE648094805003022CCF9000A0E0FEA3E0FFD3EF942FEE648094804003022CCF9000A074FF75F0E012361F9000A0E0D1
:402B4000FEA3E0FF74017E00A807088005C333CE33CED8F9FF9000A2EEF0A3EFF09000A2E0FEA3E0FFEEFF7E009000A4EFF090502CE0FFEF54FEFFEFF07F04124F637F009F
:402B8000124F637F00124F631250CEEF30E1F97F0F7E00124DF490502CE0FFEF4401FFEFF07F147E00124DF490502CE0FFEF54FEFFEFF07F05124F637F00124F637F0012FF
:402BC0004F631250CEEF30E1F97F0F7E00124DF490502CE0FFEF4401FFEFF07F147E00124DF490502CE0FFEF54FEFFEFF07F06124F639000A4E0FF124F639000A2E0FEA35D
:402C0000E0FF124F631250CEEF30E1F97F0F7E00124DF490502CE0FFEF4401FFEFF07F147E00124DF490502CE0FFEF54FEFFEFF07F07124F637F00124F637F00124F63121C
:402C400050CEEF30E1F97F0F7E00124DF490502CE0FFEF4401FFEFF07F147E00124DF490502CE0FFEF54FEFFEFF07F09124F637F00124F637F14124F631250CEEF30E1F964
:402C80007F0F7E00124DF490502CE0FFEF4401FFEFF07F147E00124DF490502CE0FFEF54FEFFEFF07F0F124F637F00124F637F00124F631250CEEF30E1F97F0F7E00124DDE
:402CC000F490502CE0FFEF4401FFEFF0022FEE9000A0E0FEA3E0FFC3EF9430EE648094805003022E999000A0E0FEA3E0FFD3EF943FEE648094804003022E999000A074FF02
:402D000075F0D012361F9000A0E0FEA3E0FF74017E00A807088005C333CE33CED8F9FF9000A2EEF0A3EFF09000A2E0FEA3E0FFEEFF7E009000A4EFF090502CE0FFEF54FED5
:402D4000FFEFF07F04124F637F00124F637F00124F631250CEEF30E1F97F0F7E00124DF490502CE0FFEF4401FFEFF07F147E00124DF490502CE0FFEF54FEFFEFF07F05121F
:402D80004F637F00124F637F00124F631250CEEF30E1F97F0F7E00124DF490502CE0FFEF4401FFEFF07F147E00124DF490502CE0FFEF54FEFFEFF07F06124F637F00124FBF
:402DC000637F00124F631250CEEF30E1F97F0F7E00124DF490502CE0FFEF4401FFEFF07F147E00124DF490502CE0FFEF54FEFFEFF07F07124F639000A4E0FF124F63900089
:402E0000A2E0FEA3E0FF124F631250CEEF30E1F97F0F7E00124DF490502CE0FFEF4401FFEFF07F147E00124DF490502CE0FFEF54FEFFEFF07F09124F637F00124F637F18B3
:402E4000124F631250CEEF30E1F97F0F7E00124DF490502CE0FFEF4401FFEFF07F147E00124DF490502CE0FFEF54FEFFEFF07F0F124F637F00124F637F00124F631250CE93
:402E8000EF30E1F97F0F7E00124DF490502CE0FFEF4401FFEFF0022FEE90502CE0FFEF54FEFFEFF07F04124F637F00124F637F00124F631250CEEF30E1F97F0F7E00124D33
:402EC000F490502CE0FFEF4401FFEFF07F147E00124DF490502CE0FFEF54FEFFEFF07F05124F637F00124F637F00124F631250CEEF30E1F97F0F7E00124DF490502CE0FF32
:402F0000EF4401FFEFF07F147E00124DF490502CE0FFEF54FEFFEFF07F06124F637F00124F637F00124F631250CEEF30E1F97F0F7E00124DF490502CE0FFEF4401FFEFF0BD
:402F40007F147E00124DF490502CE0FFEF54FEFFEFF07F07124F637F00124F637F00124F631250CEEF30E1F97F0F7E00124DF490502CE0FFEF4401FFEFF07F147E00124D1E
:402F8000F490502CE0FFEF54FEFFEFF07F09124F637F00124F637F00124F631250CEEF30E1F97F0F7E00124DF490502CE0FFEF4401FFEFF07F147E00124DF490502CE0FF6D
:402FC000EF54FEFFEFF07F0F124F637F00124F637F00124F631250CEEF30E1F97F0F7E00124DF490502CE0FFEF4401FFEFF07F0A7E007D007C0012464E221252827E387F72
:403000003D124EB27F01123595905021E0FFEF30E41090012AE0FFEF4480FF90012AEFF0800E90012AE0FFEF547FFF90012AEFF0905020E0FFEF30E41090012AE0FFEF44CA
:4030400040FF90012AEFF0800E90012AE0FFEF54BFFF90012AEFF0905063E0FFEF30E41090012AE0FFEF4420FF90012AEFF0800E90012AE0FFEF54DFFF90012AEFF0905036
:4030800062E0FFEF30E41090012AE0FFEF4410FF90012AEFF0800E90012AE0FFEF54EFFF90012AEFF0905003E0FFEF30E41090012AE0FFEF4408FF90012AEFF0800E9001F1
:4030C0002AE0FFEF54F7FF90012AEFF0905002E0FFEF30E41090012AE0FFEF4404FF90012AEFF0800E90012AE0FFEF54FBFF90012AEFF0905001E0FFEF30E41090012AE049
:40310000FFEF4402FF90012AEFF0800E90012AE0FFEF54FDFF90012AEFF0905000E0FFEF30E41090012AE0FFEF4401FF90012AEFF0800E90012AE0FFEF54FEFF90012AEF76
:40314000F090012AE0FFEF6488FF90012AEFF0905021E0FFEF30E41090012AE0FFEF4480FF900142EFF0800E90012AE0FFEF547FFF900142EFF0905020E0FFEF30E4109043
:40318000012AE0FFEF4440FF900142EFF0800E90012AE0FFEF54BFFF900142EFF0905063E0FFEF30E41090012AE0FFEF4420FF900142EFF0800E90012AE0FFEF54DFFF905A
:4031C0000142EFF0905062E0FFEF30E41090012AE0FFEF4410FF900142EFF0800E90012AE0FFEF54EFFF900142EFF0905003E0FFEF30E41090012AE0FFEF4408FF90014264
:40320000EFF0800E90012AE0FFEF54F7FF900142EFF0905002E0FFEF30E41090012AE0FFEF4404FF900142EFF0800E90012AE0FFEF54FBFF900142EFF0905001E0FFEF3050
:40324000E41090012AE0FFEF4402FF900142EFF0800E90012AE0FFEF54FDFF900142EFF0905000E0FFEF30E41090012AE0FFEF4401FF900142EFF0800E90012AE0FFEF5405
:40328000FEFF900142EFF0900142E0FFEF5477FF900142EFF0900142E0FFEF600302314F90012AE0FF900129EFF09044C37401F0900143E0FFEF701990501FE0FFEF54FE43
:4032C000FFEFF090501FE0FFEF4401FFEFF0023004900143E0FFEF6401600302300490501FE0FFEF54FEFFEFF090501FE0FFEF4401FFEFF002300422C2AF80FE32C0E0E53F
:40330000D0541864087003D0E032D0E01232FC85D00B75D008AAE0EC2422F8E6BC050274FFC39581B4140040CF7906781016E608700BC2AFE630E1034418F6D2AF08D9EDE1
:40334000EA8BD030000122D50DFCC0E0C0D0C0F0C083C082C000C001C002C003C004C005C006C007E50C232411F87440C2AF46F6D2AFD200E50CFF232411F80F0808BF063D
:40338000047F007811E630E4F200E50CC39F5020050C7421250CF8E6FDA68108E6AE0CBE050274FFCDF8E86D60E008E6C0E080F6E50CD39F4027E50C2422F8E6AE0CBE05DF
:4033C0000274FFFD18E6CDF8E5816D6006D0E0F61880F5E50C2421C8F6150C80D3750D05E50C232411F87F04C2AFE610E61E30E00310E20C7F0030E10730E3047F0854F480
:40340000547CC6D2AF54804207C20022F6D2AFD007D006D005D004D003D002D001D000D082D083D0F0D0D0D0E0C200227821A68174056006FF0876FFDFFB7F06E47810F6EC
:4034400008F608DFFA781176309051FB740193C0E0E493C0E0750D05D2AF2205EFD3940540037FFF2274112F2FF8E620E5F4C2AFE64430F6D2AFAE0CEEC39F50210E74211C
:403480002EF8E6F908E618BE050274FFFDED69600909E71919F7090980F3161680DAEED39F400405810581EED39F402274212EF808E6F9EEB50C02A981180606E6FDED699D
:4034C00060091919E70909F71980F31E80D9EF2421F8E604F8EF2F049051FB93F608EF2F93F67F0022EFD3940540037FFF22EF232411F8E630E5F4C2AFE6548CF6D2AFE55A
:403500000CB5070A74212FF8E6F581023372502E74222FF8E6BF050274FFFD18E6F974212FF8FBE6FCE96C6008A805E7F61D1980F4A803A6051FE50CB507E37F00227422E6
:403540002FF8E6FD1886010F74212FF8A601088604E50CB50702AC81ED6C60080D09A805E6F780F4E50CB507DE89817F0022EFD3940540037FFF22EF232411F8C2AFE630B3
:40358000E50530E002D2E4D2E2C6D2AF7F0030E2010F0233468FF0E4FFFEE50C232410F8C2A930F70D7F08E6600B2DF660325030800730F106EDF660277E020830F010C264
:4035C000AFE610E7250E30E20CD2AF7F048014C2AFE610E71554EC4EF6D2AFD2A90233727F0808EF4483F4C2AF56C6D2AFD2A954804FFF22BB010689828A83E0225002E7B1
:4036000022BBFE02E32289828A83E49322BB010689828A83F0225002F722BBFE01F322C5F0F8A3E028F0C5F0F8E582158270021583E038F022BB010A89828A83E0F5F0A364
:40364000E022500687F009E71922BBFE07E3F5F009E3192289828A83E493F5F074019322EF2BFFEE3AFEED39FDEC38FC22E88FF0A4CC8BF0A42CFCE98EF0A42CFC8AF0EDA7
:40368000A42CFCEA8EF0A4CDA8F08BF0A42DCC3825F0FDE98FF0A42CCD35F0FCEB8EF0A4FEA9F0EB8FF0A4CFC5F02ECD39FEE43CFCEAA42DCE35F0FDE43CFC2275F00875F6
:4036C0008200EF2FFFEE33FECD33CDCC33CCC58233C5829BED9AEC99E58298400CF582EE9BFEED9AFDEC99FC0FD5F0D6E4CEFBE4CDFAE4CCF9A88222B800C1B90059BA0082
:403700002DEC8BF084CFCECDFCE5F0CBF97818EF2FFFEE33FEED33FDEC33FCEB33FB10D703994004EB99FB0FD8E5E4F9FA227818EF2FFFEE33FEED33FDEC33FCC933C91071
:40374000D7059BE99A4007EC9BFCE99AF90FD8E0E4C9FAE4CCFB2275F010EF2FFFEE33FEED33FDCC33CCC833C810D7079BEC9AE899400AED9BFDEC9AFCE899F80FD5F0DA6A
:40378000E4CDFBE4CCFAE4C8F922EF4BFFEE4AFEED49FDEC48FC22E8600FECC313FCED13FDEE13FEEF13FFD8F122E8600FEFC333FFEE33FEED33FDEC33FCD8F122E0FCA3FF
:4037C000E0FDA3E0FEA3E0FF22E0F8A3E0F9A3E0FAA3E0FB22ECF0A3EDF0A3EEF0A3EFF022E0FBA3E0FAA3E0F922EBF0A3EAF0A3E9F022D083D082F8E493701274019370DB
:403800000DA3A393F8740193F5828883E4737402936860EFA3A3A380DFE50F2582F582E50E3583F583B50E0485820F2210AF0685820FF50E2285820FF50ED2AF22C0E0C071
:40384000F0C083C082C085C084C086758600C093759300C0D075D000C000C001C002C003C004C005C006C0079044CB7401F0905021E0FFEF30E41090012AE0FFEF4480FF7A
:4038800090012AEFF0800E90012AE0FFEF547FFF90012AEFF0905020E0FFEF30E41090012AE0FFEF4440FF90012AEFF0800E90012AE0FFEF54BFFF90012AEFF0905063E06D
:4038C000FFEF30E41090012AE0FFEF4420FF90012AEFF0800E90012AE0FFEF54DFFF90012AEFF0905062E0FFEF30E41090012AE0FFEF4410FF90012AEFF0800E90012AE07A
:40390000FFEF54EFFF90012AEFF0905003E0FFEF30E41090012AE0FFEF4408FF90012AEFF0800E90012AE0FFEF54F7FF90012AEFF0905002E0FFEF30E41090012AE0FFEF22
:403940004404FF90012AEFF0800E90012AE0FFEF54FBFF90012AEFF0905001E0FFEF30E41090012AE0FFEF4402FF90012AEFF0800E90012AE0FFEF54FDFF90012AEFF0909B
:403980005000E0FFEF30E41090012AE0FFEF4401FF90012AEFF0800E90012AE0FFEF54FEFF90012AEFF090012AE0FFEF6488FF90012AEFF090012AE0FFEF602190012AE0A9
:4039C000FFEF5477FFEF600A7F0312356E124F9480149044C37401F0124F948009124F949044C37401F0D007D006D005D004D003D002D001D000D0D0D093D086D084D085ED
:403A0000D082D083D0F0D0E0329000A0EEF0A3EFF09000A2EDF01252409000A4EFF01252369000A5EEF0A3EFF09000A5E0FEA3E0FF9000A0E0FCA3E0FDED6F7002EC6E7001
:403A400003023B9D9043A2E0FFEF5401FF9000A3EFF09000A4E0FFEF705E9000A5E0FEA3E0FFEF4E600C9000A0E0FEA3E0FFEF4E70469000A5E0FEA3E0FFEF4E701D7B0253
:403A80007A4079809000A0E0FCA3E0FD1251AF904082E0FFEF54BFFFEFF022904082E0FFEF4440FFEFF07B027A4079809000A0E0FCA3E0FD1251AF229000A3E0FFEF606C43
:403AC000904001E4F09040107401F0904014E4F0904008E0FFEF547FFFEFF0904082E0FFEF5408FF7E00EF4E600C9000A0E0FEA3E0FFEF4E70367B027A4079029000A5E0F1
:403B0000FCA3E0FD1251AF9040017407F0904001E0FFEF5401FF7E00EF4E70F19043A2E0FFEF54FEFFEFF0904001E4F09043A2E0FFEF5401FF7E00EF4E603A7B027A4079F8
:403B4000029000A0E0FCA3E0FD1251AF9000A2E0FFEF60047F0280027F00EF4401FF904001EFF0904001E0FFEF5401FF7E00EF4E602B80EF227B027A4079809000A0E0FCD6
:403B8000A3E0FD1251AF9043A2C083C082E0FF9000A3E0FEEF4EFFD082D083EFF0227B007A4679E8125207EF4401FD7B007A4679E8125213123FD07B017A5079031252070E
:403BC000EF4402FD7B017A5079031252137B017A507913125207EF4402FD7B017A5079131252139043A0E0FFEF4440FF9043A0EFF09043C2E0FFEF4410FF9043C2EFF07CE6
:403C0000717D127B007A5179007F0A7E00124E487C717D1C7B007A5179C27F087E00124E487C717D247B007A5179F27F087E00124E487C717D2C7B007A5179127F087E000A
:403C4000124E487C717D347B007A5179227F087E00124E487C717D3C7B007A5179307F0A7E00124E487C717D467B007A5179407F0A7E00124E487C717D507B007A51795005
:403C80007F0A7E00124E487C717D5A7B007A5179627F087E00124E487B017A0C79DB7D441252137B017A1A79DB7DA41252139044F47401F0904322E0FFEF4408FF90432209
:403CC000EFF09046ECE0FFEFC394055006904689743AF090480074C0F0123D169048007480F0124D577B007A4379A0C003C002C0017B007A4379B09000C61237EAD001D0B1
:403D000002D0037F0E7E00124D8D9043B0E0FFEF54FDFFEFF0227B007A4079807D007C001251AD9040827458F07B007A4079847D0B7C001251AD9040867418F07B007A4083
:403D400079887D647C001251AD90408A7418F07B007A40798C7D2B7C011251AD90408E7419F07B007A4079907DDB7C051251AD9040927419F07B007A4079947DDF7C2E1255
:403D800051AD9040967419F09043007402F09040007408F09042007403F07B0C7A0179081252079046A1EFF07B007A4279227D087C001251AD7B007A4279207D517C12120F
:403DC00051AD9000C5E4F07F197E007D007C009000C11237D59000C11237BDD3EF9400EE9400404E9000C5E0FFEF64036044904225E0FFEF5401FF7E009000C5E0FEEE2556
:403E0000E0FEEE4FFFEF5403FF9000C5EFF07FE07E017D007C00124B009000C11237BD7BFF7AFF79FF78FF1236609000C11237D580A39000C11237BDEF4E70057F0312505B
:403E4000BC7B007A4079047D007C011251AD9040047407F0904006E4F09040087448F0904004E4F09040017402F09043A2E0FFEF443FFF9043A2EFF02275930078007583CB
:403E8000467582E8E04401F0009046ECE0F99046FAE0FAB903225420B40012B8001AEA901FFFF07401901FFEF09046F6F0901FFEE06005901FFFE0FA90480074C0F07581D7
:403EC000269076BCE4F0A3F0A3F0A3F0907010F0907019F0907020F09076007410F0907604E4F0A3F0A3F0A3F09078007800087400F0A37408F0E8B8040274FFA3F0A37465
:403F000022F0A374BCF0A37476F0A3E4F0A3E81475F008A4F0A3B804D59070107401F0907014F0904880E0904888E09044D87402F07E707F18120004907010F0EA90013C8F
:403F4000F0020011750E1F750FFD123B9E023F8B02342CE493A3F8E493A34003F68001F208DFF48029E493A3F85407240CC8C333C4540F4420C8834004F456800146F6DF4B
:403F8000E4800B0102040810204080904847E47E019360BCA3FF543F30E509541FFEE493A360010ECF54C025E060A840B8E493A3FAE493A3F8E493A3C8C582C8CAC583CA3A
:403FC000F0A3C8C582C8CAC583CADFE9DEE780BE7F007E007D007C0090014A1237D59076007410F09070107401F0907019E4F07B027A7879007D987C021251AF90780274DA
:4040000001F090780374A3F07B027A787904C003C002C0017BFF7A6E797AAF01AE02AD037C00EF54FFFFEE54FFFEED5400FDEC5400FCAD07AC06D001D002D0031251AF7B07
:40404000027A7879067D087C781251AF7B027A7679047D107C001251AF7B027A7679067D007C001251AF9070397407F09070497411F0907059741BF09070147401F0907093
:4040800018E0FFEF5401FF7E00EF4E70F1907038E0FFEF5401FF7E00EF4E70F1907048E0FFEF5401FF7E00EF4E70F1907058E0FFEF5401FF7E00EF4E70F1222A2A2A230055
:4040C00056494348310056494348320049434D534C00464C59434800464753454C0053005500430045002A0023002A2A2A3F00535243454E00535243445300535243304519
:4041000000535231304500535232304500535235304500533130304500533230304500533530304500535243314B00535243324B00535243354B00535231304B00535232C0
:40414000304B00535235304B00533130304B00533230304B00533530304B00535243314D0053524558310053524558320053524558330053524558340053524558350053DB
:4041800052455836005352455837004641494C00C0E0C083C082C085C084C086758600C093759300C0D075D000C006C0079000CAE4F0A2AFE433FF9000CBEFF0D2AF904475
:4041C000F474FDF0906467E0FF9000C9EFF09000C9E0FFEF30E568906448E0FF900046E0FE74052EF582E43400F583EFF09000CA7401F09000CAE0FFEF6038900003E0FF07
:40420000EF60069000027401F0900046E004F0900046E0FFEFC394204005900046E4F0900004E0FF900046E0FEEEB507069000037401F0906467E0FF9000C9EFF0808F909E
:4042400000CBE0FFEF24FF92AFD007D006D0D0D093D086D084D085D082D083D0E0329000B5EFF0900047E0FF9000B6EFF0900025E0FF9000B7EFF09000B7E0FF9000B6E006
:40428000FEEEC39F50269000B7E0FF7E00EF24FFFFEE34FFFE9000B6E0FD7C00EFB50508EEB504047F0180027F0080189000B7E0FF9000B6E0FEC3EE9FFFEFB41F047F0173
:4042C00080027F00EF709C9000B6E0FF9000B7E0FEEEB5071490646CE0FFEF20E20B9000B5E0FF90644CEFF0229000B6E0FFEFC3942040059000B6E4F09000B5E0FF90007C
:40430000B6E0FE74262EF582E43400F583EFF09000B6E004F09000B6E0FF900047EFF022900092E4F07F01123595900105E0FFEF607E900100E0FFEF14FF900092EFF0908D
:404340000100E0FFEF701A7BFF7A4079BB1249691252A7EF30E1F990010AE0FF1247E480477BFF7A4079BB1249691252A7EF30E1F9900093E4F0900092E0FF900093E0FE0D
:40438000EED39F5023900093E0FF74092FF582E43401F583E0FF1247E41252A7EF30E1F9900093E004F080CE900105E4F00243257B017A01792B12001A02432522C0E0C088
:4043C00083C082C085C084C086758600C093759300C0D075D000C006C007A2AFE433FF9000CCEFF0D2AF9044F474FDF0900047E0FF900025E0FEEE6F603790646CE0FFEFBA
:4044000020E22E900025E0FFEFC394204005900025E4F0900025E0FF74262FF582E43400F583E0FF90644CEFF0900025E004F080BB9000CCE0FFEF24FF92AFD007D006D053
:40444000D0D093D086D084D085D082D083D0E032125251900004E0FF9000B1EFF0900046E0FF9000B2EFF0900003E0FFEF700E9000B2E0FF9000B1E0FEEE6F60459000B103
:40448000E0FF74052FF582E43400F583E0FF9000B0EFF09000B1E004F09000B1E0FFEFC3942040059000B1E4F09000B1E0FF900004EFF0900003E0FFEF6011900003E4F0AF
:4044C000800A906448E0FF9000B0EFF012524A9000B0E0FF229000A0EFF09000A1ECF0A3EDF09000A0E0FFEFD3941F5003D38001C340057F001250189000A0E0FFEF541FD0
:40450000FF7E00EF25E0FFEE33FEEF2400FFEE3444FEAA06A9077B011251A09000A3EEF0A3EFF09000A0E0FF7E02EF8EF0A4FFAEF0EF2400FFEE3444FEAA06A9077B0190E5
:4045400000A1E0FEA3E0FFAD07AC061251AF9000A3E0FEA3E0FF227FE87E037D007C0012464E124DC17D017F257E00123A091250961250A9124FEE12502D125057124F2B4B
:404580007F81124C41900146E4F0A3E4F012477F12471A905016E0FFEF4401FFEFF0905017E0FFEF4401FFEFF0905064E0FFEF4401FFEFF0124AAE124CB212506C12528916
:4045C00012528F12529512529B1252A17F0412356E7F001234E5227F0A7E007D007C0012464E124F0DEF3395E0FE900148EEF0A3EFF0905037E0FFEF5410FF7E00EF4E7072
:4046000014900148E0FEA3E0FFEE4401FE900148EEF0A3EFF090501EE0FFEF54FEFFEFF07F647E00124DF490501EE0FFEF4401FFEFF0900148E0FEA3E0FF124E6E12512E8C
:40464000EF30E2F97F647E00124DF4808A2290FFFC1238191237D5850E83850F821237BDD3EF9400EE9480402F90013D1237BD124B00850E83850F82C083C0821237BDEF84
:404680002400FFEE3480FEED34FFFDEC34FFFCD082D0831237D580BF9001331237BD850E83850F821237C912366D124B009000041238192290647EE0FFEF54F8FF90008B24
:4046C000EFF090008BE0FF90647EEFF090647EE0FFEF54FCFF90008BEFF090008BE0FF90647EEFF01251CA7F8012517E7F8012516E7F0012515E1252AD7F8012518E12503C
:404700000390008CEFF090649DE0FFEF4410FFEFF090008CE0FF124F7C22905016E0FFEF30E40B905016E0FFEF54FEFFEFF0905017E0FFEF30E40B905017E0FFEF54FEFF1F
:40474000EFF0905064E0FFEF30E40B905064E0FFEF54FEFFEFF0905065E0FFEF30E40B905065E0FFEF54FEFFEFF0905034E0FFEF30E40B905034E0FFEF54FEFFEFF02290AD
:404780005015E0FFEF30E40B905015E0FFEF54FEFFEFF0905014E0FFEF30E40B905014E0FFEF54FEFFEFF0905012E0FFEF30E40B905012E0FFEF54FEFFEFF0905013E0FF40
:4047C000EF30E40B905013E0FFEF54FEFFEFF0905011E0FFEF30E40B905011E0FFEF54FEFFEFF0229000BCEFF0900001E0FFEF605512525F900047E0FF900025E0FEEEB5DD
:40480000071590646CE0FFEF20E20C9000BCE0FF90644CEFF0802C900047E0FFEFC394204005900047E4F09000BCE0FF900047E0FE74262EF582E43400F583EFF0900047B9
:40484000E004F0125258224200D0000A4200ED00014201480000420146000041000100410025004100470041000400410046004100030041000200440138016E360044013C
:404880003300005DC04101371844013D2EE00000410150004101560041015100410157004101580041015900007F011235957F2A1247E41252A7EF30E1F97F2A1247E412BE
:4048C00052A7EF30E1F97F2A1247E41252A7EF30E1F97F2A1247E41252A7EF30E1F97F2A1247E41252A7EF30E1F97F2A1247E41252A7EF30E1F97F3F1247E41252A7EF30F9
:40490000E1F97F041234E580A0229000A0EFF09000A1EDF09000A1E0FFEFD394075003D38001C340057F001250189000A0E0FFEFD3941F5003D38001C340057F001250184F
:404940009000A1E0FFEF5407FF7E00EF75F020A4FFAEF09000A0E0FEEE541FFE74802EF582E43444F583EFF0229000B01237EA9000B3E4F0A3E4F0900001E0FFEF6042903E
:4049800000B01237E19000B3E0FEA3E0FFE92FF9EA3EFA1235F4FFEF60279000B01237E19000B3E0FEA3E0FFE92FF9EA3EFA1235F4FF12425E9000B3E475F00112361F80F7
:4049C000BE22C0E0C0F0C083C082C085C084C086758600C093759300C0D075D000C000C001C002C003C004C005C006C0077F0212356ED007D006D005D004D003D002D001EA
:404A0000D000D0D0D093D086D084D085D082D083D0F0D0E03290656AE0FFEF30E30B7B027A65795A1251A080EC12500390008BEFF090659AE0FFEF4403FFEFF090659AE024
:404A4000FFEF54FCFFEFF090659BE0FFEF4403FFEFF090659BE0FFEF54FCFFEFF090008BE0FF124F7C2290658B740FF09044C87404F07C527DBB7F021244D57D077F021252
:404A8000490A9044C87402F07C527DBC7F011244D57D077F0112490A124A1512512E12513E90648F7405F090658A7418F0221250039000B0EFF0906498E0FFEF4401FFEFC9
:404AC000F0906498E0FFEF54FEFFEFF09000B0E0FF124F7C125251900004E4F0900046E4F0900003E4F0900002E4F012524A22906566E0FFEF30E507906558E0FF80F022D9
:404B0000EC4D4E700D78FCEF24E950032840FD22000078C5904800E0C403035403904B479325E0240FF404FBEF28FF78FFEE38FEED38FDEC38FC50D7EF2BFFEE38FEED38B5
:404B4000FDEC38FC40F222050203047C417D907F031244D57D077F0312490A9064887476F09064877420F07C437DBD7F041244D57D077F0412490A90642F740FF090643FA3
:404B80007490F090648C7402F0221250039000A0EFF0906498E0FFEF4420FFEFF0906497E0FFEF4410FFEFF09044C07408F090649CE0FFEF4410FFEFF09044C07410F09036
:404BC00000A0E0FF124F7C2212500390008BEFF090659BE0FFEF4420FFEFF090649FE0FFEF4410FFEFF090659AE0FFEF4410FFEFF090008BE0FF124F7C9044C07404F090B3
:404C000044C07402F02212500390008BEFF0906597E0FFEF4420FFEFF0906598E0FFEF4410FFEFF0906596E0FFEF4410FFEFF090008BE0FF124F7C124FAB124DF31252B983
:404C40002290008BEFF090008BE0FFC3EF64809480401090008BE0FFEF2480FF90008CEFF0800E90008BE0FFEFF404FF90008CEFF090008CE0FF12516E221250039000A0B1
:404C8000EFF0906498E0FFEF54DFFFEFF0906497E0FFEF54EFFFEFF012525190649CE0FFEF54EFFFEFF012525F9000A0E0FF124F7C221250039000B0EFF090649CE0FFEF49
:404CC0004401FFEFF090649CE0FFEF54FEFFEFF09000B0E0FF124F7C12525F900025E4F0900047E4F012525822906566E0FFEF30E507906558E0FF80F012500390008BEFE2
:404D0000F0906598E0FFEF4401FFEFF0906598E0FFEF54FEFFEFF090008BE0FF124F7C22906476E0FFEF54C0FF9000A0EFF09000A0E0FFEF4409FF906476EFF0906596E029
:404D4000FFEF4401FFEFF07F011250FE7F0112510E7F0112511E227B0C7A0179CF1252079000C1EFF09000C1E0FFEF5407FF90586EEFF09000C1E0FFEFC4540FFFEF540F04
:404D8000FF90586FEFF09058767444F022758600EF4E6027EF60010E7593009000C6E0F595A3E0F585A3E0F5848B938A838982E0A30586F0A31586DFF6DEF4E4F593F595A9
:404DC000229044C87401F07B027A447900C003C002C0017BFF7A3279FDAC02AD01D001D002D0031251AF904480E4F09044C07401F0223222EEFA900137E0F88FF0A4FFAE27
:404E0000F0E88AF0A42EFEE5F03400FDEF24C9FF78FFEE38FEED38FDE438FC5003024B00221250039000A0EFF0906598E0FFEF4401FFEFF0906598E0FFEF54FEFFEFF090CB
:404E400000A0E0FF124F7C22758600EF4E601BEF60010E8C838D828B958A858984E493A30586F0A31586DFF5DEF3E4F595229000BFEEF0A3EFF090646FE0FFEF30E1F77BDE
:404E8000027A65794A9000BFE0FCA3E0FD1251AF227F0F12514E12500390008BEFF090649EE0FFEF4410FFEFF090008BE0FF124F7C229000B8EEF0A3EFF012527B9000B877
:404EC000E0FEA3E0FF124EEF7F01124FD81252742290008BEEF0A3EFF07B027A44790A90008BE0FEA3E0FFAD07AC061251AF229000BAEEF0A3EFF07B027A4479129000BA48
:404F0000E0FEA3E0FFAD07AC061251AF2212522B9000C0EFF09000C0E0FF7E00EF2480FF9000BFEFF09000BFE0FF221250817F8012516E900157E0FFEF70091252BA90016B
:404F4000577401F0124E9122906587740FF0124CE91250CE1250DE906588E4F09065867430F0229000A5EFF0906568E0FFEF30E2F79000A5E0FF906548EFF022EF540160FC
:404F800004D2AF8002C2AFEF5402FF9044F4E054FD4FF022904585E0FFEF5404FF7E00EF7802CEC313CE13D8F9FF229043A2E0FFEF4402FFEFF09043B2E0FFEF4402FFEF10
:404FC000F02290008BEFF090008BE0FFEFC43354E0FF904485EFF0229000BAEFF09000BAE0FFEFC43354E0FF904489EFF022900001E0FFEF7009124B4B9000017401F012E7
:405000004B8A229044F4E0F84402F0E85402FF10AF012274014FFF2290FFFF123819EFF09046EA7401F090000112381922900150E0FFEF7009124F489001507401F0124C1F
:405040000622900156E0FFEF7009124D209001567401F01251E322900151E0FFEF7009124A669001517401F0124BC82290656AE0FFEF30E30B7B027A65795A1251A080EC45
:4050800022900158E0FFEF70091246B49001587401F012521F2212526D7E497FC2124ED17F02124FC21252662212527B7E4D7FF2124EEF7F01124FD8125274229000C6EFA3
:4050C000F09000C6E0FF9000C6EFF080FE22906568E0FF9000A5EFF09000A5E0FF22906566E0FF9000A0EFF09000A0E0FF22906558E0FF9000A0EFF09000A0E0FF229000BA
:40510000A1EFF09000A1E0FF906506EFF0229000A1EFF09000A1E0FF906546EFF0229000A1EFF09000A1E0FF906526EFF02290646FE0FF9000BFEFF09000BFE0FF22906596
:405140006AE0FF90008BEFF090008BE0FF2290008CEFF090008CE0FF90648EEFF02290008DEFF090008DE0FF90648DEFF02290008DEFF090008DE0FF90640AEFF022900056
:405180008DEFF090008DE0FF90642AEFF02290008DEFF090008DE0FF90643AEFF0228B938A838982E0FFA3E0FE759300228B938A838982EDF0A3ECF0759300222A2A2A2324
:4051C000002A0023002A2A2A3F001252ADEF30E6051252B380F4229046F6E0FFEF4401FFEFF022906476E0FFEF4480FFEFF022906476E0FFEF547FFFEFF0224557432011E7
:40520000822FFA48A945D78B938A838982E0759300FF228B938A838982EDF07593002290647EE0FFEF4480FFEFF02290640AE0FF90644AE0FF227B027A4079801251A022C5
:40524000904082E0FFEF5407FF229044C07408F0229044C87408F0229044C07410F0229044C87410F0229044C07420F0229044C87420F0229044C17402F0229044C974023E
:40528000F0229044D97402F0227F0112345C227F0212345C227F0312345C227F0412345C227F0512345C2290646CE0FF2290646DE0FF2290644AE0FF22222232322000007F
:4052C000000F00000000000004000000080000000000000000000300002001000006000000000000E0000000000000CC00FF3F00000000000000000200000000009A0001E2
:4053000000000000011B0480002000C0009B00000304001A009B0000002400C8009B00000002006400E40010000000010000011E040102E000000088000000100400000012
:405340000000000000000000000000000000008000000000000404000441400001000000000000000000000000000000000000000000000000000000000000000001030E0D
:4053800010E780180C1E0401002343DC3CDD002233004CD033C64F393000800000000000009008000050020020007D3F00E03F1FC01040000000080A0200000010000000FA
:4053C00000000000000000000000000000000000001A000400040400040000000100000000000000000000000000000000000000000000000000000000000000000004007E
:40540000004762381D4946360000468000240F122038420704000040105B422400004200046D01125A6D0412420000000000003F18C0650007000000200000000056010306
:4054400000020E0C0005FFFFFF62A0F0410C0000000000021304040404100000010000000000004002001030100010101200000000000000000000000000000000000100D4
:40548000003000C90000000F0000000000FD00020073000000000000009E006000000000000000000094006000CF003003FF0200000001000000000000000001100000006B
:4054C0000000000000000000000000000000000000000008000404000420200001000000000000000000000000000000000000000000000000000000000000000000000057
:405500000000030000001D000002040008000000100000001C0000000000030300000000200010000000040008001C00000102003C0001020000220000000040106203009A
:4055400000004EC3021FFFFFFF00A000011800000000000000040404003303000140008000404080004000800040208000000000000000000000000000000000000009088F
:4055800010002000400000001000200040051C00020010000C000C08110080070300600000001401000020004000200040020001600480081F000000000000541000000076
:4055C0000000000000000000000000000000000000000008000404000402200001000000000000000000000000000000000000000000000000000000000000000000000074
:40560000000000000023080C00090020000058000200322E440032000C1000000000000000030024012300046E000000012030104C0F01100E0002208800004111310200F7
:405640000000EC000B13FFFFFF0000F0440C000000010004000404040400000001000000000000C000000040020000000000000000000000000000000000000000000000CB
:405680000C02080004000000000002000000000000000000000000030000000003000000000000000000000000000000000201000201080004000000000000015400000061
:4056C00000000000000000000000000000000000000F0000000404000433300005000000000000000000000000000000000000000000000000000000000000000085004260
:40570000000203E40000000008000019008706200000000000080000000000000066068100E30000000600200000050800070008081007E400002000000000040000000071
:4057400000000000000000000000000000000080000F0004000404000433300001000000000000000000000000000000000000000000000000000000000000000001000223
:40578000000100060000020001000100020001000601000A00020101020000000000000000000000000000100000000008040008080303100400002020000000000100003D
:4057C00000001050000AFF0FFF4020F0050800000041000400040404043320000140A8402000000000000000000000000000000000000000000000000000000000000000E4
:40580000000013002C00000000000000001C65001A0002000D064909060B001400004000000000000008001300000000001E000070010F000002000028000010003005009A
:40584000000001020005FFFFFF00A00004180000004000000004040404111400014000C0004040C000C000C000C000C0000000000000000000000000000000000000004071
:40588000000000010000008800101D0060F30004750000307D201D00600F00F000011400213F00C0023510CA400060CE1C0004FF03347000080080002800000400000000EF
:4058C0000000000000000000000000000000000000000002240404000400100001000000000000000000000000000000000000000000000000000000000000000000600005
:405900000000560909048000040000000000070038000A01100001020000040000040400800484000000840000008400000400087F030000800008000000001140630450E0
:405940000002CEF0BD3BFFFFFF2200F008040000000900000004040404101100010000C00040011011C00100114001400100000000000000000000000000000000000000A3
:4059800000000300FC007700000000000000CC0023030000000085001A00CA001500000000000001000000000000BF004000F002000000010F0000000000004400000000BB
:4059C0000000000000000000000000000000000000000008000404000430200001000000000000000000000000000000000000000000000000000000000000000000000042
:405A0000000000000000000000000001000000000000000000000000000000000000010000000000000000000000000000000000000000010100000000000000400102100F
:405A4000000600000000FFFFFF0200700C8C10000020000400040424040828002100000000000000004001C001000000000000000000000000000000000000000000000062
:405A80000003C31C0824C3DB1000000002924349A0E0001C001C00E3006D00920000C30004B6004900B60049010000003C0001003E0080FF400000000000004055010310C7
:405AC0000002FBE0CD3BFFFFFF2300F00C8C10000000000228040424240088083100000000000000004001C0010000000000000000000000000000000000000000000000CC
:405B000000000000000000000000000000000000000000003A760000000F6F0F4700000000000000000000000000000000000000000000000F0000780F000000001F00002C
:405B40000000000000000013000F0000001F00000000000000000013000F000D00000000000002000000000000000001000000400010000000000000000000000000000062
:405B800000000000000000000000000000000000000000000000000000000000000000000000000000000000000000000000000000000000000100002001000000000000C3
:405BC0000000000000000000000000000000000000000000000000000000000000000000000000000010004000000200000100000000000100010000200000000000000030
:405C00000000000000000000000000010004000200000000000000000000000000040001000C00000000000000000000000000000001000300000000000000000000000642
:405C4000000000010000000000010004000000000000000000000000000000000000000200000000000000000000000000000000000000000000000000000000000000001C
:405C800000000000000000000000000000000000000000000000000000000000000000000000000000000000000000000000000000000000000400000000000000000000E0
:405CC0000000000000000000000000000000000000000000000000000000000000000000000100000000000000000000000100000000000000000000200000000000000082
:405D0000000000000000000000000000000000000000000000000000000000000002000000000000000000000000000000000000000000020000000000000000000000005F
:405D40000000000000000000000000000000000000000000000000000000000000000000000000000000000000010000000000000000000000000000200000000000000002
:405D800000000000000000000000000000000000000000000000000000000000000000000000000000000000000000000000000000000000000000000000000000000000E3
:405DC000000800000000000000000000000000000000000000000000000000000000000000000000000000000000000020000000000000000000000000000000000000007B
:405E00000000000000000000000000000000000000000000000000000000000000000000000000000000000000000000000000000000000000000000000000000000000062
:405E4000000800000000000000000000000000000000000000000000000000000000000000000000000000000000000000000000000000000000000000000000000000001A
:405E800000000000000000000100000000000000000028000000000000000000000000000000000000000000000000000000000000000000000000000000000000000000B9
:405EC00000000000000000000000000A000000000000000000000000000000000000000000000000000020000000080001000000000000000000000000000000000000006F
:405F00000000000000000000000000000000000000000000000000000000000000000000000000000000000000000000000000000000000000000000000000000000000061
:405F40000000000000000000000000000000000000000000000000000000000000000000000000000000000000000000000000000000000000000000000000000000000021
:405F800000000000000000000000000000000000000000000000000000000000000000070000000000000000000000000000000000000000000000000000000000000000DA
:405FC000000000000000000000000000000000000000000000000000000000000080000000200800000000000000006A0000000000000000140080000000400000010000BA
:40600000000080086800020000009000880000000000000001000000008000140000800800108000200000080000020004000000000000220800020000000000001500003A
:4060400040100408000000000000001481000000000000000000080000000000500000000040100040000400500008000034004000000000240004001440482248400015F4
:40608000000000000012000000140010204000010000C0000800000000000000006100F000600000000000B100800070007C000400000001004F0000000000C2000000405D
:4060C00000000000004000080000000000000000000000000000000000000000000000000000000000000000000000800000000000000000000000000000000000000000D8
:40610000000000800000000000012002200000000000100000000000000000000000000000000000000000000000000000000000000000000000000000000000000000008C
:40614000000000020002000000020008000000000000000000000000000000000000000000002800000100802000002800000000040000100100040100002000290000427B
:4061800000020000220100000020021002008022000000882100000410002A0000000000000404100100000000052408020000000010010800400000000054000202000000
:4061C00000000000020000000000000000000000000000000000000000000000000810010010000820A050000B080210002C004010000010000000041519C823400080B519
:40620000008864020110000040010000010000800000000000000000000000000060006400340000000000F800FD00E600E00030000000F80018000000000000004200A0C8
:4062400000B00000008000000000000000000000000000000000000000000000000A0000090000000010484000000082040200A80000000020002400000010800000602DB2
:40628000000400002000040209000000800220040008000120400000000000000400000000000000080000000000000088000000000000004000000000000000000C0000BC
:4062C0000006000020504204040000000040000000000000000000000000000000002000040600000054000080414080004000402402820E0010000009020082240248015D
:4063000009012020040000084040001004004000008000000000000000000000000F00DF004F00000000008F00E700480040001000000000007400000000000000050008E7
:40634000000000020004001200000008000000000000000000000000000000000028002000204800000180011000006A0000200600000000140001000000002800040100E9
:4063800000080000210200000088000800000000000800802100020000008810020000000010200100000000002040080000000000000040000000004000020000020000C0
:4063C000000000000000000000001046940000000001201000000000000000000000020000000010000020000004400820000001100010440000000000118162001410085F
:4064000000200002C0000000100000000020000200000880000000000000000000E600FD00630000000000E800F000F1007000300000008800080000000000000040003011
:406440000000000000400000001000000000000000000000000000000000000000420020080240000400084800000126001A000000020090200010400900402010400C18AC
:4064800000000004481000000900000000422004000001000040280200408020080000000000000000000000000000000000000000000000000010020000000000840040E8
:4064C000000000000000000000000000000000000000010000000000000000000000001000081000011000000040000100040000000080000000006000000000000200003B
:406500000000000400020000000000000000000000004004000000000000000000DF00FE00F700000000000E008F006F0000000000000005000D000000000000000000021D
:40654000000400000000000400000000000000000000000000000000000000000008000022000040000000000210008001042000000000100000400002000080582405049B
:4065800000000088140501002000104880800006000000842100A00018020004A004440100000000000804000200000000802000040000000000000000208000000000001D
:4065C00000080010010000000000000000000000000000000000000000000000000000000000000040000000480000000400200100000A006800000821094CA0000D100424
:4066000010A02002000000000800000000000100000000000000000000000000001100D100200000000000FF00FB00FE00060004000000300030000000000000000000001B
:406640000000000000000000000000800000000000000000000000000000000000000000000000400000000000000000000400000000000000000020000000000000000036
:4066800000000000000400000000000000000020000000000000000000000000000000000000000000000000000000000000000000000000000000000000000000000008AE
:4066C000000000000000000400000000000000000000000000000000000000000004000000001000011000000800002002000000002004002004010000009068084000546A
:40670000000000006900000000200080088000000000000425400A00002000002000000000008000240000000000050000000000000000080010410800200940000024007E
:40674000000002000000000000000000000000000000000000002000000000000000000000000000000100100000000000002001000000A06000000000090220401C10002E
:406780000100000200000200000000000000000000100080000000000000000000C400A2006000000000007000E8002B00700000000000FF00860000000000040000000002
:4067C0000000000000000001000000000000000000000000000000000000000000000000000000000000000000000000000000000000000000000000000000000000000098
:406800000000000000000000000000000000000000000000000000000000000000000000000000000000000000000000000000000000000000000000000000000000000058
:4068400000000000000000010000000400000000000000000000000000000000000800008200050000000204000004080002202002000000200000158208050A0004142028
:406880000800500020010000800800900000020200000001202400000000A000000000000020002040000000000000000200000000100000000100A00A2800004080000039
:4068C00000000000A0000000000000000002000000000000000000000000000000800000000000004000000000000000000000000000000000000000000000000000000036
:4069000000000000000000000000000000000000000000000000000000000000003D006A004F00000000001900A10036001000000000007F00C10000000000000000000021
:406940000000000000000000000000000000000000000000000000000000000000000000000000000000000000000000000000000000000000000000000000000000000017
:4069800000000000000000000000000000000000000000000000000000000000000000000000000000000000000000000000000000000000000000000000000000000008CF
:4069C0000000000100000000000000000000000000000000000000000000000000000000000000000000000000000000000000000000000000000000000000000000008016
:406A000000000000000000000000000000000000000000000000000000000000000000000000000000000000000000000000000000000000000000008000000000000000D6
:406A40000000000000000000000000000000000000000000000000000000000000000000000000200000000000000000000000000000000000000000800000000000000076
:406A8000000000A0000000000000000000000000000000000000000000000000000000000000000000100000000000000000000000800000000000000000000000000000A6
:406AC00000000040000000000000000000000000000000000000000000000000000000000000000000000000000000000000000000000000000000008000000000000000D6
:406B0000000000A0000000000200000000000000000000010000000000000000000000000000000000000000000000000000000000000000000000000000000000000000B2
:406B40000000000000000000000000800000000000000000000000000000000000000000000000000000000000000000000000000000000000000000800000000200000013
:406B8000000000A100000000000000000000000000000000000000000000000000000000000000000000000000000000000000000000000000000000000000000000000034
:406BC0000000000000000000000000000000000000000000000000000000000000000000000000000000000000000000000000000000000000000000800000000200000013
:406C0000000000A1000000000000000000000000000000000000000000000000000000000000000000000000000000000000000000000000000000000000000000000000B3
:406C40000000000000000000000000000000000000000000000000000000000000000000000000000000000000000000000000000000000000000000000000000000000014
:406C80000000000000000000000000000000400000002000000000000000000000000000000000000000400100000000000000000000000000000000000000000200000031
:406CC00000000000000000000000000000000000000000000000000000000000000000000000000000000000000000000000000000000000000020008000000000000000F4
:406D0000000000A100400000800000000000000000000000000000000000000000000000000000000000000000300000000000000000008000000000000000000000000042
:406D40000000000000000080000000200000000000000000000000000000000000000000000000000000000000000000000000000000000000000000000000000000000073
:406D800000000000000000000000000000020080000000210040000000000000000000000000000000000000000000000000000000000000000000000000000000000000F0
:406DC0000000000000000000000000000000000000000000000000000000000000002000000200000000000000000000000000000000000000000000000000000000000071
:406E00000000000000000000000000000000000000000000000000000000000000000000000000000000000000F00010000000000000000000000000000000000000001042
:406E400000000080000000000000000000000000000000000000000000000000000100000000000100010000001000000001000000100001000100000001000823026E5D73
:406E80007610000823036E657618000823046E6D7620000523056E757030000523066E757040000523FE6E75705001802208014A000001802209014A02000180220A014AFC
:406EC00004000180220B014A14000080220C014A42000080220D014A43000080220E014A45000080220F014A460000802210014A4700008022FE014A48000007231252BDC5
:406F000052000007231352C452080007231452CB52180007231552D252200007231652D952280007231752E052300006231852E752600008231952F545280020231A5AFD06
:406F40006470002023FE5B1D65700008231C52ED51000080231D52FD06000080231E537D06800080231F53FD080000802320547D08800080232154FD0A0000802322557DC0
:406F80000A800080232355FD0C0000802324567D0C800080232556FD0E0000802326577D0E800080232757FD160000802328587D16800080232958FD18000080232A597D63
:406FC00018800080232B59FD1A000080232C5A7D1A800010232D5B3D50100010232E5B4D50000080232F5B5D4D00008023305BDD4D80008023315C5D4C00008023325CDD34
:407000004C80008023335D5D4780008023345DDD4680008023355E5D4580008023365EDD4400008023375F5D4480008023385FDD1B0000802339605D1B800080233A60DDCC
:4070400015800080233B615D19000080233C61DD19800080233D625D17000080233E62DD17800080233F635D09000080234063DD098000802341645D07000080234264DD7A
:40708000078000802343655D0B000080234465DD0B8000802345665D05800080234666DD0D0000802347675D0D800080234867DD038000802349685D0F000080234A68DD9A
:4070C0000F800080234B695D01800080234C69DD49000080234D6A5D49800080234E6ADD48800080234F6B5D4380008023506BDD4280008023516C5D4100008023526CDD18
:407100004180008023536D5D4000008023FE6DDD408008000728200020000000CC303000000000000020200000000000048080008000000000FEFE0000000000C00000FCC4
:407140003C00080000000200010200000000000010008671710061000000E018180000000000000000000000000000000000000000000000000000000000000000000000DD
:4071800000000000000000000000000000000000000000000000000000000000000000000000000000000000000000000000000000000000000000000000000000000000CF
:4071C000000000000000000000000000000000000000000000000000000000000000000000000000000000000000000000000000000000000000000000000000000000008F
:40720000000000000000000000000000000000000000000000000000000000000000000000000000000000000000000000000000000000000000000000000000000000004E
