:40000000023A94008F828E83E0540100000070F82278FFE4F6D8FD023B5F9000941233E912474B1246C99000941233E01231F3FFEF1233F200C303010806012C0902650A16
:4000400003040B03870C040A10042611043F1C04F640050F45060D4607324707534807745008EF510074F1008DF200E7FC1108FF0000118812439A7BFF7A3C79DB12458439
:40008000124ED2EF30E10302118880F42212439A905015E0FFEF4401FFEFF07F647E001249FC905014E0FFEF4401FFEFF07BFF7A3C79E1124584124ED2EF30E10302118833
:4000C00080F42212439A905012E0FFEF4401FFEFF07BFF7A3C79E7124584124ED2EF30E10302118880F422905011E0FFEF4401FFEFF07BFF7A3C79ED124584124ED2EF3023
:40010000E10302118880F42212439A905013E0FFEF4401FFEFF07BFF7A3C79F3124584124ED2EF30E10302118880F42290501CE0FFEF4401FFEFF090501DE0FFEF4401FFFE
:40014000EFF09000EDE0FEA3E0FFE4FCFD124269900095E475F00112321E9000941233E01231F3FF7E00121E0790010AE0FF9000D2EFF09000EDE0FEA3E0FFE4FCFD12425C
:4001800069900095E475F00112321E9000941233E01231F3FF7E0012267F90010BE0FF9000D4EFF09000FBE0FF9000D6EFF0900102E0FF9000D8EFF09000EBE0FF9000DA68
:4001C000EFF09000F3E0FF9000DCEFF09000F8E0FF9000DEEFF0900106E0FF9000E0EFF09000D0E0FEA3E0FFE4FCFD1242697BFF7A3C79F9124584124ED2EF30E1F97BFF7E
:400200007A3C79FB124584124ED2EF30E1F97BFF7A3C79FD124584124ED2EF30E1F97BFF7A3C79FD124584124ED2EF30E1F97BFF7A3C79FF124584124ED2EF30E1F97BFF0E
:400240007A3C79F9124584124ED2EF30E1F97BFF7A3C79F9124584124ED2EF30E1F912474B1246C9227BFF7A3C79D6124584124ED2EF30E1F9124A2990502CE0FFEF54FE8B
:40028000FFEFF07F15124B6B7F15124B6B7F15124B6B124CF9EF20E10A124D19900098EFF080EF7F0E7E001249FC90502CE0FFEF4401FFEFF07F057E001249FC124D09EFFE
:4002C0007003021188124D19900098EFF0900098E0FFEFB4150C900098E0FF900097EFF08005900097E4F0900097E0FF1243FF124ED2EF30E1F9124CE8900097E4F09000C3
:4003000098E4F022900095E475F00112321E90501CE0FFEF4401FFEFF090501DE0FFEF4401FFEFF09000EDE0FEA3E0FFE4FCFD1242699000941233E01231F3FF7E00121EE0
:40034000077BFF7A3D7901124584124ED2EF30E1F97BFF7A3D7901124584124ED2EF30E1F97BFF7A3D7901124584124ED2EF30E1F97BFF7A3D7903124584124ED2EF30E1A9
:400380000302118880F422900095E475F00112321E90501CE0FFEF4401FFEFF090501DE0FFEF4401FFEFF09000EDE0FEA3E0FFE4FCFD1242699000941233E01231F3FF7EEA
:4003C0000012267F7BFF7A3D7901124584124ED2EF30E1F97BFF7A3D7901124584124ED2EF30E1F97BFF7A3D7901124584124ED2EF30E1F97BFF7A3D7903124584124ED279
:40040000EF30E10302118880F422124C4A124E0E7BFF7A3C79D6124584124ED2EF30E10302118880F422124E1A7BFF7A3C79D6124584124ED2EF30E10302118880F42290E8
:400440000095E475F00112321E9000941233E01231F3FFEF600E9000941233E01231F3FFEFB401259000941233E01231F3FF900143EFF07BFF7A3C79D6124584124ED2EF6D
:4004800030E10302118880F4229000941233E01231F3FFEFB40F167BFF7A3C79D6124584124ED2EF30E10302118880F422900100E4F0900100E0FFEFD3941F5019900100AD
:4004C000E0FF74092FF582E43401F583E4F0900100E004F080DC9000FEE4F09000F9E4F07BFF7A3D7905124584124ED2EF30E10302118880F42212439A7BFF7A3C79D612A5
:400500004584124ED2EF30E10302118880F4227BFF7A3C79D6124584124ED2EF30E1F99000F0E4F0905015E0FFEF30E4109000F0E0FFEF4401FF9000F0EFF0800E9000F0CD
:40054000E0FFEF54FEFF9000F0EFF0905014E0FFEF30E4109000F0E0FFEF4402FF9000F0EFF0800E9000F0E0FFEF54FDFF9000F0EFF0905012E0FFEF30E4109000F0E0FF57
:40058000EF4404FF9000F0EFF0800E9000F0E0FFEF54FBFF9000F0EFF0905013E0FFEF30E4109000F0E0FFEF4408FF9000F0EFF0800E9000F0E0FFEF54F7FF9000F0EFF0BB
:4005C000905011E0FFEF30E4109000F0E0FFEF4410FF9000F0EFF0800E9000F0E0FFEF54EFFF9000F0EFF09000F0E0FFEF541FFF9000F0EFF01246C99000F0E0FF1243FFA8
:40060000124ED2EF30E10302118880F4227BFF7A3C79D6124584124ED2EF30E1F99000F0E4F0905016E0FFEF30E4109000F0E0FFEF4401FF9000F0EFF0800E9000F0E0FFB5
:40064000EF54FEFF9000F0EFF0905017E0FFEF30E4109000F0E0FFEF4402FF9000F0EFF0800E9000F0E0FFEF54FDFF9000F0EFF0905064E0FFEF30E4109000F0E0FFEF44AD
:4006800004FF9000F0EFF0800E9000F0E0FFEF54FBFF9000F0EFF0905065E0FFEF30E4109000F0E0FFEF4408FF9000F0EFF0800E9000F0E0FFEF54F7FF9000F0EFF09050BB
:4006C00034E0FFEF30E4109000F0E0FFEF4410FF9000F0EFF0800E9000F0E0FFEF54EFFF9000F0EFF0905033E0FFEF30E4109000F0E0FFEF4420FF9000F0EFF0800E900024
:40070000F0E0FFEF54DFFF9000F0EFF09000F0E0FFEF543FFF9000F0EFF01246C99000F0E0FF1243FF124ED2EF30E10302118880F422905033E0FFEF4401FFEFF07BFF7AF9
:400740003D790A124584124ED2EF30E10302118880F422905033E0FFEF54FEFFEFF07BFF7A3D7910124584124ED2EF30E10302118880F422900095E475F00112321E90000B
:40078000941233E01231F3FFEF640170251248BB7D017F9B7E00123624124BF67BFF7A3C79D6124584124ED2EF30E10302118880F4229000941233E01231F3FFEF64027075
:4007C000251248BB7D017F4D7E00123624124BF67BFF7A3C79D6124584124ED2EF30E10302118880F4229000941233E01231F3FFEF640370251248BB7D017F257E00123612
:4008000024124BF67BFF7A3C79D6124584124ED2EF30E10302118880F4229000941233E01231F3FFEF640470251248BB7D017F197E00123624124BF67BFF7A3C79D61245D9
:4008400084124ED2EF30E10302118880F4229000941233E01231F3FFEF640570251248BB7D017F0C7E00123624124BF67BFF7A3C79D6124584124ED2EF30E103021188801E
:40088000F4229000941233E01231F3FFEFB40F167BFF7A3C79D6124584124ED2EF30E10302118880F422900100E4F0900100E0FFEFD3941F5019900100E0FF74092FF582D6
:4008C000E43401F583E4F0900100E004F080DC9000FEE4F09000F9E4F07BFF7A3D7905124584124ED2EF30E10302118880F4227FF47E011249FC900095E475F00112321E09
:400900009000941233E01231F3FF9000FFEFF0905033E0FFEF5410FF7E00EF4E60030210B49000941233E01231F3FFEF1233F2097B0009C8010A15020A62030AAF040AFC56
:40094000050B49060B96070BE3080C30090C7D0A0CCA0B0D170C0D640D0DB10E0DFE0F0E4B100E98110EE5120F32130F7F140FCC1510191610661700001188905016E0FFE8
:40098000EF54FEFFEFF0905017E0FFEF54FEFFEFF0905064E0FFEF54FEFFEFF0905065E0FFEF54FEFFEFF0905034E0FFEF54FEFFEFF07BFF7A3D7916124584124ED2EF30A0
:4009C000E10302118880F422905016E0FFEF4401FFEFF0905017E0FFEF54FEFFEFF0905064E0FFEF54FEFFEFF0905065E0FFEF54FEFFEFF0905034E0FFEF54FEFFEFF07BF4
:400A0000FF7A3D791C124584124ED2EF30E10302118880F422905016E0FFEF54FEFFEFF0905017E0FFEF4401FFEFF0905064E0FFEF54FEFFEFF0905065E0FFEF54FEFFEFB9
:400A4000F0905034E0FFEF54FEFFEFF07BFF7A3D7922124584124ED2EF30E10302118880F422905016E0FFEF4401FFEFF0905017E0FFEF4401FFEFF0905064E0FFEF54FE34
:400A8000FFEFF0905065E0FFEF54FEFFEFF0905034E0FFEF54FEFFEFF07BFF7A3D7928124584124ED2EF30E10302118880F422905016E0FFEF54FEFFEFF0905017E0FFEF37
:400AC00054FEFFEFF0905064E0FFEF4401FFEFF0905065E0FFEF54FEFFEFF0905034E0FFEF54FEFFEFF07BFF7A3D792E124584124ED2EF30E10302118880F422905016E04D
:400B0000FFEF4401FFEFF0905017E0FFEF54FEFFEFF0905064E0FFEF4401FFEFF0905065E0FFEF54FEFFEFF0905034E0FFEF54FEFFEFF07BFF7A3D7934124584124ED2EF4B
:400B400030E10302118880F422905016E0FFEF54FEFFEFF0905017E0FFEF4401FFEFF0905064E0FFEF4401FFEFF0905065E0FFEF54FEFFEFF0905034E0FFEF54FEFFEFF0CA
:400B80007BFF7A3D793A124584124ED2EF30E10302118880F422905016E0FFEF4401FFEFF0905017E0FFEF4401FFEFF0905064E0FFEF4401FFEFF0905065E0FFEF54FEFFA8
:400BC000EFF0905034E0FFEF54FEFFEFF07BFF7A3D7940124584124ED2EF30E10302118880F422905016E0FFEF54FEFFEFF0905017E0FFEF54FEFFEFF0905064E0FFEF548A
:400C0000FEFFEFF0905065E0FFEF4401FFEFF0905034E0FFEF54FEFFEFF07BFF7A3D7946124584124ED2EF30E10302118880F422905016E0FFEF4401FFEFF0905017E0FFA2
:400C4000EF54FEFFEFF0905064E0FFEF54FEFFEFF0905065E0FFEF4401FFEFF0905034E0FFEF54FEFFEFF07BFF7A3D794C124584124ED2EF30E10302118880F4229050169E
:400C8000E0FFEF54FEFFEFF0905017E0FFEF4401FFEFF0905064E0FFEF54FEFFEFF0905065E0FFEF4401FFEFF0905034E0FFEF54FEFFEFF07BFF7A3D7952124584124ED2BB
:400CC000EF30E10302118880F422905016E0FFEF4401FFEFF0905017E0FFEF4401FFEFF0905064E0FFEF54FEFFEFF0905065E0FFEF4401FFEFF0905034E0FFEF54FEFFEF57
:400D0000F07BFF7A3D7958124584124ED2EF30E10302118880F422905016E0FFEF54FEFFEFF0905017E0FFEF54FEFFEFF0905064E0FFEF4401FFEFF0905065E0FFEF44010A
:400D4000FFEFF0905034E0FFEF54FEFFEFF07BFF7A3D795E124584124ED2EF30E10302118880F422905016E0FFEF4401FFEFF0905017E0FFEF54FEFFEFF0905064E0FFEF4C
:400D80004401FFEFF0905065E0FFEF4401FFEFF0905034E0FFEF54FEFFEFF07BFF7A3D7964124584124ED2EF30E10302118880F422905016E0FFEF54FEFFEFF0905017E0AE
:400DC000FFEF4401FFEFF0905064E0FFEF4401FFEFF0905065E0FFEF4401FFEFF0905034E0FFEF54FEFFEFF07BFF7A3D796A124584124ED2EF30E10302118880F422905030
:400E000016E0FFEF4401FFEFF0905017E0FFEF4401FFEFF0905064E0FFEF4401FFEFF0905065E0FFEF4401FFEFF0905034E0FFEF54FEFFEFF07BFF7A3D7970124584124EF1
:400E4000D2EF30E10302118880F422905016E0FFEF54FEFFEFF0905017E0FFEF54FEFFEFF0905064E0FFEF54FEFFEFF0905065E0FFEF54FEFFEFF0905034E0FFEF4401FFD8
:400E8000EFF07BFF7A3D7976124584124ED2EF30E10302118880F422905016E0FFEF4401FFEFF0905017E0FFEF54FEFFEFF0905064E0FFEF54FEFFEFF0905065E0FFEF546D
:400EC000FEFFEFF0905034E0FFEF4401FFEFF07BFF7A3D797C124584124ED2EF30E10302118880F422905016E0FFEF54FEFFEFF0905017E0FFEF4401FFEFF0905064E0FFAB
:400F0000EF54FEFFEFF0905065E0FFEF54FEFFEFF0905034E0FFEF4401FFEFF07BFF7A3D7982124584124ED2EF30E10302118880F422905016E0FFEF4401FFEFF0905017FF
:400F4000E0FFEF4401FFEFF0905064E0FFEF54FEFFEFF0905065E0FFEF54FEFFEFF0905034E0FFEF4401FFEFF07BFF7A3D7988124584124ED2EF30E10302118880F42290F3
:400F80005016E0FFEF54FEFFEFF0905017E0FFEF54FEFFEFF0905064E0FFEF4401FFEFF0905065E0FFEF54FEFFEFF0905034E0FFEF4401FFEFF07BFF7A3D798E1245841236
:400FC0004ED2EF30E10302118880F422905016E0FFEF4401FFEFF0905017E0FFEF54FEFFEFF0905064E0FFEF4401FFEFF0905065E0FFEF54FEFFEFF0905034E0FFEF440122
:40100000FFEFF07BFF7A3D7994124584124ED2EF30E10302118880F422905016E0FFEF54FEFFEFF0905017E0FFEF4401FFEFF0905064E0FFEF4401FFEFF0905065E0FFEF2F
:4010400054FEFFEFF0905034E0FFEF4401FFEFF07BFF7A3D799A124584124ED2EF30E10302118880F422905016E0FFEF4401FFEFF0905017E0FFEF4401FFEFF0905064E0C3
:40108000FFEF4401FFEFF0905065E0FFEF54FEFFEFF0905034E0FFEF4401FFEFF07BFF7A3D79A0124584124ED2EF30E10302118880F42222900100E4F0900100E0FFEFD393
:4010C000941F5019900100E0FF74092FF582E43401F583E4F0900100E004F080DC7F017E007D007C001242699000FEE4F09000F9E4F07BFF7A3D79A6124584124ED2EF302C
:40110000E10302118880F422900095E475F00112321E9000941233E01231F3FFEFB4FF04124E02229000941233E01231F3FFEFB40F137BFF7A3C79D6124584124ED2EF2043
:40114000E14680F722900100E4F0900100E0FFEFD3941F5019900100E0FF74092FF582E43401F583E4F0900100E004F080DC9000FEE4F09000F9E4F07BFF7A3D790512457E
:4011800084124ED2EF30E1F9229000A9E4F09000AAE4F09000ABE4F09000AFE4F07F0112319412406B9000A8EFF09000A9E0FFEF6003021CFE9000A8E0FFEF64FF704590C2
:4011C0000100E4F09000A8E0FF900100E0FE74092EF582E43401F583EFF0900100E004F09000A97401F09000AE7402F07BFF7A4D79E7124584124ED2EF30E103021D828089
:40120000F4021D829000A8E0FFEF70101246C99000AAE4F09000A9E4F0021D829000A8E0FFEF640160030212E4900129E4F0905003E0FFEF30E410900129E0FFEF54F7FFBB
:40124000900129EFF0800E900129E0FFEF5408FF900129EFF0905021E0FFEF30E410900129E0FFEF447FFF900129EFF0800E900129E0FFEF5480FF900129EFF07FE87E038B
:401280001249FC7BFF7A4D79EC124584124ED2EF30E1F97BFF7A4D79EC124584124ED2EF30E1F97BFF7A4D79EC124584124ED2EF30E1F97BFF7A4D79EE124584124ED2EF2F
:4012C00030E1F9900129E0FF1243FF124ED2EF30E1F9900129E4F09000AAE4F09000A9E4F0021D829000A8E0FFEF64F1706C900100E4F0900100E0FFEFD39408501990011E
:4013000000E0FF74092FF582E43401F583E4F0900100E004F080DC900100E4F09000A8E0FF900100E0FE74092EF582E43401F583EFF0900100E0FF74092FF582E43401F567
:4013400083E0FF90012BEFF07F0112316D9000AAE4F09000A9E4F0021D829000A8E0FFEF64F2706C900100E4F0900100E0FFEFD394085019900100E0FF74092FF582E43405
:4013800001F583E4F0900100E004F080DC900100E4F09000A8E0FF900100E0FE74092EF582E43401F583EFF0900100E0FF74092FF582E43401F583E0FF90012BEFF07F0184
:4013C00012316D9000AAE4F09000A9E4F0021D829000A8E0FFEF6403706C900100E4F0900100E0FFEFD394085019900100E0FF74092FF582E43401F583E4F0900100E0042F
:40140000F080DC900100E4F09000A8E0FF900100E0FE74092EF582E43401F583EFF0900100E0FF74092FF582E43401F583E0FF90012BEFF07F0112316D9000AAE4F0900077
:40144000A9E4F0021D829000A8E0FFEF64FC706C900100E4F0900100E0FFEFD394085019900100E0FF74092FF582E43401F583E4F0900100E004F080DC900100E4F09000C2
:40148000A8E0FF900100E0FE74092EF582E43401F583EFF0900100E0FF74092FF582E43401F583E0FF90012BEFF07F0112316D9000AAE4F09000A9E4F0021D829000A8E002
:4014C000FFEF6406706C900100E4F0900100E0FFEFD394085019900100E0FF74092FF582E43401F583E4F0900100E004F080DC900100E4F09000A8E0FF900100E0FE7409FB
:401500002EF582E43401F583EFF0900100E0FF74092FF582E43401F583E0FF90012BEFF07F0112316D9000AAE4F09000A9E4F0021D829000A8E0FFEF6408702C7BFF7A4DBD
:4015400079E7124584124ED2EF30E1F91246C97F271243FF124ED2EF30E1F99000AAE4F09000A9E4F0021D829000A8E0FFEF64D070387BFF7A4D79E7124584124ED2EF3054
:40158000E1F91246C97F031243FF124ED2EF30E1F97F011243FF124ED2EF30E1F99000AAE4F09000A9E4F0021D829000A8E0FFEF64097045900100E4F09000A8E0FF90013F
:4015C00000E0FE74092EF582E43401F583EFF0900100E004F09000A97402F09000AE7403F07BFF7A4D79E7124584124ED2EF30E103021D8280F4021D829000A8E0FFEF6401
:401600000A7043900100E4F09000A8E0FF900100E0FE74092EF582E43401F583EFF0900100E0FF74092FF582E43401F583E0FF90012BEFF07F0112316D9000AAE4F0900004
:40164000A9E4F0021D829000A8E0FFEF640B7045900100E4F09000A8E0FF900100E0FE74092EF582E43401F583EFF0900100E004F09000A97401F09000AE7402F07BFF7A0A
:401680004D79E7124584124ED2EF30E103021D8280F4021D829000A8E0FFEF640C7045900100E4F09000A8E0FF900100E0FE74092EF582E43401F583EFF0900100E004F0AA
:4016C0009000A97401F09000AE7402F07BFF7A4D79E7124584124ED2EF30E103021D8280F4021D829000A8E0FFEF6410706C900100E4F0900100E0FFEFD3940850199001BE
:4017000000E0FF74092FF582E43401F583E4F0900100E004F080DC900100E4F09000A8E0FF900100E0FE74092EF582E43401F583EFF0900100E0FF74092FF582E43401F563
:4017400083E0FF90012BEFF07F0112316D9000AAE4F09000A9E4F0021D829000A8E0FFEF6411706C900100E4F0900100E0FFEFD394085019900100E0FF74092FF582E434E2
:4017800001F583E4F0900100E004F080DC900100E4F09000A8E0FF900100E0FE74092EF582E43401F583EFF0900100E0FF74092FF582E43401F583E0FF90012BEFF07F0180
:4017C00012316D9000AAE4F09000A9E4F0021D829000A8E0FFEF6418705C7BFF7A4D79EC124584124ED2EF30E1F97BFF7A4D79EC124584124ED2EF30E1F97BFF7A4D79EC31
:40180000124584124ED2EF30E1F97BFF7A4D79EE124584124ED2EF30E1F9900107E0FF1243FF124ED2EF30E1F99000AAE4F09000A9E4F0021D829000A8E0FFEF641C704507
:40184000900100E4F09000A8E0FF900100E0FE74092EF582E43401F583EFF0900100E004F09000A97401F09000AE7402F07BFF7A4D79E7124584124ED2EF30E103021D82F2
:4018800080F4021D829000A8E0FFEF6440706C900100E4F0900100E0FFEFD394085019900100E0FF74092FF582E43401F583E4F0900100E004F080DC900100E4F09000A89B
:4018C000E0FF900100E0FE74092EF582E43401F583EFF0900100E0FF74092FF582E43401F583E0FF90012BEFF07F0112316D9000AAE4F09000A9E4F0021D829000A8E0FF67
:40190000EF6445706C900100E4F0900100E0FFEFD394085019900100E0FF74092FF582E43401F583E4F0900100E004F080DC900100E4F09000A8E0FF900100E0FE74092E48
:40194000F582E43401F583EFF0900100E0FF74092FF582E43401F583E0FF90012BEFF07F0112316D9000AAE4F09000A9E4F0021D829000A8E0FFEF6446706C900100E4F005
:40198000900100E0FFEFD394085019900100E0FF74092FF582E43401F583E4F0900100E004F080DC900100E4F09000A8E0FF900100E0FE74092EF582E43401F583EFF0902A
:4019C0000100E0FF74092FF582E43401F583E0FF90012BEFF07F0112316D9000AAE4F09000A9E4F0021D829000A8E0FFEF6447706C900100E4F0900100E0FFEFD3940850DD
:401A000019900100E0FF74092FF582E43401F583E4F0900100E004F080DC900100E4F09000A8E0FF900100E0FE74092EF582E43401F583EFF0900100E0FF74092FF582E4E0
:401A40003401F583E0FF90012BEFF07F0112316D9000AAE4F09000A9E4F0021D829000A8E0FFEF6448706C900100E4F0900100E0FFEFD394085019900100E0FF74092FF518
:401A800082E43401F583E4F0900100E004F080DC900100E4F09000A8E0FF900100E0FE74092EF582E43401F583EFF0900100E0FF74092FF582E43401F583E0FF90012BEF53
:401AC000F07F0112316D9000AAE4F09000A9E4F0021D829000A8E0FFEF64507045900100E4F09000A8E0FF900100E0FE74092EF582E43401F583EFF0900100E004F0900029
:401B0000A97401F09000AE7402F07BFF7A4D79E7124584124ED2EF30E103021D8280F4021D829000A8E0FFEF64517049900100E4F09000A8E0FF900100E0FE74092EF5820B
:401B4000E43401F583EFF0900100E004F09000A97401F09000AE7402F012474B1246C97BFF7A4D79E7124584124ED2EF30E1F91246C9021D829000A8E0FFEF6455702F7B47
:401B8000FF7A4D79E7124584124ED2EF30E1F91246C99000A8E0FF1243FF124ED2EF30E1F99000AAE4F09000A9E4F0021D829000A8E0FFEFB40D289000AAE4F09000A9E46C
:401BC000F09001057401F07BFF7A4D79E7124584124ED2EF30E1F97F0112316D021D829000A8E0FFEF64DE706E900100E4F0900100E0FFEFD394085019900100E0FF7409D3
:401C00002FF582E43401F583E4F0900100E004F080DC900100E4F09000A8E0FF900100E0FE74092EF582E43401F583EFF0900100E004F09000A97402F09000AE7403F07B37
:401C4000FF7A4D79E7124584124ED2EF30E103021D8280F4021D829000A8E0FFEF64DD70527BFF7A4D79E7124584124ED2EF30E1F99000D0E0FEA3E0FFEEFF7E0090010804
:401C8000EFF01246C9900108E0FF1243FF124ED2EF30E1F99000D0E0FEA3E0FF1243FF124ED2EF30E1F99000AAE4F09000A9E4F0021D82900100E4F0900100E0FFEFD39407
:401CC0001F5019900100E0FF74092FF582E43401F583E4F0900100E004F080DC9000A9E4F09000AAE4F07BFF7A4D79F0124584124ED2EF30E103021D8280F4021D82900088
:401D0000A9E0FFEF607C9000A8E0FF900100E0FE74092EF582E43401F583EFF0900100E004F09000A9E014F09000A9E0FFEF704D9000AA7401F0900109E0FFEFB4DE439086
:401D400000D0E4F0A3E4F090010AE0FF7E009000D0EE8FF012321E9000D0E0FEA3E0FFEF7F00FE9000D0EEF0A3EFF090010BE0FF7E009000D0EE8FF012321E80059000AA4E
:401D8000E4F09000AAE0FFEF6401600302119D900100E014FFF09000ABEFF09000AEE0FFEF14FF9000ACEFF09000AEE0FF9000ADEFF09000ADE0FFEFD3940040369000ABAB
:401DC000E0FF74092FF582E43401F583E0FF9000ACE0FE742B2EF582E43401F583EFF09000ABE014F09000ACE014F09000ADE014F080BF9000AAE4F07F0112316D90010035
:401E0000E004F002119D229000A0EEF0A3EFF09000A2E4F0A3E4F09000A0E0FEA3E0FFD3EF940FEE648094804003021FC09000A0E0FEA3E0FF74017E00A807088005C3333B
:401E4000CE33CED8F9FF9000A2EEF0A3EFF09000A2E0FEA3E0FFEEFF7E009000A4EFF090502CE0FFEF54FEFFEFF07F00124B6B9000A4E0FF124B6B9000A2E0FEA3E0FF1251
:401E80004B6B124CF9EF30E1F97F0F7E001249FC90502CE0FFEF4401FFEFF07F147E001249FC90502CE0FFEF54FEFFEFF07F01124B6B7F00124B6B7F00124B6B124CF9EF2E
:401EC00030E1F97F0F7E001249FC90502CE0FFEF4401FFEFF07F147E001249FC90502CE0FFEF54FEFFEFF07F02124B6B7F00124B6B7F00124B6B124CF9EF30E1F97F0F7ED3
:401F0000001249FC90502CE0FFEF4401FFEFF07F147E001249FC90502CE0FFEF54FEFFEFF07F03124B6B7F00124B6B7F00124B6B124CF9EF30E1F97F0F7E001249FC905070
:401F40002CE0FFEF4401FFEFF07F147E001249FC90502CE0FFEF54FEFFEFF07F08124B6B7F00124B6B7F11124B6B124CF9EF30E1F97F0F7E001249FC90502CE0FFEF440112
:401F8000FFEFF07F147E001249FC90502CE0FFEF54FEFFEFF07F0F124B6B7F00124B6B7F00124B6B124CF9EF30E1F97F0F7E001249FC90502CE0FFEF4401FFEFF0022673A2
:401FC0009000A0E0FEA3E0FFC3EF9410EE64809480500302218A9000A0E0FEA3E0FFD3EF941FEE64809480400302218A9000A074FF75F0F012321E9000A0E0FEA3E0FF74DC
:40200000017E00A807088005C333CE33CED8F9FF9000A2EEF0A3EFF09000A2E0FEA3E0FFEEFF7E009000A4EFF090502CE0FFEF54FEFFEFF07F00124B6B7F00124B6B7F0097
:40204000124B6B124CF9EF30E1F97F0F7E001249FC90502CE0FFEF4401FFEFF07F147E001249FC90502CE0FFEF54FEFFEFF07F01124B6B9000A4E0FF124B6B9000A2E0FE43
:40208000A3E0FF124B6B124CF9EF30E1F97F0F7E001249FC90502CE0FFEF4401FFEFF07F147E001249FC90502CE0FFEF54FEFFEFF07F02124B6B7F00124B6B7F00124B6BDD
:4020C000124CF9EF30E1F97F0F7E001249FC90502CE0FFEF4401FFEFF07F147E001249FC90502CE0FFEF54FEFFEFF07F03124B6B7F00124B6B7F00124B6B124CF9EF30E18F
:40210000F97F0F7E001249FC90502CE0FFEF4401FFEFF07F147E001249FC90502CE0FFEF54FEFFEFF07F08124B6B7F00124B6B7F12124B6B124CF9EF30E1F97F0F7E001277
:4021400049FC90502CE0FFEF4401FFEFF07F147E001249FC90502CE0FFEF54FEFFEFF07F0F124B6B7F00124B6B7F00124B6B124CF9EF30E1F97F0F7E001249FC90502CE028
:40218000FFEF4401FFEFF00226739000A0E0FEA3E0FFC3EF9420EE6480948050030223549000A0E0FEA3E0FFD3EF942FEE6480948040030223549000A074FF75F0E01232E8
:4021C0001E9000A0E0FEA3E0FF74017E00A807088005C333CE33CED8F9FF9000A2EEF0A3EFF09000A2E0FEA3E0FFEEFF7E009000A4EFF090502CE0FFEF54FEFFEFF07F0042
:40220000124B6B7F00124B6B7F00124B6B124CF9EF30E1F97F0F7E001249FC90502CE0FFEF4401FFEFF07F147E001249FC90502CE0FFEF54FEFFEFF07F01124B6B7F00124D
:402240004B6B7F00124B6B124CF9EF30E1F97F0F7E001249FC90502CE0FFEF4401FFEFF07F147E001249FC90502CE0FFEF54FEFFEFF07F02124B6B9000A4E0FF124B6B908B
:4022800000A2E0FEA3E0FF124B6B124CF9EF30E1F97F0F7E001249FC90502CE0FFEF4401FFEFF07F147E001249FC90502CE0FFEF54FEFFEFF07F03124B6B7F00124B6B7F22
:4022C00000124B6B124CF9EF30E1F97F0F7E001249FC90502CE0FFEF4401FFEFF07F147E001249FC90502CE0FFEF54FEFFEFF07F08124B6B7F00124B6B7F14124B6B124CA5
:40230000F9EF30E1F97F0F7E001249FC90502CE0FFEF4401FFEFF07F147E001249FC90502CE0FFEF54FEFFEFF07F0F124B6B7F00124B6B7F00124B6B124CF9EF30E1F97F26
:402340000F7E001249FC90502CE0FFEF4401FFEFF00226739000A0E0FEA3E0FFC3EF9430EE64809480500302251E9000A0E0FEA3E0FFD3EF943FEE64809480400302251ECA
:402380009000A074FF75F0D012321E9000A0E0FEA3E0FF74017E00A807088005C333CE33CED8F9FF9000A2EEF0A3EFF09000A2E0FEA3E0FFEEFF7E009000A4EFF090502CE1
:4023C000E0FFEF54FEFFEFF07F00124B6B7F00124B6B7F00124B6B124CF9EF30E1F97F0F7E001249FC90502CE0FFEF4401FFEFF07F147E001249FC90502CE0FFEF54FEFFC7
:40240000EFF07F01124B6B7F00124B6B7F00124B6B124CF9EF30E1F97F0F7E001249FC90502CE0FFEF4401FFEFF07F147E001249FC90502CE0FFEF54FEFFEFF07F02124BE7
:402440006B7F00124B6B7F00124B6B124CF9EF30E1F97F0F7E001249FC90502CE0FFEF4401FFEFF07F147E001249FC90502CE0FFEF54FEFFEFF07F03124B6B9000A4E0FFE4
:40248000124B6B9000A2E0FEA3E0FF124B6B124CF9EF30E1F97F0F7E001249FC90502CE0FFEF4401FFEFF07F147E001249FC90502CE0FFEF54FEFFEFF07F08124B6B7F000A
:4024C000124B6B7F18124B6B124CF9EF30E1F97F0F7E001249FC90502CE0FFEF4401FFEFF07F147E001249FC90502CE0FFEF54FEFFEFF07F0F124B6B7F00124B6B7F001265
:402500004B6B124CF9EF30E1F97F0F7E001249FC90502CE0FFEF4401FFEFF002267390502CE0FFEF54FEFFEFF07F00124B6B7F00124B6B7F00124B6B124CF9EF30E1F97FEC
:402540000F7E001249FC90502CE0FFEF4401FFEFF07F147E001249FC90502CE0FFEF54FEFFEFF07F01124B6B7F00124B6B7F00124B6B124CF9EF30E1F97F0F7E001249FC7F
:4025800090502CE0FFEF4401FFEFF07F147E001249FC90502CE0FFEF54FEFFEFF07F02124B6B7F00124B6B7F00124B6B124CF9EF30E1F97F0F7E001249FC90502CE0FFEF48
:4025C0004401FFEFF07F147E001249FC90502CE0FFEF54FEFFEFF07F03124B6B7F00124B6B7F00124B6B124CF9EF30E1F97F0F7E001249FC90502CE0FFEF4401FFEFF07F3F
:40260000147E001249FC90502CE0FFEF54FEFFEFF07F08124B6B7F00124B6B7F00124B6B124CF9EF30E1F97F0F7E001249FC90502CE0FFEF4401FFEFF07F147E001249FCB2
:4026400090502CE0FFEF54FEFFEFF07F0F124B6B7F00124B6B7F00124B6B124CF9EF30E1F97F0F7E001249FC90502CE0FFEF4401FFEFF07F0A7E007D007C0012426922904D
:4026800000A0EEF0A3EFF09000A2E4F0A3E4F09000A0E0FEA3E0FFD3EF940FEE6480948040030228389000A0E0FEA3E0FF74017E00A807088005C333CE33CED8F9FF900039
:4026C000A2EEF0A3EFF09000A2E0FEA3E0FFEEFF7E009000A4EFF090502CE0FFEF54FEFFEFF07F04124B6B9000A4E0FF124B6B9000A2E0FEA3E0FF124B6B124CF9EF30E1E7
:40270000F97F0F7E001249FC90502CE0FFEF4401FFEFF07F147E001249FC90502CE0FFEF54FEFFEFF07F05124B6B7F00124B6B7F00124B6B124CF9EF30E1F97F0F7E001286
:4027400049FC90502CE0FFEF4401FFEFF07F147E001249FC90502CE0FFEF54FEFFEFF07F06124B6B7F00124B6B7F00124B6B124CF9EF30E1F97F0F7E001249FC90502CE02B
:40278000FFEF4401FFEFF07F147E001249FC90502CE0FFEF54FEFFEFF07F07124B6B7F00124B6B7F00124B6B124CF9EF30E1F97F0F7E001249FC90502CE0FFEF4401FFEFFA
:4027C000F07F147E001249FC90502CE0FFEF54FEFFEFF07F09124B6B7F00124B6B7F11124B6B124CF9EF30E1F97F0F7E001249FC90502CE0FFEF4401FFEFF07F147E0012B5
:4028000049FC90502CE0FFEF54FEFFEFF07F0F124B6B7F00124B6B7F00124B6B124CF9EF30E1F97F0F7E001249FC90502CE0FFEF4401FFEFF0022EEB9000A0E0FEA3E0FF0A
:40284000C3EF9410EE648094805003022A029000A0E0FEA3E0FFD3EF941FEE648094804003022A029000A074FF75F0F012321E9000A0E0FEA3E0FF74017E00A80708800526
:40288000C333CE33CED8F9FF9000A2EEF0A3EFF09000A2E0FEA3E0FFEEFF7E009000A4EFF090502CE0FFEF54FEFFEFF07F04124B6B7F00124B6B7F00124B6B124CF9EF3088
:4028C000E1F97F0F7E001249FC90502CE0FFEF4401FFEFF07F147E001249FC90502CE0FFEF54FEFFEFF07F05124B6B9000A4E0FF124B6B9000A2E0FEA3E0FF124B6B124C4D
:40290000F9EF30E1F97F0F7E001249FC90502CE0FFEF4401FFEFF07F147E001249FC90502CE0FFEF54FEFFEFF07F06124B6B7F00124B6B7F00124B6B124CF9EF30E1F97F29
:402940000F7E001249FC90502CE0FFEF4401FFEFF07F147E001249FC90502CE0FFEF54FEFFEFF07F07124B6B7F00124B6B7F00124B6B124CF9EF30E1F97F0F7E001249FC75
:4029800090502CE0FFEF4401FFEFF07F147E001249FC90502CE0FFEF54FEFFEFF07F09124B6B7F00124B6B7F12124B6B124CF9EF30E1F97F0F7E001249FC90502CE0FFEF2B
:4029C0004401FFEFF07F147E001249FC90502CE0FFEF54FEFFEFF07F0F124B6B7F00124B6B7F00124B6B124CF9EF30E1F97F0F7E001249FC90502CE0FFEF4401FFEFF002AC
:402A00002EEB9000A0E0FEA3E0FFC3EF9420EE648094805003022BCC9000A0E0FEA3E0FFD3EF942FEE648094804003022BCC9000A074FF75F0E012321E9000A0E0FEA3E043
:402A4000FF74017E00A807088005C333CE33CED8F9FF9000A2EEF0A3EFF09000A2E0FEA3E0FFEEFF7E009000A4EFF090502CE0FFEF54FEFFEFF07F04124B6B7F00124B6B55
:402A80007F00124B6B124CF9EF30E1F97F0F7E001249FC90502CE0FFEF4401FFEFF07F147E001249FC90502CE0FFEF54FEFFEFF07F05124B6B7F00124B6B7F00124B6B12C1
:402AC0004CF9EF30E1F97F0F7E001249FC90502CE0FFEF4401FFEFF07F147E001249FC90502CE0FFEF54FEFFEFF07F06124B6B9000A4E0FF124B6B9000A2E0FEA3E0FF12FA
:402B00004B6B124CF9EF30E1F97F0F7E001249FC90502CE0FFEF4401FFEFF07F147E001249FC90502CE0FFEF54FEFFEFF07F07124B6B7F00124B6B7F00124B6B124CF9EF9B
:402B400030E1F97F0F7E001249FC90502CE0FFEF4401FFEFF07F147E001249FC90502CE0FFEF54FEFFEFF07F09124B6B7F00124B6B7F14124B6B124CF9EF30E1F97F0F7E2B
:402B8000001249FC90502CE0FFEF4401FFEFF07F147E001249FC90502CE0FFEF54FEFFEFF07F0F124B6B7F00124B6B7F00124B6B124CF9EF30E1F97F0F7E001249FC9050D8
:402BC0002CE0FFEF4401FFEFF0022EEB9000A0E0FEA3E0FFC3EF9430EE648094805003022D969000A0E0FEA3E0FFD3EF943FEE648094804003022D969000A074FF75F0D0AE
:402C000012321E9000A0E0FEA3E0FF74017E00A807088005C333CE33CED8F9FF9000A2EEF0A3EFF09000A2E0FEA3E0FFEEFF7E009000A4EFF090502CE0FFEF54FEFFEFF032
:402C40007F04124B6B7F00124B6B7F00124B6B124CF9EF30E1F97F0F7E001249FC90502CE0FFEF4401FFEFF07F147E001249FC90502CE0FFEF54FEFFEFF07F05124B6B7F8E
:402C800000124B6B7F00124B6B124CF9EF30E1F97F0F7E001249FC90502CE0FFEF4401FFEFF07F147E001249FC90502CE0FFEF54FEFFEFF07F06124B6B7F00124B6B7F00D0
:402CC000124B6B124CF9EF30E1F97F0F7E001249FC90502CE0FFEF4401FFEFF07F147E001249FC90502CE0FFEF54FEFFEFF07F07124B6B9000A4E0FF124B6B9000A2E0FEB1
:402D0000A3E0FF124B6B124CF9EF30E1F97F0F7E001249FC90502CE0FFEF4401FFEFF07F147E001249FC90502CE0FFEF54FEFFEFF07F09124B6B7F00124B6B7F18124B6B31
:402D4000124CF9EF30E1F97F0F7E001249FC90502CE0FFEF4401FFEFF07F147E001249FC90502CE0FFEF54FEFFEFF07F0F124B6B7F00124B6B7F00124B6B124CF9EF30E1F6
:402D8000F97F0F7E001249FC90502CE0FFEF4401FFEFF0022EEB90502CE0FFEF54FEFFEFF07F04124B6B7F00124B6B7F00124B6B124CF9EF30E1F97F0F7E001249FC905029
:402DC0002CE0FFEF4401FFEFF07F147E001249FC90502CE0FFEF54FEFFEFF07F05124B6B7F00124B6B7F00124B6B124CF9EF30E1F97F0F7E001249FC90502CE0FFEF440198
:402E0000FFEFF07F147E001249FC90502CE0FFEF54FEFFEFF07F06124B6B7F00124B6B7F00124B6B124CF9EF30E1F97F0F7E001249FC90502CE0FFEF4401FFEFF07F147EA6
:402E4000001249FC90502CE0FFEF54FEFFEFF07F07124B6B7F00124B6B7F00124B6B124CF9EF30E1F97F0F7E001249FC90502CE0FFEF4401FFEFF07F147E001249FC90501D
:402E80002CE0FFEF54FEFFEFF07F09124B6B7F00124B6B7F00124B6B124CF9EF30E1F97F0F7E001249FC90502CE0FFEF4401FFEFF07F147E001249FC90502CE0FFEF54FEC6
:402EC000FFEFF07F0F124B6B7F00124B6B7F00124B6B124CF9EF30E1F97F0F7E001249FC90502CE0FFEF4401FFEFF07F0A7E007D007C0012426922C2AF80FE32C0E0E5D00B
:402F0000541864087003D0E032D0E0122EFB85D00B75D008AAE0EC2422F8E6BC050274FFC39581B4140040CF7906781016E608700BC2AFE630E1034418F6D2AF08D9EDEAD0
:402F40008BD030000122D50DFCC0E0C0D0C0F0C083C082C000C001C002C003C004C005C006C007E50C232411F87440C2AF46F6D2AFD200E50CFF232411F80F0808BF060427
:402F80007F007811E630E4F200E50CC39F5020050C7421250CF8E6FDA68108E6AE0CBE050274FFCDF8E86D60E008E6C0E080F6E50CD39F4027E50C2422F8E6AE0CBE0502E5
:402FC00074FFFD18E6CDF8E5816D6006D0E0F61880F5E50C2421C8F6150C80D3750D05E50C232411F87F04C2AFE610E61E30E00310E20C7F0030E10730E3047F0854F45432
:403000007CC6D2AF54804207C20022F6D2AFD007D006D005D004D003D002D001D000D082D083D0F0D0D0D0E0C200227821A68174056006FF0876FFDFFB7F06E47810F6083C
:40304000F608DFFA78117630904E26740193C0E0E493C0E0750D05D2AF2205EFD3940540037FFF2274112F2FF8E620E5F4C2AFE64430F6D2AFAE0CEEC39F50210E74212ED2
:40308000F8E6F908E618BE050274FFFDED69600909E71919F7090980F3161680DAEED39F400405810581EED39F402274212EF808E6F9EEB50C02A981180606E6FDED69606F
:4030C000091919E70909F71980F31E80D9EF2421F8E604F8EF2F04904E2693F608EF2F93F67F0022EFD3940540037FFF22EF232411F8E630E5F4C2AFE6548CF6D2AFE50C8A
:40310000B5070A74212FF8E6F581022F71502E74222FF8E6BF050274FFFD18E6F974212FF8FBE6FCE96C6008A805E7F61D1980F4A803A6051FE50CB507E37F002274222FCC
:40314000F8E6FD1886010F74212FF8A601088604E50CB50702AC81ED6C60080D09A805E6F780F4E50CB507DE89817F0022EFD3940540037FFF22EF232411F8C2AFE630E501
:403180000530E002D2E4D2E2C6D2AF7F0030E2010F022F458FF0E4FFFEE50C232410F8C2A930F70D7F08E6600B2DF660325030800730F106EDF660277E020830F010C2AFA3
:4031C000E610E7250E30E20CD2AF7F048014C2AFE610E71554EC4EF6D2AFD2A9022F717F0808EF4483F4C2AF56C6D2AFD2A954804FFF22BB010689828A83E0225002E72247
:40320000BBFE02E32289828A83E49322BB010689828A83F0225002F722BBFE01F322C5F0F8A3E028F0C5F0F8E582158270021583E038F022BB010A89828A83E0F5F0A3E0AA
:4032400022500687F009E71922BBFE07E3F5F009E3192289828A83E493F5F074019322EF2BFFEE3AFEED39FDEC38FC22E88FF0A4CC8BF0A42CFCE98EF0A42CFC8AF0EDA4E7
:403280002CFCEA8EF0A4CDA8F08BF0A42DCC3825F0FDE98FF0A42CCD35F0FCEB8EF0A4FEA9F0EB8FF0A4CFC5F02ECD39FEE43CFCEAA42DCE35F0FDE43CFC2275F00875821C
:4032C00000EF2FFFEE33FECD33CDCC33CCC58233C5829BED9AEC99E58298400CF582EE9BFEED9AFDEC99FC0FD5F0D6E4CEFBE4CDFAE4CCF9A88222B800C1B90059BA002DDB
:40330000EC8BF084CFCECDFCE5F0CBF97818EF2FFFEE33FEED33FDEC33FCEB33FB10D703994004EB99FB0FD8E5E4F9FA227818EF2FFFEE33FEED33FDEC33FCC933C910D7CB
:40334000059BE99A4007EC9BFCE99AF90FD8E0E4C9FAE4CCFB2275F010EF2FFFEE33FEED33FDCC33CCC833C810D7079BEC9AE899400AED9BFDEC9AFCE899F80FD5F0DAE461
:40338000CDFBE4CCFAE4C8F922EF4BFFEE4AFEED49FDEC48FC22E8600FECC313FCED13FDEE13FEEF13FFD8F122E8600FEFC333FFEE33FEED33FDEC33FCD8F122E0FCA3E007
:4033C000FDA3E0FEA3E0FF22E0F8A3E0F9A3E0FAA3E0FB22ECF0A3EDF0A3EEF0A3EFF022E0FBA3E0FAA3E0F922EBF0A3EAF0A3E9F022D083D082F8E4937012740193700DB2
:40340000A3A393F8740193F5828883E4737402936860EFA3A3A380DFE50F2582F582E50E3583F583B50E0485820F2210AF0685820FF50E2285820FF50ED2AF22C0E0C0F092
:40344000C083C082C085C084C086758600C093759300C0D075D000C000C001C002C003C004C005C006C0079044CB7401F090012AE4F0905003E0FFEF30E41090012AE0FFAF
:40348000EF4408FF90012AEFF0800E90012AE0FFEF54F7FF90012AEFF0905000E0FFEF30E41090012AE0FFEF4401FF90012AEFF0800E90012AE0FFEF54FEFF90012AEFF002
:4034C000905001E0FFEF30E41090012AE0FFEF4402FF90012AEFF0800E90012AE0FFEF54FDFF90012AEFF0905002E0FFEF30E41090012AE0FFEF4404FF90012AEFF0800EC4
:4035000090012AE0FFEF54FBFF90012AEFF0905021E0FFEF30E41090012AE0FFEF4480FF90012AEFF0800E90012AE0FFEF547FFF90012AEFF0905020E0FFEF30E41090013B
:403540002AE0FFEF4440FF90012AEFF0800E90012AE0FFEF54BFFF90012AEFF0905063E0FFEF30E41090012AE0FFEF4420FF90012AEFF0800E90012AE0FFEF54DFFF9001DE
:403580002AEFF0905062E0FFEF30E41090012AE0FFEF4410FF90012AEFF0800E90012AE0FFEF54EFFF90012AEFF07FF47E011249FC90012AE0FFEF6488FF90012AEFF0907E
:4035C000012AE0FF900107EFF090502AE0FFEF5410FF7E00EF4E700302347290501FE0FFEF54FEFFEFF07F017E001249FC90501FE0FFEF4401FFEFF0124B9C9044C37401F2
:40360000F0D007D006D005D004D003D002D001D000D0D0D093D086D084D085D082D083D0F0D0E0329000A0EEF0A3EFF09000A2EDF0124E6B9000A4EFF0124E619000A5EE54
:40364000F0A3EFF09000A5E0FEA3E0FF9000A0E0FCA3E0FDED6F7002EC6E70030237B89043A2E0FFEF5401FF9000A3EFF09000A4E0FFEF705E9000A5E0FEA3E0FFEF4E6080
:403680000C9000A0E0FEA3E0FFEF4E70469000A5E0FEA3E0FFEF4E701D7B027A4079809000A0E0FCA3E0FD124DDA904082E0FFEF54BFFFEFF022904082E0FFEF4440FFEF62
:4036C000F07B027A4079809000A0E0FCA3E0FD124DDA229000A3E0FFEF606C904001E4F09040107401F0904014E4F0904008E0FFEF547FFFEFF0904082E0FFEF5408FF7E04
:4037000000EF4E600C9000A0E0FEA3E0FFEF4E70367B027A4079029000A5E0FCA3E0FD124DDA9040017407F0904001E0FFEF5401FF7E00EF4E70F19043A2E0FFEF54FEFF12
:40374000EFF0904001E4F09043A2E0FFEF5401FF7E00EF4E603A7B027A4079029000A0E0FCA3E0FD124DDA9000A2E0FFEF60047F0280027F00EF4401FF904001EFF09040C9
:4037800001E0FFEF5401FF7E00EF4E602B80EF227B027A4079809000A0E0FCA3E0FD124DDA9043A2C083C082E0FF9000A3E0FEEF4EFFD082D083EFF0227B007A4679E812A0
:4037C0004E32EF4401FD7B007A4679E8124E3E123BEB7B017A507903124E32EF4402FD7B017A507903124E3E7B017A507913124E32EF4402FD7B017A507913124E3E9043E7
:40380000A0E0FFEF4440FF9043A0EFF09043C2E0FFEF4410FF9043C2EFF07C6D7D3F7B007A5179007F0A7E00124A507C6D7D497B007A5179C27F087E00124A507C6D7D516C
:403840007B007A5179F27F087E00124A507C6D7D597B007A5179127F087E00124A507C6D7D617B007A5179227F087E00124A507C6D7D697B007A5179307F0A7E00124A50DB
:403880007C6D7D737B007A5179407F0A7E00124A507C6D7D7D7B007A5179507F0A7E00124A507C6D7D877B007A5179627F087E00124A507B017A0C79DB7D44124E3E7B01E8
:4038C0007A1A79DB7DA4124E3E9044F47401F0904322E0FFEF4408FF904322EFF09046ECE0FFEFC394055006904689743AF090480074C0F01239319048007480F0124961E3
:403900007B007A4379A0C003C002C0017B007A4379B09000C61233E9D001D002D0037F0E7E001249979043B0E0FFEF54FDFFEFF0227B007A4079807D007C00124DD89040C8
:40394000827458F07B007A4079847D0B7C00124DD89040867418F07B007A4079887D647C00124DD890408A7418F07B007A40798C7D2B7C01124DD890408E7419F07B007AC4
:403980004079907DDB7C05124DD89040927419F07B007A4079947DDF7C2E124DD89040967419F09043007402F09040007408F09042007403F07B0C7A017908124E329046D4
:4039C000A1EFF07B007A4279227D087C00124DD87B007A4279207D517C12124DD89000C5E4F07F197E007D007C009000C11233D49000C11233BCD3EF9400EE9400404E90F0
:403A000000C5E0FFEF64036044904225E0FFEF5401FF7E009000C5E0FEEE25E0FEEE4FFFEF5403FF9000C5EFF07FE07E017D007C001247009000C11233BC7BFF7AFF79FF8B
:403A400078FF12325F9000C11233D480A39000C11233BCEF4E70057F03124CD67B007A4079047D007C01124DD89040047407F0904006E4F09040087448F0904004E4F0905D
:403A800040017402F09043A2E0FFEF443FFF9043A2EFF02275930078007583467582E8E04401F0009046ECE0F99046FAE0FAB903225420B40012B8001AEA901FFFF0740146
:403AC000901FFEF09046F6F0901FFEE06005901FFFE0FA90480074C0F07581269076BCE4F0A3F0A3F0A3F0907010F0907019F0907020F09076007410F0907604E4F0A3F088
:403B0000A3F0A3F09078007800087400F0A37408F0E8B8040274FFA3F0A37422F0A374BCF0A37476F0A3E4F0A3E81475F008A4F0A3B804D59070107401F0907014F09048B3
:403B400080E0904888E09044D87402F07E707F18120004907010F0EA90013CF0020011750E1F750FFD1237B9023BA602302BE493A3F8E493A34003F68001F208DFF480297D
:403B8000E493A3F85407240CC8C333C4540F4420C8834004F456800146F6DFE4800B0102040810204080904462E47E019360BCA3FF543F30E509541FFEE493A360010ECFD8
:403BC00054C025E060A840B8E493A3FAE493A3F8E493A3C8C582C8CAC583CAF0A3C8C582C8CAC583CADFE9DEE780BE7F007E007D007C0090014A1233D49076007410F090B4
:403C000070107401F0907019E4F07B027A7879007D987C02124DDA9078027401F090780374A3F07B027A787904C003C002C0017BFF7A6A79A7AF01AE02AD037C00EF54FFFF
:403C4000FFEE54FFFEED5400FDEC5400FCAD07AC06D001D002D003124DDA7B027A7879067D087C78124DDA7B027A7679047D107C00124DDA7B027A7679067D007C00124D67
:403C8000DA9070397407F09070497411F0907059741BF09070147401F0907018E0FFEF5401FF7E00EF4E70F1907038E0FFEF5401FF7E00EF4E70F1907048E0FFEF5401FF41
:403CC0007E00EF4E70F1907058E0FFEF5401FF7E00EF4E70F1222A2A2A230056494348310056494348320049434D534C00464C59434800464753454C005300550043004509
:403D0000002A0023002A2A2A3F00535243454E00535243445300535243304500535231304500535232304500535235304500533130304500533230304500533530304500BC
:403D4000535243314B00535243324B00535243354B00535231304B00535232304B00535235304B00533130304B00533230304B00533530304B00535243314D0053524558E0
:403D800031005352455832005352455833005352455834005352455835005352455836005352455837004641494C00C0E0C083C082C085C084C086758600C093759300C0E5
:403DC000D075D000C006C0079000CAE4F0A2AFE433FF9000CBEFF0D2AF9044F474FDF0906467E0FF9000C9EFF09000C9E0FFEF30E568906448E0FF900046E0FE74052EF527
:403E000082E43400F583EFF09000CA7401F09000CAE0FFEF6038900003E0FFEF60069000027401F0900046E004F0900046E0FFEFC394204005900046E4F0900004E0FF909D
:403E40000046E0FEEEB507069000037401F0906467E0FF9000C9EFF0808F9000CBE0FFEF24FF92AFD007D006D0D0D093D086D084D085D082D083D0E0329000B5EFF090007E
:403E800047E0FF9000B6EFF0900025E0FF9000B7EFF09000B7E0FF9000B6E0FEEEC39F50269000B7E0FF7E00EF24FFFFEE34FFFE9000B6E0FD7C00EFB50508EEB504047F9F
:403EC0000180027F0080189000B7E0FF9000B6E0FEC3EE9FFFEFB41F047F0180027F00EF709C9000B6E0FF9000B7E0FEEEB5071490646CE0FFEF20E20B9000B5E0FF9064F2
:403F00004CEFF0229000B6E0FFEFC3942040059000B6E4F09000B5E0FF9000B6E0FE74262EF582E43400F583EFF09000B6E004F09000B6E0FF900047EFF022900092E4F047
:403F40007F01123194900105E0FFEF607E900100E0FFEF14FF900092EFF0900100E0FFEF701A7BFF7A3C79D6124584124ED2EF30E1F990010AE0FF1243FF80477BFF7A3C02
:403F800079D6124584124ED2EF30E1F9900093E4F0900092E0FF900093E0FEEED39F5023900093E0FF74092FF582E43401F583E0FF1243FF124ED2EF30E1F9900093E004C5
:403FC000F080CE900105E4F0023F407B017A01792B12001A023F4022C0E0C083C082C085C084C086758600C093759300C0D075D000C006C007A2AFE433FF9000CCEFF0D20E
:40400000AF9044F474FDF0900047E0FF900025E0FEEE6F603790646CE0FFEF20E22E900025E0FFEFC394204005900025E4F0900025E0FF74262FF582E43400F583E0FF9072
:40404000644CEFF0900025E004F080BB9000CCE0FFEF24FF92AFD007D006D0D0D093D086D084D085D082D083D0E032124E7C900004E0FF9000B1EFF0900046E0FF9000B2C3
:40408000EFF0900003E0FFEF700E9000B2E0FF9000B1E0FEEE6F60459000B1E0FF74052FF582E43400F583E0FF9000B0EFF09000B1E004F09000B1E0FFEFC39420400590C3
:4040C00000B1E4F09000B1E0FF900004EFF0900003E0FFEF6011900003E4F0800A906448E0FF9000B0EFF0124E759000B0E0FF229000A0EFF09000A1ECF0A3EDF09000A0C9
:40410000E0FFEFD3941F5003D38001C340057F00124C209000A0E0FFEF541FFF7E00EF25E0FFEE33FEEF2400FFEE3444FEAA06A9077B01124DCB9000A3EEF0A3EFF09000E0
:40414000A0E0FF7E02EF8EF0A4FFAEF0EF2400FFEE3444FEAA06A9077B019000A1E0FEA3E0FFAD07AC06124DDA9000A3E0FEA3E0FF227FE87E037D007C001242691249CB97
:404180007D017F4D7E00123624124C9E124CB1124BF6124C35124C5F124B337F81124882900146E4F0A3E4F012439A124335905016E0FFEF4401FFEFF0905017E0FFEF4426
:4041C00001FFEFF0905064E0FFEF4401FFEFF012474B1246C9124C74124EB4124EBA124EC0124EC6124ECC7F0412316D7F001230E4227F0A7E007D007C00124269124B154B
:40420000EF3395E0FE900148EEF0A3EFF0905037E0FFEF5410FF7E00EF4E7014900148E0FEA3E0FFEE4401FE900148EEF0A3EFF090501EE0FFEF54FEFFEFF07F647E001217
:4042400049FC90501EE0FFEF4401FFEFF0900148E0FEA3E0FF124A76124D59EF30E2F97F647E001249FC808A2290FFFC1234181233D4850E83850F821233BCD3EF9400EEF6
:404280009480402F90013D1233BC124700850E83850F82C083C0821233BCEF2400FFEE3480FEED34FFFDEC34FFFCD082D0831233D480BF9001331233BC850E83850F8212B7
:4042C00033C812326C1247009000041234182290647EE0FFEF54F8FF90008BEFF090008BE0FF90647EEFF090647EE0FFEF54FCFF90008BEFF090008BE0FF90647EEFF012F0
:404300004DF57F80124DA97F80124D997F00124D89124ED87F80124DB9124C0B90008CEFF090649DE0FFEF4410FFEFF090008CE0FF124B8422905016E0FFEF30E40B9050D1
:4043400016E0FFEF54FEFFEFF0905017E0FFEF30E40B905017E0FFEF54FEFFEFF0905064E0FFEF30E40B905064E0FFEF54FEFFEFF0905065E0FFEF30E40B905065E0FFEF98
:4043800054FEFFEFF0905034E0FFEF30E40B905034E0FFEF54FEFFEFF022905015E0FFEF30E40B905015E0FFEF54FEFFEFF0905014E0FFEF30E40B905014E0FFEF54FEFFCF
:4043C000EFF0905012E0FFEF30E40B905012E0FFEF54FEFFEFF0905013E0FFEF30E40B905013E0FFEF54FEFFEFF0905011E0FFEF30E40B905011E0FFEF54FEFFEFF02290BF
:4044000000BCEFF0900001E0FFEF6055124E8A900047E0FF900025E0FEEEB5071590646CE0FFEF20E20C9000BCE0FF90644CEFF0802C900047E0FFEFC39420400590004771
:40444000E4F09000BCE0FF900047E0FE74262EF582E43400F583EFF0900047E004F0124E83224200D0000A4200ED00014201480000420146000041000100410025004100E1
:40448000470041000400410046004100030041000200440138016E360044013300005DC04101371844013D2EE0000041015000410156004101510041015700410158004159
:4044C000015900007F011231947F2A1243FF124ED2EF30E1F97F2A1243FF124ED2EF30E1F97F2A1243FF124ED2EF30E1F97F2A1243FF124ED2EF30E1F97F2A1243FF124E0E
:40450000D2EF30E1F97F2A1243FF124ED2EF30E1F97F3F1243FF124ED2EF30E1F97F041230E480A0229000A0EFF09000A1EDF09000A1E0FFEFD394075003D38001C3400527
:404540007F00124C209000A0E0FFEFD3941F5003D38001C340057F00124C209000A1E0FFEF5407FF7E00EF75F020A4FFAEF09000A0E0FEEE541FFE74802EF582E43444F52B
:4045800083EFF0229000B01233E99000B3E4F0A3E4F0900001E0FFEF60429000B01233E09000B3E0FEA3E0FFE92FF9EA3EFA1231F3FFEF60279000B01233E09000B3E0FE0E
:4045C000A3E0FFE92FF9EA3EFA1231F3FF123E799000B3E475F00112321E80BE22C0E0C0F0C083C082C085C084C086758600C093759300C0D075D000C000C001C002C003E4
:40460000C004C005C006C0077F0212316DD007D006D005D004D003D002D001D000D0D0D093D086D084D085D082D083D0F0D0E03290656AE0FFEF30E30B7B027A65795A12C2
:404640004DCB80EC124C0B90008BEFF090659AE0FFEF4403FFEFF090659AE0FFEF54FCFFEFF090659BE0FFEF4403FFEFF090659BE0FFEF54FCFFEFF090008BE0FF124B845C
:404680002290658B740FF09044C87404F07C4E7DE87F021240F07D077F021245259044C87402F07C4E7DE97F011240F07D077F01124525124630124D59124D6990648F74FB
:4046C00005F090658A7418F022124C0B9000B0EFF090649CE0FFEF4401FFEFF090649CE0FFEF54FEFFEFF09000B0E0FF124B84124E8A900025E4F0900047E4F0124E8322EE
:40470000EC4D4E700D78FCEF24E950032840FD22000078C5904800E0C4030354039047479325E0240FF404FBEF28FF78FFEE38FEED38FDEC38FC50D7EF2BFFEE38FEED38BD
:40474000FDEC38FC40F22205020304124C0B9000B0EFF0906498E0FFEF4401FFEFF0906498E0FFEF54FEFFEFF09000B0E0FF124B84124E7C900004E4F0900046E4F09000AD
:4047800003E4F0900002E4F0124E75227C3D7DAB7F031240F07D077F031245259064887476F09064877420F07C3F7DD87F041240F07D077F0412452590642F740FF0906467
:4047C0003F7490F090648C7402F022124C0B9000A0EFF0906498E0FFEF4420FFEFF0906497E0FFEF4410FFEFF09044C07408F090649CE0FFEF4410FFEFF09044C07410F047
:404800009000A0E0FF124B8422124C0B90008BEFF090659BE0FFEF4420FFEFF090649FE0FFEF4410FFEFF090659AE0FFEF4410FFEFF090008BE0FF124B849044C07404F06A
:404840009044C07402F022124C0B90008BEFF0906597E0FFEF4420FFEFF0906598E0FFEF4410FFEFF0906596E0FFEF4410FFEFF090008BE0FF124B84124BB3124EE5124E75
:40488000E62290008BEFF090008BE0FFC3EF64809480401090008BE0FFEF2480FF90008CEFF0800E90008BE0FFEFF404FF90008CEFF090008CE0FF124D9922124C0B900004
:4048C000A0EFF0906498E0FFEF54DFFFEFF0906497E0FFEF54EFFFEFF0124E7C90649CE0FFEF54EFFFEFF0124E8A9000A0E0FF124B8422906566E0FFEF30E507906558E08B
:40490000FF80F0124C0B90008BEFF0906598E0FFEF4401FFEFF0906598E0FFEF54FEFFEFF090008BE0FF124B8422906476E0FFEF54C0FF9000A0EFF09000A0E0FFEF4409FA
:40494000FF906476EFF0906596E0FFEF4401FFEFF07F01124D297F01124D397F01124D49227B0C7A0179CF124E329000C1EFF09000C1E0FFEF5407FF90586EEFF09000C1FE
:40498000E0FFEFC4540FFFEF540FFF90586FEFF09058767444F022758600EF4E6027EF60010E7593009000C6E0F595A3E0F585A3E0F5848B938A838982E0A30586F0A3158A
:4049C00086DFF6DEF4E4F593F595229044C87401F07B027A447900C003C002C0017BFF7A2E79FCAC02AD01D001D002D003124DDA904480E4F09044C07401F022EEFA900119
:404A000037E0F88FF0A4FFAEF0E88AF0A42EFEE5F03400FDEF24C9FF78FFEE38FEED38FDE438FC500302470022124C0B9000A0EFF0906598E0FFEF4401FFEFF0906598E09E
:404A4000FFEF54FEFFEFF09000A0E0FF124B8422758600EF4E601BEF60010E8C838D828B958A858984E493A30586F0A31586DFF5DEF3E4F595229000BFEEF0A3EFF09064F0
:404A80006FE0FFEF30E1F77B027A65794A9000BFE0FCA3E0FD124DDA227F0F124D79124C0B90008BEFF090649EE0FFEF4410FFEFF090008BE0FF124B84229000B8EEF0A36B
:404AC000EFF0124EA69000B8E0FEA3E0FF124AF77F01124BE0124E9F2290008BEEF0A3EFF07B027A44790A90008BE0FEA3E0FFAD07AC06124DDA229000BAEEF0A3EFF07B5E
:404B0000027A4479129000BAE0FEA3E0FFAD07AC06124DDA22124E569000C0EFF09000C0E0FF7E00EF2480FF9000BFEFF09000BFE0FF22124C897F80124D99900157E0FF78
:404B4000EF7009124EE79001577401F0124A9922906587740FF01248F3124CF9124D09906588E4F09065867430F0229000A5EFF0906568E0FFEF30E2F79000A5E0FF906554
:404B800048EFF022EF54016004D2AF8002C2AFEF5402FF9044F4E054FD4FF022904585E0FFEF5404FF7E00EF7802CEC313CE13D8F9FF229043A2E0FFEF4402FFEFF09043DB
:404BC000B2E0FFEF4402FFEFF02290008BEFF090008BE0FFEFC43354E0FF904485EFF0229000BAEFF09000BAE0FFEFC43354E0FF904489EFF022900001E0FFEF700912478E
:404C00008C9000017401F01247CB229044F4E0F84402F0E85402FF10AF012274014FFF2290FFFF123418EFF09046EA7401F090000112341822900150E0FFEF7009124B50FC
:404C40009001507401F012484722900156E0FFEF700912492A9001567401F0124E0E22900151E0FFEF70091246819001517401F01248092290656AE0FFEF30E30B7B027A8C
:404C800065795A124DCB80EC22900158E0FFEF70091242CF9001587401F0124E4A22124E987E457FDD124AD97F02124BCA124E9122124EA67E4E7FE4124AF77F01124BE04B
:404CC000124E9F22124EAD7E347F3C124ABA7F0112319480F9229000C6EFF09000C6E0FF9000C6EFF080FE22906566E0FFEF30E507906558E0FF80F022906568E0FF900003
:404D0000A5EFF09000A5E0FF22906566E0FF9000A0EFF09000A0E0FF22906558E0FF9000A0EFF09000A0E0FF229000A1EFF09000A1E0FF906506EFF0229000A1EFF0900017
:404D4000A1E0FF906546EFF0229000A1EFF09000A1E0FF906526EFF02290646FE0FF9000BFEFF09000BFE0FF2290656AE0FF90008BEFF090008BE0FF2290008CEFF090009C
:404D80008CE0FF90648EEFF02290008DEFF090008DE0FF90648DEFF02290008DEFF090008DE0FF90640AEFF02290008DEFF090008DE0FF90642AEFF02290008DEFF09000F1
:404DC0008DE0FF90643AEFF0228B938A838982E0FFA3E0FE759300228B938A838982EDF0A3ECF0759300222A2A2A23002A0023002A2A2A3F00124ED8EF30E605124EDE80F1
:404E0000F4229046F6E0FFEF4401FFEFF022906476E0FFEF4480FFEFF022906476E0FFEF547FFFEFF02241723F3B11894CC444C441F28B938A838982E0759300FF228B9307
:404E40008A838982EDF07593002290647EE0FFEF4480FFEFF02290640AE0FF90644AE0FF227B027A407980124DCB22904082E0FFEF5407FF229044C07408F0229044C874A9
:404E800008F0229044C07410F0229044C87410F0229044C07420F0229044C87420F0229044C17402F0229044C97402F0229044D97402F0227F0112305B227F0212305B220A
:404EC0007F0312305B227F0412305B227F0512305B2290646CE0FF2290646DE0FF2290644AE0FF22322222223232200000000F0000000000000400000008000000000000B3
:404F00000000000300002001000006000000000000E0000000000000CC00FF3F00000000000000000200000000009A000100000000011B0480002000C0009B00000304009E
:404F40001A009B0000002400C8009B00000002006400E40010000000010000011E040102E00000008800000010040000000000000000000000000000000000008000000078
:404F800000000404000441400001000000000000000000000000000000000000000000000000000000000000000001030E10E780180C1E0401002343DC3CDD002233004C97
:404FC000D033C64F393000800000000000009008000050020020007D3F00E03F1FC01040000000080A020000001000000000000000000000000000000000000000001A005E
:40500000040004040004000000010000000000000000000000000000000000000000000000000000000000000000000400004762381D4946360000468000240F12203842F3
:405040000704000040105B422400004200046D01125A6D0412420000000000003F18C0650007000000200000000056010300020E0C0005FFFFFF62A0F0410C0000000000D5
:40508000021304040404100000010000000000004002001030100010101200000000000000000000000000000000000100003000C90000000F0000000000FD00020073007B
:4050C0000000000000009E006000000000000000000094006000CF003003FF02000000010000000000000000011000000000000000000000000000000000000000000000A9
:405100000800040400042020000100000000000000000000000000000000000000000000000000000000000000000000000000030000001D000002040008000000100000DC
:40514000001C0000000000030300000000200010000000040008001C00000102003C00010200002200000000401062030000004EC3021FFFFFFF00A00001180000000000B4
:4051800000000404040033030001400080004040800040008000402080000000000000000000000000000000000000090810002000400000001000200040051C0002001028
:4051C000000C000C08110080070300600000001401000020004000200040020001600480081F0000000000005410000000000000000000000000000000000000000000004D
:40520000080004040004022000010000000000000000000000000000000000000000000000000000000000000000000000000000000023080C00090020000058000200324B
:405240002E440032000C1000000000000000030024012300046E000000012030104C0F01100E00022088000041113102000000EC000B13FFFFFF0000F0440C00000001005F
:4052800004000404040400000001000000000000C0000000400200000000000000000000000000000000000000000000000C020800040000000000020000000000000000BB
:4052C00000000000030000000003000000000000000000000000000000000201000201080004000000000000015400000000000000000000000000000000000000000F0032
:40530000000004040004333000050000000000000000000000000000000000000000000000000000000000000000850042000203E40000000008000019008706200000007B
:405340000000080000000000000066068100E30000000600200000050800070008081007E400002000000000040000000000000000000000000000000000000080000F005D
:405380000400040400043330000100000000000000000000000000000000000000000000000000000000000000000100020001000600000200010001000200010006010061
:4053C0000A000201010200000000000000000000000000001000000000080400080803031004000020200000000001000000001050000AFF0FFF4020F00508000000410001
:405400000400040404043320000140A8402000000000000000000000000000000000000000000000000000000000000000000013002C00000000000000001C65001A0002E0
:40544000000D064909060B001400004000000000000008001300000000001E000070010F00000200002800001000300500000001020005FFFFFF00A0000418000000400039
:40548000000004040404111400014000C0004040C000C000C000C000C00000000000000000000000000000000000000040000000010000008800101D0060F30004750000B4
:4054C000307D201D00600F00F000011400213F00C0023510CA400060CE1C0004FF033470000800800028000004000000000000000000000000000000000000000000000035
:405500000224040400040010000100000000000000000000000000000000000000000000000000000000000000000060000000560909048000040000000000070038000A8F
:4055400001100001020000040000040400800484000000840000008400000400087F0300008000080000000011406304500002CEF0BD3BFFFFFF2200F00804000000090001
:40558000000004040404101100010000C00040011011C0010011400140010000000000000000000000000000000000000000000300FC007700000000000000CC00230300DB
:4055C00000000085001A00CA001500000000000001000000000000BF004000F002000000010F000000000000440000000000000000000000000000000000000000000000E7
:405600000800040400043020000100000000000000000000000000000000000000000000000000000000000000000000000000000000000000000000010000000000000004
:40564000000000000000000000000001000000000000000000000000000000000000000001010000000000000040010210000600000000FFFFFF0200700C8C100000200097
:405680000400040424040828002100000000000000004001C00100000000000000000000000000000000000000000000000003C31C0824C3DB1000000002924349A0E00007
:4056C0001C001C00E3006D00920000C30004B6004900B60049010000003C0001003E0080FF4000000000000040550103100002FBE0CD3BFFFFFF2300F00C8C10000000004A
:405700000228040424240088083100000000000000004001C0010000000000000000000000000000000000000000000000000000000000000000000000000000000000002C
:40574000003A760000000F6F0F4700000000000000000000000000000000000000000000000F0000780F000000001F00000000000000000013000F0000001F0000000000AF
:405780000000000013000F000D0000000000000200000000000000000100000040001000000000000000000000000000000000000000000000000000000000000000000067
:4057C0000000000000000000000000000000000000000000000000000000000000000000000001000020010000000000000000000000000000000000000000000000000087
:4058000000000000000000000000000000000000000010004000000200000100000000000100010000200000000000000000000000000000000000000100040002000000EC
:4058400000000000000000000000040001000C0000000000000000000000000000000100030000000000000000000000060000000100000000000100040000000000000007
:4058800000000000000000000000000002000000000000000000000000000000000000000000000000000000000000000000000000000000000000000000000000000000E6
:4058C00000000000000000000000000000000000000000000000000000000000000000000000040000000000000000000000000000000000000000000000000000000000A4
:405900000000000000000000000000000000010000000000000000000000010000000000000000000020000000000000000000000000000000000000000000000000000045
:405940000000000000000000000002000000000000000000000000000000000000000000020000000000000000000000000000000000000000000000000000000000000023
:4059800000000000000000000000000000000000000000000000010000000000000000000000000000200000000000000000000000000000000000000000000000000000C6
:4059C000000000000000000000000000000000000000000000000000000000000000000000000000000000000000000000000800000000000000000000000000000000009F
:405A00000000000000000000000000000000000000000000000000000020000000000000000000000000000000000000000000000000000000000000000000000000000046
:405A4000000000000000000000000000000000000000000000000000000000000000000000000000000000000000000000000800000000000000000000000000000000001E
:405A800000000000000000000000000000000000000000000000000000000000000000000000000000000000000000000000000000000000000100000000000000000028BD
:405AC00000000000000000000000000000000000000000000000000000000000000000000000000000000000000000000000000000000000000000000A000000000000009C
:405B0000000000000000000000000000000000000000002000000008000100000000000000000000000000000000000000000000000000000000000000000000000000003C
:405B40000000000000000000000000000000000000000000000000000000000000000000000000000000000000000000000000000000000000000000000000000000000025
:405B800000000000000000000000000000000000000000000000000000000000000000000000000000000000000000000000000000000000000000000000000000000000E5
:405BC000000000000000000000000000070000000000000000000000000000000000000000000000000000000000000000000000000000000000000000000000000000009E
:405C00000000000000000000000080000000200800000000000000006A00000000000000001400800000004000000100000000800868000200000090008800000000000073
:405C40000001000000008000140000800800108000200000080000020004000000000000220800020000000000001500004010040800000000000000148100000000000017
:405C8000000000080000000000500000000040100040000400500008000034004000000000240004001440482248400015000000000012000000140010204000010000C052
:405CC000000800000000000000006100F000600000000000B100800070007C000400000001004F0000000000C2000000400000000000400008000000000000000000000030
:405D00000000000000000000000000000000000000000000000000008000000000000000000000000000000000000000000000008000000000000120022000000000001010
:405D40000000000000000000000000000000000000000000000000000000000000000000000000000000000000000000000000000200020000000200080000000000000015
:405D80000000000000000000000000000000002800000100802000002800000000040000100100040100002000290000420002000022010000002002100200802200000052
:405DC000882100000410002A0000000000000404100100000000052408020000000010010800400000000054000202000000000000020000000000000000000000000000BD
:405E0000000000000000000000000810010010000820A050000B080210002C004010000010000000041519C823400080B5008864020110000040010000010000800000001D
:405E40000000000000000000000060006400340000000000F800FD00E600E00030000000F80018000000000000004200A000B000000080000000000000000000000000001D
:405E8000000000000000000000000A0000090000000010484000000082040200A80000000020002400000010800000602D00040000200004020900000080022004000800C5
:405EC0000120400000000000000400000000000000080000000000000088000000000000004000000000000000000C00000006000020504204040000000040000000000061
:405F000000000000000000000000002000040600000054000080414080004000402402820E0010000009020082240248010901202004000008404000100400400000800076
:405F4000000000000000000000000F00DF004F00000000008F00E7004800400010000000000074000000000000000500080000000200040012000000080000000000000035
:405F80000000000000000000000028002000204800000180011000006A0000200600000000140001000000002800040100000800002102000000880008000000000008000A
:405FC000802100020000008810020000000010200100000000002040080000000000000040000000004000020000020000000000000000000000001046940000000001203C
:4060000010000000000000000000000200000000100000200000044008200000011000104400000000001181620014100800200002C0000000100000000020000200000811
:4060400080000000000000000000E600FD00630000000000E800F000F1007000300000008800080000000000000040003000000000004000000010000000000000000000A1
:4060800000000000000000000000420020080240000400084800000126001A000000020090200010400900402010400C1800000004481000000900000000422004000001F4
:4060C0000000402802004080200800000000000000000000000000000000000000000000000000100200000000008400400000000000000000000000000000000000000177
:4061000000000000000000000000000010000810000110000000400001000400000000800000000060000000000002000000000004000200000000000000000000000040B9
:4061400004000000000000000000DF00FE00F700000000000E008F006F0000000000000005000D00000000000000000002000400000000000400000000000000000000001F
:406180000000000000000000000008000022000040000000000210008001042000000000100000400002000080582405040000008814050100200010488080000600000047
:4061C000842100A00018020004A0044401000000000008040002000000008020000400000000000000002080000000000000080010010000000000000000000000000000E8
:40620000000000000000000000000000000000000040000000480000000400200100000A006800000821094CA0000D100410A0200200000000080000000000010000000025
:40624000000000000000000000001100D100200000000000FF00FB00FE0006000400000030003000000000000000000000000000000000000000000080000000000000003A
:406280000000000000000000000000000000000040000000000000000000040000000000000000002000000000000000000000000000040000000000000000002000000056
:4062C0000000000000000000000000000000000000000000000000000000000000000000000000000000000000000000080000000000000004000000000000000000000092
:4063000000000000000000000000040000000010000110000008000020020000000020040020040100000090680840005400000000690000000020008008800000000000A0
:406340000425400A000020000020000000000080002400000000000500000000000000000800104108002009400000240000000200000000000000000000000000000000D1
:406380000000002000000000000000000000000000000100100000000000002001000000A06000000000090220401C100001000002000002000000000000000000001000DF
:4063C00080000000000000000000C400A2006000000000007000E8002B00700000000000FF00860000000000040000000000000000000000010000000000000000000000DA
:40640000000000000000000000000000000000000000000000000000000000000000000000000000000000000000000000000000000000000000000000000000000000005C
:406440000000000000000000000000000000000000000000000000000000000000000000000000000000000000000000000000000000000001000000040000000000000017
:40648000000000000000000000000800008200050000000204000004080002202002000000200000158208050A00041420080050002001000080080090000002020000005C
:4064C00001202400000000A000000000000020002040000000000000000200000000100000000100A00A2800004080000000000000A00000000000000000020000000000F0
:40650000000000000000000000008000000000000040000000000000000000000000000000000000000000000000000000000000000000000000000000000000000000009B
:40654000000000000000000000003D006A004F00000000001900A10036001000000000007F00C10000000000000000000000000000000000000000000000000000000000E5
:4065800000000000000000000000000000000000000000000000000000000000000000000000000000000000000000000000000000000000000000000000000000000000DB
:4065C0000000000000000000000000000000000000000000000000000000000000000000000000000000000000000000080000000100000000000000000000000000000092
:4066000000000000000000000000000000000000000000000000000000000000000000000000000000000000000000008000000000000000000000000000000000000000DA
:40664000000000000000000000000000000000000000000000000000000000000000000000000000008000000000000000000000000000000000000000000000000000009A
:40668000000000000000000000000000000000002000000000000000000000000000000000000000008000000000000000000000A00000000000000000000000000000009A
:4066C00000000000000000000000000000000000000010000000000000000000000080000000000000000000000000000000000040000000000000000000000000000000CA
:40670000000000000000000000000000000000000000000000000000000000000000000000000000008000000000000000000000A000000000020000000000000000000037
:406740000100000000000000000000000000000000000000000000000000000000000000000000000000000000000000000000000000000000000000800000000000000098
:40678000000000000000000000000000000000000000000000000000000000000000000000000000008000000002000000000000A1000000000000000000000000000000B6
:4067C0000000000000000000000000000000000000000000000000000000000000000000000000000000000000000000000000000000000000000000000000000000000099
:40680000000000000000000000000000000000000000000000000000000000000000000000000000008000000002000000000000A100000000000000000000000000000035
:406840000000000000000000000000000000000000000000000000000000000000000000000000000000000000000000000000000000000000000000000000000000000018
:406880000000000000000000000000000000000000000000000000000000000000000000000000000000000000000000000000000000000000000000000000400000002078
:4068C0000000000000000000000000000000000000000040010000000000000000000000000000000000000000020000000000000000000000000000000000000000000055
:40690000000000000000000000000000000000000000000000000000000000000000000000000020008000000000000000000000A100400000800000000000000000000056
:4069400000000000000000000000000000000000000000000000300000000000000000008000000000000000000000000000000000000000800000002000000000000000C7
:406980000000000000000000000000000000000000000000000000000000000000000000000000000000000000000000000000000000000000000000000002008000000055
:4069C0002100400000000000000000000000000000000000000000000000000000000000000000000000000000000000000000000000000000000000000000000000000036
:406A00000000000000000000000000200000020000000000000000000000000000000000000000000000000000000000000000000000000000000000000000000000000034
:406A400000000000000000000000000000000000000000000000F0001000000000000000000000000000000000000000100000008000000000000000000000000000000086
:406A8000000000000000000000000100000000000100010000001000000001000000100001000100000001000823026A8A7610000823036A927618000823046A9A76200087
:406AC0000523056AA27030000523066AA27040000523FE6AA2705001802208014A000001802209014A02000180220A014A04000180220B014A14000080220C014A420000AE
:406B000080220D014A43000080220E014A45000080220F014A460000802210014A4700008022FE014A4800000723124EEA5200000723134EF15208000723144EF852180095
:406B40000723154EFF5220000723164F065228000723174F0D5230000623184F145260000823194F2245280020231A572A6470002023FE574A65700008231C4F1A51000007
:406B800080231D4F2A06000080231E4FAA06800080231F502A08000080232050AA088000802321512A0A000080232251AA0A8000802323522A0C000080232452AA0C80009D
:406BC000802325532A0E000080232653AA0E8000802327542A16000080232854AA168000802329552A18000080232A55AA18800080232B562A1A000080232C56AA1A800099
:406C000010232D576A50100010232E577A50000080232F578A4D0000802330580A4D8000802331588A4C0000802332590A4C8000802333598A4780008023345A0A468000C8
:406C40008023355A8A4580008023365B0A4400008023375B8A4480008023385C0A1B00008023395C8A1B800080233A5D0A15800080233B5D8A19000080233C5E0A1980003E
:406C800080233D5E8A17000080233E5F0A17800080233F5F8A090000802340600A098000802341608A070000802342610A078000802343618A0B0000802344620A0B800004
:406CC000802345628A058000802346630A0D0000802347638A0D8000802348640A038000802349648A0F000080234A650A0F800080234B658A01800080234C660A490000BE
:406D000080234D668A49800080234E670A48800080234F678A438000802350680A428000802351688A410000802352690A418000802353698A4000008023FE6A0A4080085D
:406D4000000728200020000000CC303000000000000020200000000000048080008000000000FEFE0000000000C00000FC3C0008000000020001020000000000001000861D
:406D800071710061000000E0181800000000000000000000000000000000000000000000000000000000000000000000000000000000000000000000000000000000000080
:406DC0000000000000000000000000000000000000000000000000000000000000000000000000000000000000000000000000000000000000000000000000000000000093
:406E00000000000000000000000000000000000000000000000000000000000000000000000000000000000000000000000000000000000000000000000000000000000052
:406E40000000000000000000000000000000000000000000000000000000000000000000000000000000000000000000000000000000000000000000000000000000000012
:406E800000000000000000000000000000000000000000000000000000000000000000000000000000000000000000000000000000000000000000000000000000000000D2
:0200000490006A
:040000000000400DAF
:0200000490105A
:04000000BC90ACAF55
:0200000490303A
:020000007EFF81
:0200000490501A
:0C00000000011E08A06903011E331F68E8
:0200000490402A
:4000000000000000000000000000000000000000000000000000000000000000000000000000000000000000000000000000000000000000000000000000000000000000C0
:00000001FF
