:40000000023876008F828E83E0540100000070F82278FFE4F6D8FD0239419000941233BE12464B1247F39000941233B51231C8FFEF1233C700C303010806012C0902650AD8
:4000400003040B03870C040A10042611043F1C04F640050F45060D4607324707534807745008EF510074F1008DF200E7FC1101FF000011811242B47BFF7A3A79BD12449E35
:40008000124DDBEF30E10302118180F4221242B4905015E0FFEF4401FFEFF07F647E00124934905014E0FFEF4401FFEFF07BFF7A3A79C312449E124DDBEF30E103021181E7
:4000C00080F4221242B4905012E0FFEF4401FFEFF07BFF7A3A79C912449E124DDBEF30E10302118180F422905011E0FFEF4401FFEFF07BFF7A3A79CF12449E124DDBEF300F
:40010000E10302118180F4221242B4905013E0FFEF4401FFEFF07BFF7A3A79D512449E124DDBEF30E10302118180F42290501CE0FFEF4401FFEFF090501DE0FFEF4401FFF2
:40014000EFF09000EDE0FEA3E0FFE4FCFD124183900095E475F0011231F39000941233B51231C8FF7E00121DDC90010AE0FF9000D2EFF09000EDE0FEA3E0FFE4FCFD1241F2
:4001800083900095E475F0011231F39000941233B51231C8FF7E0012265490010BE0FF9000D4EFF09000FBE0FF9000D6EFF0900102E0FF9000D8EFF09000EBE0FF9000DAFB
:4001C000EFF09000F3E0FF9000DCEFF09000F8E0FF9000DEEFF0900106E0FF9000E0EFF09000D0E0FEA3E0FFE4FCFD1241837BFF7A3A79DB12449E124DDBEF30E1F97BFF64
:400200007A3A79DD12449E124DDBEF30E1F97BFF7A3A79DF12449E124DDBEF30E1F97BFF7A3A79DF12449E124DDBEF30E1F97BFF7A3A79E112449E124DDBEF30E1F97BFF0A
:400240007A3A79DB12449E124DDBEF30E1F97BFF7A3A79DB12449E124DDBEF30E1F912464B1247F3227BFF7A3A79B812449E124DDBEF30E1F912496190502CE0FFEF54FE27
:40028000FFEFF07F15124A867F15124A867F15124A86124C02EF20E10A124C22900098EFF080EF7F0E7E0012493490502CE0FFEF4401FFEFF07F057E00124934124C12EF27
:4002C0007003021181124C22900098EFF0900098E0FFEFB4150C900098E0FF900097EFF08005900097E4F0900097E0FF124319124DDBEF30E1F9124BF1900097E4F0900098
:4003000098E4F022900095E475F0011231F390501CE0FFEF4401FFEFF090501DE0FFEF4401FFEFF09000EDE0FEA3E0FFE4FCFD1241839000941233B51231C8FF7E00121D4A
:40034000DC7BFF7A3A79E312449E124DDBEF30E1F97BFF7A3A79E312449E124DDBEF30E1F97BFF7A3A79E312449E124DDBEF30E1F97BFF7A3A79E512449E124DDBEF30E1D4
:400380000302118180F422900095E475F0011231F390501CE0FFEF4401FFEFF090501DE0FFEF4401FFEFF09000EDE0FEA3E0FFE4FCFD1241839000941233B51231C8FF7E5A
:4003C000001226547BFF7A3A79E312449E124DDBEF30E1F97BFF7A3A79E312449E124DDBEF30E1F97BFF7A3A79E312449E124DDBEF30E1F97BFF7A3A79E512449E124DDBA4
:40040000EF30E10302118180F422124B65124D177BFF7A3A79B812449E124DDBEF30E10302118180F422124D237BFF7A3A79B812449E124DDBEF30E10302118180F42290D1
:400440000095E475F0011231F39000941233B51231C8FFEF600E9000941233B51231C8FFEFB401259000941233B51231C8FF900143EFF07BFF7A3A79B812449E124DDBEF9A
:4004800030E10302118180F4229000941233B51231C8FFEFB40F167BFF7A3A79B812449E124DDBEF30E10302118180F422900100E4F0900100E0FFEFD3941F501990010010
:4004C000E0FF74092FF582E43401F583E4F0900100E004F080DC9000FEE4F09000F9E4F07BFF7A3A79E712449E124DDBEF30E10302118180F4221242B47BFF7A3A79B812B3
:40050000449E124DDBEF30E10302118180F4227BFF7A3A79B812449E124DDBEF30E1F99000F0E4F0905015E0FFEF30E4109000F0E0FFEF4401FF9000F0EFF0800E9000F0B2
:40054000E0FFEF54FEFF9000F0EFF0905014E0FFEF30E4109000F0E0FFEF4402FF9000F0EFF0800E9000F0E0FFEF54FDFF9000F0EFF0905012E0FFEF30E4109000F0E0FF57
:40058000EF4404FF9000F0EFF0800E9000F0E0FFEF54FBFF9000F0EFF0905013E0FFEF30E4109000F0E0FFEF4408FF9000F0EFF0800E9000F0E0FFEF54F7FF9000F0EFF0BB
:4005C000905011E0FFEF30E4109000F0E0FFEF4410FF9000F0EFF0800E9000F0E0FFEF54EFFF9000F0EFF09000F0E0FFEF541FFF9000F0EFF01247F39000F0E0FF12431963
:40060000124DDBEF30E10302118180F4227BFF7A3A79B812449E124DDBEF30E1F99000F0E4F0905016E0FFEF30E4109000F0E0FFEF4401FF9000F0EFF0800E9000F0E0FFB3
:40064000EF54FEFF9000F0EFF0905017E0FFEF30E4109000F0E0FFEF4402FF9000F0EFF0800E9000F0E0FFEF54FDFF9000F0EFF0905064E0FFEF30E4109000F0E0FFEF44AD
:4006800004FF9000F0EFF0800E9000F0E0FFEF54FBFF9000F0EFF0905065E0FFEF30E4109000F0E0FFEF4408FF9000F0EFF0800E9000F0E0FFEF54F7FF9000F0EFF09050BB
:4006C00034E0FFEF30E4109000F0E0FFEF4410FF9000F0EFF0800E9000F0E0FFEF54EFFF9000F0EFF0905033E0FFEF30E4109000F0E0FFEF4420FF9000F0EFF0800E900024
:40070000F0E0FFEF54DFFF9000F0EFF09000F0E0FFEF543FFF9000F0EFF01247F39000F0E0FF124319124DDBEF30E10302118180F422905033E0FFEF4401FFEFF07BFF7AB3
:400740003A79EC12449E124DDBEF30E10302118180F422905033E0FFEF54FEFFEFF07BFF7A3A79F212449E124DDBEF30E10302118180F422900095E475F0011231F3900045
:40078000941233B51231C8FFEF640170251247BB7D017F9B7E00123411124B117BFF7A3A79B812449E124DDBEF30E10302118180F4229000941233B51231C8FFEF64027022
:4007C000251247BB7D017F4D7E00123411124B117BFF7A3A79B812449E124DDBEF30E10302118180F4229000941233B51231C8FFEF640370251247BB7D017F257E0012346C
:4008000011124B117BFF7A3A79B812449E124DDBEF30E10302118180F4229000941233B51231C8FFEF640470251247BB7D017F197E00123411124B117BFF7A3A79B8124449
:400840009E124DDBEF30E10302118180F4229000941233B51231C8FFEF640570251247BB7D017F0C7E00123411124B117BFF7A3A79B812449E124DDBEF30E103021181805A
:40088000F4229000941233B51231C8FFEFB40F167BFF7A3A79B812449E124DDBEF30E10302118180F422900100E4F0900100E0FFEFD3941F5019900100E0FF74092FF58232
:4008C000E43401F583E4F0900100E004F080DC9000FEE4F09000F9E4F07BFF7A3A79E712449E124DDBEF30E10302118180F422900095E475F0011231F39000941233B51255
:4009000031C8FF9000FFEFF0905033E0FFEF5410FF7E00EF4E60030210AD9000941233B51231C8FFEF1233C709740009C1010A0E020A5B030AA8040AF5050B42060B8F0795
:400940000BDC080C29090C760A0CC30B0D100C0D5D0D0DAA0E0DF70F0E44100E91110EDE120F2B130F78140FC515101216105F1700001181905016E0FFEF54FEFFEFF090B7
:400980005017E0FFEF54FEFFEFF0905064E0FFEF54FEFFEFF0905065E0FFEF54FEFFEFF0905034E0FFEF54FEFFEFF07BFF7A3A79F812449E124DDBEF30E10302118180F463
:4009C00022905016E0FFEF4401FFEFF0905017E0FFEF54FEFFEFF0905064E0FFEF54FEFFEFF0905065E0FFEF54FEFFEFF0905034E0FFEF54FEFFEFF07BFF7A3A79FE124467
:400A00009E124DDBEF30E10302118180F422905016E0FFEF54FEFFEFF0905017E0FFEF4401FFEFF0905064E0FFEF54FEFFEFF0905065E0FFEF54FEFFEFF0905034E0FFEF6E
:400A400054FEFFEFF07BFF7A3B790412449E124DDBEF30E10302118180F422905016E0FFEF4401FFEFF0905017E0FFEF4401FFEFF0905064E0FFEF54FEFFEFF0905065E009
:400A8000FFEF54FEFFEFF0905034E0FFEF54FEFFEFF07BFF7A3B790A12449E124DDBEF30E10302118180F422905016E0FFEF54FEFFEFF0905017E0FFEF54FEFFEFF0905030
:400AC00064E0FFEF4401FFEFF0905065E0FFEF54FEFFEFF0905034E0FFEF54FEFFEFF07BFF7A3B791012449E124DDBEF30E10302118180F422905016E0FFEF4401FFEFF052
:400B0000905017E0FFEF54FEFFEFF0905064E0FFEF4401FFEFF0905065E0FFEF54FEFFEFF0905034E0FFEF54FEFFEFF07BFF7A3B791612449E124DDBEF30E1030211818033
:400B4000F422905016E0FFEF54FEFFEFF0905017E0FFEF4401FFEFF0905064E0FFEF4401FFEFF0905065E0FFEF54FEFFEFF0905034E0FFEF54FEFFEFF07BFF7A3B791C1223
:400B8000449E124DDBEF30E10302118180F422905016E0FFEF4401FFEFF0905017E0FFEF4401FFEFF0905064E0FFEF4401FFEFF0905065E0FFEF54FEFFEFF0905034E0FFB2
:400BC000EF54FEFFEFF07BFF7A3B792212449E124DDBEF30E10302118180F422905016E0FFEF54FEFFEFF0905017E0FFEF54FEFFEFF0905064E0FFEF54FEFFEFF090506541
:400C0000E0FFEF4401FFEFF0905034E0FFEF54FEFFEFF07BFF7A3B792812449E124DDBEF30E10302118180F422905016E0FFEF4401FFEFF0905017E0FFEF54FEFFEFF0901A
:400C40005064E0FFEF54FEFFEFF0905065E0FFEF4401FFEFF0905034E0FFEF54FEFFEFF07BFF7A3B792E12449E124DDBEF30E10302118180F422905016E0FFEF54FEFFEF45
:400C8000F0905017E0FFEF4401FFEFF0905064E0FFEF54FEFFEFF0905065E0FFEF4401FFEFF0905034E0FFEF54FEFFEFF07BFF7A3B793412449E124DDBEF30E10302118131
:400CC00080F422905016E0FFEF4401FFEFF0905017E0FFEF4401FFEFF0905064E0FFEF54FEFFEFF0905065E0FFEF4401FFEFF0905034E0FFEF54FEFFEFF07BFF7A3B793A23
:400D000012449E124DDBEF30E10302118180F422905016E0FFEF54FEFFEFF0905017E0FFEF54FEFFEFF0905064E0FFEF4401FFEFF0905065E0FFEF4401FFEFF0905034E010
:400D4000FFEF54FEFFEFF07BFF7A3B794012449E124DDBEF30E10302118180F422905016E0FFEF4401FFEFF0905017E0FFEF54FEFFEFF0905064E0FFEF4401FFEFF0905021
:400D800065E0FFEF4401FFEFF0905034E0FFEF54FEFFEFF07BFF7A3B794612449E124DDBEF30E10302118180F422905016E0FFEF54FEFFEFF0905017E0FFEF4401FFEFF0A6
:400DC000905064E0FFEF4401FFEFF0905065E0FFEF4401FFEFF0905034E0FFEF54FEFFEFF07BFF7A3B794C12449E124DDBEF30E10302118180F422905016E0FFEF4401FF1F
:400E0000EFF0905017E0FFEF4401FFEFF0905064E0FFEF4401FFEFF0905065E0FFEF4401FFEFF0905034E0FFEF54FEFFEFF07BFF7A3B795212449E124DDBEF30E103021130
:400E40008180F422905016E0FFEF54FEFFEFF0905017E0FFEF54FEFFEFF0905064E0FFEF54FEFFEFF0905065E0FFEF54FEFFEFF0905034E0FFEF4401FFEFF07BFF7A3B7940
:400E80005812449E124DDBEF30E10302118180F422905016E0FFEF4401FFEFF0905017E0FFEF54FEFFEFF0905064E0FFEF54FEFFEFF0905065E0FFEF54FEFFEFF09050340A
:400EC000E0FFEF4401FFEFF07BFF7A3B795E12449E124DDBEF30E10302118180F422905016E0FFEF54FEFFEFF0905017E0FFEF4401FFEFF0905064E0FFEF54FEFFEFF090F2
:400F00005065E0FFEF54FEFFEFF0905034E0FFEF4401FFEFF07BFF7A3B796412449E124DDBEF30E10302118180F422905016E0FFEF4401FFEFF0905017E0FFEF4401FFEFB3
:400F4000F0905064E0FFEF54FEFFEFF0905065E0FFEF54FEFFEFF0905034E0FFEF4401FFEFF07BFF7A3B796A12449E124DDBEF30E10302118180F422905016E0FFEF54FE74
:400F8000FFEFF0905017E0FFEF54FEFFEFF0905064E0FFEF4401FFEFF0905065E0FFEF54FEFFEFF0905034E0FFEF4401FFEFF07BFF7A3B797012449E124DDBEF30E1030296
:400FC000118180F422905016E0FFEF4401FFEFF0905017E0FFEF54FEFFEFF0905064E0FFEF4401FFEFF0905065E0FFEF54FEFFEFF0905034E0FFEF4401FFEFF07BFF7A3B41
:40100000797612449E124DDBEF30E10302118180F422905016E0FFEF54FEFFEFF0905017E0FFEF4401FFEFF0905064E0FFEF4401FFEFF0905065E0FFEF54FEFFEFF0905032
:4010400034E0FFEF4401FFEFF07BFF7A3B797C12449E124DDBEF30E10302118180F422905016E0FFEF4401FFEFF0905017E0FFEF4401FFEFF0905064E0FFEF4401FFEFF0C8
:40108000905065E0FFEF54FEFFEFF0905034E0FFEF4401FFEFF07BFF7A3B798212449E124DDBEF30E10302118180F42222900100E4F0900100E0FFEFD3941F5019900100FD
:4010C000E0FF74092FF582E43401F583E4F0900100E004F080DC7F017E007D007C001241839000FEE4F09000F9E4F07BFF7A3B798812449E124DDBEF30E10302118180F4D3
:4011000022900095E475F0011231F39000941233B51231C8FFEFB4FF04124D0B229000941233B51231C8FFEFB40F137BFF7A3A79B812449E124DDBEF20E14680F7229001B4
:4011400000E4F0900100E0FFEFD3941F5019900100E0FF74092FF582E43401F583E4F0900100E004F080DC9000FEE4F09000F9E4F07BFF7A3A79E712449E124DDBEF30E119
:40118000F9229000A9E4F09000AAE4F09000ABE4F09000AFE4F07F01123169123F859000A8EFF09000A9E0FFEF6003021CD39000A8E0FFEF64FF7045900100E4F09000A8A8
:4011C000E0FF900100E0FE74092EF582E43401F583EFF0900100E004F09000A97401F09000AE7402F07BFF7A4C79F012449E124DDBEF30E103021D5780F4021D579000A8F6
:40120000E0FFEF70101247F39000AAE4F09000A9E4F0021D579000A8E0FFEF640170617BFF7A4C79F512449E124DDBEF30E1F97BFF7A4C79F512449E124DDBEF30E1F97B22
:40124000FF7A4C79F512449E124DDBEF30E1F97BFF7A4C79F712449E124DDBEF30E1F9900129E0FF124319124DDBEF30E1F9900129E4F09000AAE4F09000A9E4F0021D57E4
:401280009000A8E0FFEF64F1706C900100E4F0900100E0FFEFD394085019900100E0FF74092FF582E43401F583E4F0900100E004F080DC900100E4F09000A8E0FF90010095
:4012C000E0FE74092EF582E43401F583EFF0900100E0FF74092FF582E43401F583E0FF90012BEFF07F011231429000AAE4F09000A9E4F0021D579000A8E0FFEF64F2706C12
:40130000900100E4F0900100E0FFEFD394085019900100E0FF74092FF582E43401F583E4F0900100E004F080DC900100E4F09000A8E0FF900100E0FE74092EF582E4340132
:40134000F583EFF0900100E0FF74092FF582E43401F583E0FF90012BEFF07F011231429000AAE4F09000A9E4F0021D579000A8E0FFEF6403706C900100E4F0900100E0FFC4
:40138000EFD394085019900100E0FF74092FF582E43401F583E4F0900100E004F080DC900100E4F09000A8E0FF900100E0FE74092EF582E43401F583EFF0900100E0FF744C
:4013C000092FF582E43401F583E0FF90012BEFF07F011231429000AAE4F09000A9E4F0021D579000A8E0FFEF64FC706C900100E4F0900100E0FFEFD394085019900100E04E
:40140000FF74092FF582E43401F583E4F0900100E004F080DC900100E4F09000A8E0FF900100E0FE74092EF582E43401F583EFF0900100E0FF74092FF582E43401F583E0E3
:40144000FF90012BEFF07F011231429000AAE4F09000A9E4F0021D579000A8E0FFEF6406706C900100E4F0900100E0FFEFD394085019900100E0FF74092FF582E43401F5B3
:4014800083E4F0900100E004F080DC900100E4F09000A8E0FF900100E0FE74092EF582E43401F583EFF0900100E0FF74092FF582E43401F583E0FF90012BEFF07F01123136
:4014C000429000AAE4F09000A9E4F0021D579000A8E0FFEF6408702C7BFF7A4C79F012449E124DDBEF30E1F91247F37F27124319124DDBEF30E1F99000AAE4F09000A9E47D
:40150000F0021D579000A8E0FFEF64D070387BFF7A4C79F012449E124DDBEF30E1F91247F37F03124319124DDBEF30E1F97F01124319124DDBEF30E1F99000AAE4F0900065
:40154000A9E4F0021D579000A8E0FFEF64097045900100E4F09000A8E0FF900100E0FE74092EF582E43401F583EFF0900100E004F09000A97402F09000AE7403F07BFF7A36
:401580004C79F012449E124DDBEF30E103021D5780F4021D579000A8E0FFEF640A7043900100E4F09000A8E0FF900100E0FE74092EF582E43401F583EFF0900100E0FF745D
:4015C000092FF582E43401F583E0FF90012BEFF07F011231429000AAE4F09000A9E4F0021D579000A8E0FFEF640B7045900100E4F09000A8E0FF900100E0FE74092EF58264
:40160000E43401F583EFF0900100E004F09000A97401F09000AE7402F07BFF7A4C79F012449E124DDBEF30E103021D5780F4021D579000A8E0FFEF640C7045900100E4F0C9
:401640009000A8E0FF900100E0FE74092EF582E43401F583EFF0900100E004F09000A97401F09000AE7402F07BFF7A4C79F012449E124DDBEF30E103021D5780F4021D5771
:401680009000A8E0FFEF6410706C900100E4F0900100E0FFEFD394085019900100E0FF74092FF582E43401F583E4F0900100E004F080DC900100E4F09000A8E0FF90010072
:4016C000E0FE74092EF582E43401F583EFF0900100E0FF74092FF582E43401F583E0FF90012BEFF07F011231429000AAE4F09000A9E4F0021D579000A8E0FFEF6411706CEF
:40170000900100E4F0900100E0FFEFD394085019900100E0FF74092FF582E43401F583E4F0900100E004F080DC900100E4F09000A8E0FF900100E0FE74092EF582E434012E
:40174000F583EFF0900100E0FF74092FF582E43401F583E0FF90012BEFF07F011231429000AAE4F09000A9E4F0021D579000A8E0FFEF6418600302180B905101E0FF900182
:4017800007EFF0900107E0FFEFF4FF900107EFF0900107E0FFEF5488FF900107EFF0900107E0FFEF131313541FFF900107EFF07BFF7A4C79F512449E124DDBEF30E1F97BE3
:4017C000FF7A4C79F512449E124DDBEF30E1F97BFF7A4C79F512449E124DDBEF30E1F97BFF7A4C79F712449E124DDBEF30E1F9900107E0FF124319124DDBEF30E1F990003B
:40180000AAE4F09000A9E4F0021D579000A8E0FFEF641C7045900100E4F09000A8E0FF900100E0FE74092EF582E43401F583EFF0900100E004F09000A97401F09000AE743A
:4018400002F07BFF7A4C79F012449E124DDBEF30E103021D5780F4021D579000A8E0FFEF6440706C900100E4F0900100E0FFEFD394085019900100E0FF74092FF582E4346F
:4018800001F583E4F0900100E004F080DC900100E4F09000A8E0FF900100E0FE74092EF582E43401F583EFF0900100E0FF74092FF582E43401F583E0FF90012BEFF07F017F
:4018C0001231429000AAE4F09000A9E4F0021D579000A8E0FFEF6445706C900100E4F0900100E0FFEFD394085019900100E0FF74092FF582E43401F583E4F0900100E0043E
:40190000F080DC900100E4F09000A8E0FF900100E0FE74092EF582E43401F583EFF0900100E0FF74092FF582E43401F583E0FF90012BEFF07F011231429000AAE4F090009D
:40194000A9E4F0021D579000A8E0FFEF6446706C900100E4F0900100E0FFEFD394085019900100E0FF74092FF582E43401F583E4F0900100E004F080DC900100E4F090009E
:40198000A8E0FF900100E0FE74092EF582E43401F583EFF0900100E0FF74092FF582E43401F583E0FF90012BEFF07F011231429000AAE4F09000A9E4F0021D579000A8E053
:4019C000FFEF6447706C900100E4F0900100E0FFEFD394085019900100E0FF74092FF582E43401F583E4F0900100E004F080DC900100E4F09000A8E0FF900100E0FE7409B5
:401A00002EF582E43401F583EFF0900100E0FF74092FF582E43401F583E0FF90012BEFF07F011231429000AAE4F09000A9E4F0021D579000A8E0FFEF6448706C900100E45A
:401A4000F0900100E0FFEFD394085019900100E0FF74092FF582E43401F583E4F0900100E004F080DC900100E4F09000A8E0FF900100E0FE74092EF582E43401F583EFF009
:401A8000900100E0FF74092FF582E43401F583E0FF90012BEFF07F011231429000AAE4F09000A9E4F0021D579000A8E0FFEF64507045900100E4F09000A8E0FF900100E096
:401AC000FE74092EF582E43401F583EFF0900100E004F09000A97401F09000AE7402F07BFF7A4C79F012449E124DDBEF30E103021D5780F4021D579000A8E0FFEF6451704A
:401B000049900100E4F09000A8E0FF900100E0FE74092EF582E43401F583EFF0900100E004F09000A97401F09000AE7402F012464B1247F37BFF7A4C79F012449E124DDB72
:401B4000EF30E1F91247F3021D579000A8E0FFEF6455702F7BFF7A4C79F012449E124DDBEF30E1F91247F39000A8E0FF124319124DDBEF30E1F99000AAE4F09000A9E4F05D
:401B8000021D579000A8E0FFEFB40D289000AAE4F09000A9E4F09001057401F07BFF7A4C79F012449E124DDBEF30E1F97F01123142021D579000A8E0FFEF64DE706E9001A8
:401BC00000E4F0900100E0FFEFD394085019900100E0FF74092FF582E43401F583E4F0900100E004F080DC900100E4F09000A8E0FF900100E0FE74092EF582E43401F58383
:401C0000EFF0900100E004F09000A97402F09000AE7403F07BFF7A4C79F012449E124DDBEF30E103021D5780F4021D579000A8E0FFEF64DD70527BFF7A4C79F012449E122A
:401C40004DDBEF30E1F99000D0E0FEA3E0FFEEFF7E00900108EFF01247F3900108E0FF124319124DDBEF30E1F99000D0E0FEA3E0FF124319124DDBEF30E1F99000AAE4F0CC
:401C80009000A9E4F0021D57900100E4F0900100E0FFEFD3941F5019900100E0FF74092FF582E43401F583E4F0900100E004F080DC9000A9E4F09000AAE4F07BFF7A4C7961
:401CC000F912449E124DDBEF30E103021D5780F4021D579000A9E0FFEF607C9000A8E0FF900100E0FE74092EF582E43401F583EFF0900100E004F09000A9E014F09000A9A4
:401D0000E0FFEF704D9000AA7401F0900109E0FFEFB4DE439000D0E4F0A3E4F090010AE0FF7E009000D0EE8FF01231F39000D0E0FEA3E0FFEF7F00FE9000D0EEF0A3EFF0AA
:401D400090010BE0FF7E009000D0EE8FF01231F380059000AAE4F09000AAE0FFEF64016003021196900100E014FFF09000ABEFF09000AEE0FFEF14FF9000ACEFF09000AE55
:401D8000E0FF9000ADEFF09000ADE0FFEFD3940040369000ABE0FF74092FF582E43401F583E0FF9000ACE0FE742B2EF582E43401F583EFF09000ABE014F09000ACE014F086
:401DC0009000ADE014F080BF9000AAE4F07F01123142900100E004F0021196229000A0EEF0A3EFF09000A2E4F0A3E4F09000A0E0FEA3E0FFD3EF940FEE6480948040030213
:401E00001F959000A0E0FEA3E0FF74017E00A807088005C333CE33CED8F9FF9000A2EEF0A3EFF09000A2E0FEA3E0FFEEFF7E009000A4EFF090502CE0FFEF54FEFFEFF07F6F
:401E400000124A869000A4E0FF124A869000A2E0FEA3E0FF124A86124C02EF30E1F97F0F7E0012493490502CE0FFEF4401FFEFF07F147E0012493490502CE0FFEF54FEFF5B
:401E8000EFF07F01124A867F00124A867F00124A86124C02EF30E1F97F0F7E0012493490502CE0FFEF4401FFEFF07F147E0012493490502CE0FFEF54FEFFEFF07F02124AA7
:401EC000867F00124A867F00124A86124C02EF30E1F97F0F7E0012493490502CE0FFEF4401FFEFF07F147E0012493490502CE0FFEF54FEFFEFF07F03124A867F00124A863A
:401F00007F00124A86124C02EF30E1F97F0F7E0012493490502CE0FFEF4401FFEFF07F147E0012493490502CE0FFEF54FEFFEFF07F08124A867F00124A867F11124A861257
:401F40004C02EF30E1F97F0F7E0012493490502CE0FFEF4401FFEFF07F147E0012493490502CE0FFEF54FEFFEFF07F0F124A867F00124A867F00124A86124C02EF30E1F94D
:401F80007F0F7E0012493490502CE0FFEF4401FFEFF00226489000A0E0FEA3E0FFC3EF9410EE64809480500302215F9000A0E0FEA3E0FFD3EF941FEE648094804003022127
:401FC0005F9000A074FF75F0F01231F39000A0E0FEA3E0FF74017E00A807088005C333CE33CED8F9FF9000A2EEF0A3EFF09000A2E0FEA3E0FFEEFF7E009000A4EFF090507E
:402000002CE0FFEF54FEFFEFF07F00124A867F00124A867F00124A86124C02EF30E1F97F0F7E0012493490502CE0FFEF4401FFEFF07F147E0012493490502CE0FFEF54FE96
:40204000FFEFF07F01124A869000A4E0FF124A869000A2E0FEA3E0FF124A86124C02EF30E1F97F0F7E0012493490502CE0FFEF4401FFEFF07F147E0012493490502CE0FF3B
:40208000EF54FEFFEFF07F02124A867F00124A867F00124A86124C02EF30E1F97F0F7E0012493490502CE0FFEF4401FFEFF07F147E0012493490502CE0FFEF54FEFFEFF041
:4020C0007F03124A867F00124A867F00124A86124C02EF30E1F97F0F7E0012493490502CE0FFEF4401FFEFF07F147E0012493490502CE0FFEF54FEFFEFF07F08124A867F37
:4021000000124A867F12124A86124C02EF30E1F97F0F7E0012493490502CE0FFEF4401FFEFF07F147E0012493490502CE0FFEF54FEFFEFF07F0F124A867F00124A867F005F
:40214000124A86124C02EF30E1F97F0F7E0012493490502CE0FFEF4401FFEFF00226489000A0E0FEA3E0FFC3EF9420EE6480948050030223299000A0E0FEA3E0FFD3EF94B9
:402180002FEE6480948040030223299000A074FF75F0E01231F39000A0E0FEA3E0FF74017E00A807088005C333CE33CED8F9FF9000A2EEF0A3EFF09000A2E0FEA3E0FFEEF5
:4021C000FF7E009000A4EFF090502CE0FFEF54FEFFEFF07F00124A867F00124A867F00124A86124C02EF30E1F97F0F7E0012493490502CE0FFEF4401FFEFF07F147E00120E
:40220000493490502CE0FFEF54FEFFEFF07F01124A867F00124A867F00124A86124C02EF30E1F97F0F7E0012493490502CE0FFEF4401FFEFF07F147E0012493490502CE076
:40224000FFEF54FEFFEFF07F02124A869000A4E0FF124A869000A2E0FEA3E0FF124A86124C02EF30E1F97F0F7E0012493490502CE0FFEF4401FFEFF07F147E001249349053
:40228000502CE0FFEF54FEFFEFF07F03124A867F00124A867F00124A86124C02EF30E1F97F0F7E0012493490502CE0FFEF4401FFEFF07F147E0012493490502CE0FFEF54BF
:4022C000FEFFEFF07F08124A867F00124A867F14124A86124C02EF30E1F97F0F7E0012493490502CE0FFEF4401FFEFF07F147E0012493490502CE0FFEF54FEFFEFF07F0F9A
:40230000124A867F00124A867F00124A86124C02EF30E1F97F0F7E0012493490502CE0FFEF4401FFEFF00226489000A0E0FEA3E0FFC3EF9430EE6480948050030224F390B0
:4023400000A0E0FEA3E0FFD3EF943FEE6480948040030224F39000A074FF75F0D01231F39000A0E0FEA3E0FF74017E00A807088005C333CE33CED8F9FF9000A2EEF0A3EF82
:40238000F09000A2E0FEA3E0FFEEFF7E009000A4EFF090502CE0FFEF54FEFFEFF07F00124A867F00124A867F00124A86124C02EF30E1F97F0F7E0012493490502CE0FFEF22
:4023C0004401FFEFF07F147E0012493490502CE0FFEF54FEFFEFF07F01124A867F00124A867F00124A86124C02EF30E1F97F0F7E0012493490502CE0FFEF4401FFEFF07F7C
:40240000147E0012493490502CE0FFEF54FEFFEFF07F02124A867F00124A867F00124A86124C02EF30E1F97F0F7E0012493490502CE0FFEF4401FFEFF07F147E00124934BB
:4024400090502CE0FFEF54FEFFEFF07F03124A869000A4E0FF124A869000A2E0FEA3E0FF124A86124C02EF30E1F97F0F7E0012493490502CE0FFEF4401FFEFF07F147E0083
:4024800012493490502CE0FFEF54FEFFEFF07F08124A867F00124A867F18124A86124C02EF30E1F97F0F7E0012493490502CE0FFEF4401FFEFF07F147E0012493490502CA3
:4024C000E0FFEF54FEFFEFF07F0F124A867F00124A867F00124A86124C02EF30E1F97F0F7E0012493490502CE0FFEF4401FFEFF002264890502CE0FFEF54FEFFEFF07F00C2
:40250000124A867F00124A867F00124A86124C02EF30E1F97F0F7E0012493490502CE0FFEF4401FFEFF07F147E0012493490502CE0FFEF54FEFFEFF07F01124A867F001269
:402540004A867F00124A86124C02EF30E1F97F0F7E0012493490502CE0FFEF4401FFEFF07F147E0012493490502CE0FFEF54FEFFEFF07F02124A867F00124A867F00124AF0
:4025800086124C02EF30E1F97F0F7E0012493490502CE0FFEF4401FFEFF07F147E0012493490502CE0FFEF54FEFFEFF07F03124A867F00124A867F00124A86124C02EF3055
:4025C000E1F97F0F7E0012493490502CE0FFEF4401FFEFF07F147E0012493490502CE0FFEF54FEFFEFF07F08124A867F00124A867F00124A86124C02EF30E1F97F0F7E002F
:4026000012493490502CE0FFEF4401FFEFF07F147E0012493490502CE0FFEF54FEFFEFF07F0F124A867F00124A867F00124A86124C02EF30E1F97F0F7E0012493490502C32
:40264000E0FFEF4401FFEFF07F0A7E007D007C00124183229000A0EEF0A3EFF09000A2E4F0A3E4F09000A0E0FEA3E0FFD3EF940FEE64809480400302280D9000A0E0FEA35E
:40268000E0FF74017E00A807088005C333CE33CED8F9FF9000A2EEF0A3EFF09000A2E0FEA3E0FFEEFF7E009000A4EFF090502CE0FFEF54FEFFEFF07F04124A869000A4E052
:4026C000FF124A869000A2E0FEA3E0FF124A86124C02EF30E1F97F0F7E0012493490502CE0FFEF4401FFEFF07F147E0012493490502CE0FFEF54FEFFEFF07F05124A867F05
:4027000000124A867F00124A86124C02EF30E1F97F0F7E0012493490502CE0FFEF4401FFEFF07F147E0012493490502CE0FFEF54FEFFEFF07F06124A867F00124A867F0074
:40274000124A86124C02EF30E1F97F0F7E0012493490502CE0FFEF4401FFEFF07F147E0012493490502CE0FFEF54FEFFEFF07F07124A867F00124A867F00124A86124C0252
:40278000EF30E1F97F0F7E0012493490502CE0FFEF4401FFEFF07F147E0012493490502CE0FFEF54FEFFEFF07F09124A867F00124A867F11124A86124C02EF30E1F97F0FBA
:4027C0007E0012493490502CE0FFEF4401FFEFF07F147E0012493490502CE0FFEF54FEFFEFF07F0F124A867F00124A867F00124A86124C02EF30E1F97F0F7E00124934906F
:40280000502CE0FFEF4401FFEFF0022EC09000A0E0FEA3E0FFC3EF9410EE6480948050030229D79000A0E0FEA3E0FFD3EF941FEE6480948040030229D79000A074FF75F0E2
:40284000F01231F39000A0E0FEA3E0FF74017E00A807088005C333CE33CED8F9FF9000A2EEF0A3EFF09000A2E0FEA3E0FFEEFF7E009000A4EFF090502CE0FFEF54FEFFEF22
:40288000F07F04124A867F00124A867F00124A86124C02EF30E1F97F0F7E0012493490502CE0FFEF4401FFEFF07F147E0012493490502CE0FFEF54FEFFEFF07F05124A8600
:4028C0009000A4E0FF124A869000A2E0FEA3E0FF124A86124C02EF30E1F97F0F7E0012493490502CE0FFEF4401FFEFF07F147E0012493490502CE0FFEF54FEFFEFF07F064F
:40290000124A867F00124A867F00124A86124C02EF30E1F97F0F7E0012493490502CE0FFEF4401FFEFF07F147E0012493490502CE0FFEF54FEFFEFF07F07124A867F00125F
:402940004A867F00124A86124C02EF30E1F97F0F7E0012493490502CE0FFEF4401FFEFF07F147E0012493490502CE0FFEF54FEFFEFF07F09124A867F00124A867F12124AD3
:4029800086124C02EF30E1F97F0F7E0012493490502CE0FFEF4401FFEFF07F147E0012493490502CE0FFEF54FEFFEFF07F0F124A867F00124A867F00124A86124C02EF3045
:4029C000E1F97F0F7E0012493490502CE0FFEF4401FFEFF0022EC09000A0E0FEA3E0FFC3EF9420EE648094805003022BA19000A0E0FEA3E0FFD3EF942FEE6480948040033A
:402A0000022BA19000A074FF75F0E01231F39000A0E0FEA3E0FF74017E00A807088005C333CE33CED8F9FF9000A2EEF0A3EFF09000A2E0FEA3E0FFEEFF7E009000A4EFF0B4
:402A400090502CE0FFEF54FEFFEFF07F04124A867F00124A867F00124A86124C02EF30E1F97F0F7E0012493490502CE0FFEF4401FFEFF07F147E0012493490502CE0FFEFBA
:402A800054FEFFEFF07F05124A867F00124A867F00124A86124C02EF30E1F97F0F7E0012493490502CE0FFEF4401FFEFF07F147E0012493490502CE0FFEF54FEFFEFF07FA4
:402AC00006124A869000A4E0FF124A869000A2E0FEA3E0FF124A86124C02EF30E1F97F0F7E0012493490502CE0FFEF4401FFEFF07F147E0012493490502CE0FFEF54FEFFC9
:402B0000EFF07F07124A867F00124A867F00124A86124C02EF30E1F97F0F7E0012493490502CE0FFEF4401FFEFF07F147E0012493490502CE0FFEF54FEFFEFF07F09124A0D
:402B4000867F00124A867F14124A86124C02EF30E1F97F0F7E0012493490502CE0FFEF4401FFEFF07F147E0012493490502CE0FFEF54FEFFEFF07F0F124A867F00124A868D
:402B80007F00124A86124C02EF30E1F97F0F7E0012493490502CE0FFEF4401FFEFF0022EC09000A0E0FEA3E0FFC3EF9430EE648094805003022D6B9000A0E0FEA3E0FFD397
:402BC000EF943FEE648094804003022D6B9000A074FF75F0D01231F39000A0E0FEA3E0FF74017E00A807088005C333CE33CED8F9FF9000A2EEF0A3EFF09000A2E0FEA3E0C9
:402C0000FFEEFF7E009000A4EFF090502CE0FFEF54FEFFEFF07F04124A867F00124A867F00124A86124C02EF30E1F97F0F7E0012493490502CE0FFEF4401FFEFF07F147EE4
:402C40000012493490502CE0FFEF54FEFFEFF07F05124A867F00124A867F00124A86124C02EF30E1F97F0F7E0012493490502CE0FFEF4401FFEFF07F147E00124934905022
:402C80002CE0FFEF54FEFFEFF07F06124A867F00124A867F00124A86124C02EF30E1F97F0F7E0012493490502CE0FFEF4401FFEFF07F147E0012493490502CE0FFEF54FE04
:402CC000FFEFF07F07124A869000A4E0FF124A869000A2E0FEA3E0FF124A86124C02EF30E1F97F0F7E0012493490502CE0FFEF4401FFEFF07F147E0012493490502CE0FFA9
:402D0000EF54FEFFEFF07F09124A867F00124A867F18124A86124C02EF30E1F97F0F7E0012493490502CE0FFEF4401FFEFF07F147E0012493490502CE0FFEF54FEFFEFF095
:402D40007F0F124A867F00124A867F00124A86124C02EF30E1F97F0F7E0012493490502CE0FFEF4401FFEFF0022EC090502CE0FFEF54FEFFEFF07F04124A867F00124A8670
:402D80007F00124A86124C02EF30E1F97F0F7E0012493490502CE0FFEF4401FFEFF07F147E0012493490502CE0FFEF54FEFFEFF07F05124A867F00124A867F00124A8612DD
:402DC0004C02EF30E1F97F0F7E0012493490502CE0FFEF4401FFEFF07F147E0012493490502CE0FFEF54FEFFEFF07F06124A867F00124A867F00124A86124C02EF30E1F9C8
:402E00007F0F7E0012493490502CE0FFEF4401FFEFF07F147E0012493490502CE0FFEF54FEFFEFF07F07124A867F00124A867F00124A86124C02EF30E1F97F0F7E00124966
:402E40003490502CE0FFEF4401FFEFF07F147E0012493490502CE0FFEF54FEFFEFF07F09124A867F00124A867F00124A86124C02EF30E1F97F0F7E0012493490502CE0FF6C
:402E8000EF4401FFEFF07F147E0012493490502CE0FFEF54FEFFEFF07F0F124A867F00124A867F00124A86124C02EF30E1F97F0F7E0012493490502CE0FFEF4401FFEFF033
:402EC0007F0A7E007D007C0012418322C2AF80FE32C0E0E5D0541864087003D0E032D0E0122ED085D00B75D008AAE0EC2422F8E6BC050274FFC39581B4140040CF79067853
:402F00001016E608700BC2AFE630E1034418F6D2AF08D9EDEA8BD030000122D50DFCC0E0C0D0C0F0C083C082C000C001C002C003C004C005C006C007E50C232411F874400A
:402F4000C2AF46F6D2AFD200E50CFF232411F80F0808BF06047F007811E630E4F200E50CC39F5020050C7421250CF8E6FDA68108E6AE0CBE050274FFCDF8E86D60E008E671
:402F8000C0E080F6E50CD39F4027E50C2422F8E6AE0CBE050274FFFD18E6CDF8E5816D6006D0E0F61880F5E50C2421C8F6150C80D3750D05E50C232411F87F04C2AFE610E4
:402FC000E61E30E00310E20C7F0030E10730E3047F0854F4547CC6D2AF54804207C20022F6D2AFD007D006D005D004D003D002D001D000D082D083D0F0D0D0D0E0C200227B
:403000007821A68174056006FF0876FFDFFB7F06E47810F608F608DFFA78117630904D2F740193C0E0E493C0E0750D05D2AF2205EFD3940540037FFF2274112F2FF8E6208D
:40304000E5F4C2AFE64430F6D2AFAE0CEEC39F50210E74212EF8E6F908E618BE050274FFFDED69600909E71919F7090980F3161680DAEED39F400405810581EED39F402282
:4030800074212EF808E6F9EEB50C02A981180606E6FDED6960091919E70909F71980F31E80D9EF2421F8E604F8EF2F04904D2F93F608EF2F93F67F0022EFD3940540037F76
:4030C000FF22EF232411F8E630E5F4C2AFE6548CF6D2AFE50CB5070A74212FF8E6F581022F46502E74222FF8E6BF050274FFFD18E6F974212FF8FBE6FCE96C6008A805E755
:40310000F61D1980F4A803A6051FE50CB507E37F002274222FF8E6FD1886010F74212FF8A601088604E50CB50702AC81ED6C60080D09A805E6F780F4E50CB507DE89817F41
:403140000022EFD3940540037FFF22EF232411F8C2AFE630E50530E002D2E4D2E2C6D2AF7F0030E2010F022F1A8FF0E4FFFEE50C232410F8C2A930F70D7F08E6600B2DF656
:4031800060325030800730F106EDF660277E020830F010C2AFE610E7250E30E20CD2AF7F048014C2AFE610E71554EC4EF6D2AFD2A9022F467F0808EF4483F4C2AF56C6D204
:4031C000AFD2A954804FFF22BB010689828A83E0225002E722BBFE02E32289828A83E49322BB010689828A83F0225002F722BBFE01F322C5F0F8A3E028F0C5F0F8E5821522
:403200008270021583E038F022BB010A89828A83E0F5F0A3E022500687F009E71922BBFE07E3F5F009E3192289828A83E493F5F074019322EF2BFFEE3AFEED39FDEC38FCC9
:4032400022E88FF0A4CC8BF0A42CFCE98EF0A42CFC8AF0EDA42CFCEA8EF0A4CDA8F08BF0A42DCC3825F0FDE98FF0A42CCD35F0FCEB8EF0A4FEA9F0EB8FF0A4CFC5F02ECD7E
:4032800039FEE43CFCEAA42DCE35F0FDE43CFC2275F008758200EF2FFFEE33FECD33CDCC33CCC58233C5829BED9AEC99E58298400CF582EE9BFEED9AFDEC99FC0FD5F0D63A
:4032C000E4CEFBE4CDFAE4CCF9A88222B800C1B90059BA002DEC8BF084CFCECDFCE5F0CBF97818EF2FFFEE33FEED33FDEC33FCEB33FB10D703994004EB99FB0FD8E5E4F919
:40330000FA227818EF2FFFEE33FEED33FDEC33FCC933C910D7059BE99A4007EC9BFCE99AF90FD8E0E4C9FAE4CCFB2275F010EF2FFFEE33FEED33FDCC33CCC833C810D707D3
:403340009BEC9AE899400AED9BFDEC9AFCE899F80FD5F0DAE4CDFBE4CCFAE4C8F922EF4BFFEE4AFEED49FDEC48FC22E8600FECC313FCED13FDEE13FEEF13FFD8F122E860DD
:403380000FEFC333FFEE33FEED33FDEC33FCD8F122E0FCA3E0FDA3E0FEA3E0FF22E0F8A3E0F9A3E0FAA3E0FB22ECF0A3EDF0A3EEF0A3EFF022E0FBA3E0FAA3E0F922EBF094
:4033C000A3EAF0A3E9F022D083D082F8E4937012740193700DA3A393F8740193F5828883E4737402936860EFA3A3A380DFE50F2582F582E50E3583F583B50E0485820F22A9
:4034000010AF0685820FF50E2285820FF50ED2AF229000A0EEF0A3EFF09000A2EDF0124D749000A4EFF0124D6A9000A5EEF0A3EFF09000A5E0FEA3E0FF9000A0E0FCA3E0C9
:40344000FDED6F7002EC6E70030235A59043A2E0FFEF5401FF9000A3EFF09000A4E0FFEF705E9000A5E0FEA3E0FFEF4E600C9000A0E0FEA3E0FFEF4E70469000A5E0FEA3E8
:40348000E0FFEF4E701D7B027A4079809000A0E0FCA3E0FD124CE3904082E0FFEF54BFFFEFF022904082E0FFEF4440FFEFF07B027A4079809000A0E0FCA3E0FD124CE32292
:4034C0009000A3E0FFEF606C904001E4F09040107401F0904014E4F0904008E0FFEF547FFFEFF0904082E0FFEF5408FF7E00EF4E600C9000A0E0FEA3E0FFEF4E70367B0274
:403500007A4079029000A5E0FCA3E0FD124CE39040017407F0904001E0FFEF5401FF7E00EF4E70F19043A2E0FFEF54FEFFEFF0904001E4F09043A2E0FFEF5401FF7E00EF1D
:403540004E603A7B027A4079029000A0E0FCA3E0FD124CE39000A2E0FFEF60047F0280027F00EF4401FF904001EFF0904001E0FFEF5401FF7E00EF4E602B80EF227B027A5A
:403580004079809000A0E0FCA3E0FD124CE39043A2C083C082E0FF9000A3E0FEEF4EFFD082D083EFF0227B007A4679E8124D3BEF4401FD7B007A4679E8124D471239CD7BFD
:4035C000017A507903124D3BEF4402FD7B017A507903124D477B017A507913124D3BEF4402FD7B017A507913124D479043A0E0FFEF4440FF9043A0EFF09043C2E0FFEF447D
:4036000010FF9043C2EFF07C6B7D277B007A5179007F0A7E001249887C6B7D317B007A5179C27F087E001249887C6B7D397B007A5179F27F087E001249887C6B7D417B007F
:403640007A5179127F087E001249887C6B7D497B007A5179227F087E001249887C6B7D517B007A5179307F0A7E001249887C6B7D5B7B007A5179407F0A7E001249887C6B79
:403680007D657B007A5179507F0A7E001249887C6B7D6F7B007A5179627F087E001249887B017A1A79DB7DE4124D479044F47401F0904322E0FFEF4408FF904322EFF09049
:4036C00046ECE0FFEFC394055006904689743AF090480074C0F01237139048007480F01248987B007A4379A0C003C002C0017B007A4379B09000C61233BED001D002D0034E
:403700007F0E7E001248CE9043B0E0FFEF54FDFFEFF0227B007A4079807D007C00124CE19040827458F07B007A4079847D0B7C00124CE19040867418F07B007A4079887D46
:40374000647C00124CE190408A7418F07B007A40798C7D2B7C01124CE190408E7419F07B007A4079907DDB7C05124CE19040927419F07B007A4079947DDF7C2E124CE1908F
:4037800040967419F09043007402F09040007408F09042007403F07B0C7A017908124D3B9046A1EFF07B007A4279227D087C00124CE17B007A4279207D517C12124CE19088
:4037C00000C5E4F07F197E007D007C009000C11233A99000C1123391D3EF9400EE9400404E9000C5E0FFEF64036044904225E0FFEF5401FF7E009000C5E0FEEE25E0FEEE7E
:403800004FFFEF5403FF9000C5EFF07FE07E017D007C001246009000C11233917BFF7AFF79FF78FF1232349000C11233A980A39000C1123391EF4E70057F03124BDF7B009D
:403840007A4079047D007C01124CE19040047407F0904006E4F09040087448F0904004E4F09040017402F09043A2E0FFEF443FFF9043A2EFF022759300780075834675829C
:40388000E8E04401F0009046ECE0F99046FAE0FAB903225420B40012B8001AEA901FFFF07401901FFEF09046F6F0901FFEE06005901FFFE0FA90480074C0F07581269076EE
:4038C000BCE4F0A3F0A3F0A3F0907010F0907019F0907020F09076007410F0907604E4F0A3F0A3F0A3F09078007800087400F0A37408F0E8B8040274FFA3F0A37422F0A3E2
:4039000074BCF0A37476F0A3E4F0A3E81475F008A4F0A3B804D59070107401F0907014F0904880E0904888E09044D87402F07E707F18120004907010F0EA90013CF0020058
:4039400011750E1F750FFD1235A6023988023000E493A3F8E493A34003F68001F208DFF48029E493A3F85407240CC8C333C4540F4420C8834004F456800146F6DFE4800B0B
:40398000010204081020408090437CE47E019360BCA3FF543F30E509541FFEE493A360010ECF54C025E060A840B8E493A3FAE493A3F8E493A3C8C582C8CAC583CAF0A3C824
:4039C000C582C8CAC583CADFE9DEE780BE7F007E007D007C0090014A1233A99076007410F09070107401F0907019E4F07B027A7879007D787C02124CE39078027401F090DB
:403A0000780374A3F07B027A787904C003C002C0017BFF7A6879AFAF01AE02AD037C00EF54FFFFEE54FFFEED5400FDEC5400FCAD07AC06D001D002D003124CE37B027A783C
:403A400079067D087C78124CE37B027A7679047D107C00124CE37B027A7679067D007C00124CE39070397407F0907049740FF09070597419F09070147401F0907018E0FF0D
:403A8000EF5401FF7E00EF4E70F1907038E0FFEF5401FF7E00EF4E70F1907048E0FFEF5401FF7E00EF4E70F1907058E0FFEF5401FF7E00EF4E70F1222A2A2A230056494370
:403AC00048310056494348320049434D534C00464C59434800464753454C0053005500430045002A0023002A2A2A3F00535243454E0053524344530053524330450053525C
:403B000031304500535232304500535235304500533130304500533230304500533530304500535243314B00535243324B00535243354B00535231304B00535232304B00F0
:403B4000535235304B00533130304B00533230304B00533530304B00535243314D00535245583100535245583200535245583300535245583400535245583500535245586D
:403B800036005352455837004641494C00C0E0C083C082C085C084C086758600C093759300C0D075D000C006C0079000CAE4F0A2AFE433FF9000CBEFF0D2AF9044F474FD05
:403BC000F0906467E0FF9000C9EFF09000C9E0FFEF30E568906448E0FF900046E0FE74052EF582E43400F583EFF09000CA7401F09000CAE0FFEF6038900003E0FFEF60061D
:403C00009000027401F0900046E004F0900046E0FFEFC394204005900046E4F0900004E0FF900046E0FEEEB507069000037401F0906467E0FF9000C9EFF0808F9000CBE04E
:403C4000FFEF24FF92AFD007D006D0D0D093D086D084D085D082D083D0E0329000B5EFF0900047E0FF9000B6EFF0900025E0FF9000B7EFF09000B7E0FF9000B6E0FEEEC308
:403C80009F50269000B7E0FF7E00EF24FFFFEE34FFFE9000B6E0FD7C00EFB50508EEB504047F0180027F0080189000B7E0FF9000B6E0FEC3EE9FFFEFB41F047F0180027F27
:403CC00000EF709C9000B6E0FF9000B7E0FEEEB50714906565E0FFEF20E20B9000B5E0FF906447EFF0229000B6E0FFEFC3942040059000B6E4F09000B5E0FF9000B6E0FEFA
:403D000074262EF582E43400F583EFF09000B6E004F09000B6E0FF900047EFF022C0E0C0F0C083C082C085C084C086758600C093759300C0D075D000C000C001C002C003E9
:403D4000C004C005C006C0079044CB7401F0905101E0FF90012AEFF090012AE0FFEF6488FF90012AEFF090012AE0FFEF602190012AE0FFEF5477FFEF600A7F0312314212F1
:403D80004AB780149044C37401F0124AB78009124AB79044C37401F0D007D006D005D004D003D002D001D000D0D0D093D086D084D085D082D083D0F0D0E032900092E4F0EC
:403DC0007F01123169900105E0FFEF607E900100E0FFEF14FF900092EFF0900100E0FFEF701A7BFF7A3A79B812449E124DDBEF30E1F990010AE0FF12431980477BFF7A3A96
:403E000079B812449E124DDBEF30E1F9900093E4F0900092E0FF900093E0FEEED39F5023900093E0FF74092FF582E43401F583E0FF124319124DDBEF30E1F9900093E00421
:403E4000F080CE900105E4F0023DC07B017A01792B12001A023DC022124DB67E3D7F1D1249F27F01123169905101E0FF90012AEFF090012AE0FFEF6488FF90012AEFF090D5
:403E80005101E0FF900142EFF0900142E0FFEF5477FF900142EFF0900142E0FFEF70E090012AE0FF900129EFF09044C37401F0900143E0FFEF701890501FE0FFEF54FEFF9A
:403EC000EFF090501FE0FFEF4401FFEFF08093900143E0FFEFB4018A90501FE0FFEF54FEFFEFF090501FE0FFEF4401FFEFF0023E6222C0E0C083C082C085C084C08675865F
:403F000000C093759300C0D075D000C006C007A2AFE433FF9000CCEFF0D2AF9044F474FDF0900047E0FF900025E0FEEE6F6037906565E0FFEF20E22E900025E0FFEFC39409
:403F4000204005900025E4F0900025E0FF74262FF582E43400F583E0FF906447EFF0900025E004F080BB9000CCE0FFEF24FF92AFD007D006D0D0D093D086D084D085D082A3
:403F8000D083D0E032124D85900004E0FF9000B1EFF0900046E0FF9000B2EFF0900003E0FFEF700E9000B2E0FF9000B1E0FEEE6F60459000B1E0FF74052FF582E43400F512
:403FC00083E0FF9000B0EFF09000B1E004F09000B1E0FFEFC3942040059000B1E4F09000B1E0FF900004EFF0900003E0FFEF6011900003E4F0800A906448E0FF9000B0EFAB
:40400000F0124D7E9000B0E0FF229000A0EFF09000A1ECF0A3EDF09000A0E0FFEFD3941F5003D38001C340057F00124B3B9000A0E0FFEF541FFF7E00EF25E0FFEE33FEEF9D
:404040002400FFEE3444FEAA06A9077B01124CD49000A3EEF0A3EFF09000A0E0FF7E02EF8EF0A4FFAEF0EF2400FFEE3444FEAA06A9077B019000A1E0FEA3E0FFAD07AC0692
:40408000124CE39000A3E0FEA3E0FF227FE87E037D007C001241831249027D017F257E00123411124BB9124BCC124B11124B50124B7A1245E37F81124782900146E4F0A36B
:4040C000E4F01242B412424F905016E0FFEF4401FFEFF0905017E0FFEF4401FFEFF0905064E0FFEF4401FFEFF012464B1247F3124B8F124DBD124DC3124DC9124DCF124D6F
:40410000D57F041231427F001230B9227F0A7E007D007C00124183124A4DEF3395E0FE900148EEF0A3EFF0905037E0FFEF5410FF7E00EF4E7014900148E0FEA3E0FFEE44C7
:4041400001FE900148EEF0A3EFF090501EE0FFEF54FEFFEFF07F647E0012493490501EE0FFEF4401FFEFF0900148E0FEA3E0FF1249AE124C62EF30E2F97F647E0012493440
:40418000808A2290FFFC1233ED1233A9850E83850F82123391D3EF9400EE9480402F90013D123391124600850E83850F82C083C082123391EF2400FFEE3480FEED34FFFD0D
:4041C000EC34FFFCD082D0831233A980BF900133123391850E83850F8212339D1232411246009000041233ED2290647EE0FFEF54F8FF90008BEFF090008BE0FF90647EEF85
:40420000F090647EE0FFEF54FCFF90008BEFF090008BE0FF90647EEFF0124CFE7F80124CB27F80124CA27F00124C92124DE17F80124CC2124B2690008CEFF090649CE0FF95
:40424000EF4410FFEFF090008CE0FF124A9F22905016E0FFEF30E40B905016E0FFEF54FEFFEFF0905017E0FFEF30E40B905017E0FFEF54FEFFEFF0905064E0FFEF30E40B24
:40428000905064E0FFEF54FEFFEFF0905065E0FFEF30E40B905065E0FFEF54FEFFEFF0905034E0FFEF30E40B905034E0FFEF54FEFFEFF022905015E0FFEF30E40B9050153B
:4042C000E0FFEF54FEFFEFF0905014E0FFEF30E40B905014E0FFEF54FEFFEFF0905012E0FFEF30E40B905012E0FFEF54FEFFEFF0905013E0FFEF30E40B905013E0FFEF5429
:40430000FEFFEFF0905011E0FFEF30E40B905011E0FFEF54FEFFEFF0229000BCEFF0900001E0FFEF6055124D93900047E0FF900025E0FEEEB50715906565E0FFEF20E20C43
:404340009000BCE0FF906447EFF0802C900047E0FFEFC394204005900047E4F09000BCE0FF900047E0FE74262EF582E43400F583EFF0900047E004F0124D8C224200D000E8
:404380000A4200ED00014201480000420146000041000100410025004100470041000400410046004100030041000200440138016E360044013300005DC04101371844019F
:4043C0003D2EE00000410150004101560041015100410157004101580041015900007F011231697F2A124319124DDBEF30E1F97F2A124319124DDBEF30E1F97F2A12431910
:40440000124DDBEF30E1F97F2A124319124DDBEF30E1F97F2A124319124DDBEF30E1F97F2A124319124DDBEF30E1F97F3F124319124DDBEF30E1F97F041230B980A02290BC
:4044400000A0EFF09000A1EDF09000A1E0FFEFD394075003D38001C340057F00124B3B9000A0E0FFEFD3941F5003D38001C340057F00124B3B9000A1E0FFEF5407FF7E005B
:40448000EF75F020A4FFAEF09000A0E0FEEE541FFE74802EF582E43444F583EFF0229000B01233BE9000B3E4F0A3E4F0900001E0FFEF60429000B01233B59000B3E0FEA39C
:4044C000E0FFE92FF9EA3EFA1231C8FFEF60279000B01233B59000B3E0FEA3E0FFE92FF9EA3EFA1231C8FF123C5B9000B3E475F0011231F380BE22C0E0C0F0C083C082C0AF
:4045000085C084C086758600C093759300C0D075D000C000C001C002C003C004C005C006C0077F02123142D007D006D005D004D003D002D001D000D0D0D093D086D084D006
:4045400085D082D083D0F0D0E032906564E0FFEF30E30B7B027A65795A124CD480EC124B2690008BEFF090659AE0FFEF4403FFEFF090659AE0FFEF54FCFFEFF090659BE063
:40458000FFEF4403FFEFF090659BE0FFEF54FCFFEFF090008BE0FF124A9F2290658B740FF09044C87404F07C4D7DF07F0212400A7D077F0212443F9044C87402F07C4D7D59
:4045C000F17F0112400A7D077F0112443F12454A124C62124C729064867405F09065847418F022124BA47F80124CA2900157E0FFEF7009124DEF9001577401F01249D12212
:40460000EC4D4E700D78FCEF24E950032840FD22000078C5904800E0C4030354039046479325E0240FF404FBEF28FF78FFEE38FEED38FDEC38FC50D7EF2BFFEE38FEED38BF
:40464000FDEC38FC40F22205020304124B269000B0EFF0906498E0FFEF4401FFEFF0906498E0FFEF54FEFFEFF09000B0E0FF124A9F124D85900004E4F0900046E4F0900072
:4046800003E4F0900002E4F0124D7E227C3B7D8D7F0312400A7D077F0312443F90648B7476F09064877420F07C3E7DF27F0412400A7D077F0412443F906524740FF0906507
:4046C000347490F09065857402F022124B269000A0EFF090649BE0FFEF4420FFEFF0906497E0FFEF4410FFEFF09044C07408F0906595E0FFEF4410FFEFF09044C07410F042
:404700009000A0E0FF124A9F22124B2690008BEFF090659BE0FFEF4420FFEFF0906496E0FFEF4410FFEFF0906594E0FFEF4410FFEFF090008BE0FF124A9F9044C07404F02C
:404740009044C07402F022124B2690008BEFF090649AE0FFEF4420FFEFF0906599E0FFEF4410FFEFF090649DE0FFEF4410FFEFF090008BE0FF124A9F124ACE124DED124D19
:40478000EE2290008BEFF090008BE0FFC3EF64809480401090008BE0FFEF2480FF90008CEFF0800E90008BE0FFEFF404FF90008CEFF090008CE0FF124CA222124B269000DB
:4047C000A0EFF090649BE0FFEF54DFFFEFF0906497E0FFEF54EFFFEFF0124D85906595E0FFEF54EFFFEFF0124D939000A0E0FF124A9F22124B269000B0EFF0906497E0FFCB
:40480000EF4401FFEFF0906497E0FFEF54FEFFEFF09000B0E0FF124A9F124D93900025E4F0900047E4F0124D8C2290646DE0FFEF30E507906559E0FF80F0124B2690008B0A
:40484000EFF0906599E0FFEF4401FFEFF0906599E0FFEF54FEFFEFF090008BE0FF124A9F22906479E0FFEF54C0FF9000A0EFF09000A0E0FFEF4409FF906479EFF090649EB2
:40488000E0FFEF4401FFEFF07F01124C327F01124C427F01124C52227B0C7A0179CF124D3B9000C1EFF09000C1E0FFEF5407FF90586EEFF09000C1E0FFEFC4540FFFEF543B
:4048C0000FFF90586FEFF09058767444F022758600EF4E6027EF60010E7593009000C6E0F595A3E0F585A3E0F5848B938A838982E0A30586F0A31586DFF6DEF4E4F593F5F4
:4049000095229044C87401F07B027A447900C003C002C0017BFF7A2E79D1AC02AD01D001D002D003124CE3904480E4F09044C07401F02232EEFA900137E0F88FF0A4FFAE79
:40494000F0E88AF0A42EFEE5F03400FDEF24C9FF78FFEE38FEED38FDE438FC500302460022124B269000A0EFF0906599E0FFEF4401FFEFF0906599E0FFEF54FEFFEFF09075
:4049800000A0E0FF124A9F22758600EF4E601BEF60010E8C838D828B958A858984E493A30586F0A31586DFF5DEF3E4F595229000BFEEF0A3EFF0906466E0FFEF30E1F77B8E
:4049C000027A65794A9000BFE0FCA3E0FD124CE3227F0F124C82124B2690008BEFF090649EE0FFEF4410FFEFF090008BE0FF124A9F229000B8EEF0A3EFF0124DAF9000B873
:404A0000E0FEA3E0FF124A2F7F01124AFB124DA82290008BEEF0A3EFF07B027A44790A90008BE0FEA3E0FFAD07AC06124CE3229000BAEEF0A3EFF07B027A4479129000BA54
:404A4000E0FEA3E0FFAD07AC06124CE322124D5F9000C0EFF09000C0E0FF7E00EF2480FF9000BFEFF09000BFE0FF2290648A740FF012482A124C02124C12906589E4F0903C
:404A8000648D7430F0229000A5EFF0906569E0FFEF30E2F79000A5E0FF906549EFF022EF54016004D2AF8002C2AFEF5402FF9044F4E054FD4FF022904585E0FFEF5404FF7A
:404AC0007E00EF7802CEC313CE13D8F9FF229043A2E0FFEF4402FFEFF09043B2E0FFEF4402FFEFF02290008BEFF090008BE0FFEFC43354E0FF904485EFF0229000BAEFF0C8
:404B00009000BAE0FFEFC43354E0FF904489EFF022900001E0FFEF700912468C9000017401F01246CB229044F4E0F84402F0E85402FF10AF012274014FFF2290FFFF123331
:404B4000EDEFF09046EA7401F09000011233ED22900150E0FFEF7009124A6B9001507401F012474722900156E0FFEF70091248619001567401F0124D1722900151E0FFEFEB
:404B8000700912459B9001517401F012470922906564E0FFEF30E30B7B027A65795A124CD480EC22900158E0FFEF70091241E99001587401F0124D5322124DA17E447FF7C5
:404BC000124A117F02124AE5124D9A22124DAF7E497F33124A2F7F01124AFB124DA8229000C6EFF09000C6E0FF9000C6EFF080FE2290646DE0FFEF30E507906559E0FF8022
:404C0000F022906569E0FF9000A5EFF09000A5E0FF2290646DE0FF9000A0EFF09000A0E0FF22906559E0FF9000A0EFF09000A0E0FF229000A1EFF09000A1E0FF90640EEFDD
:404C4000F0229000A1EFF09000A1E0FF90644EEFF0229000A1EFF09000A1E0FF90642EEFF022906466E0FF9000BFEFF09000BFE0FF22906564E0FF90008BEFF090008BE098
:404C8000FF2290008CEFF090008CE0FF90648EEFF02290008DEFF090008DE0FF90648CEFF02290008DEFF090008DE0FF90640BEFF02290008DEFF090008DE0FF90642BEFE3
:404CC000F02290008DEFF090008DE0FF90643BEFF0228B938A838982E0FFA3E0FE759300228B938A838982EDF0A3ECF0759300222A2A2A23002A0023002A2A2A3F00124DF4
:404D0000E1EF30E605124DE780F4229046F6E0FFEF4401FFEFF022906479E0FFEF4480FFEFF022906479E0FFEF547FFFEFF022408C3DBB11823E5843DE410C8B938A8389B1
:404D400082E0759300FF228B938A838982EDF07593002290647EE0FFEF4480FFEFF02290640BE0FF90644BE0FF227B027A407980124CD422904082E0FFEF5407FF22904455
:404D8000C07408F0229044C87408F0229044C07410F0229044C87410F0229044C07420F0229044C87420F0229044C17402F0229044C97402F0229044D97402F0227F01129A
:404DC0003030227F02123030227F03123030227F04123030227F0512303022906565E0FF2290646CE0FF2290644BE0FF222222223232002000000F000080800000040000DE
:404E000000080000000000000000000300004001000006000000000000E0000000000000CC00FF3F000000000000000002000000000000000006000400000000000000002A
:404E400000000001000000000000000000000000000000000009000001040000000000000000000800020001010400000000000000500000000000000000000000000000C3
:404E8000000000000000410004000404000423200001000000000000000000000000000000000000000000000000000000000000000007007800000A0074090036402D268E
:404EC0001208001C000000000001380007802D0012011B002400000000802408127200000000401E00603F01008000020000000000503206000000EC000B13FFFFFF0000FE
:404F0000F0440C0000001A0004000404040410000001000000000000C0000000400200000000000000000000000000000000000000000100000D10000000200000000000B2
:404F40004000000D88000000300CF30D04003504CA013F00C0020000CE050F00F00000000100340300040008FF00002000020000400023040500010C000E11FFFFFF62A049
:404F8000F0410C0000000000000004040400000000010000000000004002001030100010101200000000000000000000000000000000400000000084000000800004020495
:404FC0000D8065011A0013602C004956060900840000008400000004000000070038000A0010007F000870800F020002A00000000054000000000000000000000000000074
:40500000000000008000000000000404000411400001000000000000000000000000000000000000000000000000000000000000000004000000000000000700680000001F
:4050400000012100D2003200C000FA00050096000000960000009200040004009200920004031D02E0010700000000000A0000000000000000000000000000000000000049
:405080000000000000000000022C04040004411000010000000000000000000000000000000000000000000000000000000000000000004C00B30000000C00080000000051
:4050C000000000CF0030007D008000C3033C0283001000000000000000B300040000008200200000003F024001B0000000880000101023060000003C402E3BFFFFFF00A03F
:405100000001180000000000021204040404030300014000800040408000400080004020800000000000000000000000000000000000000C0000DD0022002302DC000104BA
:405140000E001E0001000000D00100013F00C6003900E70C18025000000090000000000000001F010004E00810020028220000000045000000000000000000000000000058
:405180000000000000000F00000004040004303000050000000000000000000000000000000000000000000000000000000000000000001D0300000200080202000D000D27
:4051C000001000000000081D0400001D0000001D00000000001000000C00000100020002000402000110080F04000000002000005104000000000000000000000000000074
:4052000000000000000040000000040400041310000100000000000000000000000000000000000000000000000000000000000000000001100201020A01000000100101CB
:40524000060A000000000100020000010006020001000000000000000000000000000000000008040403100803100000800800000000500300000000010214FFFFFF00A044
:405280000004180080000F00040004040404333400014000C0004040C000C000C000C000C00000000000000000000000000000000000085800A1C7AC0051C5FB0204637722
:4052C00000000000000000CC0032003019CF020004000000080006000000A600010000000000E0000800070F10F002000000000004000000000000000000000000000000D9
:405300000000000000000000080004040004332000010000000000000000000000000000000000000000000000000000000000000000000900100300001000200040086011
:405340000000002000400010020C03800003010C0011002000400420004000140000001C000203000480041F08600200000000005104040000000001000511FF0FFF402024
:40538000F0050800000020000400040404040020000140A84020000000000000000000000000000000000000000000000000000000000000000000030084000000FE004985
:4053C0000090000000000093002C00930064010000000000000000000000004000000000000000800068010F0070000000A800001001000000000000000000000000000005
:405400000000000000000100040004040004000000010000000000000000000000000000000000000000000000000000000000000000010104000002000001000000000051
:40544000020000000900000100000101000001010000000200000100000000000000000004000300000300030C000028000000004000000000000000000000000000000098
:40548000000000000000000008000404000400200001000000000000000000000000000000000000000000000000000000000000000000000000C0941460009E0760770073
:4054C0000000003008C90000000081CF123004FDF002B77340000000000FC1002200000000000000F0000F0000FF00000000000000404603200001DEFC0B1FFFFFFF2200FF
:40550000F008040000000900000004040404031100010000C00040011011C00100114001400100000000000000000000000000000000000080000000000000001E00C1006C
:405540001000C100020000000000000000000000210000000000C1000400C1000800000000001F002000400080000000000000005100060560000400000000FFFFFF0200EB
:40558000700C8C10000000000800040024040828002100000000000000004001C001000000000000000000000000000000000000000000E0001C00B60049040000000092BB
:4055C000044904000000032400DB00000100001C00E3006D00920403001C00B600490000000002FF04000100000000000000000015010601600004DBC0EF3BFFFFFF2300CB
:40560000F00C8C10000000000220040424240088082100000000000000004001C00100000000000000000000000000000000000000000000000000000000000000000000AD
:405640000000000000000000473A00000F766F000F000000000000000000000000000000000000000000780F00000000000F000000000F00000000000000000005000F00ED
:4056800000001F0000000000000000000F001B001F00000000000002000000000000000000010000000200010000000000000000000000000000000000000000000000007C
:4056C0000000000000000000000000000000000000000000000000000000000000000000000000000000000000000200002001000000000000000000000000000000000087
:40570000000000000000000000000000000000000000000000220000020000010000000200000100000000000001020000000000020000000000000000000000000100003B
:40574000000000000000100000000000000000000000040001000C0000000000000000000000000000000100030000000000000000000000020000000100000008000000F9
:4057800000000000000000000000000000000000000010000000000000000000000000000000000000000000000000000000000000000000000000000000000000000000D9
:4057C00000000000000000000000000000000000000000000000000000000000000000000000000000000000000000000000000000000000000000000200000000000000A7
:405800000000000000000000000000000000000000000000000000000000000000000000000001000000000000000200000000000000000000000000000000000000000065
:405840000000000000000000000000000000000000000200000000000000000000000000000000000000000000000100000000000000000000000000000000000000000025
:4058800000000000000000000000000000000000000000000000000000000000000003000000000000000000000000000000000000000000000000000000000000000000E5
:4058C0000000000000000000000000000000000000000000000000000000000000000000000000000000000000000000000000000000080000000800000000000000000098
:405900000000000000000000000000000000000000000000000000000000000000000000000000000000000000000000000000000000000000000000000000000001000066
:4059400000004000000000004000000000000000000000000000000000000000000000000000000000000000000000000000000000000000000000000000000001000000A6
:405980000200000000000000000000000000000000000000000000000000400000000000400100000000000000000000000000000000000000000000000000000000000064
:4059C00000000000000000000000000000000000000000000000000000000000000000000000000000000000000000000000000000000000000000000000000000000000A7
:405A00000000000000000000000000000000000000000000000000000000000000000000000000000000000000000000000000000000000000000000000000000000000066
:405A4000000000000000000000000000000000000000000007000000000000000000000000000000000000000000000000000000000000000000000000000000000000001F
:405A80000000000000000000000000000000000000001041000020000001810100000104000828000000000000041060400000002021000000004000000000000000000880
:405AC000010800000000000040080000000000800600000240000202000000A0000040210008000000001108000000400000000000000000800002800002000000003842A9
:405B00000005000000000000000000002000000020400000A00010080020000400400108000000000500C20000008000020810000000004040081100100000400000004031
:405B4000000011900001800000000000000000000000CB007900260000000000E0005000D00091002C0000000800180000000000C20001004000080001000000810000002F
:405B80000000000000000000000000000000000000000000001100000000005010000000000120000000000000000048502000000800002000224050081480008408080091
:405BC0000000802200040000001400005208008090040000400000000000200000000000000008000004000000000000000140200801004020600020008400000000000043
:405C0000000000000000000000000000000000000000000000A00008024380000840000200000000000500000000800054000002000400022018000008A0000000000002EA
:405C4000000000100000000000000000000000000000050087000400000000002F006F007F00010000000000F1008F000000000000000100220002000400000002000000BB
:405C80000000000000000000000000000000000000000020210042000008000082040000850000008010000002442020001400C0800000004000040800080000011000027D
:405CC00000000000A1004000042020080014040200000050200200000000001500000000000008005080000000002004400100800000000000010000800000000000000098
:405D000000000000000000000000000000000000000020008080000004000000000000084800002807018600000040122164104150000041AC0A08881014001408000020DA
:405D4000040000000000000000410000000000000000D700DB00AA000000000083007D00C6000F00040000001F001800000000000000000000000000100010004000000012
:405D8000000000000000000000000000000000000000200000000000100000000000000004000000000500100000800040000002040400002018200008A000090040000087
:405DC0000240000000002400000000000000000000000000000000000000000000000000000000000000000000000000000000000000000003000000000000000700000033
:405E000003000000000000000000000000000000000080004000024004100500080000484A00000000005200002100100840000000810012080100150100052422031000CF
:405E40000080881200000040042100540000800200800000000010800021000000001000020000000000000008000000000000000000000000000000000000000000000082
:405E800000000000800000000000000000000000020102100000004000010000000010020000005C470084800800002607351041D0008040A40900091054000008080001DD
:405EC000000084000000000000000000000000000000F900FE00F00000000000CF00FF008E00F000100000000000000000000000000010000000000040000000000000008B
:405F00000000000000000000000000000000000000000002060000000000800004000000000008004000000000080800840000400000148001000004610020000004200477
:405F4000008000280140000001001000004800080200000000240000000000000805000000000000000800000000001100000014800004800080000008800000000000006B
:405F800000000000000000000000000000000000000000004004080000040000000010200000000000000000008080104A08004000000000001000040040800000000000EB
:405FC0000008000000000000000000000000000000000B0003002A0000000000C6008F00CE000600040000007500CD000000000000000000020001000C0000000C000000D7
:4060000001000000000000000000000000000000000080204100808000000000A80900200200A8400000000000000024A0010800020000000A002000002900008000100011
:4060400060000000000000400421000000802402000000000000040400000000000000010034000000000120080000000000000000080000008000000000A854000000804B
:40608000050C00000201100224100000000000000000000000000000010000000000020000000008428020C1001C0600000090E13E014004A400A9081205000000C0000096
:4060C0000000009400000000005000000000000000000A00CF000F00000000007800F000E800600020000000400001000000000000000000100000000000800010004000E3
:4061000000000000000000000000000000000000000000000000000040000000000000000010000000000000008000100A00004000000000000000040040001000000000E1
:4061400000000040000000040800000000000000000000000000000000000000000000000000000000000000000000000000000000000000080000000000000004000000C7
:406180000400000000000000000000000000000000000200000824414000400001101048400000000008000024010012010804004880001008000084004800210001000128
:4061C0000000A800000008000010006002088290000000000000000000000000000000000000000000000000000000000000A0060000000058000000080400000000000059
:406200000000000000000000000000000000008000000000000008000000210000000000000000080280000000000E000000409000004000A0400000120400000000000017
:40624000000041000401100000000000000000000000EA00F4007400000000008D006E00BF00000000000000F0006E0000000000100000000000000000000000010000004D
:40628000000000000000000000000000000000000000000000400000024000000000000000000000000000000000000000000000000000000000000000000000000000005C
:4062C0000000000000000000000000000000000000000000000000000000000000000000000000000000000000000000000000000000000000000000080000000100000095
:406300000000000000000000000000000000000000000200002209000801000011000408090000000000001880000000132281080800006500200800A00600000000000070
:4063400000000020000000000024208A0000801009080000000800000000000002000000000000000048000000004010040200802000000000800A000000000000000000BC
:4063800000000000800000000000000000000000000000000000000000000010800000000000000000000000000000000000000000000000000000000000000000000000CD
:4063C000000000000000000000000000000000000000FD00C50070000000000000006400FF000200080000003F00310000000000000000000000000000000000000000008E
:4064000000000000000000000000000000000000000000000000000000000000000000000000000000000000000000000000000000000000800000000000000000000000DC
:40644000000000000000000000000000000000000000000000000000000000000000000000000000000000000000000000800000000000000000000000000000000000009C
:406480000000000000000000000000000000000000000000000000000010000040000000000000000000000000100000008000000000000000000000C0000000000000003C
:4064C00000000000000000000000000000000000000000000000000000001000000000000000000000008000000000000000000000000000100000000000000000000000FC
:406500000000000000000000000000000000000000000000000000000000000000000000000000000000000000100000008000000000000000000000C0000000000000000B
:40654000000000000000000000000000000000000000000000000000000000000000000000000000000000000000000000000000000000000000000000000000000000001B
:406580000000000000000000000000000000000000000000000000000000000000000000000000000000000000100000008000000000000000000000C0000020000000006B
:4065C000000000000000000000000000000000000000000000000000000000000000000000000000000000000000000000000000000000000000000000000000200000007B
:406600000000000000000000000000000000000000000000000000000000000000000000000000000000000000100000008000000000000000000020C0000080000000006A
:4066400000000000000000000000000000000000000000000000000000000000000000000000000000000000000000000000000000000000000000000000000020000000FA
:4066800000000000000000000000000000000000000000000000000000000000000000000000000000000000000000000000000000000000000000000000000000000000DA
:4066C000000080000000008000000000000000000000000000000000000000000000000000000000000000000000000000000000000000200000000000000000000000007A
:406700000000000000000000000000000000000000008000080000000002000000000000000000000000000000100000008000000000000000000000C802000000800000F5
:4067400000000000000000000000000000000000000000000000000000000000000030000000000000000000000040000000000000000000300000000000000080000000F9
:4067800000000000000000000000000000000000000000000000000000000000000000000000000000000000000000000000000000000000000000000000000000000000D9
:4067C00000000000800200004800000000100000000000000000000000000000000000000000000000000000000000000000000000000000000000000000000000000000BF
:406800000000000000000000000000000000000000000000000000000000000000000000000000000000000000000000000000000000000000000000000000000000000058
:40684000000000000000000000000000000000000000000000000000000000000000F000100000000000000000000000000000000000000000000000000000000000000018
:406880000000000000000000000000000000000000000100000000000100010000001000000001000000100001000100000001000823026892761000082303689A76180046
:4068C00008230468A276200005230568AA70300005230668AA7040000523FE68AA705003802208014A000001802209014A04000180220A014A16000080220B014A420000C7
:4069000080220C014A43000080220D014A45000180220E014A4600008022FE014A4800000723104DF25200000723114DF95208000723124E005218000723134E07522000C9
:406940000723144E0E5228000723154E155230000623164E1C5260000823174E2A45280020231856326470002023FE565265700008231A4E2251000080231B4E320600009E
:4069800080231C4EB206800080231D4F3208000080231E4FB208800080231F50320A000080232050B20A800080232151320C000080232251B20C800080232352320E000063
:4069C00080232452B20E8000802325533214000080232653B2148000802327543218000080232854B218800080232955321A000080232A55B21A800010232B567250100049
:406A000010232C568250000080232D56924D000080232E57124D800080232F57924C000080233058124C800080233158924780008023325912458000802333599244000024
:406A40008023345A124480008023355A921B00008023365B121B80008023375B921500008023385C121580008023395C9219000080233A5D1219800080233B5D9217800069
:406A800080233C5E1209000080233D5E9209800080233E5F1207000080233F5F9207800080234060120B000080234160920B8000802342611205800080234361920D0000EE
:406AC00080234462120D8000802345629203800080234663120F000080234763920F80008023486412490000802349649249800080234A651248800080234B65924380004B
:406B000080234C661242800080234D669241000080234E671241800080234F67924000008023FE6812408008000728200020000000CC3030000000000000202000000000EF
:406B400000048080008000000000FEFE0000000000C00000FC3C00080000000200010200000000000010008671710061000000E018180000000000000000000000000000A7
:406B800000000000000000000000000000000000000000000000000000000000000000000000000000000000000000000000000000000000000000000000000000000000D5
:406BC0000000000000000000000000000000000000000000000000000000000000000000000000000000000000000000000000000000000000000000000000000000000095
:406C00000000000000000000000000000000000000000000000000000000000000000000000000000000000000000000000000000000000000000000000000000000000054
:406C40000000000000000000000000000000000000000000000000000000000000000000000000000000000000000000000000000000000000000000000000000000000014
:0200000490006A
:040000000000400DAF
:0200000490105A
:04000000BC90ACAF55
:0200000490303A
:020000007F542B
:0200000490501A
:0C00000000011E08A06903011E321FBD94
:0200000490402A
:4000000000000000000000000000000000000000000000000000000000000000000000000000000000000000000000000000000000000000000000000000000000000000C0
:00000001FF
