:40000000023A8D008F828E83E0540100000070F82278FFE4F6D8FD023B589000941233E212474B1248B59000941233D91231ECFFEF1233EB00C303010806012C0902650A52
:4000400003040B03870C040A10042611043F1C04F640050F45060D4607324707534807745008EF510074F1008DF200E7FC1101FF000011811243937BFF7A3C79D412457D5C
:40008000124ECEEF30E10302118180F422124393905015E0FFEF4401FFEFF07F647E001249F8905014E0FFEF4401FFEFF07BFF7A3C79DA12457D124ECEEF30E10302118162
:4000C00080F422124393905012E0FFEF4401FFEFF07BFF7A3C79E012457D124ECEEF30E10302118180F422905011E0FFEF4401FFEFF07BFF7A3C79E612457D124ECEEF3055
:40010000E10302118180F422124393905013E0FFEF4401FFEFF07BFF7A3C79EC12457D124ECEEF30E10302118180F42290501CE0FFEF4401FFEFF090501DE0FFEF4401FF25
:40014000EFF09000EDE0FEA3E0FFE4FCFD124262900095E475F0011232179000941233D91231ECFF7E00121E0090010AE0FF9000D2EFF09000EDE0FEA3E0FFE4FCFD12427F
:4001800062900095E475F0011232179000941233D91231ECFF7E0012267890010BE0FF9000D4EFF09000FBE0FF9000D6EFF0900102E0FF9000D8EFF09000EBE0FF9000DA8B
:4001C000EFF09000F3E0FF9000DCEFF09000F8E0FF9000DEEFF0900106E0FF9000E0EFF09000D0E0FEA3E0FFE4FCFD1242627BFF7A3C79F212457D124ECEEF30E1F97BFF97
:400200007A3C79F412457D124ECEEF30E1F97BFF7A3C79F612457D124ECEEF30E1F97BFF7A3C79F612457D124ECEEF30E1F97BFF7A3C79F812457D124ECEEF30E1F97BFF56
:400240007A3C79F212457D124ECEEF30E1F97BFF7A3C79F212457D124ECEEF30E1F912474B1248B5227BFF7A3C79CF12457D124ECEEF30E1F9124A2590502CE0FFEF54FED7
:40028000FFEFF07F15124B677F15124B677F15124B67124CF5EF20E10A124D15900098EFF080EF7F0E7E001249F890502CE0FFEF4401FFEFF07F057E001249F8124D05EF1E
:4002C0007003021181124D15900098EFF0900098E0FFEFB4150C900098E0FF900097EFF08005900097E4F0900097E0FF1243F8124ECEEF30E1F9124CE4900097E4F09000DD
:4003000098E4F022900095E475F00112321790501CE0FFEF4401FFEFF090501DE0FFEF4401FFEFF09000EDE0FEA3E0FFE4FCFD1242629000941233D91231ECFF7E00121EFC
:40034000007BFF7A3C79FA12457D124ECEEF30E1F97BFF7A3C79FA12457D124ECEEF30E1F97BFF7A3C79FA12457D124ECEEF30E1F97BFF7A3C79FC12457D124ECEEF30E1FC
:400380000302118180F422900095E475F00112321790501CE0FFEF4401FFEFF090501DE0FFEF4401FFEFF09000EDE0FEA3E0FFE4FCFD1242629000941233D91231ECFF7E0D
:4003C000001226787BFF7A3C79FA12457D124ECEEF30E1F97BFF7A3C79FA12457D124ECEEF30E1F97BFF7A3C79FA12457D124ECEEF30E1F97BFF7A3C79FC12457D124ECECC
:40040000EF30E10302118180F422124C46124E0A7BFF7A3C79CF12457D124ECEEF30E10302118180F422124E167BFF7A3C79CF12457D124ECEEF30E10302118180F422902D
:400440000095E475F0011232179000941233D91231ECFFEF600E9000941233D91231ECFFEFB401259000941233D91231ECFF900143EFF07BFF7A3C79CF12457D124ECEEFB0
:4004800030E10302118180F4229000941233D91231ECFFEFB40F167BFF7A3C79CF12457D124ECEEF30E10302118180F422900100E4F0900100E0FFEFD3941F5019900100DB
:4004C000E0FF74092FF582E43401F583E4F0900100E004F080DC9000FEE4F09000F9E4F07BFF7A3C79FE12457D124ECEEF30E10302118180F4221243937BFF7A3C79CF12CD
:40050000457D124ECEEF30E10302118180F4227BFF7A3C79CF12457D124ECEEF30E1F99000F0E4F0905015E0FFEF30E4109000F0E0FFEF4401FF9000F0EFF0800E9000F0F1
:40054000E0FFEF54FEFF9000F0EFF0905014E0FFEF30E4109000F0E0FFEF4402FF9000F0EFF0800E9000F0E0FFEF54FDFF9000F0EFF0905012E0FFEF30E4109000F0E0FF57
:40058000EF4404FF9000F0EFF0800E9000F0E0FFEF54FBFF9000F0EFF0905013E0FFEF30E4109000F0E0FFEF4408FF9000F0EFF0800E9000F0E0FFEF54F7FF9000F0EFF0BB
:4005C000905011E0FFEF30E4109000F0E0FFEF4410FF9000F0EFF0800E9000F0E0FFEF54EFFF9000F0EFF09000F0E0FFEF541FFF9000F0EFF01248B59000F0E0FF1243F8C1
:40060000124ECEEF30E10302118180F4227BFF7A3C79CF12457D124ECEEF30E1F99000F0E4F0905016E0FFEF30E4109000F0E0FFEF4401FF9000F0EFF0800E9000F0E0FFD2
:40064000EF54FEFF9000F0EFF0905017E0FFEF30E4109000F0E0FFEF4402FF9000F0EFF0800E9000F0E0FFEF54FDFF9000F0EFF0905064E0FFEF30E4109000F0E0FFEF44AD
:4006800004FF9000F0EFF0800E9000F0E0FFEF54FBFF9000F0EFF0905065E0FFEF30E4109000F0E0FFEF4408FF9000F0EFF0800E9000F0E0FFEF54F7FF9000F0EFF09050BB
:4006C00034E0FFEF30E4109000F0E0FFEF4410FF9000F0EFF0800E9000F0E0FFEF54EFFF9000F0EFF0905033E0FFEF30E4109000F0E0FFEF4420FF9000F0EFF0800E900024
:40070000F0E0FFEF54DFFF9000F0EFF09000F0E0FFEF543FFF9000F0EFF01248B59000F0E0FF1243F8124ECEEF30E10302118180F422905033E0FFEF4401FFEFF07BFF7A1D
:400740003D790312457D124ECEEF30E10302118180F422905033E0FFEF54FEFFEFF07BFF7A3D790912457D124ECEEF30E10302118180F422900095E475F001123217900044
:40078000941233D91231ECFFEF6401702512487D7D017F9B7E0012361D124BF27BFF7A3C79CF12457D124ECEEF30E10302118180F4229000941233D91231ECFFEF640270F3
:4007C0002512487D7D017F4D7E0012361D124BF27BFF7A3C79CF12457D124ECEEF30E10302118180F4229000941233D91231ECFFEF6403702512487D7D017F257E001236C0
:400800001D124BF27BFF7A3C79CF12457D124ECEEF30E10302118180F4229000941233D91231ECFFEF6404702512487D7D017F197E0012361D124BF27BFF7A3C79CF12455B
:400840007D124ECEEF30E10302118180F4229000941233D91231ECFFEF6405702512487D7D017F0C7E0012361D124BF27BFF7A3C79CF12457D124ECEEF30E10302118180A0
:40088000F4229000941233D91231ECFFEFB40F167BFF7A3C79CF12457D124ECEEF30E10302118180F422900100E4F0900100E0FFEFD3941F5019900100E0FF74092FF582FD
:4008C000E43401F583E4F0900100E004F080DC9000FEE4F09000F9E4F07BFF7A3C79FE12457D124ECEEF30E10302118180F422900095E475F0011232179000941233D9121F
:4009000031ECFF9000FFEFF0905033E0FFEF5410FF7E00EF4E60030210AD9000941233D91231ECFFEF1233EB09740009C1010A0E020A5B030AA8040AF5050B42060B8F0705
:400940000BDC080C29090C760A0CC30B0D100C0D5D0D0DAA0E0DF70F0E44100E91110EDE120F2B130F78140FC515101216105F1700001181905016E0FFEF54FEFFEFF090B7
:400980005017E0FFEF54FEFFEFF0905064E0FFEF54FEFFEFF0905065E0FFEF54FEFFEFF0905034E0FFEF54FEFFEFF07BFF7A3D790F12457D124ECEEF30E10302118180F475
:4009C00022905016E0FFEF4401FFEFF0905017E0FFEF54FEFFEFF0905064E0FFEF54FEFFEFF0905065E0FFEF54FEFFEFF0905034E0FFEF54FEFFEFF07BFF7A3D791512454C
:400A00007D124ECEEF30E10302118180F422905016E0FFEF54FEFFEFF0905017E0FFEF4401FFEFF0905064E0FFEF54FEFFEFF0905065E0FFEF54FEFFEFF0905034E0FFEF9B
:400A400054FEFFEFF07BFF7A3D791B12457D124ECEEF30E10302118180F422905016E0FFEF4401FFEFF0905017E0FFEF4401FFEFF0905064E0FFEF54FEFFEFF0905065E01C
:400A8000FFEF54FEFFEFF0905034E0FFEF54FEFFEFF07BFF7A3D792112457D124ECEEF30E10302118180F422905016E0FFEF54FEFFEFF0905017E0FFEF54FEFFEFF0905043
:400AC00064E0FFEF4401FFEFF0905065E0FFEF54FEFFEFF0905034E0FFEF54FEFFEFF07BFF7A3D792712457D124ECEEF30E10302118180F422905016E0FFEF4401FFEFF065
:400B0000905017E0FFEF54FEFFEFF0905064E0FFEF4401FFEFF0905065E0FFEF54FEFFEFF0905034E0FFEF54FEFFEFF07BFF7A3D792D12457D124ECEEF30E1030211818046
:400B4000F422905016E0FFEF54FEFFEFF0905017E0FFEF4401FFEFF0905064E0FFEF4401FFEFF0905065E0FFEF54FEFFEFF0905034E0FFEF54FEFFEFF07BFF7A3D7933120A
:400B8000457D124ECEEF30E10302118180F422905016E0FFEF4401FFEFF0905017E0FFEF4401FFEFF0905064E0FFEF4401FFEFF0905065E0FFEF54FEFFEFF0905034E0FFDE
:400BC000EF54FEFFEFF07BFF7A3D793912457D124ECEEF30E10302118180F422905016E0FFEF54FEFFEFF0905017E0FFEF54FEFFEFF0905064E0FFEF54FEFFEFF090506554
:400C0000E0FFEF4401FFEFF0905034E0FFEF54FEFFEFF07BFF7A3D793F12457D124ECEEF30E10302118180F422905016E0FFEF4401FFEFF0905017E0FFEF54FEFFEFF0902D
:400C40005064E0FFEF54FEFFEFF0905065E0FFEF4401FFEFF0905034E0FFEF54FEFFEFF07BFF7A3D794512457D124ECEEF30E10302118180F422905016E0FFEF54FEFFEF58
:400C8000F0905017E0FFEF4401FFEFF0905064E0FFEF54FEFFEFF0905065E0FFEF4401FFEFF0905034E0FFEF54FEFFEFF07BFF7A3D794B12457D124ECEEF30E10302118144
:400CC00080F422905016E0FFEF4401FFEFF0905017E0FFEF4401FFEFF0905064E0FFEF54FEFFEFF0905065E0FFEF4401FFEFF0905034E0FFEF54FEFFEFF07BFF7A3D79510A
:400D000012457D124ECEEF30E10302118180F422905016E0FFEF54FEFFEFF0905017E0FFEF54FEFFEFF0905064E0FFEF4401FFEFF0905065E0FFEF4401FFEFF0905034E03C
:400D4000FFEF54FEFFEFF07BFF7A3D795712457D124ECEEF30E10302118180F422905016E0FFEF4401FFEFF0905017E0FFEF54FEFFEFF0905064E0FFEF4401FFEFF0905034
:400D800065E0FFEF4401FFEFF0905034E0FFEF54FEFFEFF07BFF7A3D795D12457D124ECEEF30E10302118180F422905016E0FFEF54FEFFEFF0905017E0FFEF4401FFEFF0B9
:400DC000905064E0FFEF4401FFEFF0905065E0FFEF4401FFEFF0905034E0FFEF54FEFFEFF07BFF7A3D796312457D124ECEEF30E10302118180F422905016E0FFEF4401FF32
:400E0000EFF0905017E0FFEF4401FFEFF0905064E0FFEF4401FFEFF0905065E0FFEF4401FFEFF0905034E0FFEF54FEFFEFF07BFF7A3D796912457D124ECEEF30E103021143
:400E40008180F422905016E0FFEF54FEFFEFF0905017E0FFEF54FEFFEFF0905064E0FFEF54FEFFEFF0905065E0FFEF54FEFFEFF0905034E0FFEF4401FFEFF07BFF7A3D793E
:400E80006F12457D124ECEEF30E10302118180F422905016E0FFEF4401FFEFF0905017E0FFEF54FEFFEFF0905064E0FFEF54FEFFEFF0905065E0FFEF54FEFFEFF09050341F
:400EC000E0FFEF4401FFEFF07BFF7A3D797512457D124ECEEF30E10302118180F422905016E0FFEF54FEFFEFF0905017E0FFEF4401FFEFF0905064E0FFEF54FEFFEFF09005
:400F00005065E0FFEF54FEFFEFF0905034E0FFEF4401FFEFF07BFF7A3D797B12457D124ECEEF30E10302118180F422905016E0FFEF4401FFEFF0905017E0FFEF4401FFEFC6
:400F4000F0905064E0FFEF54FEFFEFF0905065E0FFEF54FEFFEFF0905034E0FFEF4401FFEFF07BFF7A3D798112457D124ECEEF30E10302118180F422905016E0FFEF54FE87
:400F8000FFEFF0905017E0FFEF54FEFFEFF0905064E0FFEF4401FFEFF0905065E0FFEF54FEFFEFF0905034E0FFEF4401FFEFF07BFF7A3D798712457D124ECEEF30E10302A9
:400FC000118180F422905016E0FFEF4401FFEFF0905017E0FFEF54FEFFEFF0905064E0FFEF4401FFEFF0905065E0FFEF54FEFFEFF0905034E0FFEF4401FFEFF07BFF7A3D3F
:40100000798D12457D124ECEEF30E10302118180F422905016E0FFEF54FEFFEFF0905017E0FFEF4401FFEFF0905064E0FFEF4401FFEFF0905065E0FFEF54FEFFEFF0905047
:4010400034E0FFEF4401FFEFF07BFF7A3D799312457D124ECEEF30E10302118180F422905016E0FFEF4401FFEFF0905017E0FFEF4401FFEFF0905064E0FFEF4401FFEFF0DB
:40108000905065E0FFEF54FEFFEFF0905034E0FFEF4401FFEFF07BFF7A3D799912457D124ECEEF30E10302118180F42222900100E4F0900100E0FFEFD3941F501990010010
:4010C000E0FF74092FF582E43401F583E4F0900100E004F080DC7F017E007D007C001242629000FEE4F09000F9E4F07BFF7A3D799F12457D124ECEEF30E10302118180F406
:4011000022900095E475F0011232179000941233D91231ECFFEFB4FF04124DFE229000941233D91231ECFFEFB40F137BFF7A3C79CF12457D124ECEEF20E14680F72290011F
:4011400000E4F0900100E0FFEFD3941F5019900100E0FF74092FF582E43401F583E4F0900100E004F080DC9000FEE4F09000F9E4F07BFF7A3C79FE12457D124ECEEF30E12C
:40118000F9229000A9E4F09000AAE4F09000ABE4F09000AFE4F07F0112318D1240649000A8EFF09000A9E0FFEF6003021CF79000A8E0FFEF64FF7045900100E4F09000A880
:4011C000E0FF900100E0FE74092EF582E43401F583EFF0900100E004F09000A97401F09000AE7402F07BFF7A4D79E312457D124ECEEF30E103021D7B80F4021D7B9000A8E6
:40120000E0FFEF70101248B59000AAE4F09000A9E4F0021D7B9000A8E0FFEF640160030212DD900129E4F0905003E0FFEF30E410900129E0FFEF54F7FF900129EFF0800E81
:40124000900129E0FFEF5408FF900129EFF0905021E0FFEF30E410900129E0FFEF447FFF900129EFF0800E900129E0FFEF5480FF900129EFF07FE87E031249F87BFF7A4D1E
:4012800079E812457D124ECEEF30E1F97BFF7A4D79E812457D124ECEEF30E1F97BFF7A4D79E812457D124ECEEF30E1F97BFF7A4D79EA12457D124ECEEF30E1F9900129E05F
:4012C000FF1243F8124ECEEF30E1F9900129E4F09000AAE4F09000A9E4F0021D7B9000A8E0FFEF64F1706C900100E4F0900100E0FFEFD394085019900100E0FF74092FF554
:4013000082E43401F583E4F0900100E004F080DC900100E4F09000A8E0FF900100E0FE74092EF582E43401F583EFF0900100E0FF74092FF582E43401F583E0FF90012BEFDA
:40134000F07F011231669000AAE4F09000A9E4F0021D7B9000A8E0FFEF64F2706C900100E4F0900100E0FFEFD394085019900100E0FF74092FF582E43401F583E4F0900142
:4013800000E004F080DC900100E4F09000A8E0FF900100E0FE74092EF582E43401F583EFF0900100E0FF74092FF582E43401F583E0FF90012BEFF07F011231669000AAE49B
:4013C000F09000A9E4F0021D7B9000A8E0FFEF6403706C900100E4F0900100E0FFEFD394085019900100E0FF74092FF582E43401F583E4F0900100E004F080DC900100E443
:40140000F09000A8E0FF900100E0FE74092EF582E43401F583EFF0900100E0FF74092FF582E43401F583E0FF90012BEFF07F011231669000AAE4F09000A9E4F0021D7B9098
:4014400000A8E0FFEF64FC706C900100E4F0900100E0FFEFD394085019900100E0FF74092FF582E43401F583E4F0900100E004F080DC900100E4F09000A8E0FF900100E078
:40148000FE74092EF582E43401F583EFF0900100E0FF74092FF582E43401F583E0FF90012BEFF07F011231669000AAE4F09000A9E4F0021D7B9000A8E0FFEF6406706C9044
:4014C0000100E4F0900100E0FFEFD394085019900100E0FF74092FF582E43401F583E4F0900100E004F080DC900100E4F09000A8E0FF900100E0FE74092EF582E43401F50C
:4015000083EFF0900100E0FF74092FF582E43401F583E0FF90012BEFF07F011231669000AAE4F09000A9E4F0021D7B9000A8E0FFEF6408702C7BFF7A4D79E312457D124EEE
:40154000CEEF30E1F91248B57F271243F8124ECEEF30E1F99000AAE4F09000A9E4F0021D7B9000A8E0FFEF64D070387BFF7A4D79E312457D124ECEEF30E1F91248B57F03BB
:401580001243F8124ECEEF30E1F97F011243F8124ECEEF30E1F99000AAE4F09000A9E4F0021D7B9000A8E0FFEF64097045900100E4F09000A8E0FF900100E0FE74092EF55B
:4015C00082E43401F583EFF0900100E004F09000A97402F09000AE7403F07BFF7A4D79E312457D124ECEEF30E103021D7B80F4021D7B9000A8E0FFEF640A7043900100E46A
:40160000F09000A8E0FF900100E0FE74092EF582E43401F583EFF0900100E0FF74092FF582E43401F583E0FF90012BEFF07F011231669000AAE4F09000A9E4F0021D7B9096
:4016400000A8E0FFEF640B7045900100E4F09000A8E0FF900100E0FE74092EF582E43401F583EFF0900100E004F09000A97401F09000AE7402F07BFF7A4D79E312457D1229
:401680004ECEEF30E103021D7B80F4021D7B9000A8E0FFEF640C7045900100E4F09000A8E0FF900100E0FE74092EF582E43401F583EFF0900100E004F09000A97401F09028
:4016C00000AE7402F07BFF7A4D79E312457D124ECEEF30E103021D7B80F4021D7B9000A8E0FFEF6410706C900100E4F0900100E0FFEFD394085019900100E0FF74092FF589
:4017000082E43401F583E4F0900100E004F080DC900100E4F09000A8E0FF900100E0FE74092EF582E43401F583EFF0900100E0FF74092FF582E43401F583E0FF90012BEFD6
:40174000F07F011231669000AAE4F09000A9E4F0021D7B9000A8E0FFEF6411706C900100E4F0900100E0FFEFD394085019900100E0FF74092FF582E43401F583E4F090011F
:4017800000E004F080DC900100E4F09000A8E0FF900100E0FE74092EF582E43401F583EFF0900100E0FF74092FF582E43401F583E0FF90012BEFF07F011231669000AAE497
:4017C000F09000A9E4F0021D7B9000A8E0FFEF6418705C7BFF7A4D79E812457D124ECEEF30E1F97BFF7A4D79E812457D124ECEEF30E1F97BFF7A4D79E812457D124ECEEF37
:4018000030E1F97BFF7A4D79EA12457D124ECEEF30E1F9900107E0FF1243F8124ECEEF30E1F99000AAE4F09000A9E4F0021D7B9000A8E0FFEF641C7045900100E4F090002F
:40184000A8E0FF900100E0FE74092EF582E43401F583EFF0900100E004F09000A97401F09000AE7402F07BFF7A4D79E312457D124ECEEF30E103021D7B80F4021D7B90005F
:40188000A8E0FFEF6440706C900100E4F0900100E0FFEFD394085019900100E0FF74092FF582E43401F583E4F0900100E004F080DC900100E4F09000A8E0FF900100E0FEF2
:4018C00074092EF582E43401F583EFF0900100E0FF74092FF582E43401F583E0FF90012BEFF07F011231669000AAE4F09000A9E4F0021D7B9000A8E0FFEF6445706C9001BE
:4019000000E4F0900100E0FFEFD394085019900100E0FF74092FF582E43401F583E4F0900100E004F080DC900100E4F09000A8E0FF900100E0FE74092EF582E43401F58345
:40194000EFF0900100E0FF74092FF582E43401F583E0FF90012BEFF07F011231669000AAE4F09000A9E4F0021D7B9000A8E0FFEF6446706C900100E4F0900100E0FFEFD3E9
:4019800094085019900100E0FF74092FF582E43401F583E4F0900100E004F080DC900100E4F09000A8E0FF900100E0FE74092EF582E43401F583EFF0900100E0FF74092FD0
:4019C000F582E43401F583E0FF90012BEFF07F011231669000AAE4F09000A9E4F0021D7B9000A8E0FFEF6447706C900100E4F0900100E0FFEFD394085019900100E0FF747A
:401A0000092FF582E43401F583E4F0900100E004F080DC900100E4F09000A8E0FF900100E0FE74092EF582E43401F583EFF0900100E0FF74092FF582E43401F583E0FF90C1
:401A4000012BEFF07F011231669000AAE4F09000A9E4F0021D7B9000A8E0FFEF6448706C900100E4F0900100E0FFEFD394085019900100E0FF74092FF582E43401F583E44B
:401A8000F0900100E004F080DC900100E4F09000A8E0FF900100E0FE74092EF582E43401F583EFF0900100E0FF74092FF582E43401F583E0FF90012BEFF07F0112316690A1
:401AC00000AAE4F09000A9E4F0021D7B9000A8E0FFEF64507045900100E4F09000A8E0FF900100E0FE74092EF582E43401F583EFF0900100E004F09000A97401F09000AE94
:401B00007402F07BFF7A4D79E312457D124ECEEF30E103021D7B80F4021D7B9000A8E0FFEF64517049900100E4F09000A8E0FF900100E0FE74092EF582E43401F583EFF004
:401B4000900100E004F09000A97401F09000AE7402F012474B1248B57BFF7A4D79E312457D124ECEEF30E1F91248B5021D7B9000A8E0FFEF6455702F7BFF7A4D79E3124578
:401B80007D124ECEEF30E1F91248B59000A8E0FF1243F8124ECEEF30E1F99000AAE4F09000A9E4F0021D7B9000A8E0FFEFB40D289000AAE4F09000A9E4F09001057401F02D
:401BC0007BFF7A4D79E312457D124ECEEF30E1F97F01123166021D7B9000A8E0FFEF64DE706E900100E4F0900100E0FFEFD394085019900100E0FF74092FF582E43401F527
:401C000083E4F0900100E004F080DC900100E4F09000A8E0FF900100E0FE74092EF582E43401F583EFF0900100E004F09000A97402F09000AE7403F07BFF7A4D79E3124572
:401C40007D124ECEEF30E103021D7B80F4021D7B9000A8E0FFEF64DD70527BFF7A4D79E312457D124ECEEF30E1F99000D0E0FEA3E0FFEEFF7E00900108EFF01248B590012A
:401C800008E0FF1243F8124ECEEF30E1F99000D0E0FEA3E0FF1243F8124ECEEF30E1F99000AAE4F09000A9E4F0021D7B900100E4F0900100E0FFEFD3941F5019900100E0BC
:401CC000FF74092FF582E43401F583E4F0900100E004F080DC9000A9E4F09000AAE4F07BFF7A4D79EC12457D124ECEEF30E103021D7B80F4021D7B9000A9E0FFEF607C90BB
:401D000000A8E0FF900100E0FE74092EF582E43401F583EFF0900100E004F09000A9E014F09000A9E0FFEF704D9000AA7401F0900109E0FFEFB4DE439000D0E4F0A3E4F04E
:401D400090010AE0FF7E009000D0EE8FF01232179000D0E0FEA3E0FFEF7F00FE9000D0EEF0A3EFF090010BE0FF7E009000D0EE8FF012321780059000AAE4F09000AAE0FF8A
:401D8000EF64016003021196900100E014FFF09000ABEFF09000AEE0FFEF14FF9000ACEFF09000AEE0FF9000ADEFF09000ADE0FFEFD3940040369000ABE0FF74092FF5829D
:401DC000E43401F583E0FF9000ACE0FE742B2EF582E43401F583EFF09000ABE014F09000ACE014F09000ADE014F080BF9000AAE4F07F01123166900100E004F0021196229F
:401E00009000A0EEF0A3EFF09000A2E4F0A3E4F09000A0E0FEA3E0FFD3EF940FEE648094804003021FB99000A0E0FEA3E0FF74017E00A807088005C333CE33CED8F9FF90B9
:401E400000A2EEF0A3EFF09000A2E0FEA3E0FFEEFF7E009000A4EFF090502CE0FFEF54FEFFEFF07F00124B679000A4E0FF124B679000A2E0FEA3E0FF124B67124CF5EF3064
:401E8000E1F97F0F7E001249F890502CE0FFEF4401FFEFF07F147E001249F890502CE0FFEF54FEFFEFF07F01124B677F00124B677F00124B67124CF5EF30E1F97F0F7E005C
:401EC0001249F890502CE0FFEF4401FFEFF07F147E001249F890502CE0FFEF54FEFFEFF07F02124B677F00124B677F00124B67124CF5EF30E1F97F0F7E001249F890502CA2
:401F0000E0FFEF4401FFEFF07F147E001249F890502CE0FFEF54FEFFEFF07F03124B677F00124B677F00124B67124CF5EF30E1F97F0F7E001249F890502CE0FFEF4401FFAD
:401F4000EFF07F147E001249F890502CE0FFEF54FEFFEFF07F08124B677F00124B677F11124B67124CF5EF30E1F97F0F7E001249F890502CE0FFEF4401FFEFF07F147E0079
:401F80001249F890502CE0FFEF54FEFFEFF07F0F124B677F00124B677F00124B67124CF5EF30E1F97F0F7E001249F890502CE0FFEF4401FFEFF002266C9000A0E0FEA3E01F
:401FC000FFC3EF9410EE6480948050030221839000A0E0FEA3E0FFD3EF941FEE6480948040030221839000A074FF75F0F01232179000A0E0FEA3E0FF74017E00A8070880CC
:4020000005C333CE33CED8F9FF9000A2EEF0A3EFF09000A2E0FEA3E0FFEEFF7E009000A4EFF090502CE0FFEF54FEFFEFF07F00124B677F00124B677F00124B67124CF5EF4F
:4020400030E1F97F0F7E001249F890502CE0FFEF4401FFEFF07F147E001249F890502CE0FFEF54FEFFEFF07F01124B679000A4E0FF124B679000A2E0FEA3E0FF124B671209
:402080004CF5EF30E1F97F0F7E001249F890502CE0FFEF4401FFEFF07F147E001249F890502CE0FFEF54FEFFEFF07F02124B677F00124B677F00124B67124CF5EF30E1F905
:4020C0007F0F7E001249F890502CE0FFEF4401FFEFF07F147E001249F890502CE0FFEF54FEFFEFF07F03124B677F00124B677F00124B67124CF5EF30E1F97F0F7E00124997
:40210000F890502CE0FFEF4401FFEFF07F147E001249F890502CE0FFEF54FEFFEFF07F08124B677F00124B677F12124B67124CF5EF30E1F97F0F7E001249F890502CE0FFC3
:40214000EF4401FFEFF07F147E001249F890502CE0FFEF54FEFFEFF07F0F124B677F00124B677F00124B67124CF5EF30E1F97F0F7E001249F890502CE0FFEF4401FFEFF05F
:4021800002266C9000A0E0FEA3E0FFC3EF9420EE64809480500302234D9000A0E0FEA3E0FFD3EF942FEE64809480400302234D9000A074FF75F0E01232179000A0E0FEA346
:4021C000E0FF74017E00A807088005C333CE33CED8F9FF9000A2EEF0A3EFF09000A2E0FEA3E0FFEEFF7E009000A4EFF090502CE0FFEF54FEFFEFF07F00124B677F00124B71
:40220000677F00124B67124CF5EF30E1F97F0F7E001249F890502CE0FFEF4401FFEFF07F147E001249F890502CE0FFEF54FEFFEFF07F01124B677F00124B677F00124B6714
:40224000124CF5EF30E1F97F0F7E001249F890502CE0FFEF4401FFEFF07F147E001249F890502CE0FFEF54FEFFEFF07F02124B679000A4E0FF124B679000A2E0FEA3E0FF9A
:40228000124B67124CF5EF30E1F97F0F7E001249F890502CE0FFEF4401FFEFF07F147E001249F890502CE0FFEF54FEFFEFF07F03124B677F00124B677F00124B67124CF525
:4022C000EF30E1F97F0F7E001249F890502CE0FFEF4401FFEFF07F147E001249F890502CE0FFEF54FEFFEFF07F08124B677F00124B677F14124B67124CF5EF30E1F97F0F5C
:402300007E001249F890502CE0FFEF4401FFEFF07F147E001249F890502CE0FFEF54FEFFEFF07F0F124B677F00124B677F00124B67124CF5EF30E1F97F0F7E001249F8904E
:40234000502CE0FFEF4401FFEFF002266C9000A0E0FEA3E0FFC3EF9430EE6480948050030225179000A0E0FEA3E0FFD3EF943FEE6480948040030225179000A074FF75F04B
:40238000D01232179000A0E0FEA3E0FF74017E00A807088005C333CE33CED8F9FF9000A2EEF0A3EFF09000A2E0FEA3E0FFEEFF7E009000A4EFF090502CE0FFEF54FEFFEFE2
:4023C000F07F00124B677F00124B677F00124B67124CF5EF30E1F97F0F7E001249F890502CE0FFEF4401FFEFF07F147E001249F890502CE0FFEF54FEFFEFF07F01124B67CA
:402400007F00124B677F00124B67124CF5EF30E1F97F0F7E001249F890502CE0FFEF4401FFEFF07F147E001249F890502CE0FFEF54FEFFEFF07F02124B677F00124B677FF9
:4024400000124B67124CF5EF30E1F97F0F7E001249F890502CE0FFEF4401FFEFF07F147E001249F890502CE0FFEF54FEFFEFF07F03124B679000A4E0FF124B679000A2E053
:40248000FEA3E0FF124B67124CF5EF30E1F97F0F7E001249F890502CE0FFEF4401FFEFF07F147E001249F890502CE0FFEF54FEFFEFF07F08124B677F00124B677F18124B40
:4024C00067124CF5EF30E1F97F0F7E001249F890502CE0FFEF4401FFEFF07F147E001249F890502CE0FFEF54FEFFEFF07F0F124B677F00124B677F00124B67124CF5EF3015
:40250000E1F97F0F7E001249F890502CE0FFEF4401FFEFF002266C90502CE0FFEF54FEFFEFF07F00124B677F00124B677F00124B67124CF5EF30E1F97F0F7E001249F890C3
:40254000502CE0FFEF4401FFEFF07F147E001249F890502CE0FFEF54FEFFEFF07F01124B677F00124B677F00124B67124CF5EF30E1F97F0F7E001249F890502CE0FFEF44ED
:4025800001FFEFF07F147E001249F890502CE0FFEF54FEFFEFF07F02124B677F00124B677F00124B67124CF5EF30E1F97F0F7E001249F890502CE0FFEF4401FFEFF07F14C8
:4025C0007E001249F890502CE0FFEF54FEFFEFF07F03124B677F00124B677F00124B67124CF5EF30E1F97F0F7E001249F890502CE0FFEF4401FFEFF07F147E001249F89098
:40260000502CE0FFEF54FEFFEFF07F08124B677F00124B677F00124B67124CF5EF30E1F97F0F7E001249F890502CE0FFEF4401FFEFF07F147E001249F890502CE0FFEF5415
:40264000FEFFEFF07F0F124B677F00124B677F00124B67124CF5EF30E1F97F0F7E001249F890502CE0FFEF4401FFEFF07F0A7E007D007C00124262229000A0EEF0A3EFF096
:402680009000A2E4F0A3E4F09000A0E0FEA3E0FFD3EF940FEE6480948040030228319000A0E0FEA3E0FF74017E00A807088005C333CE33CED8F9FF9000A2EEF0A3EFF090AE
:4026C00000A2E0FEA3E0FFEEFF7E009000A4EFF090502CE0FFEF54FEFFEFF07F04124B679000A4E0FF124B679000A2E0FEA3E0FF124B67124CF5EF30E1F97F0F7E00124929
:40270000F890502CE0FFEF4401FFEFF07F147E001249F890502CE0FFEF54FEFFEFF07F05124B677F00124B677F00124B67124CF5EF30E1F97F0F7E001249F890502CE0FFD2
:40274000EF4401FFEFF07F147E001249F890502CE0FFEF54FEFFEFF07F06124B677F00124B677F00124B67124CF5EF30E1F97F0F7E001249F890502CE0FFEF4401FFEFF062
:402780007F147E001249F890502CE0FFEF54FEFFEFF07F07124B677F00124B677F00124B67124CF5EF30E1F97F0F7E001249F890502CE0FFEF4401FFEFF07F147E001249C7
:4027C000F890502CE0FFEF54FEFFEFF07F09124B677F00124B677F11124B67124CF5EF30E1F97F0F7E001249F890502CE0FFEF4401FFEFF07F147E001249F890502CE0FFFD
:40280000EF54FEFFEFF07F0F124B677F00124B677F00124B67124CF5EF30E1F97F0F7E001249F890502CE0FFEF4401FFEFF0022EE49000A0E0FEA3E0FFC3EF9410EE64802D
:40284000948050030229FB9000A0E0FEA3E0FFD3EF941FEE6480948040030229FB9000A074FF75F0F01232179000A0E0FEA3E0FF74017E00A807088005C333CE33CED8F9CF
:40288000FF9000A2EEF0A3EFF09000A2E0FEA3E0FFEEFF7E009000A4EFF090502CE0FFEF54FEFFEFF07F04124B677F00124B677F00124B67124CF5EF30E1F97F0F7E001236
:4028C00049F890502CE0FFEF4401FFEFF07F147E001249F890502CE0FFEF54FEFFEFF07F05124B679000A4E0FF124B679000A2E0FEA3E0FF124B67124CF5EF30E1F97F0FDD
:402900007E001249F890502CE0FFEF4401FFEFF07F147E001249F890502CE0FFEF54FEFFEFF07F06124B677F00124B677F00124B67124CF5EF30E1F97F0F7E001249F89051
:40294000502CE0FFEF4401FFEFF07F147E001249F890502CE0FFEF54FEFFEFF07F07124B677F00124B677F00124B67124CF5EF30E1F97F0F7E001249F890502CE0FFEF44E3
:4029800001FFEFF07F147E001249F890502CE0FFEF54FEFFEFF07F09124B677F00124B677F12124B67124CF5EF30E1F97F0F7E001249F890502CE0FFEF4401FFEFF07F14AB
:4029C0007E001249F890502CE0FFEF54FEFFEFF07F0F124B677F00124B677F00124B67124CF5EF30E1F97F0F7E001249F890502CE0FFEF4401FFEFF0022EE49000A0E0FE5A
:402A0000A3E0FFC3EF9420EE648094805003022BC59000A0E0FEA3E0FFD3EF942FEE648094804003022BC59000A074FF75F0E01232179000A0E0FEA3E0FF74017E00A807DE
:402A4000088005C333CE33CED8F9FF9000A2EEF0A3EFF09000A2E0FEA3E0FFEEFF7E009000A4EFF090502CE0FFEF54FEFFEFF07F04124B677F00124B677F00124B67124C5D
:402A8000F5EF30E1F97F0F7E001249F890502CE0FFEF4401FFEFF07F147E001249F890502CE0FFEF54FEFFEFF07F05124B677F00124B677F00124B67124CF5EF30E1F97FC5
:402AC0000F7E001249F890502CE0FFEF4401FFEFF07F147E001249F890502CE0FFEF54FEFFEFF07F06124B679000A4E0FF124B679000A2E0FEA3E0FF124B67124CF5EF30A3
:402B0000E1F97F0F7E001249F890502CE0FFEF4401FFEFF07F147E001249F890502CE0FFEF54FEFFEFF07F07124B677F00124B677F00124B67124CF5EF30E1F97F0F7E00C9
:402B40001249F890502CE0FFEF4401FFEFF07F147E001249F890502CE0FFEF54FEFFEFF07F09124B677F00124B677F14124B67124CF5EF30E1F97F0F7E001249F890502CFA
:402B8000E0FFEF4401FFEFF07F147E001249F890502CE0FFEF54FEFFEFF07F0F124B677F00124B677F00124B67124CF5EF30E1F97F0F7E001249F890502CE0FFEF4401FF15
:402BC000EFF0022EE49000A0E0FEA3E0FFC3EF9430EE648094805003022D8F9000A0E0FEA3E0FFD3EF943FEE648094804003022D8F9000A074FF75F0D01232179000A0E096
:402C0000FEA3E0FF74017E00A807088005C333CE33CED8F9FF9000A2EEF0A3EFF09000A2E0FEA3E0FFEEFF7E009000A4EFF090502CE0FFEF54FEFFEFF07F04124B677F00DE
:402C4000124B677F00124B67124CF5EF30E1F97F0F7E001249F890502CE0FFEF4401FFEFF07F147E001249F890502CE0FFEF54FEFFEFF07F05124B677F00124B677F00121B
:402C80004B67124CF5EF30E1F97F0F7E001249F890502CE0FFEF4401FFEFF07F147E001249F890502CE0FFEF54FEFFEFF07F06124B677F00124B677F00124B67124CF5EF3B
:402CC00030E1F97F0F7E001249F890502CE0FFEF4401FFEFF07F147E001249F890502CE0FFEF54FEFFEFF07F07124B679000A4E0FF124B679000A2E0FEA3E0FF124B671277
:402D00004CF5EF30E1F97F0F7E001249F890502CE0FFEF4401FFEFF07F147E001249F890502CE0FFEF54FEFFEFF07F09124B677F00124B677F18124B67124CF5EF30E1F959
:402D40007F0F7E001249F890502CE0FFEF4401FFEFF07F147E001249F890502CE0FFEF54FEFFEFF07F0F124B677F00124B677F00124B67124CF5EF30E1F97F0F7E001249FE
:402D8000F890502CE0FFEF4401FFEFF0022EE490502CE0FFEF54FEFFEFF07F04124B677F00124B677F00124B67124CF5EF30E1F97F0F7E001249F890502CE0FFEF4401FF6A
:402DC000EFF07F147E001249F890502CE0FFEF54FEFFEFF07F05124B677F00124B677F00124B67124CF5EF30E1F97F0F7E001249F890502CE0FFEF4401FFEFF07F147E00FF
:402E00001249F890502CE0FFEF54FEFFEFF07F06124B677F00124B677F00124B67124CF5EF30E1F97F0F7E001249F890502CE0FFEF4401FFEFF07F147E001249F890502C4E
:402E4000E0FFEF54FEFFEFF07F07124B677F00124B677F00124B67124CF5EF30E1F97F0F7E001249F890502CE0FFEF4401FFEFF07F147E001249F890502CE0FFEF54FEFF4D
:402E8000EFF07F09124B677F00124B677F00124B67124CF5EF30E1F97F0F7E001249F890502CE0FFEF4401FFEFF07F147E001249F890502CE0FFEF54FEFFEFF07F0F124B60
:402EC000677F00124B677F00124B67124CF5EF30E1F97F0F7E001249F890502CE0FFEF4401FFEFF07F0A7E007D007C0012426222C2AF80FE32C0E0E5D0541864087003D0D4
:402F0000E032D0E0122EF485D00B75D008AAE0EC2422F8E6BC050274FFC39581B4140040CF7906781016E608700BC2AFE630E1034418F6D2AF08D9EDEA8BD030000122D56F
:402F40000DFCC0E0C0D0C0F0C083C082C000C001C002C003C004C005C006C007E50C232411F87440C2AF46F6D2AFD200E50CFF232411F80F0808BF06047F007811E630E4A8
:402F8000F200E50CC39F5020050C7421250CF8E6FDA68108E6AE0CBE050274FFCDF8E86D60E008E6C0E080F6E50CD39F4027E50C2422F8E6AE0CBE050274FFFD18E6CDF8B4
:402FC000E5816D6006D0E0F61880F5E50C2421C8F6150C80D3750D05E50C232411F87F04C2AFE610E61E30E00310E20C7F0030E10730E3047F0854F4547CC6D2AF5480428C
:4030000007C20022F6D2AFD007D006D005D004D003D002D001D000D082D083D0F0D0D0D0E0C200227821A68174056006FF0876FFDFFB7F06E47810F608F608DFFA7811763F
:4030400030904E22740193C0E0E493C0E0750D05D2AF2205EFD3940540037FFF2274112F2FF8E620E5F4C2AFE64430F6D2AFAE0CEEC39F50210E74212EF8E6F908E618BE11
:40308000050274FFFDED69600909E71919F7090980F3161680DAEED39F400405810581EED39F402274212EF808E6F9EEB50C02A981180606E6FDED6960091919E70909F7DF
:4030C0001980F31E80D9EF2421F8E604F8EF2F04904E2293F608EF2F93F67F0022EFD3940540037FFF22EF232411F8E630E5F4C2AFE6548CF6D2AFE50CB5070A74212FF837
:40310000E6F581022F6A502E74222FF8E6BF050274FFFD18E6F974212FF8FBE6FCE96C6008A805E7F61D1980F4A803A6051FE50CB507E37F002274222FF8E6FD1886010FCC
:4031400074212FF8A601088604E50CB50702AC81ED6C60080D09A805E6F780F4E50CB507DE89817F0022EFD3940540037FFF22EF232411F8C2AFE630E50530E002D2E4D2EB
:40318000E2C6D2AF7F0030E2010F022F3E8FF0E4FFFEE50C232410F8C2A930F70D7F08E6600B2DF660325030800730F106EDF660277E020830F010C2AFE610E7250E30E227
:4031C0000CD2AF7F048014C2AFE610E71554EC4EF6D2AFD2A9022F6A7F0808EF4483F4C2AF56C6D2AFD2A954804FFF22BB010689828A83E0225002E722BBFE02E3228982A5
:403200008A83E49322BB010689828A83F0225002F722BBFE01F322C5F0F8A3E028F0C5F0F8E582158270021583E038F022BB010A89828A83E0F5F0A3E022500687F009E796
:403240001922BBFE07E3F5F009E3192289828A83E493F5F074019322EF2BFFEE3AFEED39FDEC38FC22E88FF0A4CC8BF0A42CFCE98EF0A42CFC8AF0EDA42CFCEA8EF0A4CDC5
:40328000A8F08BF0A42DCC3825F0FDE98FF0A42CCD35F0FCEB8EF0A4FEA9F0EB8FF0A4CFC5F02ECD39FEE43CFCEAA42DCE35F0FDE43CFC2275F008758200EF2FFFEE33FEE1
:4032C000CD33CDCC33CCC58233C5829BED9AEC99E58298400CF582EE9BFEED9AFDEC99FC0FD5F0D6E4CEFBE4CDFAE4CCF9A88222B800C1B90059BA002DEC8BF084CFCECDC2
:40330000FCE5F0CBF97818EF2FFFEE33FEED33FDEC33FCEB33FB10D703994004EB99FB0FD8E5E4F9FA227818EF2FFFEE33FEED33FDEC33FCC933C910D7059BE99A4007ECCA
:403340009BFCE99AF90FD8E0E4C9FAE4CCFB2275F010EF2FFFEE33FEED33FDCC33CCC833C810D7079BEC9AE899400AED9BFDEC9AFCE899F80FD5F0DAE4CDFBE4CCFAE4C899
:40338000F922EF4BFFEE4AFEED49FDEC48FC22E8600FECC313FCED13FDEE13FEEF13FFD8F122E8600FEFC333FFEE33FEED33FDEC33FCD8F122E0FCA3E0FDA3E0FEA3E0FF25
:4033C00022E0F8A3E0F9A3E0FAA3E0FB22ECF0A3EDF0A3EEF0A3EFF022E0FBA3E0FAA3E0F922EBF0A3EAF0A3E9F022D083D082F8E4937012740193700DA3A393F8740193D9
:40340000F5828883E4737402936860EFA3A3A380DFE50F2582F582E50E3583F583B50E0485820F2210AF0685820FF50E2285820FF50ED2AF22C0E0C0F0C083C082C085C0E1
:4034400084C086758600C093759300C0D075D000C000C001C002C003C004C005C006C0079044CB7401F090012AE4F0905003E0FFEF30E41090012AE0FFEF4408FF90012A44
:40348000EFF0800E90012AE0FFEF54F7FF90012AEFF0905000E0FFEF30E41090012AE0FFEF4401FF90012AEFF0800E90012AE0FFEF54FEFF90012AEFF0905001E0FFEF3018
:4034C000E41090012AE0FFEF4402FF90012AEFF0800E90012AE0FFEF54FDFF90012AEFF0905002E0FFEF30E41090012AE0FFEF4404FF90012AEFF0800E90012AE0FFEF54C6
:40350000FBFF90012AEFF0905021E0FFEF30E41090012AE0FFEF4480FF90012AEFF0800E90012AE0FFEF547FFF90012AEFF0905020E0FFEF30E41090012AE0FFEF4440FF9D
:4035400090012AEFF0800E90012AE0FFEF54BFFF90012AEFF0905063E0FFEF30E41090012AE0FFEF4420FF90012AEFF0800E90012AE0FFEF54DFFF90012AEFF0905062E02E
:40358000FFEF30E41090012AE0FFEF4410FF90012AEFF0800E90012AE0FFEF54EFFF90012AEFF07FE87E031249F890012AE0FFEF6488FF90012AEFF090012AE0FF90010715
:4035C000EFF090502AE0FFEF5410FF7E00EF4E700302346B90501FE0FFEF54FEFFEFF07F017E001249F890501FE0FFEF4401FFEFF0124B989044C37401F0D007D006D00531
:40360000D004D003D002D001D000D0D0D093D086D084D085D082D083D0F0D0E0329000A0EEF0A3EFF09000A2EDF0124E679000A4EFF0124E5D9000A5EEF0A3EFF09000A527
:40364000E0FEA3E0FF9000A0E0FCA3E0FDED6F7002EC6E70030237B19043A2E0FFEF5401FF9000A3EFF09000A4E0FFEF705E9000A5E0FEA3E0FFEF4E600C9000A0E0FEA371
:40368000E0FFEF4E70469000A5E0FEA3E0FFEF4E701D7B027A4079809000A0E0FCA3E0FD124DD6904082E0FFEF54BFFFEFF022904082E0FFEF4440FFEFF07B027A40798003
:4036C0009000A0E0FCA3E0FD124DD6229000A3E0FFEF606C904001E4F09040107401F0904014E4F0904008E0FFEF547FFFEFF0904082E0FFEF5408FF7E00EF4E600C9000EF
:40370000A0E0FEA3E0FFEF4E70367B027A4079029000A5E0FCA3E0FD124DD69040017407F0904001E0FFEF5401FF7E00EF4E70F19043A2E0FFEF54FEFFEFF0904001E4F0CB
:403740009043A2E0FFEF5401FF7E00EF4E603A7B027A4079029000A0E0FCA3E0FD124DD69000A2E0FFEF60047F0280027F00EF4401FF904001EFF0904001E0FFEF5401FF2E
:403780007E00EF4E602B80EF227B027A4079809000A0E0FCA3E0FD124DD69043A2C083C082E0FF9000A3E0FEEF4EFFD082D083EFF0227B007A4679E8124E2EEF4401FD7B9F
:4037C000007A4679E8124E3A123BE47B017A507903124E2EEF4402FD7B017A507903124E3A7B017A507913124E2EEF4402FD7B017A507913124E3A9043A0E0FFEF4440FF3D
:403800009043A0EFF09043C2E0FFEF4410FF9043C2EFF07C6D7D387B007A5179007F0A7E00124A4C7C6D7D427B007A5179C27F087E00124A4C7C6D7D4A7B007A5179F27F4A
:40384000087E00124A4C7C6D7D527B007A5179127F087E00124A4C7C6D7D5A7B007A5179227F087E00124A4C7C6D7D627B007A5179307F0A7E00124A4C7C6D7D6C7B007A69
:403880005179407F0A7E00124A4C7C6D7D767B007A5179507F0A7E00124A4C7C6D7D807B007A5179627F087E00124A4C7B017A0C79DB7D44124E3A7B017A1A79DB7DA412B9
:4038C0004E3A9044F47401F0904322E0FFEF4408FF904322EFF09046ECE0FFEFC394055006904689743AF090480074C0F012392A9048007480F012495A7B007A4379A0C0FF
:4039000003C002C0017B007A4379B09000C61233E2D001D002D0037F0E7E001249909043B0E0FFEF54FDFFEFF0227B007A4079807D007C00124DD49040827458F07B007AB8
:403940004079847D0B7C00124DD49040867418F07B007A4079887D647C00124DD490408A7418F07B007A40798C7D2B7C01124DD490408E7419F07B007A4079907DDB7C05E1
:40398000124DD49040927419F07B007A4079947DDF7C2E124DD49040967419F09043007402F09040007408F09042007403F07B0C7A017908124E2E9046A1EFF07B007A424B
:4039C00079227D087C00124DD47B007A4279207D517C12124DD49000C5E4F07F197E007D007C009000C11233CD9000C11233B5D3EF9400EE9400404E9000C5E0FFEF6403C3
:403A00006044904225E0FFEF5401FF7E009000C5E0FEEE25E0FEEE4FFFEF5403FF9000C5EFF07FE07E017D007C001247009000C11233B57BFF7AFF79FF78FF1232589000E9
:403A4000C11233CD80A39000C11233B5EF4E70057F03124CD27B007A4079047D007C01124DD49040047407F0904006E4F09040087448F0904004E4F09040017402F09043A3
:403A8000A2E0FFEF443FFF9043A2EFF02275930078007583467582E8E04401F0009046ECE0F99046FAE0FAB903225420B40012B8001AEA901FFFF07401901FFEF09046F657
:403AC000F0901FFEE06005901FFFE0FA90480074C0F07581269076BCE4F0A3F0A3F0A3F0907010F0907019F0907020F09076007410F0907604E4F0A3F0A3F0A3F0907800C3
:403B00007800087400F0A37408F0E8B8040274FFA3F0A37422F0A374BCF0A37476F0A3E4F0A3E81475F008A4F0A3B804D59070107401F0907014F0904880E0904888E090B1
:403B400044D87402F07E707F18120004907010F0EA90013CF0020011750E1F750FFD1237B2023B9F023024E493A3F8E493A34003F68001F208DFF48029E493A3F854072431
:403B80000CC8C333C4540F4420C8834004F456800146F6DFE4800B010204081020408090445BE47E019360BCA3FF543F30E509541FFEE493A360010ECF54C025E060A8400F
:403BC000B8E493A3FAE493A3F8E493A3C8C582C8CAC583CAF0A3C8C582C8CAC583CADFE9DEE780BE7F007E007D007C0090014A1233CD9076007410F09070107401F0907037
:403C000019E4F07B027A7879007D987C02124DD69078027401F090780374A3F07B027A787904C003C002C0017BFF7A6A79A0AF01AE02AD037C00EF54FFFFEE54FFFEED5470
:403C400000FDEC5400FCAD07AC06D001D002D003124DD67B027A7879067D087C78124DD67B027A7679047D107C00124DD67B027A7679067D007C00124DD69070397407F078
:403C80009070497411F0907059741BF09070147401F0907018E0FFEF5401FF7E00EF4E70F1907038E0FFEF5401FF7E00EF4E70F1907048E0FFEF5401FF7E00EF4E70F19013
:403CC0007058E0FFEF5401FF7E00EF4E70F1222A2A2A230056494348310056494348320049434D534C00464C59434800464753454C0053005500430045002A0023002A2A14
:403D00002A3F00535243454E00535243445300535243304500535231304500535232304500535235304500533130304500533230304500533530304500535243314B0053A6
:403D40005243324B00535243354B00535231304B00535232304B00535235304B00533130304B00533230304B00533530304B00535243314D005352455831005352455832F2
:403D8000005352455833005352455834005352455835005352455836005352455837004641494C00C0E0C083C082C085C084C086758600C093759300C0D075D000C006C0EF
:403DC000079000CAE4F0A2AFE433FF9000CBEFF0D2AF9044F474FDF0906467E0FF9000C9EFF09000C9E0FFEF30E568906448E0FF900046E0FE74052EF582E43400F583EFC1
:403E0000F09000CA7401F09000CAE0FFEF6038900003E0FFEF60069000027401F0900046E004F0900046E0FFEFC394204005900046E4F0900004E0FF900046E0FEEEB507D0
:403E4000069000037401F0906467E0FF9000C9EFF0808F9000CBE0FFEF24FF92AFD007D006D0D0D093D086D084D085D082D083D0E0329000B5EFF0900047E0FF9000B6EFF1
:403E8000F0900025E0FF9000B7EFF09000B7E0FF9000B6E0FEEEC39F50269000B7E0FF7E00EF24FFFFEE34FFFE9000B6E0FD7C00EFB50508EEB504047F0180027F00801860
:403EC0009000B7E0FF9000B6E0FEC3EE9FFFEFB41F047F0180027F00EF709C9000B6E0FF9000B7E0FEEEB5071490646CE0FFEF20E20B9000B5E0FF90644CEFF0229000B6F9
:403F0000E0FFEFC3942040059000B6E4F09000B5E0FF9000B6E0FE74262EF582E43400F583EFF09000B6E004F09000B6E0FF900047EFF022900092E4F07F0112318D9001F9
:403F400005E0FFEF607E900100E0FFEF14FF900092EFF0900100E0FFEF701A7BFF7A3C79CF12457D124ECEEF30E1F990010AE0FF1243F880477BFF7A3C79CF12457D124E87
:403F8000CEEF30E1F9900093E4F0900092E0FF900093E0FEEED39F5023900093E0FF74092FF582E43401F583E0FF1243F8124ECEEF30E1F9900093E004F080CE900105E4A6
:403FC000F0023F397B017A01792B12001A023F3922C0E0C083C082C085C084C086758600C093759300C0D075D000C006C007A2AFE433FF9000CCEFF0D2AF9044F474FDF0FC
:40400000900047E0FF900025E0FEEE6F603790646CE0FFEF20E22E900025E0FFEFC394204005900025E4F0900025E0FF74262FF582E43400F583E0FF90644CEFF090002506
:40404000E004F080BB9000CCE0FFEF24FF92AFD007D006D0D0D093D086D084D085D082D083D0E032124E78900004E0FF9000B1EFF0900046E0FF9000B2EFF0900003E0FFBA
:40408000EF700E9000B2E0FF9000B1E0FEEE6F60459000B1E0FF74052FF582E43400F583E0FF9000B0EFF09000B1E004F09000B1E0FFEFC3942040059000B1E4F09000B14E
:4040C000E0FF900004EFF0900003E0FFEF6011900003E4F0800A906448E0FF9000B0EFF0124E719000B0E0FF229000A0EFF09000A1ECF0A3EDF09000A0E0FFEFD3941F50EF
:4041000003D38001C340057F00124C1C9000A0E0FFEF541FFF7E00EF25E0FFEE33FEEF2400FFEE3444FEAA06A9077B01124DC79000A3EEF0A3EFF09000A0E0FF7E02EF8E10
:40414000F0A4FFAEF0EF2400FFEE3444FEAA06A9077B019000A1E0FEA3E0FFAD07AC06124DD69000A3E0FEA3E0FF227FE87E037D007C001242621249C47D017F257E001273
:40418000361D124C9A124CAD124BF2124C31124C5B124B2F7F81124844900146E4F0A3E4F012439312432E905016E0FFEF4401FFEFF0905017E0FFEF4401FFEFF090506448
:4041C000E0FFEF4401FFEFF012474B1248B5124C70124EB0124EB6124EBC124EC2124EC87F041231667F001230DD227F0A7E007D007C00124262124B11EF3395E0FE90018B
:4042000048EEF0A3EFF0905037E0FFEF5410FF7E00EF4E7014900148E0FEA3E0FFEE4401FE900148EEF0A3EFF090501EE0FFEF54FEFFEFF07F647E001249F890501EE0FF1F
:40424000EF4401FFEFF0900148E0FEA3E0FF124A72124D55EF30E2F97F647E001249F8808A2290FFFC1234111233CD850E83850F821233B5D3EF9400EE9480402F90013DE8
:404280001233B5124700850E83850F82C083C0821233B5EF2400FFEE3480FEED34FFFDEC34FFFCD082D0831233CD80BF9001331233B5850E83850F821233C112326512472E
:4042C000009000041234112290647EE0FFEF54F8FF90008BEFF090008BE0FF90647EEFF090647EE0FFEF54FCFF90008BEFF090008BE0FF90647EEFF0124DF17F80124DA5BA
:404300007F80124D957F00124D85124ED47F80124DB5124C0790008CEFF090649DE0FFEF4410FFEFF090008CE0FF124B8022905016E0FFEF30E40B905016E0FFEF54FEFFFD
:40434000EFF0905017E0FFEF30E40B905017E0FFEF54FEFFEFF0905064E0FFEF30E40B905064E0FFEF54FEFFEFF0905065E0FFEF30E40B905065E0FFEF54FEFFEFF09050BD
:4043800034E0FFEF30E40B905034E0FFEF54FEFFEFF022905015E0FFEF30E40B905015E0FFEF54FEFFEFF0905014E0FFEF30E40B905014E0FFEF54FEFFEFF0905012E0FF2F
:4043C000EF30E40B905012E0FFEF54FEFFEFF0905013E0FFEF30E40B905013E0FFEF54FEFFEFF0905011E0FFEF30E40B905011E0FFEF54FEFFEFF0229000BCEFF090000143
:40440000E0FFEF6055124E86900047E0FF900025E0FEEEB5071590646CE0FFEF20E20C9000BCE0FF90644CEFF0802C900047E0FFEFC394204005900047E4F09000BCE0FFA2
:40444000900047E0FE74262EF582E43400F583EFF0900047E004F0124E7F224200D0000A4200ED000142014800004201460000410001004100250041004700410004004117
:404480000046004100030041000200440138016E360044013300005DC04101371844013D2EE00000410150004101560041015100410157004101580041015900007F01123A
:4044C000318D7F2A1243F8124ECEEF30E1F97F2A1243F8124ECEEF30E1F97F2A1243F8124ECEEF30E1F97F2A1243F8124ECEEF30E1F97F2A1243F8124ECEEF30E1F97F2AC4
:404500001243F8124ECEEF30E1F97F3F1243F8124ECEEF30E1F97F041230DD80A0229000A0EFF09000A1EDF09000A1E0FFEFD394075003D38001C340057F00124C1C90002F
:40454000A0E0FFEFD3941F5003D38001C340057F00124C1C9000A1E0FFEF5407FF7E00EF75F020A4FFAEF09000A0E0FEEE541FFE74802EF582E43444F583EFF0229000B0F8
:404580001233E29000B3E4F0A3E4F0900001E0FFEF60429000B01233D99000B3E0FEA3E0FFE92FF9EA3EFA1231ECFFEF60279000B01233D99000B3E0FEA3E0FFE92FF9EA71
:4045C0003EFA1231ECFF123E729000B3E475F00112321780BE22C0E0C0F0C083C082C085C084C086758600C093759300C0D075D000C000C001C002C003C004C005C006C067
:40460000077F02123166D007D006D005D004D003D002D001D000D0D0D093D086D084D085D082D083D0F0D0E03290656AE0FFEF30E30B7B027A65795A124DC780EC124C07F3
:4046400090008BEFF090659AE0FFEF4403FFEFF090659AE0FFEF54FCFFEFF090659BE0FFEF4403FFEFF090659BE0FFEF54FCFFEFF090008BE0FF124B802290658B740FF038
:404680009044C87404F07C4E7DE17F021240E97D077F0212451E9044C87402F07C4E7DE27F011240E97D077F0112451E124629124D55124D6590648F7405F090658A741849
:4046C000F022124C079000A0EFF0906498E0FFEF4420FFEFF0906497E0FFEF4410FFEFF09044C07408F090649CE0FFEF4410FFEFF09044C07410F09000A0E0FF124B802267
:40470000EC4D4E700D78FCEF24E950032840FD22000078C5904800E0C4030354039047479325E0240FF404FBEF28FF78FFEE38FEED38FDEC38FC50D7EF2BFFEE38FEED38BD
:40474000FDEC38FC40F22205020304124C079000B0EFF0906498E0FFEF4401FFEFF0906498E0FFEF54FEFFEFF09000B0E0FF124B80124E78900004E4F0900046E4F09000B9
:4047800003E4F0900002E4F0124E71227C3D7DA47F031240E97D077F0312451E9064887476F09064877420F07C3F7DD17F041240E97D077F0412451E90642F740FF0906495
:4047C0003F7490F090648C7402F022124C0790008BEFF090659BE0FFEF4420FFEFF090649FE0FFEF4410FFEFF090659AE0FFEF4410FFEFF090008BE0FF124B809044C0747E
:4048000004F09044C07402F022124C0790008BEFF0906597E0FFEF4420FFEFF0906598E0FFEF4410FFEFF0906596E0FFEF4410FFEFF090008BE0FF124B80124BAF1249F621
:404840001249F72290008BEFF090008BE0FFC3EF64809480401090008BE0FFEF2480FF90008CEFF0800E90008BE0FFEFF404FF90008CEFF090008CE0FF124D9522124C0770
:404880009000A0EFF0906498E0FFEF54DFFFEFF0906497E0FFEF54EFFFEFF0124E7890649CE0FFEF54EFFFEFF0124E869000A0E0FF124B8022124C079000B0EFF090649CA5
:4048C000E0FFEF4401FFEFF090649CE0FFEF54FEFFEFF09000B0E0FF124B80124E86900025E4F0900047E4F0124E7F22906566E0FFEF30E507906558E0FF80F0124C07904C
:40490000008BEFF0906598E0FFEF4401FFEFF0906598E0FFEF54FEFFEFF090008BE0FF124B8022906476E0FFEF54C0FF9000A0EFF09000A0E0FFEF4409FF906476EFF0908E
:404940006596E0FFEF4401FFEFF07F01124D257F01124D357F01124D45227B0C7A0179CF124E2E9000C1EFF09000C1E0FFEF5407FF90586EEFF09000C1E0FFEFC4540FFFF2
:40498000EF540FFF90586FEFF09058767444F022758600EF4E6027EF60010E7593009000C6E0F595A3E0F585A3E0F5848B938A838982E0A30586F0A31586DFF6DEF4E4F578
:4049C00093F595229044C87401F07B027A447900C003C002C0017BFF7A2E79F5AC02AD01D001D002D003124DD6904480E4F09044C07401F022322222EEFA900137E0F88F16
:404A0000F0A4FFAEF0E88AF0A42EFEE5F03400FDEF24C9FF78FFEE38FEED38FDE438FC500302470022124C079000A0EFF0906598E0FFEF4401FFEFF0906598E0FFEF54FE00
:404A4000FFEFF09000A0E0FF124B8022758600EF4E601BEF60010E8C838D828B958A858984E493A30586F0A31586DFF5DEF3E4F595229000BFEEF0A3EFF090646FE0FFEFF7
:404A800030E1F77B027A65794A9000BFE0FCA3E0FD124DD6227F0F124D75124C0790008BEFF090649EE0FFEF4410FFEFF090008BE0FF124B80229000B8EEF0A3EFF0124E79
:404AC000A29000B8E0FEA3E0FF124AF37F01124BDC124E9B2290008BEEF0A3EFF07B027A44790A90008BE0FEA3E0FFAD07AC06124DD6229000BAEEF0A3EFF07B027A447978
:404B0000129000BAE0FEA3E0FFAD07AC06124DD622124E529000C0EFF09000C0E0FF7E00EF2480FF9000BFEFF09000BFE0FF22124C857F80124D95900157E0FFEF70091247
:404B40004EE09001577401F0124A9522906587740FF01248EC124CF5124D05906588E4F09065867430F0229000A5EFF0906568E0FFEF30E2F79000A5E0FF906548EFF0229F
:404B8000EF54016004D2AF8002C2AFEF5402FF9044F4E054FD4FF022904585E0FFEF5404FF7E00EF7802CEC313CE13D8F9FF229043A2E0FFEF4402FFEFF09043B2E0FFEFA4
:404BC0004402FFEFF02290008BEFF090008BE0FFEFC43354E0FF904485EFF0229000BAEFF09000BAE0FFEFC43354E0FF904489EFF022900001E0FFEF700912478C900001F1
:404C00007401F01246C2229044F4E0F84402F0E85402FF10AF012274014FFF2290FFFF123411EFF09046EA7401F090000112341122900150E0FFEF7009124B4C90015074E0
:404C400001F012480922900156E0FFEF70091249239001567401F0124E0A22900151E0FFEF700912467A9001517401F01247CB2290656AE0FFEF30E30B7B027A65795A1226
:404C80004DC780EC22900158E0FFEF70091242C89001587401F0124E4622124E947E457FD6124AD57F02124BC6124E8D22124EA27E497FF5124AF37F01124BDC124E9B229E
:404CC000124EA97E347F35124AB67F0112318D80F9229000C6EFF09000C6E0FF9000C6EFF080FE22906566E0FFEF30E507906558E0FF80F022906568E0FF9000A5EFF09026
:404D000000A5E0FF22906566E0FF9000A0EFF09000A0E0FF22906558E0FF9000A0EFF09000A0E0FF229000A1EFF09000A1E0FF906506EFF0229000A1EFF09000A1E0FF901B
:404D40006546EFF0229000A1EFF09000A1E0FF906526EFF02290646FE0FF9000BFEFF09000BFE0FF2290656AE0FF90008BEFF090008BE0FF2290008CEFF090008CE0FF90B1
:404D8000648EEFF02290008DEFF090008DE0FF90648DEFF02290008DEFF090008DE0FF90640AEFF02290008DEFF090008DE0FF90642AEFF02290008DEFF090008DE0FF90F0
:404DC000643AEFF0228B938A838982E0FFA3E0FE759300228B938A838982EDF0A3ECF0759300222A2A2A23002A0023002A2A2A3F00124ED4EF30E605124EDA80F422904609
:404E0000F6E0FFEF4401FFEFF022906476E0FFEF4480FFEFF022906476E0FFEF547FFFEFF022416B3F3411824CC044BD41EB8B938A838982E0759300FF228B938A83898202
:404E4000EDF07593002290647EE0FFEF4480FFEFF02290640AE0FF90644AE0FF227B027A407980124DC722904082E0FFEF5407FF229044C07408F0229044C87408F022901B
:404E800044C07410F0229044C87410F0229044C07420F0229044C87420F0229044C17402F0229044C97402F0229044D97402F0227F01123054227F02123054227F031230FE
:404EC00054227F04123054227F051230542290646CE0FF2290646DE0FF2290644AE0FF22223232200000000F000000000000040000000800000000000000000003000020DF
:404F000001000006000000000000E0000000000000CC00FF3F00000000000000000200000000009A000100000000011B0480002000C0009B00000304001A009B00000024E8
:404F400000C8009B00000002006400E40010000000010000011E040102E0000000880000001004000000000000000000000000000000000000800000000000040400044104
:404F8000400001000000000000000000000000000000000000000000000000000000000000000001030E10E780180C1E0401002343DC3CDD002233004CD033C64F39300063
:404FC000800000000000009008000050020020007D3F00E03F1FC01040000000080A020000001000000000000000000000000000000000000000001A0004000404000400CF
:405000000000010000000000000000000000000000000000000000000000000000000000000000000400004762381D4946360000468000240F122038420704000040105B4D
:40504000422400004200046D01125A6D0412420000000000003F18C0650007000000200000000056010300020E0C0005FFFFFF62A0F0410C00000000000213040404041056
:405080000000010000000000004002001030100010101200000000000000000000000000000000000100003000C90000000F0000000000FD00020073000000000000009E12
:4050C000006000000000000000000094006000CF003003FF020000000100000000000000000110000000000000000000000000000000000000000000000800040400042013
:4051000020000100000000000000000000000000000000000000000000000000000000000000000000000000030000001D000002040008000000100000001C0000000000F4
:40514000030300000000200010000000040008001C00000102003C00010200002200000000401062030000004EC3021FFFFFFF00A000011800000000000000040404003391
:40518000030001400080004040800040008000402080000000000000000000000000000000000000090810002000400000001000200040051C00020010000C000C08110036
:4051C00080070300600000001401000020004000200040020001600480081F0000000000005410000000000000000000000000000000000000000000000800040400040268
:405200002000010000000000000000000000000000000000000000000000000000000000000000000000000000000023080C00090020000058000200322E440032000C10A1
:4052400000000000000000030024012300046E000000012030104C0F01100E00022088000041113102000000EC000B13FFFFFF0000F0440C0000000100040004040404000B
:40528000000001000000000000C0000000400200000000000000000000000000000000000000000000000C02080004000000000002000000000000000000000000030000CC
:4052C000000003000000000000000000000000000000000201000201080004000000000000015400000000000000000000000000000000000000000F0000000404000433F6
:405300003000050000000000000000000000000000000000000000000000000000000000000000850042000203E400000000080000190087062000000000000800000000B2
:4053400000000066068100E30000000600200000050800070008081007E400002000000000040000000000000000000000000000000000000080000F000400040400043322
:405380003000010000000000000000000000000000000000000000000000000000000000000000010002000100060000020001000100020001000601000A00020101020094
:4053C000000000000000000000000000001000000000080400080803031004000020200000000001000000001050000AFF0FFF4020F00508000000410004000404040433CA
:4054000020000140A8402000000000000000000000000000000000000000000000000000000000000000000013002C00000000000000001C65001A0002000D064909060BB1
:40544000001400004000000000000008001300000000001E000070010F00000200002800001000300500000001020005FFFFFF00A00004180000004000000004040404118E
:405480001400014000C0004040C000C000C000C000C00000000000000000000000000000000000000040000000010000008800101D0060F30004750000307D201D00600F7C
:4054C00000F000011400213F00C0023510CA400060CE1C0004FF0334700008008000280000040000000000000000000000000000000000000000000000022404040004005C
:4055000010000100000000000000000000000000000000000000000000000000000000000000000060000000560909048000040000000000070038000A01100001020000AD
:40554000040000040400800484000000840000008400000400087F0300008000080000000011406304500002CEF0BD3BFFFFFF2200F00804000000090000000404040410F5
:405580001100010000C00040011011C0010011400140010000000000000000000000000000000000000000000300FC007700000000000000CC0023030000000085001A005C
:4055C000CA001500000000000001000000000000BF004000F002000000010F0000000000004400000000000000000000000000000000000000000000000800040400043042
:405600002000010000000000000000000000000000000000000000000000000000000000000000000000000000000000000000000001000000000000000000000000000048
:405640000000000001000000000000000000000000000000000000000001010000000000000040010210000600000000FFFFFF0200700C8C1000002000040004042404085B
:4056800028002100000000000000004001C00100000000000000000000000000000000000000000000000003C31C0824C3DB1000000002924349A0E0001C001C00E3006DBB
:4056C00000920000C30004B6004900B60049010000003C0001003E0080FF4000000000000040550103100002FBE0CD3BFFFFFF2300F00C8C10000000000228040424240058
:4057000088083100000000000000004001C001000000000000000000000000000000000000000000000000000000000000000000000000000000000000003A760000000FE7
:405740006F0F4700000000000000000000000000000000000000000000000F0000780F000000001F00000000000000000013000F0000001F00000000000000000013000F4C
:40578000000D000000000000020000000000000000010000004000100000000000000000000000000000000000000000000000000000000000000000000000000000000089
:4057C0000000000000000000000000000000000000000000000000000000000100002001000000000000000000000000000000000000000000000000000000000000000087
:4058000000000000000000000000001000400000020000010000000000010001000020000000000000000000000000000000000000010004000200000000000000000000EC
:40584000000000040001000C000000000000000000000000000000010003000000000000000000000006000000010000000000010004000000000000000000000000000007
:4058800000000000000200000000000000000000000000000000000000000000000000000000000000000000000000000000000000000000000000000000000000000000E6
:4058C00000000000000000000000000000000000000000000000000000000004000000000000000000000000000000000000000000000000000000000000000000000000A4
:405900000000000000000001000000000000000000000001000000000000000000002000000000000000000000000000000000000000000000000000000000000000000045
:405940000000000200000000000000000000000000000000000000000002000000000000000000000000000000000000000000000000000000000000000000000000000023
:4059800000000000000000000000000000000001000000000000000000000000000020000000000000000000000000000000000000000000000000000000000000000000C6
:4059C000000000000000000000000000000000000000000000000000000000000000000000000000000000080000000000000000000000000000000000000000000000009F
:405A00000000000000000000000000000000000000002000000000000000000000000000000000000000000000000000000000000000000000000000000000000000000046
:405A4000000000000000000000000000000000000000000000000000000000000000000000000000000000080000000000000000000000000000000000000000000000001E
:405A800000000000000000000000000000000000000000000000000000000000000000000000000000000000000000000000010000000000000000002800000000000000BD
:405AC000000000000000000000000000000000000000000000000000000000000000000000000000000000000000000000000000000A00000000000000000000000000009C
:405B0000000000000000000000000000200000000800010000000000000000000000000000000000000000000000000000000000000000000000000000000000000000003C
:405B40000000000000000000000000000000000000000000000000000000000000000000000000000000000000000000000000000000000000000000000000000000000025
:405B800000000000000000000000000000000000000000000000000000000000000000000000000000000000000000000000000000000000000000000000000000000000E5
:405BC000000000000007000000000000000000000000000000000000000000000000000000000000000000000000000000000000000000000000000000000000000000009E
:405C000000000080000000200800000000000000006A00000000000000001400800000004000000100000000800868000200000090008800000000000000010000000080F2
:405C40000014000080080010800020000008000002000400000000000022080002000000000000150000401004080000000000000014810000000000000000000800000090
:405C80000000500000000040100040000400500008000034004000000000240004001440482248400015000000000012000000140010204000010000C00008000000000052
:405CC0000000006100F000600000000000B100800070007C000400000001004F0000000000C200000040000000000040000800000000000000000000000000000000000038
:405D00000000000000000000000000000000000000800000000000000000000000000000000000000000000000800000000000012002200000000000100000000000000010
:405D40000000000000000000000000000000000000000000000000000000000000000000000000000000000000020002000000020008000000000000000000000000000015
:405D80000000000000000000280000010080200000280000000004000010010004010000200029000042000200002201000000200210020080220000008821000004100095
:405DC0002A0000000000000404100100000000052408020000000010010800400000000054000202000000000000020000000000000000000000000000000000000000007A
:405E00000000000810010010000820A050000B080210002C004010000010000000041519C823400080B500886402011000004001000001000080000000000000000000001D
:405E400000000060006400340000000000F800FD00E600E00030000000F80018000000000000004200A000B00000008000000000000000000000000000000000000000001D
:405E80000000000A0000090000000010484000000082040200A80000000020002400000010800000602D000400002000040209000000800220040008000120400000000064
:405EC00000000400000000000000080000000000000088000000000000004000000000000000000C00000006000020504204040000000040000000000000000000000000C2
:405F0000000000002000040600000054000080414080004000402402820E001000000902008224024801090120200400000840400010040040000080000000000000000076
:405F40000000000F00DF004F00000000008F00E700480040001000000000007400000000000000050008000000020004001200000008000000000000000000000000000035
:405F800000000028002000204800000180011000006A0000200600000000140001000000002800040100000800002102000000880008000000000008008021000200000067
:405FC00088100200000000102001000000000020400800000000000000400000000040000200000200000000000000000000000010469400000000012010000000000000CF
:40600000000000000200000000100000200000044008200000011000104400000000001181620014100800200002C0000000100000000020000200000880000000000000A1
:40604000000000E600FD00630000000000E800F000F10070003000000088000800000000000000400030000000000040000000100000000000000000000000000000000021
:40608000000000420020080240000400084800000126001A000000020090200010400900402010400C1800000004481000000900000000422004000001000040280200404A
:4060C0008020080000000000000000000000000000000000000000000000000010020000000000840040000000000000000000000000000000000000010000000000000021
:4061000000000000001000081000011000000040000100040000000080000000006000000000000200000000000400020000000000000000000000004004000000000000B5
:40614000000000DF00FE00F700000000000E008F006F0000000000000005000D00000000000000000002000400000000000400000000000000000000000000000000000023
:40618000000000080000220000400000000002100080010420000000001000004000020000805824050400000088140501002000104880800006000000842100A0001802E8
:4061C0000004A00444010000000000080400020000000080200004000000000000000020800000000000000800100100000000000000000000000000000000000000000047
:406200000000000000000000000040000000480000000400200100000A006800000821094CA0000D100410A020020000000008000000000001000000000000000000000025
:406240000000001100D100200000000000FF00FB00FE000600040000003000300000000000000000000000000000000000000000008000000000000000000000000000003A
:406280000000000000000000004000000000000000000004000000000000000000200000000000000000000000000004000000000000000000200000000000000000000056
:4062C0000000000000000000000000000000000000000000000000000000000000000000000000000008000000000000000400000000000000000000000000000000000092
:406300000000000400000000100001100000080000200200000000200400200401000000906808400054000000006900000000200080088000000000000425400A0000200D
:406340000000200000000000800024000000000005000000000000000008001041080020094000002400000002000000000000000000000000000000000000002000000044
:4063800000000000000000000000000100100000000000002001000000A06000000000090220401C100001000002000002000000000000000000001000800000000000007F
:4063C000000000C400A2006000000000007000E8002B00700000000000FF00860000000000040000000000000000000000010000000000000000000000000000000000005A
:40640000000000000000000000000000000000000000000000000000000000000000000000000000000000000000000000000000000000000000000000000000000000005C
:406440000000000000000000000000000000000000000000000000000000000000000000000000000000000000000000000100000004000000000000000000000000000017
:406480000000000800008200050000000204000004080002202002000000200000158208050A00041420080050002001000080080090000002020000000120240000000017
:4064C000A000000000000020002040000000000000000200000000100000000100A00A2800004080000000000000A000000000000000000200000000000000000000000035
:40650000000000800000000000004000000000000000000000000000000000000000000000000000000000000000000000000000000000000000000000000000000000009B
:406540000000003D006A004F00000000001900A10036001000000000007F00C1000000000000000000000000000000000000000000000000000000000000000000000000E5
:4065800000000000000000000000000000000000000000000000000000000000000000000000000000000000000000000000000000000000000000000000000000000000DB
:4065C0000000000000000000000000000000000000000000000000000000000000000000000000000008000000010000000000000000000000000000000000000000000092
:4066000000000000000000000000000000000000000000000000000000000000000000000000000000800000000000000000000000000000000000000000000000000000DA
:40664000000000000000000000000000000000000000000000000000000000000000800000000000000000000000000000000000000000000000000000000000000000009A
:406680000000000000000000002000000000000000000000000000000000000000008000000000000000000000A0000000000000000000000000000000000000000000009A
:4066C00000000000000000000000001000000000000000000000008000000000000000000000000000000000004000000000000000000000000000000000000000000000CA
:406700000000000000000000000000000000000000000000000000000000000000008000000000000000000000A00000000002000000000000000000000100000000000036
:406740000000000000000000000000000000000000000000000000000000000000000000000000000000000000000000000000000080000000000000000000000000000099
:406780000000000000000000000000000000000000000000000000000000000000008000000002000000000000A100000000000000000000000000000000000000000000B6
:4067C0000000000000000000000000000000000000000000000000000000000000000000000000000000000000000000000000000000000000000000000000000000000099
:406800000000000000000000000000000000000000000000000000000000000000008000000002000000000000A10000000000000000000000000000000000000000000035
:406840000000000000000000000000000000000000000000000000000000000000000000000000000000000000000000000000000000000000000000000000000000000018
:406880000000000000000000000000000000000000000000000000000000000000000000000000000000000000000000000000000000000040000000200000000000000078
:4068C0000000000000000000000000004001000000000000000000000000000000000000000002000000000000000000000000000000000000000000000000000000000055
:406900000000000000000000000000000000000000000000000000000000000020008000000000000000000000A10040000080000000000000000000000000000000000056
:4069400000000000000000000000000000000030000000000000000000800000000000000000000000000000000000000080000000200000000000000000000000000000C7
:4069800000000000000000000000000000000000000000000000000000000000000000000000000000000000000000000000000000000002008000000021004000000000F4
:4069C0000000000000000000000000000000000000000000000000000000000000000000000000000000000000000000000000000000000000000000000000000000000097
:406A00000000000020000002000000000000000000000000000000000000000000000000000000000000000000000000000000000000000000000000000000000000000034
:406A4000000000000000000000000000000000F000100000000000000000000000000000000000000010000000800000000000000000000000000000000000000000000086
:406A80000000000100000000000100010000001000000001000000100001000100000001000823026A837610000823036A8B7618000823046A937620000523056A9B7030CA
:406AC000000523066A9B7040000523FE6A9B705001802208014A000001802209014A02000180220A014A04000180220B014A14000080220C014A42000080220D014A430058
:406B00000080220E014A45000080220F014A460000802210014A4700008022FE014A4800000723124EE35200000723134EEA5208000723144EF15218000723154EF85220F0
:406B4000000723164EFF5228000723174F065230000623184F0D5260000823194F1B45280020231A57236470002023FE574365700008231C4F1351000080231D4F230600FF
:406B80000080231E4FA306800080231F502308000080232050A308800080232151230A000080232251A30A800080232352230C000080232452A30C800080232553230E00C1
:406BC0000080232653A30E8000802327542316000080232854A3168000802329552318000080232A55A318800080232B56231A000080232C56A31A800010232D57635010A3
:406C00000010232E577350000080232F57834D000080233058034D800080233158834C000080233259034C800080233359834780008023345A034680008023355A83458000
:406C4000008023365B034400008023375B834480008023385C031B00008023395C831B800080233A5D0315800080233B5D8319000080233C5E0319800080233D5E83170018
:406C80000080233E5F0317800080233F5F8309000080234060030980008023416083070000802342610307800080234361830B000080234462030B800080234562830580C2
:406CC0000080234663030D000080234763830D8000802348640303800080234964830F000080234A65030F800080234B658301800080234C660349000080234D66834980A6
:406D00000080234E670348800080234F678343800080235068034280008023516883410000802352690341800080235369834000008023FE6A0340800800072820002000C8
:406D40000000CC303000000000000020200000000000048080008000000000FEFE0000000000C00000FC3C0008000000020001020000000000001000867171006100000049
:406D8000E0181800000000000000000000000000000000000000000000000000000000000000000000000000000000000000000000000000000000000000000000000000C3
:406DC0000000000000000000000000000000000000000000000000000000000000000000000000000000000000000000000000000000000000000000000000000000000093
:406E00000000000000000000000000000000000000000000000000000000000000000000000000000000000000000000000000000000000000000000000000000000000052
:406E40000000000000000000000000000000000000000000000000000000000000000000000000000000000000000000000000000000000000000000000000000000000012
:406E800000000000000000000000000000000000000000000000000000000000000000000000000000000000000000000000000000000000000000000000000000000000D2
:0200000490006A
:040000000000400DAF
:0200000490105A
:04000000BC90ACAF55
:0200000490303A
:020000006E9CF4
:0200000490501A
:0C00000000011E08A06903011E330F055B
:0200000490402A
:4000000000000000000000000000000000000000000000000000000000000000000000000000000000000000000000000000000000000000000000000000000000000000C0
:00000001FF
