:10000000023A30008F828E83E0540100000070F8C5
:100010002278FFE4F6D8FD023AFB90009412338B6D
:10002000124665124873900094123382123195FF84
:10003000EF12339400C303010806012C0902650A7C
:1000400003040B03870C040A10042611043F1C044C
:10005000F640050F45060D4607324707534807741B
:100060005008EF510074F1008DF200E7FC1101FF20
:10007000000011811243367BFF7A3C7977124520CC
:10008000124E6FEF30E10302118180F422124336E9
:10009000905015E0FFEF4401FFEFF07F647E001207
:1000A00049B4905014E0FFEF4401FFEFF07BFF7A7A
:1000B0003C797D124520124E6FEF30E10302118131
:1000C00080F422124336905012E0FFEF4401FFEF1C
:1000D000F07BFF7A3C7983124520124E6FEF30E1BE
:1000E0000302118180F422905011E0FFEF4401FFE0
:1000F000EFF07BFF7A3C7989124520124E6FEF308A
:10010000E10302118180F422124336905013E0FF84
:10011000EF4401FFEFF07BFF7A3C798F124520120C
:100120004E6FEF30E10302118180F42290501CE009
:10013000FFEF4401FFEFF090501DE0FFEF4401FF9F
:10014000EFF09000EDE0FEA3E0FFE4FCFD124205BD
:10015000900095E475F0011231C090009412338242
:10016000123195FF7E00121DA990010AE0FF900058
:10017000D2EFF09000EDE0FEA3E0FFE4FCFD1242C0
:1001800005900095E475F0011231C090009412338F
:1001900082123195FF7E0012262190010BE0FF9024
:1001A00000D4EFF09000FBE0FF9000D6EFF090015C
:1001B00002E0FF9000D8EFF09000EBE0FF9000DA53
:1001C000EFF09000F3E0FF9000DCEFF09000F8E03B
:1001D000FF9000DEEFF0900106E0FF9000E0EFF00E
:1001E0009000D0E0FEA3E0FFE4FCFD1242057BFF9F
:1001F0007A3C7995124520124E6FEF30E1F97BFF82
:100200007A3C7997124520124E6FEF30E1F97BFF6F
:100210007A3C7999124520124E6FEF30E1F97BFF5D
:100220007A3C7999124520124E6FEF30E1F97BFF4D
:100230007A3C799B124520124E6FEF30E1F97BFF3B
:100240007A3C7995124520124E6FEF30E1F97BFF31
:100250007A3C7995124520124E6FEF30E1F9124643
:1002600065124873227BFF7A3C7972124520124E48
:100270006FEF30E1F91249E190502CE0FFEF54FEAE
:10028000FFEFF07F15124B087F15124B087F1512F8
:100290004B08124C96EF20E10A124CB6900098EFF2
:1002A000F080EF7F0E7E001249B490502CE0FFEFFB
:1002B0004401FFEFF07F057E001249B4124CA6EF17
:1002C0007003021181124CB6900098EFF0900098E4
:1002D000E0FFEFB4150C900098E0FF900097EFF06E
:1002E0008005900097E4F0900097E0FF12439B1286
:1002F0004E6FEF30E1F9124C85900097E4F09000DA
:1003000098E4F022900095E475F0011231C090500D
:100310001CE0FFEF4401FFEFF090501DE0FFEF44C1
:1003200001FFEFF09000EDE0FEA3E0FFE4FCFD1222
:100330004205900094123382123195FF7E00121D07
:10034000A97BFF7A3C799D124520124E6FEF30E178
:10035000F97BFF7A3C799D124520124E6FEF30E118
:10036000F97BFF7A3C799D124520124E6FEF30E108
:10037000F97BFF7A3C799F124520124E6FEF30E1F6
:100380000302118180F422900095E475F00112318E
:10039000C090501CE0FFEF4401FFEFF090501DE0D3
:1003A000FFEF4401FFEFF09000EDE0FEA3E0FFE47B
:1003B000FCFD124205900094123382123195FF7EAB
:1003C000001226217BFF7A3C799D124520124E6F48
:1003D000EF30E1F97BFF7A3C799D124520124E6F98
:1003E000EF30E1F97BFF7A3C799D124520124E6F88
:1003F000EF30E1F97BFF7A3C799F124520124E6F76
:10040000EF30E10302118180F422124BE7124DAB71
:100410007BFF7A3C7972124520124E6FEF30E10378
:1004200002118180F422124DB77BFF7A3C7972125F
:100430004520124E6FEF30E10302118180F42290CB
:100440000095E475F0011231C090009412338212CD
:100450003195FFEF600E900094123382123195FFB8
:10046000EFB40125900094123382123195FF900170
:1004700043EFF07BFF7A3C7972124520124E6FEF0A
:1004800030E10302118180F4229000941233821231
:100490003195FFEFB40F167BFF7A3C79721245203D
:1004A000124E6FEF30E10302118180F422900100BF
:1004B000E4F0900100E0FFEFD3941F501990010089
:1004C000E0FF74092FF582E43401F583E4F0900134
:1004D00000E004F080DC9000FEE4F09000F9E4F02D
:1004E0007BFF7A3C79A1124520124E6FEF30E10379
:1004F00002118180F4221243367BFF7A3C7972121A
:100500004520124E6FEF30E10302118180F4227B0F
:10051000FF7A3C7972124520124E6FEF30E1F9906C
:1005200000F0E4F0905015E0FFEF30E4109000F0A0
:10053000E0FFEF4401FF9000F0EFF0800E9000F03C
:10054000E0FFEF54FEFF9000F0EFF0905014E0FF5A
:10055000EF30E4109000F0E0FFEF4402FF9000F075
:10056000EFF0800E9000F0E0FFEF54FDFF9000F000
:10057000EFF0905012E0FFEF30E4109000F0E0FF59
:10058000EF4404FF9000F0EFF0800E9000F0E0FFE9
:10059000EF54FBFF9000F0EFF0905013E0FFEF30CE
:1005A000E4109000F0E0FFEF4408FF9000F0EFF05F
:1005B000800E9000F0E0FFEF54F7FF9000F0EFF0B6
:1005C000905011E0FFEF30E4109000F0E0FFEF44B6
:1005D00010FF9000F0EFF0800E9000F0E0FFEF547D
:1005E000EFFF9000F0EFF09000F0E0FFEF541FFFFE
:1005F0009000F0EFF01248739000F0E0FF12439B80
:10060000124E6FEF30E10302118180F4227BFF7AFA
:100610003C7972124520124E6FEF30E1F99000F0F4
:10062000E4F0905016E0FFEF30E4109000F0E0FFAF
:10063000EF4401FF9000F0EFF0800E9000F0E0FF3B
:10064000EF54FEFF9000F0EFF0905017E0FFEF3016
:10065000E4109000F0E0FFEF4402FF9000F0EFF0B4
:10066000800E9000F0E0FFEF54FDFF9000F0EFF0FF
:10067000905064E0FFEF30E4109000F0E0FFEF44B2
:1006800004FF9000F0EFF0800E9000F0E0FFEF54D8
:10069000FBFF9000F0EFF0905065E0FFEF30E410CA
:1006A0009000F0E0FFEF4408FF9000F0EFF0800EC4
:1006B0009000F0E0FFEF54F7FF9000F0EFF0905063
:1006C00034E0FFEF30E4109000F0E0FFEF4410FF63
:1006D0009000F0EFF0800E9000F0E0FFEF54EFFF9D
:1006E0009000F0EFF0905033E0FFEF30E410900016
:1006F000F0E0FFEF4420FF9000F0EFF0800E90005C
:10070000F0E0FFEF54DFFF9000F0EFF09000F0E03A
:10071000FFEF543FFF9000F0EFF01248739000F0AD
:10072000E0FF12439B124E6FEF30E1030211818014
:10073000F422905033E0FFEF4401FFEFF07BFF7AAB
:100740003C79A6124520124E6FEF30E10302118171
:1007500080F422905033E0FFEF54FEFFEFF07BFF78
:100760007A3C79AC124520124E6FEF30E103021152
:100770008180F422900095E475F0011231C0900060
:1007800094123382123195FFEF6401702512483BB9
:100790007D017F9B7E001235C0124B937BFF7A3C1C
:1007A0007972124520124E6FEF30E1030211818001
:1007B000F422900094123382123195FFEF6402709C
:1007C0002512483B7D017F4D7E001235C0124B93B0
:1007D0007BFF7A3C7972124520124E6FEF30E103B5
:1007E00002118180F422900094123382123195FF1D
:1007F000EF6403702512483B7D017F257E00123592
:10080000C0124B937BFF7A3C7972124520124E6FD7
:10081000EF30E10302118180F422900094123382C0
:10082000123195FFEF6404702512483B7D017F195A
:100830007E001235C0124B937BFF7A3C79721245D1
:1008400020124E6FEF30E10302118180F4229000FC
:1008500094123382123195FFEF6405702512483BE4
:100860007D017F0C7E001235C0124B937BFF7A3CDA
:100870007972124520124E6FEF30E1030211818030
:10088000F422900094123382123195FFEFB40F16C8
:100890007BFF7A3C7972124520124E6FEF30E103F4
:1008A00002118180F422900100E4F0900100E0FF49
:1008B000EFD3941F5019900100E0FF74092FF582C7
:1008C000E43401F583E4F0900100E004F080DC9072
:1008D00000FEE4F09000F9E4F07BFF7A3C79A1128D
:1008E0004520124E6FEF30E10302118180F4229017
:1008F0000095E475F0011231C09000941233821219
:100900003195FF9000FFEFF0905033E0FFEF54106F
:10091000FF7E00EF4E60030210AD90009412338210
:10092000123195FFEF12339409740009C1010A0EC8
:10093000020A5B030AA8040AF5050B42060B8F079F
:100940000BDC080C29090C760A0CC30B0D100C0DDE
:100950005D0D0DAA0E0DF70F0E44100E91110EDE57
:10096000120F2B130F78140FC515101216105F17E6
:1009700000001181905016E0FFEF54FEFFEFF09061
:100980005017E0FFEF54FEFFEFF0905064E0FFEFF0
:1009900054FEFFEFF0905065E0FFEF54FEFFEFF0E4
:1009A000905034E0FFEF54FEFFEFF07BFF7A3C798C
:1009B000B2124520124E6FEF30E10302118180F434
:1009C00022905016E0FFEF4401FFEFF0905017E047
:1009D000FFEF54FEFFEFF0905064E0FFEF54FEFF96
:1009E000EFF0905065E0FFEF54FEFFEFF0905034D1
:1009F000E0FFEF54FEFFEFF07BFF7A3C79B8124541
:100A000020124E6FEF30E10302118180F4229050EA
:100A100016E0FFEF54FEFFEFF0905017E0FFEF44B9
:100A200001FFEFF0905064E0FFEF54FEFFEFF09015
:100A30005065E0FFEF54FEFFEFF0905034E0FFEF21
:100A400054FEFFEFF07BFF7A3C79BE124520124E38
:100A50006FEF30E10302118180F422905016E0FF25
:100A6000EF4401FFEFF0905017E0FFEF4401FFEF7C
:100A7000F0905064E0FFEF54FEFFEFF0905065E01F
:100A8000FFEF54FEFFEFF0905034E0FFEF54FEFF15
:100A9000EFF07BFF7A3C79C4124520124E6FEF30A5
:100AA000E10302118180F422905016E0FFEF54FE22
:100AB000FFEFF0905017E0FFEF54FEFFEFF0905083
:100AC00064E0FFEF4401FFEFF0905065E0FFEF546A
:100AD000FEFFEFF0905034E0FFEF54FEFFEFF07BAD
:100AE000FF7A3C79CA124520124E6FEF30E10302C3
:100AF000118180F422905016E0FFEF4401FFEFF0E7
:100B0000905017E0FFEF54FEFFEFF0905064E0FFCD
:100B1000EF4401FFEFF0905065E0FFEF54FEFFEF70
:100B2000F0905034E0FFEF54FEFFEFF07BFF7A3C93
:100B300079D0124520124E6FEF30E103021181800F
:100B4000F422905016E0FFEF54FEFFEFF0905017A4
:100B5000E0FFEF4401FFEFF0905064E0FFEF44014D
:100B6000FFEFF0905065E0FFEF54FEFFEFF0905084
:100B700034E0FFEF54FEFFEFF07BFF7A3C79D612B2
:100B80004520124E6FEF30E10302118180F4229074
:100B90005016E0FFEF4401FFEFF0905017E0FFEF39
:100BA0004401FFEFF0905064E0FFEF4401FFEFF0ED
:100BB000905065E0FFEF54FEFFEFF0905034E0FFFF
:100BC000EF54FEFFEFF07BFF7A3C79DC12452012F8
:100BD0004E6FEF30E10302118180F422905016E055
:100BE000FFEF54FEFFEFF0905017E0FFEF54FEFFD1
:100BF000EFF0905064E0FFEF54FEFFEFF09050658F
:100C0000E0FFEF4401FFEFF0905034E0FFEF54FEBF
:100C1000FFEFF07BFF7A3C79E2124520124E6FEF36
:100C200030E10302118180F422905016E0FFEF447E
:100C300001FFEFF0905017E0FFEF54FEFFEFF09050
:100C40005064E0FFEF54FEFFEFF0905065E0FFEFDF
:100C50004401FFEFF0905034E0FFEF54FEFFEFF05F
:100C60007BFF7A3C79E8124520124E6FEF30E103AA
:100C700002118180F422905016E0FFEF54FEFFEF46
:100C8000F0905017E0FFEF4401FFEFF0905064E068
:100C9000FFEF54FEFFEFF0905065E0FFEF4401FFDF
:100CA000EFF0905034E0FFEF54FEFFEFF07BFF7A5F
:100CB0003C79EE124520124E6FEF30E103021181B4
:100CC00080F422905016E0FFEF4401FFEFF09050C7
:100CD00017E0FFEF4401FFEFF0905064E0FFEF54A6
:100CE000FEFFEFF0905065E0FFEF4401FFEFF09062
:100CF0005034E0FFEF54FEFFEFF07BFF7A3C79F4D5
:100D0000124520124E6FEF30E10302118180F42270
:100D1000905016E0FFEF54FEFFEFF0905017E0FF09
:100D2000EF54FEFFEFF0905064E0FFEF4401FFEF5F
:100D3000F0905065E0FFEF4401FFEFF0905034E099
:100D4000FFEF54FEFFEFF07BFF7A3C79FA1245206B
:100D5000124E6FEF30E10302118180F422905016A1
:100D6000E0FFEF4401FFEFF0905017E0FFEF54FE7B
:100D7000FFEFF0905064E0FFEF4401FFEFF0905080
:100D800065E0FFEF4401FFEFF0905034E0FFEF54D7
:100D9000FEFFEFF07BFF7A3D7900124520124E6F87
:100DA000EF30E10302118180F422905016E0FFEF52
:100DB00054FEFFEFF0905017E0FFEF4401FFEFF01B
:100DC000905064E0FFEF4401FFEFF0905065E0FFCA
:100DD000EF4401FFEFF0905034E0FFEF54FEFFEFDF
:100DE000F07BFF7A3D7906124520124E6FEF30E11D
:100DF0000302118180F422905016E0FFEF4401FFBE
:100E0000EFF0905017E0FFEF4401FFEFF0905064D7
:100E1000E0FFEF4401FFEFF0905065E0FFEF440189
:100E2000FFEFF0905034E0FFEF54FEFFEFF07BFF58
:100E30007A3D790C124520124E6FEF30E10302111A
:100E40008180F422905016E0FFEF54FEFFEFF09007
:100E50005017E0FFEF54FEFFEFF0905064E0FFEF1B
:100E600054FEFFEFF0905065E0FFEF54FEFFEFF00F
:100E7000905034E0FFEF4401FFEFF07BFF7A3D79C3
:100E800012124520124E6FEF30E10302118180F4FF
:100E900022905016E0FFEF4401FFEFF0905017E072
:100EA000FFEF54FEFFEFF0905064E0FFEF54FEFFC1
:100EB000EFF0905065E0FFEF54FEFFEFF0905034FC
:100EC000E0FFEF4401FFEFF07BFF7A3D7918124518
:100ED00020124E6FEF30E10302118180F422905016
:100EE00016E0FFEF54FEFFEFF0905017E0FFEF44E5
:100EF00001FFEFF0905064E0FFEF54FEFFEFF09041
:100F00005065E0FFEF54FEFFEFF0905034E0FFEF4C
:100F10004401FFEFF07BFF7A3D791E124520124E0F
:100F20006FEF30E10302118180F422905016E0FF50
:100F3000EF4401FFEFF0905017E0FFEF4401FFEFA7
:100F4000F0905064E0FFEF54FEFFEFF0905065E04A
:100F5000FFEF54FEFFEFF0905034E0FFEF4401FF4D
:100F6000EFF07BFF7A3D7924124520124E6FEF306F
:100F7000E10302118180F422905016E0FFEF54FE4D
:100F8000FFEFF0905017E0FFEF54FEFFEFF09050AE
:100F900064E0FFEF4401FFEFF0905065E0FFEF5495
:100FA000FEFFEFF0905034E0FFEF4401FFEFF07BE5
:100FB000FF7A3D792A124520124E6FEF30E103028D
:100FC000118180F422905016E0FFEF4401FFEFF012
:100FD000905017E0FFEF54FEFFEFF0905064E0FFF9
:100FE000EF4401FFEFF0905065E0FFEF54FEFFEF9C
:100FF000F0905034E0FFEF4401FFEFF07BFF7A3DCB
:101000007930124520124E6FEF30E10302118180DA
:10101000F422905016E0FFEF54FEFFEFF0905017CF
:10102000E0FFEF4401FFEFF0905064E0FFEF440178
:10103000FFEFF0905065E0FFEF54FEFFEFF09050AF
:1010400034E0FFEF4401FFEFF07BFF7A3D79361289
:101050004520124E6FEF30E10302118180F422909F
:101060005016E0FFEF4401FFEFF0905017E0FFEF64
:101070004401FFEFF0905064E0FFEF4401FFEFF018
:10108000905065E0FFEF54FEFFEFF0905034E0FF2A
:10109000EF4401FFEFF07BFF7A3D793C12452012CF
:1010A0004E6FEF30E10302118180F42222900100A3
:1010B000E4F0900100E0FFEFD3941F50199001007D
:1010C000E0FF74092FF582E43401F583E4F0900128
:1010D00000E004F080DC7F017E007D007C00124295
:1010E000059000FEE4F09000F9E4F07BFF7A3D7992
:1010F00042124520124E6FEF30E10302118180F45D
:1011000022900095E475F0011231C09000941233E2
:1011100082123195FFEFB4FF04124D9F229000948C
:10112000123382123195FFEFB40F137BFF7A3C79B3
:1011300072124520124E6FEF20E14680F722900197
:1011400000E4F0900100E0FFEFD3941F50199001EC
:1011500000E0FF74092FF582E43401F583E4F09098
:101160000100E004F080DC9000FEE4F09000F9E47F
:10117000F07BFF7A3C79A1124520124E6FEF30E1EF
:10118000F9229000A9E4F09000AAE4F09000ABE40A
:10119000F09000AFE4F07F0112313612400790006A
:1011A000A8EFF09000A9E0FFEF6003021CA0900000
:1011B000A8E0FFEF64FF7045900100E4F09000A804
:1011C000E0FF900100E0FE74092EF582E43401F5A1
:1011D00083EFF0900100E004F09000A97401F0901A
:1011E00000AE7402F07BFF7A4D7984124520124ED6
:1011F0006FEF30E103021D2480F4021D249000A84B
:10120000E0FFEF70101248739000AAE4F09000A97C
:10121000E4F0021D249000A8E0FFEF640170617B00
:10122000FF7A4D7989124520124E6FEF30E1F97B3C
:10123000FF7A4D7989124520124E6FEF30E1F97B2C
:10124000FF7A4D7989124520124E6FEF30E1F97B1C
:10125000FF7A4D798B124520124E6FEF30E1F990F5
:101260000129E0FF12439B124E6FEF30E1F990012C
:1012700029E4F09000AAE4F09000A9E4F0021D2413
:101280009000A8E0FFEF64F1706C900100E4F09032
:101290000100E0FFEFD394085019900100E0FF74C3
:1012A000092FF582E43401F583E4F0900100E004B5
:1012B000F080DC900100E4F09000A8E0FF900100D5
:1012C000E0FE74092EF582E43401F583EFF090011D
:1012D00000E0FF74092FF582E43401F583E0FF900C
:1012E000012BEFF07F0112310F9000AAE4F0900083
:1012F000A9E4F0021D249000A8E0FFEF64F2706CF6
:10130000900100E4F0900100E0FFEFD39408501941
:10131000900100E0FF74092FF582E43401F583E4C5
:10132000F0900100E004F080DC900100E4F0900017
:10133000A8E0FF900100E0FE74092EF582E434017C
:10134000F583EFF0900100E0FF74092FF582E4349B
:1013500001F583E0FF90012BEFF07F0112310F9038
:1013600000AAE4F09000A9E4F0021D249000A8E097
:10137000FFEF6403706C900100E4F0900100E0FF67
:10138000EFD394085019900100E0FF74092FF58203
:10139000E43401F583E4F0900100E004F080DC9097
:1013A0000100E4F09000A8E0FF900100E0FE740965
:1013B0002EF582E43401F583EFF0900100E0FF7434
:1013C000092FF582E43401F583E0FF90012BEFF063
:1013D0007F0112310F9000AAE4F09000A9E4F0021E
:1013E0001D249000A8E0FFEF64FC706C900100E405
:1013F000F0900100E0FFEFD394085019900100E055
:10140000FF74092FF582E43401F583E4F0900100C4
:10141000E004F080DC900100E4F09000A8E0FF9090
:101420000100E0FE74092EF582E43401F583EFF04B
:10143000900100E0FF74092FF582E43401F583E0A8
:10144000FF90012BEFF07F0112310F9000AAE4F022
:101450009000A9E4F0021D249000A8E0FFEF6406CC
:10146000706C900100E4F0900100E0FFEFD394086D
:101470005019900100E0FF74092FF582E43401F562
:1014800083E4F0900100E004F080DC900100E4F0DF
:101490009000A8E0FF900100E0FE74092EF582E4C0
:1014A0003401F583EFF0900100E0FF74092FF5821D
:1014B000E43401F583E0FF90012BEFF07F0112315E
:1014C0000F9000AAE4F09000A9E4F0021D2490001F
:1014D000A8E0FFEF6408702C7BFF7A4D79841245F9
:1014E00020124E6FEF30E1F91248737F2712439BB1
:1014F000124E6FEF30E1F99000AAE4F09000A9E4F9
:10150000F0021D249000A8E0FFEF64D070387BFF4C
:101510007A4D7984124520124E6FEF30E1F912486E
:10152000737F0312439B124E6FEF30E1F97F01127C
:10153000439B124E6FEF30E1F99000AAE4F0900067
:10154000A9E4F0021D249000A8E0FFEF64097045B3
:10155000900100E4F09000A8E0FF900100E0FE742C
:10156000092EF582E43401F583EFF0900100E004E8
:10157000F09000A97402F09000AE7403F07BFF7A43
:101580004D7984124520124E6FEF30E103021D2485
:1015900080F4021D249000A8E0FFEF640A704390DD
:1015A0000100E4F09000A8E0FF900100E0FE740963
:1015B0002EF582E43401F583EFF0900100E0FF7432
:1015C000092FF582E43401F583E0FF90012BEFF061
:1015D0007F0112310F9000AAE4F09000A9E4F0021C
:1015E0001D249000A8E0FFEF640B7045900100E41B
:1015F000F09000A8E0FF900100E0FE74092EF58253
:10160000E43401F583EFF0900100E004F09000A9CC
:101610007401F09000AE7402F07BFF7A4D79841271
:101620004520124E6FEF30E103021D2480F4021DAD
:10163000249000A8E0FFEF640C7045900100E4F0F6
:101640009000A8E0FF900100E0FE74092EF582E40E
:101650003401F583EFF0900100E004F09000A974EC
:1016600001F09000AE7402F07BFF7A4D7984124550
:1016700020124E6FEF30E103021D2480F4021D247E
:101680009000A8E0FFEF6410706C900100E4F0900F
:101690000100E0FFEFD394085019900100E0FF74BF
:1016A000092FF582E43401F583E4F0900100E004B1
:1016B000F080DC900100E4F09000A8E0FF900100D1
:1016C000E0FE74092EF582E43401F583EFF0900119
:1016D00000E0FF74092FF582E43401F583E0FF9008
:1016E000012BEFF07F0112310F9000AAE4F090007F
:1016F000A9E4F0021D249000A8E0FFEF6411706CD3
:10170000900100E4F0900100E0FFEFD3940850193D
:10171000900100E0FF74092FF582E43401F583E4C1
:10172000F0900100E004F080DC900100E4F0900013
:10173000A8E0FF900100E0FE74092EF582E4340178
:10174000F583EFF0900100E0FF74092FF582E43497
:1017500001F583E0FF90012BEFF07F0112310F9034
:1017600000AAE4F09000A9E4F0021D249000A8E093
:10177000FFEF641870629001077489F07BFF7A4D67
:101780007989124520124E6FEF30E1F97BFF7A4DD7
:101790007989124520124E6FEF30E1F97BFF7A4DC7
:1017A0007989124520124E6FEF30E1F97BFF7A4DB7
:1017B000798B124520124E6FEF30E1F9900107E06E
:1017C000FF12439B124E6FEF30E1F99000AAE4F054
:1017D0009000A9E4F0021D249000A8E0FFEF641C33
:1017E0007045900100E4F09000A8E0FF900100E057
:1017F000FE74092EF582E43401F583EFF0900100C8
:10180000E004F09000A97401F09000AE7402F07B47
:10181000FF7A4D7984124520124E6FEF30E10302BA
:101820001D2480F4021D249000A8E0FFEF644070A6
:101830006C900100E4F0900100E0FFEFD3940850B9
:1018400019900100E0FF74092FF582E43401F5835B
:10185000E4F0900100E004F080DC900100E4F090FE
:1018600000A8E0FF900100E0FE74092EF582E43448
:1018700001F583EFF0900100E0FF74092FF582E499
:101880003401F583E0FF90012BEFF07F0112310F5F
:101890009000AAE4F09000A9E4F0021D249000A8B2
:1018A000E0FFEF6445706C900100E4F0900100E00F
:1018B000FFEFD394085019900100E0FF74092FF551
:1018C00082E43401F583E4F0900100E004F080DC70
:1018D000900100E4F09000A8E0FF900100E0FE74A9
:1018E000092EF582E43401F583EFF0900100E0FF6A
:1018F00074092FF582E43401F583E0FF90012BEFAA
:10190000F07F0112310F9000AAE4F09000A9E4F0FA
:10191000021D249000A8E0FFEF6446706C90010067
:10192000E4F0900100E0FFEFD3940850199001001B
:10193000E0FF74092FF582E43401F583E4F09001AF
:1019400000E004F080DC900100E4F09000A8E0FFEB
:10195000900100E0FE74092EF582E43401F583EF76
:10196000F0900100E0FF74092FF582E43401F58363
:10197000E0FF90012BEFF07F0112310F9000AAE4FD
:10198000F09000A9E4F0021D249000A8E0FFEF64AD
:1019900047706C900100E4F0900100E0FFEFD394F9
:1019A000085019900100E0FF74092FF582E434011A
:1019B000F583E4F0900100E004F080DC900100E4A5
:1019C000F09000A8E0FF900100E0FE74092EF5827F
:1019D000E43401F583EFF0900100E0FF74092FF586
:1019E00082E43401F583E0FF90012BEFF07F0112D8
:1019F000310F9000AAE4F09000A9E4F0021D2490B9
:101A000000A8E0FFEF6448706C900100E4F09001E2
:101A100000E0FFEFD394085019900100E0FF740933
:101A20002FF582E43401F583E4F0900100E004F046
:101A300080DC900100E4F09000A8E0FF900100E05D
:101A4000FE74092EF582E43401F583EFF090010075
:101A5000E0FF74092FF582E43401F583E0FF900183
:101A60002BEFF07F0112310F9000AAE4F09000A953
:101A7000E4F0021D249000A8E0FFEF645070459050
:101A80000100E4F09000A8E0FF900100E0FE74097E
:101A90002EF582E43401F583EFF0900100E004F0CC
:101AA0009000A97401F09000AE7402F07BFF7A4DB3
:101AB0007984124520124E6FEF30E103021D24801D
:101AC000F4021D249000A8E0FFEF645170499001DA
:101AD00000E4F09000A8E0FF900100E0FE74092E01
:101AE000F582E43401F583EFF0900100E004F0901A
:101AF00000A97401F09000AE7402F012466512481D
:101B0000737BFF7A4D7984124520124E6FEF30E1DE
:101B1000F9124873021D249000A8E0FFEF6455708D
:101B20002F7BFF7A4D7984124520124E6FEF30E102
:101B3000F91248739000A8E0FF12439B124E6FEF1A
:101B400030E1F99000AAE4F09000A9E4F0021D242D
:101B50009000A8E0FFEFB40D289000AAE4F09000F8
:101B6000A9E4F09001057401F07BFF7A4D798412AD
:101B70004520124E6FEF30E1F97F0112310F021D47
:101B8000249000A8E0FFEF64DE706E900100E4F0A6
:101B9000900100E0FFEFD394085019900100E0FF9E
:101BA00074092FF582E43401F583E4F0900100E03C
:101BB00004F080DC900100E4F09000A8E0FF9001C8
:101BC00000E0FE74092EF582E43401F583EFF09015
:101BD0000100E004F09000A97402F09000AE7403DC
:101BE000F07BFF7A4D7984124520124E6FEF30E181
:101BF00003021D2480F4021D249000A8E0FFEF647E
:101C0000DD70527BFF7A4D7984124520124E6FEFC2
:101C100030E1F99000D0E0FEA3E0FFEEFF7E0090FF
:101C20000108EFF0124873900108E0FF12439B1285
:101C30004E6FEF30E1F99000D0E0FEA3E0FF1243D9
:101C40009B124E6FEF30E1F99000AAE4F09000A9EA
:101C5000E4F0021D24900100E4F0900100E0FFEFA9
:101C6000D3941F5019900100E0FF74092FF582E40E
:101C70003401F583E4F0900100E004F080DC900092
:101C8000A9E4F09000AAE4F07BFF7A4D798D12452B
:101C900020124E6FEF30E103021D2480F4021D2458
:101CA0009000A9E0FFEF607C9000A8E0FF900100A9
:101CB000E0FE74092EF582E43401F583EFF0900123
:101CC00000E004F09000A9E014F09000A9E0FFEF1C
:101CD000704D9000AA7401F0900109E0FFEFB4DEAE
:101CE000439000D0E4F0A3E4F090010AE0FF7E000E
:101CF0009000D0EE8FF01231C09000D0E0FEA3E053
:101D0000FFEF7F00FE9000D0EEF0A3EFF090010B0C
:101D1000E0FF7E009000D0EE8FF01231C080059081
:101D200000AAE4F09000AAE0FFEF64016003021152
:101D300096900100E014FFF09000ABEFF09000AE41
:101D4000E0FFEF14FF9000ACEFF09000AEE0FF90EA
:101D500000ADEFF09000ADE0FFEFD394004036907F
:101D600000ABE0FF74092FF582E43401F583E0FF56
:101D70009000ACE0FE742B2EF582E43401F583EF85
:101D8000F09000ABE014F09000ACE014F09000ADE7
:101D9000E014F080BF9000AAE4F07F0112310F90B0
:101DA0000100E004F0021196229000A0EEF0A3EFF3
:101DB000F09000A2E4F0A3E4F09000A0E0FEA3E025
:101DC000FFD3EF940FEE648094804003021F629073
:101DD00000A0E0FEA3E0FF74017E00A807088005D4
:101DE000C333CE33CED8F9FF9000A2EEF0A3EFF0CC
:101DF0009000A2E0FEA3E0FFEEFF7E009000A4EFC3
:101E0000F090502CE0FFEF54FEFFEFF07F00124BFC
:101E1000089000A4E0FF124B089000A2E0FEA3E0AF
:101E2000FF124B08124C96EF30E1F97F0F7E001243
:101E300049B490502CE0FFEF4401FFEFF07F147E97
:101E4000001249B490502CE0FFEF54FEFFEFF07FFA
:101E500001124B087F00124B087F00124B08124CF6
:101E600096EF30E1F97F0F7E001249B490502CE0DC
:101E7000FFEF4401FFEFF07F147E001249B4905051
:101E80002CE0FFEF54FEFFEFF07F02124B087F00C3
:101E9000124B087F00124B08124C96EF30E1F97F8D
:101EA0000F7E001249B490502CE0FFEF4401FFEF89
:101EB000F07F147E001249B490502CE0FFEF54FEE6
:101EC000FFEFF07F03124B087F00124B087F0012D8
:101ED0004B08124C96EF30E1F97F0F7E001249B4A7
:101EE00090502CE0FFEF4401FFEFF07F147E0012D2
:101EF00049B490502CE0FFEF54FEFFEFF07F081242
:101F00004B087F00124B087F11124B08124C96EFC2
:101F100030E1F97F0F7E001249B490502CE0FFEFC2
:101F20004401FFEFF07F147E001249B490502CE082
:101F3000FFEF54FEFFEFF07F0F124B087F00124BB4
:101F4000087F00124B08124C96EF30E1F97F0F7EAC
:101F5000001249B490502CE0FFEF4401FFEFF00273
:101F600026159000A0E0FEA3E0FFC3EF9410EE64FE
:101F7000809480500302212C9000A0E0FEA3E0FF9B
:101F8000D3EF941FEE64809480400302212C9000D4
:101F9000A074FF75F0F01231C09000A0E0FEA3E045
:101FA000FF74017E00A807088005C333CE33CED866
:101FB000F9FF9000A2EEF0A3EFF09000A2E0FEA3E4
:101FC000E0FFEEFF7E009000A4EFF090502CE0FFC9
:101FD000EF54FEFFEFF07F00124B087F00124B081A
:101FE0007F00124B08124C96EF30E1F97F0F7E0014
:101FF0001249B490502CE0FFEF4401FFEFF07F1442
:102000007E001249B490502CE0FFEF54FEFFEFF039
:102010007F01124B089000A4E0FF124B089000A231
:10202000E0FEA3E0FF124B08124C96EF30E1F97F7F
:102030000F7E001249B490502CE0FFEF4401FFEFF7
:10204000F07F147E001249B490502CE0FFEF54FE54
:10205000FFEFF07F02124B087F00124B087F001247
:102060004B08124C96EF30E1F97F0F7E001249B415
:1020700090502CE0FFEF4401FFEFF07F147E001240
:1020800049B490502CE0FFEF54FEFFEFF07F0312B5
:102090004B087F00124B087F00124B08124C96EF42
:1020A00030E1F97F0F7E001249B490502CE0FFEF31
:1020B0004401FFEFF07F147E001249B490502CE0F1
:1020C000FFEF54FEFFEFF07F08124B087F00124B2A
:1020D000087F12124B08124C96EF30E1F97F0F7E09
:1020E000001249B490502CE0FFEF4401FFEFF07F65
:1020F000147E001249B490502CE0FFEF54FEFFEF25
:10210000F07F0F124B087F00124B087F00124B0824
:10211000124C96EF30E1F97F0F7E001249B49050D7
:102120002CE0FFEF4401FFEFF00226159000A0E045
:10213000FEA3E0FFC3EF9420EE648094805003027E
:1021400022F69000A0E0FEA3E0FFD3EF942FEE6410
:1021500080948040030222F69000A074FF75F0E0A6
:102160001231C09000A0E0FEA3E0FF74017E00A841
:1021700007088005C333CE33CED8F9FF9000A2EE16
:10218000F0A3EFF09000A2E0FEA3E0FFEEFF7E00E0
:102190009000A4EFF090502CE0FFEF54FEFFEFF022
:1021A0007F00124B087F00124B087F00124B081271
:1021B0004C96EF30E1F97F0F7E001249B490502C1D
:1021C000E0FFEF4401FFEFF07F147E001249B4906E
:1021D000502CE0FFEF54FEFFEFF07F01124B087F21
:1021E00000124B087F00124B08124C96EF30E1F9B9
:1021F0007F0F7E001249B490502CE0FFEF4401FFA6
:10220000EFF07F147E001249B490502CE0FFEF54A1
:10221000FEFFEFF07F02124B089000A4E0FF124B8C
:10222000089000A2E0FEA3E0FF124B08124C96EFCC
:1022300030E1F97F0F7E001249B490502CE0FFEF9F
:102240004401FFEFF07F147E001249B490502CE05F
:10225000FFEF54FEFFEFF07F03124B087F00124B9D
:10226000087F00124B08124C96EF30E1F97F0F7E89
:10227000001249B490502CE0FFEF4401FFEFF07FD3
:10228000147E001249B490502CE0FFEF54FEFFEF93
:10229000F07F08124B087F00124B087F14124B0886
:1022A000124C96EF30E1F97F0F7E001249B4905046
:1022B0002CE0FFEF4401FFEFF07F147E001249B4E1
:1022C00090502CE0FFEF54FEFFEFF07F0F124B0811
:1022D0007F00124B087F00124B08124C96EF30E142
:1022E000F97F0F7E001249B490502CE0FFEF4401BB
:1022F000FFEFF00226159000A0E0FEA3E0FFC3EF81
:102300009430EE6480948050030224C09000A0E0DA
:10231000FEA3E0FFD3EF943FEE648094804003027D
:1023200024C09000A074FF75F0D01231C09000A0BE
:10233000E0FEA3E0FF74017E00A807088005C33318
:10234000CE33CED8F9FF9000A2EEF0A3EFF09000CC
:10235000A2E0FEA3E0FFEEFF7E009000A4EFF0906D
:10236000502CE0FFEF54FEFFEFF07F00124B087F90
:1023700000124B087F00124B08124C96EF30E1F927
:102380007F0F7E001249B490502CE0FFEF4401FF14
:10239000EFF07F147E001249B490502CE0FFEF5410
:1023A000FEFFEFF07F01124B087F00124B087F0009
:1023B000124B08124C96EF30E1F97F0F7E00124964
:1023C000B490502CE0FFEF4401FFEFF07F147E004B
:1023D0001249B490502CE0FFEF54FEFFEFF07F0263
:1023E000124B087F00124B087F00124B08124C96CC
:1023F000EF30E1F97F0F7E001249B490502CE0FFDE
:10240000EF4401FFEFF07F147E001249B490502C8E
:10241000E0FFEF54FEFFEFF07F03124B089000A4A3
:10242000E0FF124B089000A2E0FEA3E0FF124B0871
:10243000124C96EF30E1F97F0F7E001249B49050B4
:102440002CE0FFEF4401FFEFF07F147E001249B44F
:1024500090502CE0FFEF54FEFFEFF07F08124B0886
:102460007F00124B087F18124B08124C96EF30E198
:10247000F97F0F7E001249B490502CE0FFEF440129
:10248000FFEFF07F147E001249B490502CE0FFEF74
:1024900054FEFFEFF07F0F124B087F00124B087FB6
:1024A00000124B08124C96EF30E1F97F0F7E0012BC
:1024B00049B490502CE0FFEF4401FFEFF0022615E5
:1024C00090502CE0FFEF54FEFFEFF07F00124B081E
:1024D0007F00124B087F00124B08124C96EF30E140
:1024E000F97F0F7E001249B490502CE0FFEF4401B9
:1024F000FFEFF07F147E001249B490502CE0FFEF04
:1025000054FEFFEFF07F01124B087F00124B087F53
:1025100000124B08124C96EF30E1F97F0F7E00124B
:1025200049B490502CE0FFEF4401FFEFF07F147EA0
:10253000001249B490502CE0FFEF54FEFFEFF07F03
:1025400002124B087F00124B087F00124B08124CFE
:1025500096EF30E1F97F0F7E001249B490502CE0E5
:10256000FFEF4401FFEFF07F147E001249B490505A
:102570002CE0FFEF54FEFFEFF07F03124B087F00CB
:10258000124B087F00124B08124C96EF30E1F97F96
:102590000F7E001249B490502CE0FFEF4401FFEF92
:1025A000F07F147E001249B490502CE0FFEF54FEEF
:1025B000FFEFF07F08124B087F00124B087F0012DC
:1025C0004B08124C96EF30E1F97F0F7E001249B4B0
:1025D00090502CE0FFEF4401FFEFF07F147E0012DB
:1025E00049B490502CE0FFEF54FEFFEFF07F0F1244
:1025F0004B087F00124B087F00124B08124C96EFDD
:1026000030E1F97F0F7E001249B490502CE0FFEFCB
:102610004401FFEFF07F0A7E007D007C001242053E
:10262000229000A0EEF0A3EFF09000A2E4F0A3E46B
:10263000F09000A0E0FEA3E0FFD3EF940FEE6480E3
:10264000948040030227DA9000A0E0FEA3E0FF742C
:10265000017E00A807088005C333CE33CED8F9FF2A
:102660009000A2EEF0A3EFF09000A2E0FEA3E0FF46
:10267000EEFF7E009000A4EFF090502CE0FFEF54AE
:10268000FEFFEFF07F04124B089000A4E0FF124B16
:10269000089000A2E0FEA3E0FF124B08124C96EF58
:1026A00030E1F97F0F7E001249B490502CE0FFEF2B
:1026B0004401FFEFF07F147E001249B490502CE0EB
:1026C000FFEF54FEFFEFF07F05124B087F00124B27
:1026D000087F00124B08124C96EF30E1F97F0F7E15
:1026E000001249B490502CE0FFEF4401FFEFF07F5F
:1026F000147E001249B490502CE0FFEF54FEFFEF1F
:10270000F07F06124B087F00124B087F00124B0827
:10271000124C96EF30E1F97F0F7E001249B49050D1
:102720002CE0FFEF4401FFEFF07F147E001249B46C
:1027300090502CE0FFEF54FEFFEFF07F07124B08A4
:102740007F00124B087F00124B08124C96EF30E1CD
:10275000F97F0F7E001249B490502CE0FFEF440146
:10276000FFEFF07F147E001249B490502CE0FFEF91
:1027700054FEFFEFF07F09124B087F00124B087FD9
:1027800011124B08124C96EF30E1F97F0F7E0012C8
:1027900049B490502CE0FFEF4401FFEFF07F147E2E
:1027A000001249B490502CE0FFEF54FEFFEFF07F91
:1027B0000F124B087F00124B087F00124B08124C7F
:1027C00096EF30E1F97F0F7E001249B490502CE073
:1027D000FFEF4401FFEFF0022E8D9000A0E0FEA37A
:1027E000E0FFC3EF9410EE6480948050030229A4AC
:1027F0009000A0E0FEA3E0FFD3EF941FEE6480946E
:102800008040030229A49000A074FF75F0F01231FB
:10281000C09000A0E0FEA3E0FF74017E00A80708BE
:102820008005C333CE33CED8F9FF9000A2EEF0A3DB
:10283000EFF09000A2E0FEA3E0FFEEFF7E0090002C
:10284000A4EFF090502CE0FFEF54FEFFEFF07F0478
:10285000124B087F00124B087F00124B08124C9657
:10286000EF30E1F97F0F7E001249B490502CE0FF69
:10287000EF4401FFEFF07F147E001249B490502C1A
:10288000E0FFEF54FEFFEFF07F05124B089000A42D
:10289000E0FF124B089000A2E0FEA3E0FF124B08FD
:1028A000124C96EF30E1F97F0F7E001249B4905040
:1028B0002CE0FFEF4401FFEFF07F147E001249B4DB
:1028C00090502CE0FFEF54FEFFEFF07F06124B0814
:1028D0007F00124B087F00124B08124C96EF30E13C
:1028E000F97F0F7E001249B490502CE0FFEF4401B5
:1028F000FFEFF07F147E001249B490502CE0FFEF00
:1029000054FEFFEFF07F07124B087F00124B087F49
:1029100000124B08124C96EF30E1F97F0F7E001247
:1029200049B490502CE0FFEF4401FFEFF07F147E9C
:10293000001249B490502CE0FFEF54FEFFEFF07FFF
:1029400009124B087F00124B087F12124B08124CE1
:1029500096EF30E1F97F0F7E001249B490502CE0E1
:10296000FFEF4401FFEFF07F147E001249B4905056
:102970002CE0FFEF54FEFFEFF07F0F124B087F00BB
:10298000124B087F00124B08124C96EF30E1F97F92
:102990000F7E001249B490502CE0FFEF4401FFEF8E
:1029A000F0022E8D9000A0E0FEA3E0FFC3EF942084
:1029B000EE648094805003022B6E9000A0E0FEA392
:1029C000E0FFD3EF942FEE648094804003022B6EDF
:1029D0009000A074FF75F0E01231C09000A0E0FEFE
:1029E000A3E0FF74017E00A807088005C333CE333F
:1029F000CED8F9FF9000A2EEF0A3EFF09000A2E095
:102A0000FEA3E0FFEEFF7E009000A4EFF090502CBC
:102A1000E0FFEF54FEFFEFF07F04124B087F00123F
:102A20004B087F00124B08124C96EF30E1F97F0FF4
:102A30007E001249B490502CE0FFEF4401FFEFF00C
:102A40007F147E001249B490502CE0FFEF54FEFF3B
:102A5000EFF07F05124B087F00124B087F00124BEE
:102A600008124C96EF30E1F97F0F7E001249B490C6
:102A7000502CE0FFEF4401FFEFF07F147E0012497D
:102A8000B490502CE0FFEF54FEFFEFF07F06124BA6
:102A9000089000A4E0FF124B089000A2E0FEA3E023
:102AA000FF124B08124C96EF30E1F97F0F7E0012B7
:102AB00049B490502CE0FFEF4401FFEFF07F147E0B
:102AC000001249B490502CE0FFEF54FEFFEFF07F6E
:102AD00007124B087F00124B087F00124B08124C64
:102AE00096EF30E1F97F0F7E001249B490502CE050
:102AF000FFEF4401FFEFF07F147E001249B49050C5
:102B00002CE0FFEF54FEFFEFF07F09124B087F002F
:102B1000124B087F14124B08124C96EF30E1F97FEC
:102B20000F7E001249B490502CE0FFEF4401FFEFFC
:102B3000F07F147E001249B490502CE0FFEF54FE59
:102B4000FFEFF07F0F124B087F00124B087F00123F
:102B50004B08124C96EF30E1F97F0F7E001249B41A
:102B600090502CE0FFEF4401FFEFF0022E8D90001B
:102B7000A0E0FEA3E0FFC3EF9430EE6480948050A9
:102B800003022D389000A0E0FEA3E0FFD3EF943FB6
:102B9000EE648094804003022D389000A074FF758D
:102BA000F0D01231C09000A0E0FEA3E0FF74017EDF
:102BB00000A807088005C333CE33CED8F9FF9000B4
:102BC000A2EEF0A3EFF09000A2E0FEA3E0FFEEFF84
:102BD0007E009000A4EFF090502CE0FFEF54FEFF39
:102BE000EFF07F04124B087F00124B087F00124B5E
:102BF00008124C96EF30E1F97F0F7E001249B49035
:102C0000502CE0FFEF4401FFEFF07F147E001249EB
:102C1000B490502CE0FFEF54FEFFEFF07F05124B15
:102C2000087F00124B087F00124B08124C96EF30C1
:102C3000E1F97F0F7E001249B490502CE0FFEF4481
:102C400001FFEFF07F147E001249B490502CE0FF9A
:102C5000EF54FEFFEFF07F06124B087F00124B0887
:102C60007F00124B08124C96EF30E1F97F0F7E0087
:102C70001249B490502CE0FFEF4401FFEFF07F14B5
:102C80007E001249B490502CE0FFEF54FEFFEFF0AD
:102C90007F07124B089000A4E0FF124B089000A29F
:102CA000E0FEA3E0FF124B08124C96EF30E1F97FF3
:102CB0000F7E001249B490502CE0FFEF4401FFEF6B
:102CC000F07F147E001249B490502CE0FFEF54FEC8
:102CD000FFEFF07F09124B087F00124B087F18129C
:102CE0004B08124C96EF30E1F97F0F7E001249B489
:102CF00090502CE0FFEF4401FFEFF07F147E0012B4
:102D000049B490502CE0FFEF54FEFFEFF07F0F121C
:102D10004B087F00124B087F00124B08124C96EFB5
:102D200030E1F97F0F7E001249B490502CE0FFEFA4
:102D30004401FFEFF0022E8D90502CE0FFEF54FE87
:102D4000FFEFF07F04124B087F00124B087F001248
:102D50004B08124C96EF30E1F97F0F7E001249B418
:102D600090502CE0FFEF4401FFEFF07F147E001243
:102D700049B490502CE0FFEF54FEFFEFF07F0512B6
:102D80004B087F00124B087F00124B08124C96EF45
:102D900030E1F97F0F7E001249B490502CE0FFEF34
:102DA0004401FFEFF07F147E001249B490502CE0F4
:102DB000FFEF54FEFFEFF07F06124B087F00124B2F
:102DC000087F00124B08124C96EF30E1F97F0F7E1E
:102DD000001249B490502CE0FFEF4401FFEFF07F68
:102DE000147E001249B490502CE0FFEF54FEFFEF28
:102DF000F07F07124B087F00124B087F00124B0830
:102E0000124C96EF30E1F97F0F7E001249B49050DA
:102E10002CE0FFEF4401FFEFF07F147E001249B475
:102E200090502CE0FFEF54FEFFEFF07F09124B08AB
:102E30007F00124B087F00124B08124C96EF30E1D6
:102E4000F97F0F7E001249B490502CE0FFEF44014F
:102E5000FFEFF07F147E001249B490502CE0FFEF9A
:102E600054FEFFEFF07F0F124B087F00124B087FDC
:102E700000124B08124C96EF30E1F97F0F7E0012E2
:102E800049B490502CE0FFEF4401FFEFF07F0A7E41
:102E9000007D007C0012420522C2AF80FE32C0E0FD
:102EA000E5D0541864087003D0E032D0E0122E9DB3
:102EB00085D00B75D008AAE0EC2422F8E6BC050208
:102EC00074FFC39581B4140040CF7906781016E6DC
:102ED00008700BC2AFE630E1034418F6D2AF08D950
:102EE000EDEA8BD030000122D50DFCC0E0C0D0C08F
:102EF000F0C083C082C000C001C002C003C004C0D3
:102F000005C006C007E50C232411F87440C2AF4683
:102F1000F6D2AFD200E50CFF232411F80F0808BF4A
:102F200006047F007811E630E4F200E50CC39F5000
:102F300020050C7421250CF8E6FDA68108E6AE0CF0
:102F4000BE050274FFCDF8E86D60E008E6C0E080E1
:102F5000F6E50CD39F4027E50C2422F8E6AE0CBE24
:102F6000050274FFFD18E6CDF8E5816D6006D0E03E
:102F7000F61880F5E50C2421C8F6150C80D3750DE4
:102F800005E50C232411F87F04C2AFE610E61E30DD
:102F9000E00310E20C7F0030E10730E3047F0854C7
:102FA000F4547CC6D2AF54804207C20022F6D2AF9E
:102FB000D007D006D005D004D003D002D001D00075
:102FC000D082D083D0F0D0D0D0E0C200227821A629
:102FD0008174056006FF0876FFDFFB7F06E478104A
:102FE000F608F608DFFA78117630904DC374019335
:102FF000C0E0E493C0E0750D05D2AF2205EFD39495
:103000000540037FFF2274112F2FF8E620E5F4C25C
:10301000AFE64430F6D2AFAE0CEEC39F50210E7433
:10302000212EF8E6F908E618BE050274FFFDED69E9
:10303000600909E71919F7090980F3161680DAEE15
:10304000D39F400405810581EED39F402274212E39
:10305000F808E6F9EEB50C02A981180606E6FDEDC2
:103060006960091919E70909F71980F31E80D9EF7A
:103070002421F8E604F8EF2F04904DC393F608EFEF
:103080002F93F67F0022EFD3940540037FFF22EFBA
:10309000232411F8E630E5F4C2AFE6548CF6D2AF43
:1030A000E50CB5070A74212FF8E6F581022F1350BD
:1030B0002E74222FF8E6BF050274FFFD18E6F9749E
:1030C000212FF8FBE6FCE96C6008A805E7F61D195E
:1030D00080F4A803A6051FE50CB507E37F00227462
:1030E000222FF8E6FD1886010F74212FF8A601089B
:1030F0008604E50CB50702AC81ED6C60080D09A8EB
:1031000005E6F780F4E50CB507DE89817F0022EF44
:10311000D3940540037FFF22EF232411F8C2AFE6CA
:1031200030E50530E002D2E4D2E2C6D2AF7F003013
:10313000E2010F022EE78FF0E4FFFEE50C232410DE
:10314000F8C2A930F70D7F08E6600B2DF66032500B
:1031500030800730F106EDF660277E020830F0106F
:10316000C2AFE610E7250E30E20CD2AF7F04801428
:10317000C2AFE610E71554EC4EF6D2AFD2A9022F3B
:10318000137F0808EF4483F4C2AF56C6D2AFD2A96A
:1031900054804FFF22BB010689828A83E0225002BD
:1031A000E722BBFE02E32289828A83E49322BB01E9
:1031B0000689828A83F0225002F722BBFE01F322A5
:1031C000C5F0F8A3E028F0C5F0F8E582158270029A
:1031D0001583E038F022BB010A89828A83E0F5F08A
:1031E000A3E022500687F009E71922BBFE07E3F5AA
:1031F000F009E3192289828A83E493F5F07401933C
:1032000022EF2BFFEE3AFEED39FDEC38FC22E88F81
:10321000F0A4CC8BF0A42CFCE98EF0A42CFC8AF05A
:10322000EDA42CFCEA8EF0A4CDA8F08BF0A42DCC5C
:103230003825F0FDE98FF0A42CCD35F0FCEB8EF0B5
:10324000A4FEA9F0EB8FF0A4CFC5F02ECD39FEE49B
:103250003CFCEAA42DCE35F0FDE43CFC2275F008E0
:10326000758200EF2FFFEE33FECD33CDCC33CCC5CE
:103270008233C5829BED9AEC99E58298400CF582E9
:10328000EE9BFEED9AFDEC99FC0FD5F0D6E4CEFB5B
:10329000E4CDFAE4CCF9A88222B800C1B90059BA49
:1032A000002DEC8BF084CFCECDFCE5F0CBF9781877
:1032B000EF2FFFEE33FEED33FDEC33FCEB33FB1071
:1032C000D703994004EB99FB0FD8E5E4F9FA22788B
:1032D00018EF2FFFEE33FEED33FDEC33FCC933C99D
:1032E00010D7059BE99A4007EC9BFCE99AF90FD8A7
:1032F000E0E4C9FAE4CCFB2275F010EF2FFFEE33C7
:10330000FEED33FDCC33CCC833C810D7079BEC9A05
:10331000E899400AED9BFDEC9AFCE899F80FD5F08E
:10332000DAE4CDFBE4CCFAE4C8F922EF4BFFEE4A35
:10333000FEED49FDEC48FC22E8600FECC313FCED08
:1033400013FDEE13FEEF13FFD8F122E8600FEFC379
:1033500033FFEE33FEED33FDEC33FCD8F122E0FC1D
:10336000A3E0FDA3E0FEA3E0FF22E0F8A3E0F9A3C1
:10337000E0FAA3E0FB22ECF0A3EDF0A3EEF0A3EF64
:10338000F022E0FBA3E0FAA3E0F922EBF0A3EAF0DD
:10339000A3E9F022D083D082F8E4937012740193F1
:1033A000700DA3A393F8740193F5828883E473747A
:1033B00002936860EFA3A3A380DFE50F2582F58267
:1033C000E50E3583F583B50E0485820F2210AF0616
:1033D00085820FF50E2285820FF50ED2AF22C0E056
:1033E000C0F0C083C082C085C084C086758600C01E
:1033F00093759300C0D075D000C000C001C002C05A
:1034000003C004C005C006C0079044CB7401F0900F
:103410005021E0FFEF30E41090012AE0FFEF4480FC
:10342000FF90012AEFF0800E90012AE0FFEF547F19
:10343000FF90012AEFF0905020E0FFEF30E4109071
:10344000012AE0FFEF4440FF90012AEFF0800E9048
:10345000012AE0FFEF54BFFF90012AEFF090506384
:10346000E0FFEF30E41090012AE0FFEF4420FF90EE
:10347000012AEFF0800E90012AE0FFEF54DFFF9069
:10348000012AEFF0905062E0FFEF30E41090012A43
:10349000E0FFEF4410FF90012AEFF0800E90012A28
:1034A000E0FFEF54EFFF90012AEFF0905003E0FFB0
:1034B000EF30E41090012AE0FFEF4408FF90012A6A
:1034C000EFF0800E90012AE0FFEF54F7FF90012A01
:1034D000EFF0905002E0FFEF30E41090012AE0FF9F
:1034E000EF4404FF90012AEFF0800E90012AE0FFE4
:1034F000EF54FBFF90012AEFF0905001E0FFEF3016
:10350000E41090012AE0FFEF4402FF90012AEFF05F
:10351000800E90012AE0FFEF54FDFF90012AEFF0AA
:10352000905000E0FFEF30E41090012AE0FFEF44FC
:1035300001FF90012AEFF0800E90012AE0FFEF5486
:10354000FEFF90012AEFF090012AE0FFEF6488FF70
:1035500090012AEFF09001077489F090012AE0FFB2
:10356000900129EFF090502AE0FFEF5410FF7E0009
:10357000EF4E700302340F90501FE0FFEF54FEFF38
:10358000EFF07F017E001249B490501FE0FFEF443E
:1035900001FFEFF0124B399044C37401F0D007D013
:1035A00006D005D004D003D002D001D000D0D0D0B6
:1035B00093D086D084D085D082D083D0F0D0E03232
:1035C0009000A0EEF0A3EFF09000A2EDF0124E08F4
:1035D0009000A4EFF0124DFE9000A5EEF0A3EFF0E6
:1035E0009000A5E0FEA3E0FF9000A0E0FCA3E0FDBA
:1035F000ED6F7002EC6E70030237549043A2E0FF4F
:10360000EF5401FF9000A3EFF09000A4E0FFEF70F3
:103610005E9000A5E0FEA3E0FFEF4E600C9000A0DE
:10362000E0FEA3E0FFEF4E70469000A5E0FEA3E0B1
:10363000FFEF4E701D7B027A4079809000A0E0FC85
:10364000A3E0FD124D77904082E0FFEF54BFFFEF03
:10365000F022904082E0FFEF4440FFEFF07B027ADF
:103660004079809000A0E0FCA3E0FD124D7722900D
:1036700000A3E0FFEF606C904001E4F09040107414
:1036800001F0904014E4F0904008E0FFEF547FFF19
:10369000EFF0904082E0FFEF5408FF7E00EF4E60B5
:1036A0000C9000A0E0FEA3E0FFEF4E70367B027AA4
:1036B0004079029000A5E0FCA3E0FD124D77904018
:1036C000017407F0904001E0FFEF5401FF7E00EF2E
:1036D0004E70F19043A2E0FFEF54FEFFEFF09040F8
:1036E00001E4F09043A2E0FFEF5401FF7E00EF4EB3
:1036F000603A7B027A4079029000A0E0FCA3E0FDF2
:10370000124D779000A2E0FFEF60047F0280027FFD
:1037100000EF4401FF904001EFF0904001E0FFEF27
:103720005401FF7E00EF4E602B80EF227B027A4037
:1037300079809000A0E0FCA3E0FD124D779043A2B9
:10374000C083C082E0FF9000A3E0FEEF4EFFD08276
:10375000D083EFF0227B007A4679E8124DCFEF4418
:1037600001FD7B007A4679E8124DDB123B877B0135
:103770007A507903124DCFEF4402FD7B017A5079E4
:1037800003124DDB7B017A507913124DCFEF4402C7
:10379000FD7B017A507913124DDB9043A0E0FFEFDF
:1037A0004440FF9043A0EFF09043C2E0FFEF44108D
:1037B000FF9043C2EFF07C6C7DDB7B007A51790097
:1037C0007F0A7E00124A087C6C7DE57B007A517985
:1037D000C27F087E00124A087C6C7DED7B007A5126
:1037E00079F27F087E00124A087C6C7DF57B007AB6
:1037F0005179127F087E00124A087C6C7DFD7B00A7
:103800007A5179227F087E00124A087C6D7D057B03
:10381000007A5179307F0A7E00124A087C6D7D0F54
:103820007B007A5179407F0A7E00124A087C6D7DC8
:10383000197B007A5179507F0A7E00124A087C6D0C
:103840007D237B007A5179627F087E00124A087BD3
:10385000017A0C79DB7D44124DDB7B017A1A79DB2E
:103860007DA4124DDB9044F47401F0904322E0FFFC
:10387000EF4408FF904322EFF09046ECE0FFEFC3E7
:1038800094055006904689743AF090480074C0F050
:103890001238CD9048007480F01249187B007A43AA
:1038A00079A0C003C002C0017B007A4379B09000C8
:1038B000C612338BD001D002D0037F0E7E00124996
:1038C0004E9043B0E0FFEF54FDFFEFF0227B007A13
:1038D0004079807D007C00124D759040827458F0D4
:1038E0007B007A4079847D0B7C00124D7590408678
:1038F0007418F07B007A4079887D647C00124D75E5
:1039000090408A7418F07B007A40798C7D2B7C0182
:10391000124D7590408E7419F07B007A4079907D3D
:10392000DB7C05124D759040927419F07B007A4053
:1039300079947DDF7C2E124D759040967419F0902D
:1039400043007402F09040007408F0904200740349
:10395000F07B0C7A017908124DCF9046A1EFF07BF5
:10396000007A4279227D087C00124D757B007A42F4
:1039700079207D517C12124D759000C5E4F07F19BD
:103980007E007D007C009000C11233769000C11251
:10399000335ED3EF9400EE9400404E9000C5E0FFFC
:1039A000EF64036044904225E0FFEF5401FF7E0086
:1039B0009000C5E0FEEE25E0FEEE4FFFEF5403FF62
:1039C0009000C5EFF07FE07E017D007C0012470093
:1039D0009000C112335E7BFF7AFF79FF78FF1232CD
:1039E000019000C112337680A39000C112335EEFC4
:1039F0004E70057F03124C737B007A4079047D0082
:103A00007C01124D759040047407F0904006E4F07C
:103A10009040087448F0904004E4F0904001740233
:103A2000F09043A2E0FFEF443FFF9043A2EFF0226B
:103A300075930078007583467582E8E04401F000D4
:103A40009046ECE0F99046FAE0FAB903225420B42B
:103A50000012B8001AEA901FFFF07401901FFEF0E8
:103A60009046F6F0901FFEE06005901FFFE0FA9090
:103A7000480074C0F07581269076BCE4F0A3F0A3F2
:103A8000F0A3F0907010F0907019F0907020F0900A
:103A900076007410F0907604E4F0A3F0A3F0A3F0A5
:103AA0009078007800087400F0A37408F0E8B80477
:103AB0000274FFA3F0A37422F0A374BCF0A3747685
:103AC000F0A3E4F0A3E81475F008A4F0A3B804D5BB
:103AD0009070107401F0907014F0904880E090485D
:103AE00088E09044D87402F07E707F181200049031
:103AF0007010F0EA90013CF0020011750E1F750F76
:103B0000FD123755023B42022FCDE493A3F8E49314
:103B1000A34003F68001F208DFF48029E493A3F8C0
:103B20005407240CC8C333C4540F4420C883400432
:103B3000F456800146F6DFE4800B010204081020F1
:103B400040809043FEE47E019360BCA3FF543F306D
:103B5000E509541FFEE493A360010ECF54C025E095
:103B600060A840B8E493A3FAE493A3F8E493A3C84D
:103B7000C582C8CAC583CAF0A3C8C582C8CAC583DE
:103B8000CADFE9DEE780BE7F007E007D007C00901A
:103B9000014A1233769076007410F0907010740120
:103BA000F0907019E4F07B027A7879007D987C02BD
:103BB000124D779078027401F090780374A3F07B33
:103BC000027A787904C003C002C0017BFF7A6A7967
:103BD00043AF01AE02AD037C00EF54FFFFEE54FF94
:103BE000FEED5400FDEC5400FCAD07AC06D001D056
:103BF00002D003124D777B027A7879067D087C78B3
:103C0000124D777B027A7679047D107C00124D7715
:103C10007B027A7679067D007C00124D77907039B0
:103C20007407F09070497411F0907059741BF09003
:103C300070147401F0907018E0FFEF5401FF7E00E3
:103C4000EF4E70F1907038E0FFEF5401FF7E00EF0F
:103C50004E70F1907048E0FFEF5401FF7E00EF4E90
:103C600070F1907058E0FFEF5401FF7E00EF4E704E
:103C7000F1222A2A2A230056494348310056494353
:103C800048320049434D534C00464C594348004686
:103C90004753454C0053005500430045002A00237C
:103CA000002A2A2A3F00535243454E0053524344B0
:103CB0005300535243304500535231304500535264
:103CC00032304500535235304500533130304500D5
:103CD0005332303045005335303045005352433174
:103CE0004B00535243324B00535243354B00535217
:103CF00031304B00535232304B00535235304B0071
:103D0000533130304B00533230304B00533530306C
:103D10004B00535243314D005352455831005352DA
:103D200045583200535245583300535245583400D9
:103D30005352455835005352455836005352455852
:103D400037004641494C00C0E0C083C082C085C0F6
:103D500084C086758600C093759300C0D075D0006E
:103D6000C006C0079000CAE4F0A2AFE433FF9000A1
:103D7000CBEFF0D2AF9044F474FDF0906467E0FFB5
:103D80009000C9EFF09000C9E0FFEF30E568906463
:103D900048E0FF900046E0FE74052EF582E4340012
:103DA000F583EFF09000CA7401F09000CAE0FFEFD5
:103DB0006038900003E0FFEF60069000027401F0AD
:103DC000900046E004F0900046E0FFEFC3942040EE
:103DD00005900046E4F0900004E0FF900046E0FE0D
:103DE000EEB507069000037401F0906467E0FF9061
:103DF00000C9EFF0808F9000CBE0FFEF24FF92AF7F
:103E0000D007D006D0D0D093D086D084D085D082B1
:103E1000D083D0E0329000B5EFF0900047E0FF9003
:103E200000B6EFF0900025E0FF9000B7EFF09000B3
:103E3000B7E0FF9000B6E0FEEEC39F50269000B7BB
:103E4000E0FF7E00EF24FFFFEE34FFFE9000B6E0BF
:103E5000FD7C00EFB50508EEB504047F0180027F0C
:103E60000080189000B7E0FF9000B6E0FEC3EE9F20
:103E7000FFEFB41F047F0180027F00EF709C900071
:103E8000B6E0FF9000B7E0FEEEB5071490646CE07A
:103E9000FFEF20E20B9000B5E0FF90644CEFF022C2
:103EA0009000B6E0FFEFC3942040059000B6E4F028
:103EB0009000B5E0FF9000B6E0FE74262EF582E497
:103EC0003400F583EFF09000B6E004F09000B6E027
:103ED000FF900047EFF022900092E4F07F01123152
:103EE00036900105E0FFEF607E900100E0FFEF14E7
:103EF000FF900092EFF0900100E0FFEF701A7BFF5F
:103F00007A3C7972124520124E6FEF30E1F9900140
:103F10000AE0FF12439B80477BFF7A3C797212458F
:103F200020124E6FEF30E1F9900093E4F090009290
:103F3000E0FF900093E0FEEED39F5023900093E0CB
:103F4000FF74092FF582E43401F583E0FF12439BEF
:103F5000124E6FEF30E1F9900093E004F080CE90C4
:103F60000105E4F0023EDC7B017A01792B12001A94
:103F7000023EDC22C0E0C083C082C085C084C0860F
:103F8000758600C093759300C0D075D000C006C080
:103F900007A2AFE433FF9000CCEFF0D2AF9044F42F
:103FA00074FDF0900047E0FF900025E0FEEE6F60AA
:103FB0003790646CE0FFEF20E22E900025E0FFEFE9
:103FC000C394204005900025E4F0900025E0FF74A4
:103FD000262FF582E43400F583E0FF90644CEFF087
:103FE000900025E004F080BB9000CCE0FFEF24FFC0
:103FF00092AFD007D006D0D0D093D086D084D085D1
:10400000D082D083D0E032124E19900004E0FF90AD
:1040100000B1EFF0900046E0FF9000B2EFF09000AA
:1040200003E0FFEF700E9000B2E0FF9000B1E0FE01
:10403000EE6F60459000B1E0FF74052FF582E43427
:1040400000F583E0FF9000B0EFF09000B1E004F0E5
:104050009000B1E0FFEFC3942040059000B1E4F080
:104060009000B1E0FF900004EFF0900003E0FFEF5C
:104070006011900003E4F0800A906448E0FF900033
:10408000B0EFF0124E129000B0E0FF229000A0EFCF
:10409000F09000A1ECF0A3EDF09000A0E0FFEFD3D2
:1040A000941F5003D38001C340057F00124BBD9085
:1040B00000A0E0FFEF541FFF7E00EF25E0FFEE338E
:1040C000FEEF2400FFEE3444FEAA06A9077B01128E
:1040D0004D689000A3EEF0A3EFF09000A0E0FF7E0B
:1040E00002EF8EF0A4FFAEF0EF2400FFEE3444FEAA
:1040F000AA06A9077B019000A1E0FEA3E0FFAD079F
:10410000AC06124D779000A3E0FEA3E0FF227FE80B
:104110007E037D007C001242051249827D017F25CD
:104120007E001235C0124C3B124C4E124B93124B78
:10413000D2124BFC124AEB7F81124802900146E4F6
:10414000F0A3E4F01243361242D1905016E0FFEF94
:104150004401FFEFF0905017E0FFEF4401FFEFF054
:10416000905064E0FFEF4401FFEFF0124665124803
:1041700073124C11124E51124E57124E5D124E6375
:10418000124E697F0412310F7F00123086227F0A9F
:104190007E007D007C00124205124ACDEF3395E08F
:1041A000FE900148EEF0A3EFF0905037E0FFEF549F
:1041B00010FF7E00EF4E7014900148E0FEA3E0FF78
:1041C000EE4401FE900148EEF0A3EFF090501EE0A7
:1041D000FFEF54FEFFEFF07F647E001249B4905071
:1041E0001EE0FFEF4401FFEFF0900148E0FEA3E086
:1041F000FF124A2E124CF6EF30E2F97F647E001275
:1042000049B4808A2290FFFC1233BA123376850EAD
:1042100083850F8212335ED3EF9400EE9480402F9B
:1042200090013D12335E124700850E83850F82C0D8
:1042300083C08212335EEF2400FFEE3480FEED3443
:10424000FFFDEC34FFFCD082D08312337680BF9028
:10425000013312335E850E83850F8212336A123268
:104260000E1247009000041233BA2290647EE0FFE1
:10427000EF54F8FF90008BEFF090008BE0FF90641C
:104280007EEFF090647EE0FFEF54FCFF90008BEF38
:10429000F090008BE0FF90647EEFF0124D927F80F3
:1042A000124D467F80124D367F00124D26124E75FC
:1042B0007F80124D56124BA890008CEFF090649DB9
:1042C000E0FFEF4410FFEFF090008CE0FF124B2175
:1042D00022905016E0FFEF30E40B905016E0FFEF15
:1042E00054FEFFEFF0905017E0FFEF30E40B9050DA
:1042F00017E0FFEF54FEFFEFF0905064E0FFEF3067
:10430000E40B905064E0FFEF54FEFFEFF090506537
:10431000E0FFEF30E40B905065E0FFEF54FEFFEF5D
:10432000F0905034E0FFEF30E40B905034E0FFEFBA
:1043300054FEFFEFF022905015E0FFEF30E40B90B9
:104340005015E0FFEF54FEFFEFF0905014E0FFEF48
:1043500030E40B905014E0FFEF54FEFFEFF090506C
:1043600012E0FFEF30E40B905012E0FFEF54FEFF3D
:10437000EFF0905013E0FFEF30E40B905013E0FFAC
:10438000EF54FEFFEFF0905011E0FFEF30E40B90A0
:104390005011E0FFEF54FEFFEFF0229000BCEFF071
:1043A000900001E0FFEF6055124E27900047E0FFBC
:1043B000900025E0FEEEB5071590646CE0FFEF205D
:1043C000E20C9000BCE0FF90644CEFF0802C900079
:1043D00047E0FFEFC394204005900047E4F09000D1
:1043E000BCE0FF900047E0FE74262EF582E4340026
:1043F000F583EFF0900047E004F0124E20224200D7
:10440000D0000A4200ED000142014800004201468E
:10441000000041000100410025004100470041002B
:104420000400410046004100030041000200440135
:1044300038016E360044013300005DC04101371879
:1044400044013D2EE0000041015000410156004171
:10445000015100410157004101580041015900003C
:104460007F011231367F2A12439B124E6FEF30E1EB
:10447000F97F2A12439B124E6FEF30E1F97F2A1227
:10448000439B124E6FEF30E1F97F2A12439B124E8D
:104490006FEF30E1F97F2A12439B124E6FEF30E14C
:1044A000F97F2A12439B124E6FEF30E1F97F3F12E2
:1044B000439B124E6FEF30E1F97F0412308680A0EB
:1044C000229000A0EFF09000A1EDF09000A1E0FF9D
:1044D000EFD394075003D38001C340057F00124BF4
:1044E000BD9000A0E0FFEFD3941F5003D38001C321
:1044F00040057F00124BBD9000A1E0FFEF5407FF85
:104500007E00EF75F020A4FFAEF09000A0E0FEEE7C
:10451000541FFE74802EF582E43444F583EFF022BC
:104520009000B012338B9000B3E4F0A3E4F090005D
:1045300001E0FFEF60429000B01233829000B3E0E0
:10454000FEA3E0FFE92FF9EA3EFA123195FFEF6092
:10455000279000B01233829000B3E0FEA3E0FFE9A1
:104560002FF9EA3EFA123195FF123E159000B3E49E
:1045700075F0011231C080BE22C0E0C0F0C083C01F
:1045800082C085C084C086758600C093759300C0C4
:10459000D075D000C000C001C002C003C004C00577
:1045A000C006C0077F0212310FD007D006D005D059
:1045B00004D003D002D001D000D0D0D093D086D088
:1045C00084D085D082D083D0F0D0E03290656AE08C
:1045D000FFEF30E30B7B027A65795A124D6880EC6D
:1045E000124BA890008BEFF090659AE0FFEF440328
:1045F000FFEFF090659AE0FFEF54FCFFEFF090655D
:104600009BE0FFEF4403FFEFF090659BE0FFEF546A
:10461000FCFFEFF090008BE0FF124B212290658BA6
:10462000740FF09044C87404F07C4E7D847F0212B5
:10463000408C7D077F021244C19044C87402F07C14
:104640004E7D857F0112408C7D077F011244C1128F
:1046500045CC124CF6124D0690648F7405F09065AF
:104660008A7418F022124BA89000B0EFF090649872
:10467000E0FFEF4401FFEFF0906498E0FFEF54FE9D
:10468000FFEFF09000B0E0FF124B21124E199000A6
:1046900004E4F0900046E4F0900003E4F09000029F
:1046A000E4F0124E12227C3D7D477F0312408C7D48
:1046B000077F031244C19064887476F09064877415
:1046C00020F07C3F7D747F0412408C7D077F0412B4
:1046D00044C190642F740FF090643F7490F0906424
:1046E0008C7402F022906587740FF01248AA124C65
:1046F00096124CA6906588E4F09065867430F0229E
:10470000EC4D4E700D78FCEF24E950032840FD225B
:10471000000078C5904800E0C40303540390474765
:104720009325E0240FF404FBEF28FF78FFEE38FE1A
:10473000ED38FDEC38FC50D7EF2BFFEE38FEED38AE
:10474000FDEC38FC40F22205020304124BA8900055
:10475000A0EFF0906498E0FFEF4420FFEFF090644A
:1047600097E0FFEF4410FFEFF09044C07408F09022
:10477000649CE0FFEF4410FFEFF09044C07410F031
:104780009000A0E0FF124B2122124BA890008BEF6B
:10479000F090659BE0FFEF4420FFEFF090649FE016
:1047A000FFEF4410FFEFF090659AE0FFEF4410FF39
:1047B000EFF090008BE0FF124B219044C07404F0A6
:1047C0009044C07402F022124BA890008BEFF0903E
:1047D0006597E0FFEF4420FFEFF0906598E0FFEF72
:1047E0004410FFEFF0906596E0FFEF4410FFEFF00C
:1047F00090008BE0FF124B21124B50124E81124E53
:10480000822290008BEFF090008BE0FFC3EF64807A
:104810009480401090008BE0FFEF2480FF90008C8C
:10482000EFF0800E90008BE0FFEFF404FF90008C1F
:10483000EFF090008CE0FF124D3622124BA8900052
:10484000A0EFF0906498E0FFEF54DFFFEFF090648A
:1048500097E0FFEF54EFFFEFF0124E1990649CE0E9
:10486000FFEF54EFFFEFF0124E279000A0E0FF1291
:104870004B2122124BA89000B0EFF090649CE0FF17
:10488000EF4401FFEFF090649CE0FFEF54FEFFEF78
:10489000F09000B0E0FF124B21124E27900025E46B
:1048A000F0900047E4F0124E2022906566E0FFEFA2
:1048B00030E507906558E0FF80F0124BA890008B20
:1048C000EFF0906598E0FFEF4401FFEFF0906598FE
:1048D000E0FFEF54FEFFEFF090008BE0FF124B2162
:1048E00022906476E0FFEF54C0FF9000A0EFF090BC
:1048F00000A0E0FFEF4409FF906476EFF09065962A
:10490000E0FFEF4401FFEFF07F01124CC67F011280
:104910004CD67F01124CE6227B0C7A0179CF124DE6
:10492000CF9000C1EFF09000C1E0FFEF5407FF907F
:10493000586EEFF09000C1E0FFEFC4540FFFEF544A
:104940000FFF90586FEFF09058767444F022758600
:1049500000EF4E6027EF60010E7593009000C6E0F7
:10496000F595A3E0F585A3E0F5848B938A8389828E
:10497000E0A30586F0A31586DFF6DEF4E4F593F5F3
:1049800095229044C87401F07B027A447900C003F8
:10499000C002C0017BFF7A2E799EAC02AD01D0012E
:1049A000D002D003124D77904480E4F09044C0745C
:1049B00001F02232EEFA900137E0F88FF0A4FFAE5A
:1049C000F0E88AF0A42EFEE5F03400FDEF24C9FFE4
:1049D00078FFEE38FEED38FDE438FC500302470066
:1049E00022124BA89000A0EFF0906598E0FFEF44F2
:1049F00001FFEFF0906598E0FFEF54FEFFEFF090BD
:104A000000A0E0FF124B2122758600EF4E601BEFE5
:104A100060010E8C838D828B958A858984E493A3B3
:104A20000586F0A31586DFF5DEF3E4F59522900008
:104A3000BFEEF0A3EFF090646FE0FFEF30E1F77BA3
:104A4000027A65794A9000BFE0FCA3E0FD124D7741
:104A5000227F0F124D16124BA890008BEFF090643E
:104A60009EE0FFEF4410FFEFF090008BE0FF124B51
:104A700021229000B8EEF0A3EFF0124E439000B860
:104A8000E0FEA3E0FF124AAF7F01124B7D124E3CC5
:104A90002290008BEEF0A3EFF07B027A44790A902B
:104AA000008BE0FEA3E0FFAD07AC06124D7722902D
:104AB00000BAEEF0A3EFF07B027A4479129000BACC
:104AC000E0FEA3E0FFAD07AC06124D7722124DF3D6
:104AD0009000C0EFF09000C0E0FF7E00EF2480FF68
:104AE0009000BFEFF09000BFE0FF22124C267F80C5
:104AF000124D36900157E0FFEF7009124E8390017E
:104B0000577401F0124A51229000A5EFF0906568A9
:104B1000E0FFEF30E2F79000A5E0FF906548EFF08E
:104B200022EF54016004D2AF8002C2AFEF5402FF03
:104B30009044F4E054FD4FF022904585E0FFEF549F
:104B400004FF7E00EF7802CEC313CE13D8F9FF2204
:104B50009043A2E0FFEF4402FFEFF09043B2E0FF8A
:104B6000EF4402FFEFF02290008BEFF090008BE01B
:104B7000FFEFC43354E0FF904485EFF0229000BA79
:104B8000EFF09000BAE0FFEFC43354E0FF904489A7
:104B9000EFF022900001E0FFEF70091246A69000AE
:104BA000017401F012474B229044F4E0F84402F003
:104BB000E85402FF10AF012274014FFF2290FFFF63
:104BC0001233BAEFF09046EA7401F090000112330C
:104BD000BA22900150E0FFEF70091246E5900150B3
:104BE0007401F01247C722900156E0FFEF700912DE
:104BF00048E19001567401F0124DAB22900151E052
:104C0000FFEF700912461D9001517401F01247899F
:104C10002290656AE0FFEF30E30B7B027A65795AF8
:104C2000124D6880EC22900158E0FFEF70091242AB
:104C30006B9001587401F0124DE722124E357E45FB
:104C40007F79124A917F02124B67124E2E22124E2A
:104C5000437E497FB3124AAF7F01124B7D124E3C17
:104C600022124E4A7E337FDE124A727F01123136A3
:104C700080F9229000C6EFF09000C6E0FF9000C6D9
:104C8000EFF080FE22906566E0FFEF30E50790656B
:104C900058E0FF80F022906568E0FF9000A5EFF0FB
:104CA0009000A5E0FF22906566E0FF9000A0EFF085
:104CB0009000A0E0FF22906558E0FF9000A0EFF088
:104CC0009000A0E0FF229000A1EFF09000A1E0FF93
:104CD000906506EFF0229000A1EFF09000A1E0FFB8
:104CE000906546EFF0229000A1EFF09000A1E0FF68
:104CF000906526EFF02290646FE0FF9000BFEFF028
:104D00009000BFE0FF2290656AE0FF90008BEFF01B
:104D100090008BE0FF2290008CEFF090008CE0FF81
:104D200090648EEFF02290008DEFF090008DE0FF08
:104D300090648DEFF02290008DEFF090008DE0FFF9
:104D400090640AEFF02290008DEFF090008DE0FF6C
:104D500090642AEFF02290008DEFF090008DE0FF3C
:104D600090643AEFF0228B938A838982E0FFA3E07C
:104D7000FE759300228B938A838982EDF0A3ECF079
:104D8000759300222A2A2A23002A0023002A2A2A8D
:104D90003F00124E75EF30E605124E7B80F42290F4
:104DA00046F6E0FFEF4401FFEFF022906476E0FF6B
:104DB000EF4480FFEFF022906476E0FFEF547FFF36
:104DC000EFF022410E3ED711824C614460418E8B40
:104DD000938A838982E0759300FF228B938A83896B
:104DE00082EDF07593002290647EE0FFEF4480FF37
:104DF000EFF02290640AE0FF90644AE0FF227B0219
:104E00007A407980124D6822904082E0FFEF54078B
:104E1000FF229044C07408F0229044C87408F02225
:104E20009044C07410F0229044C87410F022904452
:104E3000C07420F0229044C87420F0229044C174C1
:104E400002F0229044C97402F0229044D97402F016
:104E5000227F01122FFD227F02122FFD227F0312DB
:104E60002FFD227F04122FFD227F05122FFD22909D
:104E7000646CE0FF2290646DE0FF2290644AE0FFE2
:104E8000222222223232200000000F000000000007
:104E90000004000000080000000000000000000303
:104EA00000002001000006000000000000E00000FB
:104EB00000000000CC00FF3F0000000000000000E8
:104EC0000200000000009A000100000000011B0425
:104ED00080002000C0009B00000304001A009B001B
:104EE00000002400C8009B00000002006400E400F1
:104EF00010000000010000011E040102E00000009B
:104F00008800000010040000000000000000000005
:104F10000000000000000000800000000000040409
:104F200000044140000100000000000000000000FB
:104F30000000000000000000000000000000000071
:104F400000000000000001030E10E780180C1E0492
:104F500001002343DC3CDD002233004CD033C64F3C
:104F6000393000800000000000009008000050026E
:104F70000020007D3F00E03F1FC0104000000008FF
:104F80000A02000000100000000000000000000005
:104F9000000000000000000000001A0004000404EB
:104FA00000040000000100000000000000000000FC
:104FB00000000000000000000000000000000000F1
:104FC000000000000000000400004762381D494650
:104FD000360000468000240F1220384207040000EB
:104FE00040105B422400004200046D01125A6D041F
:104FF00012420000000000003F18C06500070000DA
:1050000000200000000056010300020E0C0005FF06
:10501000FFFF62A0F0410C00000000000213040436
:105020000404100000010000000000004002001015
:1050300030100010101200000000000000000000FE
:10504000000000000000000100003000C900000066
:105050000F0000000000FD000200730000000000CF
:1050600000009E00600000000000000000009400AE
:105070006000CF003003FF020000000100000000CC
:10508000000000000110000000000000000000000F
:105090000000000000000000000000000800040400
:1050A00000042020000100000000000000000000BB
:1050B00000000000000000000000000000000000F0
:1050C0000000000000000000000000030000001DC0
:1050D000000002040008000000100000001C000096
:1050E0000000000303000000002000100000000486
:1050F0000008001C00000102003C00010200002228
:1051000000000000401062030000004EC3021FFFB9
:10511000FFFF00A0000118000000000000000404D0
:105120000400330300014000800040408000400044
:10513000800040208000000000000000000000000F
:1051400000000000000000090810002000400000DE
:10515000001000200040051C00020010000C000C94
:105160000811008007030060000000140100002007
:10517000004000200040020001600480081F000081
:1051800000000000541000000000000000000000BB
:1051900000000000000000000000000008000404FF
:1051A00000040220000100000000000000000000D8
:1051B00000000000000000000000000000000000EF
:1051C00000000000000000000000000000002308B4
:1051D0000C00090020000058000200322E4400326A
:1051E000000C100000000000000003002401230058
:1051F000046E000000012030104C0F01100E000260
:105200002088000041113102000000EC000B13FF68
:10521000FFFF0000F0440C00000001000400040443
:10522000040400000001000000000000C0000000B5
:10523000400200000000000000000000000000002C
:105240000000000000000000000C02080004000044
:10525000000000020000000000000000000000004C
:105260000300000000030000000000000000000038
:10527000000000000000020100020108000400001C
:1052800000000000015400000000000000000000C9
:10529000000000000000000000000F0000000404F7
:1052A0000004333000050000000000000000000092
:1052B00000000000000000000000000000000000EE
:1052C000000000000000850042000203E40000002E
:1052D00000080000190087062000000000000800F8
:1052E00000000000000066068100E30000000600E8
:1052F000200000050800070008081007E40000204F
:105300000000000004000000000000000000000099
:10531000000000000000000080000F0004000404F2
:105320000004333000010000000000000000000015
:10533000000000000000000000000000000000006D
:105340000000000000000100020001000600000251
:105350000001000100020001000601000A00020134
:10536000010200000000000000000000000000003A
:1053700010000000000804000808030310040000E7
:1053800020200000000001000000001050000AFF73
:105390000FFF4020F0050800000041000400040455
:1053A00004043320000140A8402000000000000059
:1053B00000000000000000000000000000000000ED
:1053C000000000000000000000000013002C00009E
:1053D0000000000000001C65001A0002000D0649D4
:1053E00009060B0014000040000000000000080047
:1053F0001300000000001E000070010F00000200FA
:10540000002800001000300500000001020005FF28
:10541000FFFF00A00004180000004000000004048A
:105420000404111400014000C0004040C000C0004E
:10543000C000C000C000000000000000000000002C
:10544000000000000000000040000000010000001B
:105450008800101D0060F30004750000307D201DE1
:1054600000600F00F000011400213F00C002351061
:10547000CA400060CE1C0004FF03347000080080A6
:1054800000280000040000000000000000000000F0
:1054900000000000000000000000000002240404DE
:1054A00000040010000100000000000000000000E7
:1054B00000000000000000000000000000000000EC
:1054C0000000000000000060000000560909048090
:1054D00000040000000000070038000A011000016D
:1054E0000200000400000404008004840000008422
:1054F0000000008400000400087F03000080000812
:105500000000000011406304500002CEF0BD3BFFDC
:10551000FFFF2200F008040000000900000004045E
:105520000404101100010000C00040011011C0016E
:1055300000114001400100000000000000000000D8
:1055400000000000000000000000000300FC0077E5
:1055500000000000000000CC0023030000000085D4
:10556000001A00CA00150000000000000100000041
:10557000000000BF004000F002000000010F00002A
:1055800000000000440000000000000000000000D7
:1055900000000000000000000000000008000404FB
:1055A00000043020000100000000000000000000A6
:1055B00000000000000000000000000000000000EB
:1055C00000000000000000000000000000000000DB
:1055D00000000000010000000000000000000000CA
:1055E00000000000000000010000000000000000BA
:1055F00000000000000000000000000001010000A9
:10560000000000000040010210000600000000FF42
:10561000FFFF0200700C8C10000020000400040446
:1056200024040828002100000000000000004001C0
:10563000C0010000000000000000000000000000A9
:105640000000000000000000000003C31C0824C389
:10565000DB1000000002924349A0E0001C001C0087
:10566000E3006D00920000C30004B6004900B600DC
:1056700049010000003C0001003E0080FF400000A6
:105680000000000040550103100002FBE0CD3BFF8D
:10569000FFFF2300F00C8C1000000000022804041F
:1056A00024240088083100000000000000004001B0
:1056B000C001000000000000000000000000000029
:1056C00000000000000000000000000000000000DA
:1056D000000000000000000000000000003A76001A
:1056E00000000F6F0F4700000000000000000000E6
:1056F000000000000000000000000000000F00009B
:10570000780F000000001F000000000000000000F3
:1057100013000F0000001F00000000000000000048
:1057200013000F000D000000000000020000000048
:105730000000000001000000400010000000000018
:105740000000000000000000000000000000000059
:105750000000000000000000000000000000000049
:105760000000000000000000000000000000000039
:105770000000000000000000000000000000010028
:1057800000200100000000000000000000000000F8
:105790000000000000000000000000000000000009
:1057A00000000000000000000000000000001000E9
:1057B00040000002000001000000000001000100A4
:1057C00000200000000000000000000000000000B9
:1057D00000000000010004000200000000000000C2
:1057E000000000000000040001000C0000000000A8
:1057F00000000000000000000000010003000000A5
:105800000000000000000000060000000100000091
:105810000000010004000000000000000000000083
:105820000000000000000000020000000000000076
:105830000000000000000000000000000000000068
:105840000000000000000000000000000000000058
:105850000000000000000000000000000000000048
:105860000000000000000000000000000000000038
:105870000000000000000000000000000000040024
:105880000000000000000000000000000000000018
:105890000000000000000000000000000000000008
:1058A00000000000000000000000010000000000F7
:1058B00000000000000001000000000000000000E7
:1058C00000200000000000000000000000000000B8
:1058D00000000000000000000000000000000000C8
:1058E00000000000000002000000000000000000B6
:1058F00000000000000000000000000002000000A6
:105900000000000000000000000000000000000097
:105910000000000000000000000000000000000087
:105920000000000000000000000000000000000077
:105930000000010000000000000000000000000066
:105940000020000000000000000000000000000037
:105950000000000000000000000000000000000047
:105960000000000000000000000000000000000037
:105970000000000000000000000000000000000027
:10598000000000000000000000000800000000000F
:105990000000000000000000000000000000000007
:1059A00000000000000000000000000000000000F7
:1059B00000000000002000000000000000000000C7
:1059C00000000000000000000000000000000000D7
:1059D00000000000000000000000000000000000C7
:1059E00000000000000000000000000000000000B7
:1059F00000000000000000000000000000000000A7
:105A0000000000000000000000000800000000008E
:105A10000000000000000000000000000000000086
:105A20000000000000000000000000000000000076
:105A30000000000000000000000000000000000066
:105A40000000000000000000000000000000000056
:105A5000000100000000000000000028000000001D
:105A60000000000000000000000000000000000036
:105A70000000000000000000000000000000000026
:105A80000000000000000000000000000000000016
:105A9000000000000A0000000000000000000000FC
:105AA00000000000000000000000000000000020D6
:105AB00000000008000100000000000000000000DD
:105AC00000000000000000000000000000000000D6
:105AD00000000000000000000000000000000000C6
