:10000000023881008F828E83E0540100000070F876
:100010002278FFE4F6D8FD02394C9000941233BEEA
:1000200012464B1247F39000941233B51231C8FFB9
:10003000EF1233C700C303010806012C0902650A49
:1000400003040B03870C040A10042611043F1C044C
:10005000F640050F45060D4607324707534807741B
:100060005008EF510074F1008DF200E7FC1101FF20
:10007000000011811242BF7BFF7A3A79C81244A96D
:10008000124DE6EF30E10302118180F4221242BFEB
:10009000905015E0FFEF4401FFEFF07F647E001207
:1000A0004934905014E0FFEF4401FFEFF07BFF7AFA
:1000B0003A79CE1244A9124DE6EF30E103021181E4
:1000C00080F4221242BF905012E0FFEF4401FFEF94
:1000D000F07BFF7A3A79D41244A9124DE6EF30E171
:1000E0000302118180F422905011E0FFEF4401FFE0
:1000F000EFF07BFF7A3A79DA1244A9124DE6EF303D
:10010000E10302118180F4221242BF905013E0FFFC
:10011000EF4401FFEFF07BFF7A3A79E01244A91235
:100120004DE6EF30E10302118180F42290501CE093
:10013000FFEF4401FFEFF090501DE0FFEF4401FF9F
:10014000EFF09000EDE0FEA3E0FFE4FCFD12418E35
:10015000900095E475F0011231F39000941233B5DC
:100160001231C8FF7E00121DDC90010AE0FF9000F2
:10017000D2EFF09000EDE0FEA3E0FFE4FCFD1241C1
:100180008E900095E475F0011231F39000941233D3
:10019000B51231C8FF7E0012265490010BE0FF908B
:1001A00000D4EFF09000FBE0FF9000D6EFF090015C
:1001B00002E0FF9000D8EFF09000EBE0FF9000DA53
:1001C000EFF09000F3E0FF9000DCEFF09000F8E03B
:1001D000FF9000DEEFF0900106E0FF9000E0EFF00E
:1001E0009000D0E0FEA3E0FFE4FCFD12418E7BFF17
:1001F0007A3A79E61244A9124DE6EF30E1F97BFF35
:100200007A3A79E81244A9124DE6EF30E1F97BFF22
:100210007A3A79EA1244A9124DE6EF30E1F97BFF10
:100220007A3A79EA1244A9124DE6EF30E1F97BFF00
:100230007A3A79EC1244A9124DE6EF30E1F97BFFEE
:100240007A3A79E61244A9124DE6EF30E1F97BFFE4
:100250007A3A79E61244A9124DE6EF30E1F91246F6
:100260004B1247F3227BFF7A3A79C31244A9124D0D
:10027000E6EF30E1F912496190502CE0FFEF54FEB7
:10028000FFEFF07F15124AA37F15124AA37F1512C4
:100290004AA3124C0DEF20E10A124C2D900098EF6A
:1002A000F080EF7F0E7E0012493490502CE0FFEF7B
:1002B0004401FFEFF07F057E00124934124C1DEF20
:1002C0007003021181124C2D900098EFF09000986D
:1002D000E0FFEFB4150C900098E0FF900097EFF06E
:1002E0008005900097E4F0900097E0FF12432412FD
:1002F0004DE6EF30E1F9124BFC900097E4F09000EE
:1003000098E4F022900095E475F0011231F39050DA
:100310001CE0FFEF4401FFEFF090501DE0FFEF44C1
:1003200001FFEFF09000EDE0FEA3E0FFE4FCFD1222
:10033000418E9000941233B51231C8FF7E00121D19
:10034000DC7BFF7A3A79EE1244A9124DE6EF30E1F8
:10035000F97BFF7A3A79EE1244A9124DE6EF30E1CB
:10036000F97BFF7A3A79EE1244A9124DE6EF30E1BB
:10037000F97BFF7A3A79F01244A9124DE6EF30E1A9
:100380000302118180F422900095E475F00112318E
:10039000F390501CE0FFEF4401FFEFF090501DE0A0
:1003A000FFEF4401FFEFF09000EDE0FEA3E0FFE47B
:1003B000FCFD12418E9000941233B51231C8FF7EBD
:1003C000001226547BFF7A3A79EE1244A9124DE6C8
:1003D000EF30E1F97BFF7A3A79EE1244A9124DE64B
:1003E000EF30E1F97BFF7A3A79EE1244A9124DE63B
:1003F000EF30E1F97BFF7A3A79F01244A9124DE629
:10040000EF30E10302118180F422124B82124D225F
:100410007BFF7A3A79C31244A9124DE6EF30E1032B
:1004200002118180F422124D2E7BFF7A3A79C31299
:1004300044A9124DE6EF30E10302118180F42290CD
:100440000095E475F0011231F39000941233B51267
:1004500031C8FFEF600E9000941233B51231C8FF1F
:10046000EFB401259000941233B51231C8FF90010A
:1004700043EFF07BFF7A3A79C31244A9124DE6EFBD
:1004800030E10302118180F4229000941233B512FE
:1004900031C8FFEFB40F167BFF7A3A79C31244A933
:1004A000124DE6EF30E10302118180F42290010049
:1004B000E4F0900100E0FFEFD3941F501990010089
:1004C000E0FF74092FF582E43401F583E4F0900134
:1004D00000E004F080DC9000FEE4F09000F9E4F02D
:1004E0007BFF7A3A79F21244A9124DE6EF30E1032C
:1004F00002118180F4221242BF7BFF7A3A79C31243
:1005000044A9124DE6EF30E10302118180F4227B11
:10051000FF7A3A79C31244A9124DE6EF30E1F9901F
:1005200000F0E4F0905015E0FFEF30E4109000F0A0
:10053000E0FFEF4401FF9000F0EFF0800E9000F03C
:10054000E0FFEF54FEFF9000F0EFF0905014E0FF5A
:10055000EF30E4109000F0E0FFEF4402FF9000F075
:10056000EFF0800E9000F0E0FFEF54FDFF9000F000
:10057000EFF0905012E0FFEF30E4109000F0E0FF59
:10058000EF4404FF9000F0EFF0800E9000F0E0FFE9
:10059000EF54FBFF9000F0EFF0905013E0FFEF30CE
:1005A000E4109000F0E0FFEF4408FF9000F0EFF05F
:1005B000800E9000F0E0FFEF54F7FF9000F0EFF0B6
:1005C000905011E0FFEF30E4109000F0E0FFEF44B6
:1005D00010FF9000F0EFF0800E9000F0E0FFEF547D
:1005E000EFFF9000F0EFF09000F0E0FFEF541FFFFE
:1005F0009000F0EFF01247F39000F0E0FF12432478
:10060000124DE6EF30E10302118180F4227BFF7A84
:100610003A79C31244A9124DE6EF30E1F99000F0A7
:10062000E4F0905016E0FFEF30E4109000F0E0FFAF
:10063000EF4401FF9000F0EFF0800E9000F0E0FF3B
:10064000EF54FEFF9000F0EFF0905017E0FFEF3016
:10065000E4109000F0E0FFEF4402FF9000F0EFF0B4
:10066000800E9000F0E0FFEF54FDFF9000F0EFF0FF
:10067000905064E0FFEF30E4109000F0E0FFEF44B2
:1006800004FF9000F0EFF0800E9000F0E0FFEF54D8
:10069000FBFF9000F0EFF0905065E0FFEF30E410CA
:1006A0009000F0E0FFEF4408FF9000F0EFF0800EC4
:1006B0009000F0E0FFEF54F7FF9000F0EFF0905063
:1006C00034E0FFEF30E4109000F0E0FFEF4410FF63
:1006D0009000F0EFF0800E9000F0E0FFEF54EFFF9D
:1006E0009000F0EFF0905033E0FFEF30E410900016
:1006F000F0E0FFEF4420FF9000F0EFF0800E90005C
:10070000F0E0FFEF54DFFF9000F0EFF09000F0E03A
:10071000FFEF543FFF9000F0EFF01247F39000F02E
:10072000E0FF124324124DE6EF30E1030211818015
:10073000F422905033E0FFEF4401FFEFF07BFF7AAB
:100740003A79F71244A9124DE6EF30E10302118124
:1007500080F422905033E0FFEF54FEFFEFF07BFF78
:100760007A3A79FD1244A9124DE6EF30E103021105
:100770008180F422900095E475F0011231F390002D
:10078000941233B51231C8FFEF640170251247BBD4
:100790007D017F9B7E00123411124B2E7BFF7A3A33
:1007A00079C31244A9124DE6EF30E10302118180B2
:1007B000F4229000941233B51231C8FFEF64027036
:1007C000251247BB7D017F4D7E00123411124B2E46
:1007D0007BFF7A3A79C31244A9124DE6EF30E10368
:1007E00002118180F4229000941233B51231C8FFB7
:1007F000EF640370251247BB7D017F257E00123414
:1008000011124B2E7BFF7A3A79C31244A9124DE69E
:10081000EF30E10302118180F4229000941233B58D
:100820001231C8FFEF640470251247BB7D017F19A8
:100830007E00123411124B2E7BFF7A3A79C3124498
:10084000A9124DE6EF30E10302118180F4229000FD
:10085000941233B51231C8FFEF640570251247BBFF
:100860007D017F0C7E00123411124B2E7BFF7A3AF1
:1008700079C31244A9124DE6EF30E10302118180E1
:10088000F4229000941233B51231C8FFEFB40F1662
:100890007BFF7A3A79C31244A9124DE6EF30E103A7
:1008A00002118180F422900100E4F0900100E0FF49
:1008B000EFD3941F5019900100E0FF74092FF582C7
:1008C000E43401F583E4F0900100E004F080DC9072
:1008D00000FEE4F09000F9E4F07BFF7A3A79F2123E
:1008E00044A9124DE6EF30E10302118180F4229019
:1008F0000095E475F0011231F39000941233B512B3
:1009000031C8FF9000FFEFF0905033E0FFEF54103C
:10091000FF7E00EF4E60030210AD9000941233B5DD
:100920001231C8FFEF1233C709740009C1010A0E62
:10093000020A5B030AA8040AF5050B42060B8F079F
:100940000BDC080C29090C760A0CC30B0D100C0DDE
:100950005D0D0DAA0E0DF70F0E44100E91110EDE57
:10096000120F2B130F78140FC515101216105F17E6
:1009700000001181905016E0FFEF54FEFFEFF09061
:100980005017E0FFEF54FEFFEFF0905064E0FFEFF0
:1009900054FEFFEFF0905065E0FFEF54FEFFEFF0E4
:1009A000905034E0FFEF54FEFFEFF07BFF7A3B798D
:1009B000031244A9124DE6EF30E10302118180F4E5
:1009C00022905016E0FFEF4401FFEFF0905017E047
:1009D000FFEF54FEFFEFF0905064E0FFEF54FEFF96
:1009E000EFF0905065E0FFEF54FEFFEFF0905034D1
:1009F000E0FFEF54FEFFEFF07BFF7A3B79091244F2
:100A0000A9124DE6EF30E10302118180F4229050EB
:100A100016E0FFEF54FEFFEFF0905017E0FFEF44B9
:100A200001FFEFF0905064E0FFEF54FEFFEFF09015
:100A30005065E0FFEF54FEFFEFF0905034E0FFEF21
:100A400054FEFFEFF07BFF7A3B790F1244A9124D61
:100A5000E6EF30E10302118180F422905016E0FFAE
:100A6000EF4401FFEFF0905017E0FFEF4401FFEF7C
:100A7000F0905064E0FFEF54FEFFEFF0905065E01F
:100A8000FFEF54FEFFEFF0905034E0FFEF54FEFF15
:100A9000EFF07BFF7A3B79151244A9124DE6EF3057
:100AA000E10302118180F422905016E0FFEF54FE22
:100AB000FFEFF0905017E0FFEF54FEFFEFF0905083
:100AC00064E0FFEF4401FFEFF0905065E0FFEF546A
:100AD000FEFFEFF0905034E0FFEF54FEFFEFF07BAD
:100AE000FF7A3B791B1244A9124DE6EF30E1030275
:100AF000118180F422905016E0FFEF4401FFEFF0E7
:100B0000905017E0FFEF54FEFFEFF0905064E0FFCD
:100B1000EF4401FFEFF0905065E0FFEF54FEFFEF70
:100B2000F0905034E0FFEF54FEFFEFF07BFF7A3B94
:100B300079211244A9124DE6EF30E10302118180C0
:100B4000F422905016E0FFEF54FEFFEFF0905017A4
:100B5000E0FFEF4401FFEFF0905064E0FFEF44014D
:100B6000FFEFF0905065E0FFEF54FEFFEFF0905084
:100B700034E0FFEF54FEFFEFF07BFF7A3B79271262
:100B800044A9124DE6EF30E10302118180F4229076
:100B90005016E0FFEF4401FFEFF0905017E0FFEF39
:100BA0004401FFEFF0905064E0FFEF4401FFEFF0ED
:100BB000905065E0FFEF54FEFFEFF0905034E0FFFF
:100BC000EF54FEFFEFF07BFF7A3B792D1244A91220
:100BD0004DE6EF30E10302118180F422905016E0DF
:100BE000FFEF54FEFFEFF0905017E0FFEF54FEFFD1
:100BF000EFF0905064E0FFEF54FEFFEFF09050658F
:100C0000E0FFEF4401FFEFF0905034E0FFEF54FEBF
:100C1000FFEFF07BFF7A3B79331244A9124DE6EFE8
:100C200030E10302118180F422905016E0FFEF447E
:100C300001FFEFF0905017E0FFEF54FEFFEFF09050
:100C40005064E0FFEF54FEFFEFF0905065E0FFEFDF
:100C50004401FFEFF0905034E0FFEF54FEFFEFF05F
:100C60007BFF7A3B79391244A9124DE6EF30E1035C
:100C700002118180F422905016E0FFEF54FEFFEF46
:100C8000F0905017E0FFEF4401FFEFF0905064E068
:100C9000FFEF54FEFFEFF0905065E0FFEF4401FFDF
:100CA000EFF0905034E0FFEF54FEFFEFF07BFF7A5F
:100CB0003B793F1244A9124DE6EF30E10302118166
:100CC00080F422905016E0FFEF4401FFEFF09050C7
:100CD00017E0FFEF4401FFEFF0905064E0FFEF54A6
:100CE000FEFFEFF0905065E0FFEF4401FFEFF09062
:100CF0005034E0FFEF54FEFFEFF07BFF7A3B794585
:100D00001244A9124DE6EF30E10302118180F42272
:100D1000905016E0FFEF54FEFFEFF0905017E0FF09
:100D2000EF54FEFFEFF0905064E0FFEF4401FFEF5F
:100D3000F0905065E0FFEF4401FFEFF0905034E099
:100D4000FFEF54FEFFEFF07BFF7A3B794B1244A993
:100D5000124DE6EF30E10302118180F4229050162B
:100D6000E0FFEF4401FFEFF0905017E0FFEF54FE7B
:100D7000FFEFF0905064E0FFEF4401FFEFF0905080
:100D800065E0FFEF4401FFEFF0905034E0FFEF54D7
:100D9000FEFFEFF07BFF7A3B79511244A9124DE63A
:100DA000EF30E10302118180F422905016E0FFEF52
:100DB00054FEFFEFF0905017E0FFEF4401FFEFF01B
:100DC000905064E0FFEF4401FFEFF0905065E0FFCA
:100DD000EF4401FFEFF0905034E0FFEF54FEFFEFDF
:100DE000F07BFF7A3B79571244A9124DE6EF30E1D0
:100DF0000302118180F422905016E0FFEF4401FFBE
:100E0000EFF0905017E0FFEF4401FFEFF0905064D7
:100E1000E0FFEF4401FFEFF0905065E0FFEF440189
:100E2000FFEFF0905034E0FFEF54FEFFEFF07BFF58
:100E30007A3B795D1244A9124DE6EF30E1030211CD
:100E40008180F422905016E0FFEF54FEFFEFF09007
:100E50005017E0FFEF54FEFFEFF0905064E0FFEF1B
:100E600054FEFFEFF0905065E0FFEF54FEFFEFF00F
:100E7000905034E0FFEF4401FFEFF07BFF7A3B79C5
:100E8000631244A9124DE6EF30E10302118180F4B0
:100E900022905016E0FFEF4401FFEFF0905017E072
:100EA000FFEF54FEFFEFF0905064E0FFEF54FEFFC1
:100EB000EFF0905065E0FFEF54FEFFEFF0905034FC
:100EC000E0FFEF4401FFEFF07BFF7A3B79691244CA
:100ED000A9124DE6EF30E10302118180F422905017
:100EE00016E0FFEF54FEFFEFF0905017E0FFEF44E5
:100EF00001FFEFF0905064E0FFEF54FEFFEFF09041
:100F00005065E0FFEF54FEFFEFF0905034E0FFEF4C
:100F10004401FFEFF07BFF7A3B796F1244A9124D39
:100F2000E6EF30E10302118180F422905016E0FFD9
:100F3000EF4401FFEFF0905017E0FFEF4401FFEFA7
:100F4000F0905064E0FFEF54FEFFEFF0905065E04A
:100F5000FFEF54FEFFEFF0905034E0FFEF4401FF4D
:100F6000EFF07BFF7A3B79751244A9124DE6EF3022
:100F7000E10302118180F422905016E0FFEF54FE4D
:100F8000FFEFF0905017E0FFEF54FEFFEFF09050AE
:100F900064E0FFEF4401FFEFF0905065E0FFEF5495
:100FA000FEFFEFF0905034E0FFEF4401FFEFF07BE5
:100FB000FF7A3B797B1244A9124DE6EF30E1030240
:100FC000118180F422905016E0FFEF4401FFEFF012
:100FD000905017E0FFEF54FEFFEFF0905064E0FFF9
:100FE000EF4401FFEFF0905065E0FFEF54FEFFEF9C
:100FF000F0905034E0FFEF4401FFEFF07BFF7A3BCD
:1010000079811244A9124DE6EF30E103021181808B
:10101000F422905016E0FFEF54FEFFEFF0905017CF
:10102000E0FFEF4401FFEFF0905064E0FFEF440178
:10103000FFEFF0905065E0FFEF54FEFFEFF09050AF
:1010400034E0FFEF4401FFEFF07BFF7A3B7987123A
:1010500044A9124DE6EF30E10302118180F42290A1
:101060005016E0FFEF4401FFEFF0905017E0FFEF64
:101070004401FFEFF0905064E0FFEF4401FFEFF018
:10108000905065E0FFEF54FEFFEFF0905034E0FF2A
:10109000EF4401FFEFF07BFF7A3B798D1244A912F8
:1010A0004DE6EF30E10302118180F422229001002D
:1010B000E4F0900100E0FFEFD3941F50199001007D
:1010C000E0FF74092FF582E43401F583E4F0900128
:1010D00000E004F080DC7F017E007D007C00124196
:1010E0008E9000FEE4F09000F9E4F07BFF7A3B790B
:1010F000931244A9124DE6EF30E10302118180F40E
:1011000022900095E475F0011231F39000941233AF
:10111000B51231C8FFEFB4FF04124D1622900094AF
:101120001233B51231C8FFEFB40F137BFF7A3A794F
:10113000C31244A9124DE6EF20E14680F722900148
:1011400000E4F0900100E0FFEFD3941F50199001EC
:1011500000E0FF74092FF582E43401F583E4F09098
:101160000100E004F080DC9000FEE4F09000F9E47F
:10117000F07BFF7A3A79F21244A9124DE6EF30E1A2
:10118000F9229000A9E4F09000AAE4F09000ABE40A
:10119000F09000AFE4F07F01123169123F909000AF
:1011A000A8EFF09000A9E0FFEF6003021CD39000CD
:1011B000A8E0FFEF64FF7045900100E4F09000A804
:1011C000E0FF900100E0FE74092EF582E43401F5A1
:1011D00083EFF0900100E004F09000A97401F0901A
:1011E00000AE7402F07BFF7A4C79FB1244A9124DD9
:1011F000E6EF30E103021D5780F4021D579000A86E
:10120000E0FFEF70101247F39000AAE4F09000A9FD
:10121000E4F0021D579000A8E0FFEF640170617BCD
:10122000FF7A4D79001244A9124DE6EF30E1F97BC7
:10123000FF7A4D79001244A9124DE6EF30E1F97BB7
:10124000FF7A4D79001244A9124DE6EF30E1F97BA7
:10125000FF7A4D79021244A9124DE6EF30E1F99080
:101260000129E0FF124324124DE6EF30E1F990012D
:1012700029E4F09000AAE4F09000A9E4F0021D57E0
:101280009000A8E0FFEF64F1706C900100E4F09032
:101290000100E0FFEFD394085019900100E0FF74C3
:1012A000092FF582E43401F583E4F0900100E004B5
:1012B000F080DC900100E4F09000A8E0FF900100D5
:1012C000E0FE74092EF582E43401F583EFF090011D
:1012D00000E0FF74092FF582E43401F583E0FF900C
:1012E000012BEFF07F011231429000AAE4F0900050
:1012F000A9E4F0021D579000A8E0FFEF64F2706CC3
:10130000900100E4F0900100E0FFEFD39408501941
:10131000900100E0FF74092FF582E43401F583E4C5
:10132000F0900100E004F080DC900100E4F0900017
:10133000A8E0FF900100E0FE74092EF582E434017C
:10134000F583EFF0900100E0FF74092FF582E4349B
:1013500001F583E0FF90012BEFF07F011231429005
:1013600000AAE4F09000A9E4F0021D579000A8E064
:10137000FFEF6403706C900100E4F0900100E0FF67
:10138000EFD394085019900100E0FF74092FF58203
:10139000E43401F583E4F0900100E004F080DC9097
:1013A0000100E4F09000A8E0FF900100E0FE740965
:1013B0002EF582E43401F583EFF0900100E0FF7434
:1013C000092FF582E43401F583E0FF90012BEFF063
:1013D0007F011231429000AAE4F09000A9E4F002EB
:1013E0001D579000A8E0FFEF64FC706C900100E4D2
:1013F000F0900100E0FFEFD394085019900100E055
:10140000FF74092FF582E43401F583E4F0900100C4
:10141000E004F080DC900100E4F09000A8E0FF9090
:101420000100E0FE74092EF582E43401F583EFF04B
:10143000900100E0FF74092FF582E43401F583E0A8
:10144000FF90012BEFF07F011231429000AAE4F0EF
:101450009000A9E4F0021D579000A8E0FFEF640699
:10146000706C900100E4F0900100E0FFEFD394086D
:101470005019900100E0FF74092FF582E43401F562
:1014800083E4F0900100E004F080DC900100E4F0DF
:101490009000A8E0FF900100E0FE74092EF582E4C0
:1014A0003401F583EFF0900100E0FF74092FF5821D
:1014B000E43401F583E0FF90012BEFF07F0112315E
:1014C000429000AAE4F09000A9E4F0021D579000B9
:1014D000A8E0FFEF6408702C7BFF7A4C79FB124484
:1014E000A9124DE6EF30E1F91247F37F27124324AA
:1014F000124DE6EF30E1F99000AAE4F09000A9E483
:10150000F0021D579000A8E0FFEF64D070387BFF19
:101510007A4C79FB1244A9124DE6EF30E1F91247FB
:10152000F37F03124324124DE6EF30E1F97F0112FD
:101530004324124DE6EF30E1F99000AAE4F0900068
:10154000A9E4F0021D579000A8E0FFEF6409704580
:10155000900100E4F09000A8E0FF900100E0FE742C
:10156000092EF582E43401F583EFF0900100E004E8
:10157000F09000A97402F09000AE7403F07BFF7A43
:101580004C79FB1244A9124DE6EF30E103021D57DE
:1015900080F4021D579000A8E0FFEF640A704390AA
:1015A0000100E4F09000A8E0FF900100E0FE740963
:1015B0002EF582E43401F583EFF0900100E0FF7432
:1015C000092FF582E43401F583E0FF90012BEFF061
:1015D0007F011231429000AAE4F09000A9E4F002E9
:1015E0001D579000A8E0FFEF640B7045900100E4E8
:1015F000F09000A8E0FF900100E0FE74092EF58253
:10160000E43401F583EFF0900100E004F09000A9CC
:101610007401F09000AE7402F07BFF7A4C79FB12FB
:1016200044A9124DE6EF30E103021D5780F4021D7C
:10163000579000A8E0FFEF640C7045900100E4F0C3
:101640009000A8E0FF900100E0FE74092EF582E40E
:101650003401F583EFF0900100E004F09000A974EC
:1016600001F09000AE7402F07BFF7A4C79FB1244DB
:10167000A9124DE6EF30E103021D5780F4021D5719
:101680009000A8E0FFEF6410706C900100E4F0900F
:101690000100E0FFEFD394085019900100E0FF74BF
:1016A000092FF582E43401F583E4F0900100E004B1
:1016B000F080DC900100E4F09000A8E0FF900100D1
:1016C000E0FE74092EF582E43401F583EFF0900119
:1016D00000E0FF74092FF582E43401F583E0FF9008
:1016E000012BEFF07F011231429000AAE4F090004C
:1016F000A9E4F0021D579000A8E0FFEF6411706CA0
:10170000900100E4F0900100E0FFEFD3940850193D
:10171000900100E0FF74092FF582E43401F583E4C1
:10172000F0900100E004F080DC900100E4F0900013
:10173000A8E0FF900100E0FE74092EF582E4340178
:10174000F583EFF0900100E0FF74092FF582E43497
:1017500001F583E0FF90012BEFF07F011231429001
:1017600000AAE4F09000A9E4F0021D579000A8E060
:10177000FFEF6418600302180B905101E0FF900125
:1017800007EFF0900107E0FFEFF4FF900107EFF0A3
:10179000900107E0FFEF5488FF900107EFF0900100
:1017A00007E0FFEF131313541FFF900107EFF07BC7
:1017B000FF7A4D79001244A9124DE6EF30E1F97B32
:1017C000FF7A4D79001244A9124DE6EF30E1F97B22
:1017D000FF7A4D79001244A9124DE6EF30E1F97B12
:1017E000FF7A4D79021244A9124DE6EF30E1F990EB
:1017F0000107E0FF124324124DE6EF30E1F99000BB
:10180000AAE4F09000A9E4F0021D579000A8E0FFC0
:10181000EF641C7045900100E4F09000A8E0FF9098
:101820000100E0FE74092EF582E43401F583EFF047
:10183000900100E004F09000A97401F09000AE74F3
:1018400002F07BFF7A4C79FB1244A9124DE6EF308F
:10185000E103021D5780F4021D579000A8E0FFEF3E
:101860006440706C900100E4F0900100E0FFEFD361
:1018700094085019900100E0FF74092FF582E434B8
:1018800001F583E4F0900100E004F080DC900100B9
:10189000E4F09000A8E0FF900100E0FE74092EF54E
:1018A00082E43401F583EFF0900100E0FF74092F2A
:1018B000F582E43401F583E0FF90012BEFF07F0126
:1018C0001231429000AAE4F09000A9E4F0021D5702
:1018D0009000A8E0FFEF6445706C900100E4F09088
:1018E0000100E0FFEFD394085019900100E0FF746D
:1018F000092FF582E43401F583E4F0900100E0045F
:10190000F080DC900100E4F09000A8E0FF9001007E
:10191000E0FE74092EF582E43401F583EFF09001C6
:1019200000E0FF74092FF582E43401F583E0FF90B5
:10193000012BEFF07F011231429000AAE4F09000F9
:10194000A9E4F0021D579000A8E0FFEF6446706C18
:10195000900100E4F0900100E0FFEFD394085019EB
:10196000900100E0FF74092FF582E43401F583E46F
:10197000F0900100E004F080DC900100E4F09000C1
:10198000A8E0FF900100E0FE74092EF582E4340126
:10199000F583EFF0900100E0FF74092FF582E43445
:1019A00001F583E0FF90012BEFF07F0112314290AF
:1019B00000AAE4F09000A9E4F0021D579000A8E00E
:1019C000FFEF6447706C900100E4F0900100E0FFCD
:1019D000EFD394085019900100E0FF74092FF582AD
:1019E000E43401F583E4F0900100E004F080DC9041
:1019F0000100E4F09000A8E0FF900100E0FE74090F
:101A00002EF582E43401F583EFF0900100E0FF74DD
:101A1000092FF582E43401F583E0FF90012BEFF00C
:101A20007F011231429000AAE4F09000A9E4F00294
:101A30001D579000A8E0FFEF6448706C900100E42F
:101A4000F0900100E0FFEFD394085019900100E0FE
:101A5000FF74092FF582E43401F583E4F09001006E
:101A6000E004F080DC900100E4F09000A8E0FF903A
:101A70000100E0FE74092EF582E43401F583EFF0F5
:101A8000900100E0FF74092FF582E43401F583E052
:101A9000FF90012BEFF07F011231429000AAE4F099
:101AA0009000A9E4F0021D579000A8E0FFEF6450F9
:101AB0007045900100E4F09000A8E0FF900100E084
:101AC000FE74092EF582E43401F583EFF0900100F5
:101AD000E004F09000A97401F09000AE7402F07B75
:101AE000FF7A4C79FB1244A9124DE6EF30E1030274
:101AF0001D5780F4021D579000A8E0FFEF6451705D
:101B000049900100E4F09000A8E0FF900100E0FEA1
:101B100074092EF582E43401F583EFF0900100E0C2
:101B200004F09000A97401F09000AE7402F0124627
:101B30004B1247F37BFF7A4C79FB1244A9124DE616
:101B4000EF30E1F91247F3021D579000A8E0FFEFD4
:101B50006455702F7BFF7A4C79FB1244A9124DE635
:101B6000EF30E1F91247F39000A8E0FF124324128E
:101B70004DE6EF30E1F99000AAE4F09000A9E4F01E
:101B8000021D579000A8E0FFEFB40D289000AAE4D2
:101B9000F09000A9E4F09001057401F07BFF7A4C0D
:101BA00079FB1244A9124DE6EF30E1F97F011231C1
:101BB00042021D579000A8E0FFEF64DE706E9001B6
:101BC00000E4F0900100E0FFEFD394085019900179
:101BD00000E0FF74092FF582E43401F583E4F0900E
:101BE0000100E004F080DC900100E4F09000A8E047
:101BF000FF900100E0FE74092EF582E43401F583C4
:101C0000EFF0900100E004F09000A97402F0900061
:101C1000AE7403F07BFF7A4C79FB1244A9124DE6B7
:101C2000EF30E103021D5780F4021D579000A8E039
:101C3000FFEF64DD70527BFF7A4C79FB1244A912EE
:101C40004DE6EF30E1F99000D0E0FEA3E0FFEEFFBB
:101C50007E00900108EFF01247F3900108E0FF12B8
:101C60004324124DE6EF30E1F99000D0E0FEA3E00E
:101C7000FF124324124DE6EF30E1F99000AAE4F0A0
:101C80009000A9E4F0021D57900100E4F0900100DB
:101C9000E0FFEFD3941F5019900100E0FF74092F6B
:101CA000F582E43401F583E4F0900100E004F08073
:101CB000DC9000A9E4F09000AAE4F07BFF7A4D7973
:101CC000041244A9124DE6EF30E103021D5780F4DF
:101CD000021D579000A9E0FFEF607C9000A8E0FF94
:101CE000900100E0FE74092EF582E43401F583EFE3
:101CF000F0900100E004F09000A9E014F09000A939
:101D0000E0FFEF704D9000AA7401F0900109E0FF30
:101D1000EFB4DE439000D0E4F0A3E4F090010AE0D9
:101D2000FF7E009000D0EE8FF01231F39000D0E0F3
:101D3000FEA3E0FFEF7F00FE9000D0EEF0A3EFF0F7
:101D400090010BE0FF7E009000D0EE8FF01231F397
:101D500080059000AAE4F09000AAE0FFEF64016023
:101D600003021196900100E014FFF09000ABEFF039
:101D70009000AEE0FFEF14FF9000ACEFF09000AEEB
:101D8000E0FF9000ADEFF09000ADE0FFEFD39400E6
:101D900040369000ABE0FF74092FF582E43401F582
:101DA00083E0FF9000ACE0FE742B2EF582E434015A
:101DB000F583EFF09000ABE014F09000ACE014F08D
:101DC0009000ADE014F080BF9000AAE4F07F011213
:101DD0003142900100E004F0021196229000A0EE42
:101DE000F0A3EFF09000A2E4F0A3E4F09000A0E0F4
:101DF000FEA3E0FFD3EF940FEE64809480400302D3
:101E00001F959000A0E0FEA3E0FF74017E00A807EC
:101E1000088005C333CE33CED8F9FF9000A2EEF090
:101E2000A3EFF09000A2E0FEA3E0FFEEFF7E0090A3
:101E300000A4EFF090502CE0FFEF54FEFFEFF07F96
:101E400000124AA39000A4E0FF124AA39000A2E06F
:101E5000FEA3E0FF124AA3124C0DEF30E1F97F0F11
:101E60007E0012493490502CE0FFEF4401FFEFF068
:101E70007F147E0012493490502CE0FFEF54FEFF97
:101E8000EFF07F01124AA37F00124AA37F00124A9B
:101E9000A3124C0DEF30E1F97F0F7E001249349010
:101EA000502CE0FFEF4401FFEFF07F147E00124959
:101EB0003490502CE0FFEF54FEFFEFF07F02124A07
:101EC000A37F00124AA37F00124AA3124C0DEF30E9
:101ED000E1F97F0F7E0012493490502CE0FFEF446F
:101EE00001FFEFF07F147E0012493490502CE0FF88
:101EF000EF54FEFFEFF07F03124AA37F00124AA3C4
:101F00007F00124AA3124C0DEF30E1F97F0F7E00E3
:101F100012493490502CE0FFEF4401FFEFF07F14A2
:101F20007E0012493490502CE0FFEF54FEFFEFF09A
:101F30007F08124AA37F00124AA37F11124AA312FC
:101F40004C0DEF30E1F97F0F7E0012493490502C98
:101F5000E0FFEF4401FFEFF07F147E001249349060
:101F6000502CE0FFEF54FEFFEFF07F0F124AA37FEB
:101F700000124AA37F00124AA3124C0DEF30E1F980
:101F80007F0F7E0012493490502CE0FFEF4401FF98
:101F9000EFF00226489000A0E0FEA3E0FFC3EF941C
:101FA00010EE64809480500302215F9000A0E0FE58
:101FB000A3E0FFD3EF941FEE6480948040030221DE
:101FC0005F9000A074FF75F0F01231F39000A0E074
:101FD000FEA3E0FF74017E00A807088005C333CE8E
:101FE00033CED8F9FF9000A2EEF0A3EFF09000A25C
:101FF000E0FEA3E0FFEEFF7E009000A4EFF0905023
:102000002CE0FFEF54FEFFEFF07F00124AA37F00A9
:10201000124AA37F00124AA3124C0DEF30E1F97F60
:102020000F7E0012493490502CE0FFEF4401FFEF87
:10203000F07F147E0012493490502CE0FFEF54FEE4
:10204000FFEFF07F01124AA39000A4E0FF124AA321
:102050009000A2E0FEA3E0FF124AA3124C0DEF3065
:10206000E1F97F0F7E0012493490502CE0FFEF44DD
:1020700001FFEFF07F147E0012493490502CE0FFF6
:10208000EF54FEFFEFF07F02124AA37F00124AA333
:102090007F00124AA3124C0DEF30E1F97F0F7E0052
:1020A00012493490502CE0FFEF4401FFEFF07F1411
:1020B0007E0012493490502CE0FFEF54FEFFEFF009
:1020C0007F03124AA37F00124AA37F00124AA31281
:1020D0004C0DEF30E1F97F0F7E0012493490502C07
:1020E000E0FFEF4401FFEFF07F147E0012493490CF
:1020F000502CE0FFEF54FEFFEFF07F08124AA37F61
:1021000000124AA37F12124AA3124C0DEF30E1F9DC
:102110007F0F7E0012493490502CE0FFEF4401FF06
:10212000EFF07F147E0012493490502CE0FFEF5402
:10213000FEFFEFF07F0F124AA37F00124AA37F0039
:10214000124AA3124C0DEF30E1F97F0F7E001249C5
:102150003490502CE0FFEF4401FFEFF0022648904E
:1021600000A0E0FEA3E0FFC3EF9420EE6480948023
:1021700050030223299000A0E0FEA3E0FFD3EF94D8
:102180002FEE6480948040030223299000A074FF06
:1021900075F0E01231F39000A0E0FEA3E0FF7401BF
:1021A0007E00A807088005C333CE33CED8F9FF9050
:1021B00000A2EEF0A3EFF09000A2E0FEA3E0FFEE9D
:1021C000FF7E009000A4EFF090502CE0FFEF54FE53
:1021D000FFEFF07F00124AA37F00124AA37F001294
:1021E0004AA3124C0DEF30E1F97F0F7E0012493403
:1021F00090502CE0FFEF4401FFEFF07F147E0012BF
:10220000493490502CE0FFEF54FEFFEFF07F0112B5
:102210004AA37F00124AA37F00124AA3124C0DEF7B
:1022200030E1F97F0F7E0012493490502CE0FFEF2F
:102230004401FFEFF07F147E0012493490502CE0EF
:10224000FFEF54FEFFEFF07F02124AA39000A4E0DC
:10225000FF124AA39000A2E0FEA3E0FF124AA312DD
:102260004C0DEF30E1F97F0F7E0012493490502C75
:10227000E0FFEF4401FFEFF07F147E00124934903D
:10228000502CE0FFEF54FEFFEFF07F03124AA37FD4
:1022900000124AA37F00124AA3124C0DEF30E1F95D
:1022A0007F0F7E0012493490502CE0FFEF4401FF75
:1022B000EFF07F147E0012493490502CE0FFEF5471
:1022C000FEFFEFF07F08124AA37F00124AA37F149B
:1022D000124AA3124C0DEF30E1F97F0F7E00124934
:1022E0003490502CE0FFEF4401FFEFF07F147E00AC
:1022F00012493490502CE0FFEF54FEFFEFF07F0FB7
:10230000124AA37F00124AA37F00124AA3124C0D67
:10231000EF30E1F97F0F7E0012493490502CE0FF3E
:10232000EF4401FFEFF00226489000A0E0FEA3E09A
:10233000FFC3EF9430EE6480948050030224F39046
:1023400000A0E0FEA3E0FFD3EF943FEE6480948012
:1023500040030224F39000A074FF75F0D01231F313
:102360009000A0E0FEA3E0FF74017E00A8070880B3
:1023700005C333CE33CED8F9FF9000A2EEF0A3EF21
:10238000F09000A2E0FEA3E0FFEEFF7E009000A42C
:10239000EFF090502CE0FFEF54FEFFEFF07F0012C3
:1023A0004AA37F00124AA37F00124AA3124C0DEFEA
:1023B00030E1F97F0F7E0012493490502CE0FFEF9E
:1023C0004401FFEFF07F147E0012493490502CE05E
:1023D000FFEF54FEFFEFF07F01124AA37F00124A85
:1023E000A37F00124AA3124C0DEF30E1F97F0F7E5C
:1023F0000012493490502CE0FFEF4401FFEFF07FD2
:10240000147E0012493490502CE0FFEF54FEFFEF91
:10241000F07F02124AA37F00124AA37F00124AA350
:10242000124C0DEF30E1F97F0F7E001249349050CD
:102430002CE0FFEF4401FFEFF07F147E00124934DF
:1024400090502CE0FFEF54FEFFEFF07F03124AA301
:102450009000A4E0FF124AA39000A2E0FEA3E0FFD8
:10246000124AA3124C0DEF30E1F97F0F7E001249A2
:102470003490502CE0FFEF4401FFEFF07F147E001A
:1024800012493490502CE0FFEF54FEFFEFF07F082C
:10249000124AA37F00124AA37F18124AA3124C0DBE
:1024A000EF30E1F97F0F7E0012493490502CE0FFAD
:1024B000EF4401FFEFF07F147E0012493490502C5E
:1024C000E0FFEF54FEFFEFF07F0F124AA37F0012F0
:1024D0004AA37F00124AA3124C0DEF30E1F97F0F9F
:1024E0007E0012493490502CE0FFEF4401FFEFF0E2
:1024F00002264890502CE0FFEF54FEFFEFF07F00E3
:10250000124AA37F00124AA37F00124AA3124C0D65
:10251000EF30E1F97F0F7E0012493490502CE0FF3C
:10252000EF4401FFEFF07F147E0012493490502CED
:10253000E0FFEF54FEFFEFF07F01124AA37F00128D
:102540004AA37F00124AA3124C0DEF30E1F97F0F2E
:102550007E0012493490502CE0FFEF4401FFEFF071
:102560007F147E0012493490502CE0FFEF54FEFFA0
:10257000EFF07F02124AA37F00124AA37F00124AA3
:10258000A3124C0DEF30E1F97F0F7E001249349019
:10259000502CE0FFEF4401FFEFF07F147E00124962
:1025A0003490502CE0FFEF54FEFFEFF07F03124A0F
:1025B000A37F00124AA37F00124AA3124C0DEF30F2
:1025C000E1F97F0F7E0012493490502CE0FFEF4478
:1025D00001FFEFF07F147E0012493490502CE0FF91
:1025E000EF54FEFFEFF07F08124AA37F00124AA3C8
:1025F0007F00124AA3124C0DEF30E1F97F0F7E00ED
:1026000012493490502CE0FFEF4401FFEFF07F14AB
:102610007E0012493490502CE0FFEF54FEFFEFF0A3
:102620007F0F124AA37F00124AA37F00124AA3120F
:102630004C0DEF30E1F97F0F7E0012493490502CA1
:10264000E0FFEF4401FFEFF07F0A7E007D007C0099
:1026500012418E229000A0EEF0A3EFF09000A2E4D1
:10266000F0A3E4F09000A0E0FEA3E0FFD3EF940F0E
:10267000EE64809480400302280D9000A0E0FEA349
:10268000E0FF74017E00A807088005C333CE33CE77
:10269000D8F9FF9000A2EEF0A3EFF09000A2E0FEC8
:1026A000A3E0FFEEFF7E009000A4EFF090502CE03E
:1026B000FFEF54FEFFEFF07F04124AA39000A4E066
:1026C000FF124AA39000A2E0FEA3E0FF124AA31269
:1026D0004C0DEF30E1F97F0F7E0012493490502C01
:1026E000E0FFEF4401FFEFF07F147E0012493490C9
:1026F000502CE0FFEF54FEFFEFF07F05124AA37F5E
:1027000000124AA37F00124AA3124C0DEF30E1F9E8
:102710007F0F7E0012493490502CE0FFEF4401FF00
:10272000EFF07F147E0012493490502CE0FFEF54FC
:10273000FEFFEFF07F06124AA37F00124AA37F003C
:10274000124AA3124C0DEF30E1F97F0F7E001249BF
:102750003490502CE0FFEF4401FFEFF07F147E0037
:1027600012493490502CE0FFEF54FEFFEFF07F074A
:10277000124AA37F00124AA37F00124AA3124C0DF3
:10278000EF30E1F97F0F7E0012493490502CE0FFCA
:10279000EF4401FFEFF07F147E0012493490502C7B
:1027A000E0FFEF54FEFFEFF07F09124AA37F001213
:1027B0004AA37F11124AA3124C0DEF30E1F97F0FAB
:1027C0007E0012493490502CE0FFEF4401FFEFF0FF
:1027D0007F147E0012493490502CE0FFEF54FEFF2E
:1027E000EFF07F0F124AA37F00124AA37F00124A24
:1027F000A3124C0DEF30E1F97F0F7E0012493490A7
:10280000502CE0FFEF4401FFEFF0022EC09000A03B
:10281000E0FEA3E0FFC3EF9410EE648094805003C9
:102820000229D79000A0E0FEA3E0FFD3EF941FEEB3
:102830006480948040030229D79000A074FF75F053
:10284000F01231F39000A0E0FEA3E0FF74017E00DF
:10285000A807088005C333CE33CED8F9FF9000A275
:10286000EEF0A3EFF09000A2E0FEA3E0FFEEFF7E0B
:10287000009000A4EFF090502CE0FFEF54FEFFEF2B
:10288000F07F04124AA37F00124AA37F00124AA3DA
:10289000124C0DEF30E1F97F0F7E00124934905059
:1028A0002CE0FFEF4401FFEFF07F147E001249346B
:1028B00090502CE0FFEF54FEFFEFF07F05124AA38B
:1028C0009000A4E0FF124AA39000A2E0FEA3E0FF64
:1028D000124AA3124C0DEF30E1F97F0F7E0012492E
:1028E0003490502CE0FFEF4401FFEFF07F147E00A6
:1028F00012493490502CE0FFEF54FEFFEFF07F06BA
:10290000124AA37F00124AA37F00124AA3124C0D61
:10291000EF30E1F97F0F7E0012493490502CE0FF38
:10292000EF4401FFEFF07F147E0012493490502CE9
:10293000E0FFEF54FEFFEFF07F07124AA37F001283
:102940004AA37F00124AA3124C0DEF30E1F97F0F2A
:102950007E0012493490502CE0FFEF4401FFEFF06D
:102960007F147E0012493490502CE0FFEF54FEFF9C
:10297000EFF07F09124AA37F00124AA37F12124A86
:10298000A3124C0DEF30E1F97F0F7E001249349015
:10299000502CE0FFEF4401FFEFF07F147E0012495E
:1029A0003490502CE0FFEF54FEFFEFF07F0F124AFF
:1029B000A37F00124AA37F00124AA3124C0DEF30EE
:1029C000E1F97F0F7E0012493490502CE0FFEF4474
:1029D00001FFEFF0022EC09000A0E0FEA3E0FFC3D5
:1029E000EF9420EE648094805003022BA19000A00D
:1029F000E0FEA3E0FFD3EF942FEE648094804003C9
:102A0000022BA19000A074FF75F0E01231F390004A
:102A1000A0E0FEA3E0FF74017E00A807088005C3C4
:102A200033CE33CED8F9FF9000A2EEF0A3EFF090B2
:102A300000A2E0FEA3E0FFEEFF7E009000A4EFF016
:102A400090502CE0FFEF54FEFFEFF07F04124AA3FA
:102A50007F00124AA37F00124AA3124C0DEF30E10F
:102A6000F97F0F7E0012493490502CE0FFEF4401B3
:102A7000FFEFF07F147E0012493490502CE0FFEFFE
:102A800054FEFFEFF07F05124AA37F00124AA37F96
:102A900000124AA3124C0DEF30E1F97F0F7E0012B5
:102AA000493490502CE0FFEF4401FFEFF07F147E9B
:102AB0000012493490502CE0FFEF54FEFFEFF07FFE
:102AC00006124AA39000A4E0FF124AA39000A2E0DD
:102AD000FEA3E0FF124AA3124C0DEF30E1F97F0F85
:102AE0007E0012493490502CE0FFEF4401FFEFF0DC
:102AF0007F147E0012493490502CE0FFEF54FEFF0B
:102B0000EFF07F07124AA37F00124AA37F00124A08
:102B1000A3124C0DEF30E1F97F0F7E001249349083
:102B2000502CE0FFEF4401FFEFF07F147E001249CC
:102B30003490502CE0FFEF54FEFFEFF07F09124A73
:102B4000A37F00124AA37F14124AA3124C0DEF3048
:102B5000E1F97F0F7E0012493490502CE0FFEF44E2
:102B600001FFEFF07F147E0012493490502CE0FFFB
:102B7000EF54FEFFEFF07F0F124AA37F00124AA32B
:102B80007F00124AA3124C0DEF30E1F97F0F7E0057
:102B900012493490502CE0FFEF4401FFEFF0022E79
:102BA000C09000A0E0FEA3E0FFC3EF9430EE64808D
:102BB00094805003022D6B9000A0E0FEA3E0FFD3B1
:102BC000EF943FEE648094804003022D6B9000A050
:102BD00074FF75F0D01231F39000A0E0FEA3E0FF87
:102BE00074017E00A807088005C333CE33CED8F920
:102BF000FF9000A2EEF0A3EFF09000A2E0FEA3E0B1
:102C0000FFEEFF7E009000A4EFF090502CE0FFEF6D
:102C100054FEFFEFF07F04124AA37F00124AA37F05
:102C200000124AA3124C0DEF30E1F97F0F7E001223
:102C3000493490502CE0FFEF4401FFEFF07F147E09
:102C40000012493490502CE0FFEF54FEFFEFF07F6C
:102C500005124AA37F00124AA37F00124AA3124C16
:102C60000DEF30E1F97F0F7E0012493490502CE0D7
:102C7000FFEF4401FFEFF07F147E001249349050C3
:102C80002CE0FFEF54FEFFEFF07F06124AA37F0017
:102C9000124AA37F00124AA3124C0DEF30E1F97FD4
:102CA0000F7E0012493490502CE0FFEF4401FFEFFB
:102CB000F07F147E0012493490502CE0FFEF54FE58
:102CC000FFEFF07F07124AA39000A4E0FF124AA38F
:102CD0009000A2E0FEA3E0FF124AA3124C0DEF30D9
:102CE000E1F97F0F7E0012493490502CE0FFEF4451
:102CF00001FFEFF07F147E0012493490502CE0FF6A
:102D0000EF54FEFFEFF07F09124AA37F00124AA39F
:102D10007F18124AA3124C0DEF30E1F97F0F7E00AD
:102D200012493490502CE0FFEF4401FFEFF07F1484
:102D30007E0012493490502CE0FFEF54FEFFEFF07C
:102D40007F0F124AA37F00124AA37F00124AA312E8
:102D50004C0DEF30E1F97F0F7E0012493490502C7A
:102D6000E0FFEF4401FFEFF0022EC090502CE0FF97
:102D7000EF54FEFFEFF07F04124AA37F00124AA334
:102D80007F00124AA3124C0DEF30E1F97F0F7E0055
:102D900012493490502CE0FFEF4401FFEFF07F1414
:102DA0007E0012493490502CE0FFEF54FEFFEFF00C
:102DB0007F05124AA37F00124AA37F00124AA31282
:102DC0004C0DEF30E1F97F0F7E0012493490502C0A
:102DD000E0FFEF4401FFEFF07F147E0012493490D2
:102DE000502CE0FFEF54FEFFEFF07F06124AA37F66
:102DF00000124AA37F00124AA3124C0DEF30E1F9F2
:102E00007F0F7E0012493490502CE0FFEF4401FF09
:102E1000EFF07F147E0012493490502CE0FFEF5405
:102E2000FEFFEFF07F07124AA37F00124AA37F0044
:102E3000124AA3124C0DEF30E1F97F0F7E001249C8
:102E40003490502CE0FFEF4401FFEFF07F147E0040
:102E500012493490502CE0FFEF54FEFFEFF07F0951
:102E6000124AA37F00124AA37F00124AA3124C0DFC
:102E7000EF30E1F97F0F7E0012493490502CE0FFD3
:102E8000EF4401FFEFF07F147E0012493490502C84
:102E9000E0FFEF54FEFFEFF07F0F124AA37F001216
:102EA0004AA37F00124AA3124C0DEF30E1F97F0FC5
:102EB0007E0012493490502CE0FFEF4401FFEFF008
:102EC0007F0A7E007D007C0012418E22C2AF80FE10
:102ED00032C0E0E5D0541864087003D0E032D0E08E
:102EE000122ED085D00B75D008AAE0EC2422F8E68B
:102EF000BC050274FFC39581B4140040CF790678F5
:102F00001016E608700BC2AFE630E1034418F6D2A3
:102F1000AF08D9EDEA8BD030000122D50DFCC0E01E
:102F2000C0D0C0F0C083C082C000C001C002C003D6
:102F3000C004C005C006C007E50C232411F8744086
:102F4000C2AF46F6D2AFD200E50CFF232411F80F32
:102F50000808BF06047F007811E630E4F200E50CB3
:102F6000C39F5020050C7421250CF8E6FDA68108AE
:102F7000E6AE0CBE050274FFCDF8E86D60E008E631
:102F8000C0E080F6E50CD39F4027E50C2422F8E64C
:102F9000AE0CBE050274FFFD18E6CDF8E5816D604C
:102FA00006D0E0F61880F5E50C2421C8F6150C8053
:102FB000D3750D05E50C232411F87F04C2AFE6108C
:102FC000E61E30E00310E20C7F0030E10730E3043E
:102FD0007F0854F4547CC6D2AF54804207C200220A
:102FE000F6D2AFD007D006D005D004D003D002D09F
:102FF00001D000D082D083D0F0D0D0D0E0C2002267
:103000007821A68174056006FF0876FFDFFB7F0646
:10301000E47810F608F608DFFA78117630904D3A29
:10302000740193C0E0E493C0E0750D05D2AF2205B2
:10303000EFD3940540037FFF2274112F2FF8E62071
:10304000E5F4C2AFE64430F6D2AFAE0CEEC39F500B
:10305000210E74212EF8E6F908E618BE050274FF69
:10306000FDED69600909E71919F7090980F31616DA
:1030700080DAEED39F400405810581EED39F402284
:1030800074212EF808E6F9EEB50C02A9811806069F
:10309000E6FDED6960091919E70909F71980F31EC2
:1030A00080D9EF2421F8E604F8EF2F04904D3A93ED
:1030B000F608EF2F93F67F0022EFD3940540037FAD
:1030C000FF22EF232411F8E630E5F4C2AFE6548C7A
:1030D000F6D2AFE50CB5070A74212FF8E6F58102A8
:1030E0002F46502E74222FF8E6BF050274FFFD18FC
:1030F000E6F974212FF8FBE6FCE96C6008A805E707
:10310000F61D1980F4A803A6051FE50CB507E37F9B
:10311000002274222FF8E6FD1886010F74212FF883
:10312000A601088604E50CB50702AC81ED6C6008C9
:103130000D09A805E6F780F4E50CB507DE89817F67
:103140000022EFD3940540037FFF22EF232411F8E0
:10315000C2AFE630E50530E002D2E4D2E2C6D2AF3B
:103160007F0030E2010F022F1A8FF0E4FFFEE50C22
:10317000232410F8C2A930F70D7F08E6600B2DF666
:1031800060325030800730F106EDF660277E02088D
:1031900030F010C2AFE610E7250E30E20CD2AF7F60
:1031A000048014C2AFE610E71554EC4EF6D2AFD24D
:1031B000A9022F467F0808EF4483F4C2AF56C6D257
:1031C000AFD2A954804FFF22BB010689828A83E0D7
:1031D000225002E722BBFE02E32289828A83E49323
:1031E00022BB010689828A83F0225002F722BBFEAD
:1031F00001F322C5F0F8A3E028F0C5F0F8E5821548
:103200008270021583E038F022BB010A89828A832A
:10321000E0F5F0A3E022500687F009E71922BBFE93
:1032200007E3F5F009E3192289828A83E493F5F034
:1032300074019322EF2BFFEE3AFEED39FDEC38FCE2
:1032400022E88FF0A4CC8BF0A42CFCE98EF0A42C07
:10325000FC8AF0EDA42CFCEA8EF0A4CDA8F08BF053
:10326000A42DCC3825F0FDE98FF0A42CCD35F0FC51
:10327000EB8EF0A4FEA9F0EB8FF0A4CFC5F02ECD1D
:1032800039FEE43CFCEAA42DCE35F0FDE43CFC2202
:1032900075F008758200EF2FFFEE33FECD33CDCCF5
:1032A00033CCC58233C5829BED9AEC99E582984078
:1032B0000CF582EE9BFEED9AFDEC99FC0FD5F0D655
:1032C000E4CEFBE4CDFAE4CCF9A88222B800C1B97F
:1032D0000059BA002DEC8BF084CFCECDFCE5F0CBBD
:1032E000F97818EF2FFFEE33FEED33FDEC33FCEBF6
:1032F00033FB10D703994004EB99FB0FD8E5E4F9B1
:10330000FA227818EF2FFFEE33FEED33FDEC33FC9D
:10331000C933C910D7059BE99A4007EC9BFCE99A91
:10332000F90FD8E0E4C9FAE4CCFB2275F010EF2FD6
:10333000FFEE33FEED33FDCC33CCC833C810D707D6
:103340009BEC9AE899400AED9BFDEC9AFCE899F811
:103350000FD5F0DAE4CDFBE4CCFAE4C8F922EF4B68
:10336000FFEE4AFEED49FDEC48FC22E8600FECC39D
:1033700013FCED13FDEE13FEEF13FFD8F122E8600E
:103380000FEFC333FFEE33FEED33FDEC33FCD8F12A
:1033900022E0FCA3E0FDA3E0FEA3E0FF22E0F8A30F
:1033A000E0F9A3E0FAA3E0FB22ECF0A3EDF0A3EE3A
:1033B000F0A3EFF022E0FBA3E0FAA3E0F922EBF0A8
:1033C000A3EAF0A3E9F022D083D082F8E49370124C
:1033D000740193700DA3A393F8740193F58288830D
:1033E000E4737402936860EFA3A3A380DFE50F2565
:1033F00082F582E50E3583F583B50E0485820F22B2
:1034000010AF0685820FF50E2285820FF50ED2AF22
:10341000229000A0EEF0A3EFF09000A2EDF0124D8C
:103420007F9000A4EFF0124D759000A5EEF0A3EF91
:10343000F09000A5E0FEA3E0FF9000A0E0FCA3E078
:10344000FDED6F7002EC6E70030235A59043A2E0B3
:10345000FFEF5401FF9000A3EFF09000A4E0FFEF16
:10346000705E9000A5E0FEA3E0FFEF4E600C9000C0
:10347000A0E0FEA3E0FFEF4E70469000A5E0FEA3A3
:10348000E0FFEF4E701D7B027A4079809000A0E053
:10349000FCA3E0FD124CEE904082E0FFEF54BFFF32
:1034A000EFF022904082E0FFEF4440FFEFF07B021C
:1034B0007A4079809000A0E0FCA3E0FD124CEE225F
:1034C0009000A3E0FFEF606C904001E4F0904010AA
:1034D0007401F0904014E4F0904008E0FFEF547F56
:1034E000FFEFF0904082E0FFEF5408FF7E00EF4EC8
:1034F000600C9000A0E0FEA3E0FFEF4E70367B0270
:103500007A4079029000A5E0FCA3E0FD124CEE9019
:1035100040017407F0904001E0FFEF5401FF7E008E
:10352000EF4E70F19043A2E0FFEF54FEFFEFF090FA
:103530004001E4F09043A2E0FFEF5401FF7E00EF72
:103540004E603A7B027A4079029000A0E0FCA3E052
:10355000FD124CEE9000A2E0FFEF60047F028002BB
:103560007F00EF4401FF904001EFF0904001E0FF49
:10357000EF5401FF7E00EF4E602B80EF227B027A3A
:103580004079809000A0E0FCA3E0FD124CEE904357
:10359000A2C083C082E0FF9000A3E0FEEF4EFFD008
:1035A00082D083EFF0227B007A4679E8124D46EF15
:1035B0004401FD7B007A4679E8124D521239D87BDE
:1035C000017A507903124D46EF4402FD7B017A5097
:1035D0007903124D527B017A507913124D46EF4414
:1035E00002FD7B017A507913124D529043A0E0FF07
:1035F000EF4440FF9043A0EFF09043C2E0FFEF4460
:1036000010FF9043C2EFF07C6C7D527B007A5179C1
:10361000007F0A7E001249887C6C7D5C7B007A51B9
:1036200079C27F087E001249887C6C7D647B007AB9
:103630005179F27F087E001249887C6C7D6C7B009A
:103640007A5179127F087E001249887C6C7D747BE8
:10365000007A5179227F087E001249887C6C7D7C3B
:103660007B007A5179307F0A7E001249887C6C7D1C
:10367000867B007A5179407F0A7E001249887C6CF3
:103680007D907B007A5179507F0A7E001249887CB8
:103690006C7D9A7B007A5179627F087E001249889E
:1036A0007B017A0C79DB7D44124D527B017A1A79C9
:1036B000DB7DA4124D529044F47401F0904322E05B
:1036C000FFEF4408FF904322EFF09046ECE0FFEF5D
:1036D000C394055006904689743AF090480074C02F
:1036E000F012371E9048007480F01248987B007AE0
:1036F0004379A0C003C002C0017B007A4379B09037
:1037000000C61233BED001D002D0037F0E7E00125D
:1037100048CE9043B0E0FFEF54FDFFEFF0227B0076
:103720007A4079807D007C00124CEC904082745885
:10373000F07B007A4079847D0B7C00124CEC904049
:10374000867418F07B007A4079887D647C00124C86
:10375000EC90408A7418F07B007A40798C7D2B7C49
:1037600001124CEC90408E7419F07B007A407990F5
:103770007DDB7C05124CEC9040927419F07B007A52
:103780004079947DDF7C2E124CEC9040967419F0B9
:103790009043007402F09040007408F0904200746E
:1037A00003F07B0C7A017908124D469046A1EFF0A8
:1037B0007B007A4279227D087C00124CEC7B007AF7
:1037C0004279207D517C12124CEC9000C5E4F07FD0
:1037D000197E007D007C009000C11233A99000C1C9
:1037E000123391D3EF9400EE9400404E9000C5E068
:1037F000FFEF64036044904225E0FFEF5401FF7E39
:10380000009000C5E0FEEE25E0FEEE4FFFEF540312
:10381000FF9000C5EFF07FE07E017D007C00124646
:10382000009000C11233917BFF7AFF79FF78FF127D
:1038300032349000C11233A980A39000C112339199
:10384000EF4E70057F031245EE7B007A4079047DD0
:10385000007C01124CEC9040047407F0904006E4A8
:10386000F09040087448F0904004E4F090400174F7
:1038700002F09043A2E0FFEF443FFF9043A2EFF03D
:103880002275930078007583467582E8E04401F064
:10389000009046ECE0F99046FAE0FAB90322542091
:1038A000B40012B8001AEA901FFFF07401901FFED6
:1038B000F09046F6F0901FFEE06005901FFFE0FAE2
:1038C00090480074C0F07581269076BCE4F0A3F0B7
:1038D000A3F0A3F0907010F0907019F0907020F0A9
:1038E0009076007410F0907604E4F0A3F0A3F0A3B7
:1038F000F09078007800087400F0A37408F0E8B83D
:10390000040274FFA3F0A37422F0A374BCF0A374A8
:1039100076F0A3E4F0A3E81475F008A4F0A3B804CB
:10392000D59070107401F0907014F0904880E09081
:103930004888E09044D87402F07E707F181200042A
:10394000907010F0EA90013CF0020011750E1F75A6
:103950000FFD1235A6023993023000E493A3F8E478
:1039600093A34003F68001F208DFF48029E493A3D7
:10397000F85407240CC8C333C4540F4420C88340F0
:1039800004F456800146F6DFE4800B0102040810BF
:10399000204080904387E47E019360BCA3FF543FA6
:1039A00030E509541FFEE493A360010ECF54C025F7
:1039B000E060A840B8E493A3FAE493A3F8E493A3E7
:1039C000C8C582C8CAC583CAF0A3C8C582C8CAC54B
:1039D00083CADFE9DEE780BE7F007E007D007C00D9
:1039E00090014A1233A99076007410F09070107410
:1039F00001F0907019E4F07B027A7879007D987C70
:103A000002124CEE9078027401F090780374A3F0E7
:103A10007B027A787904C003C002C0017BFF7A6917
:103A200079BAAF01AE02AD037C00EF54FFFFEE5454
:103A3000FFFEED5400FDEC5400FCAD07AC06D001D8
:103A4000D002D003124CEE7B027A7879067D087C96
:103A500078124CEE7B027A7679047D107C00124C51
:103A6000EE7B027A7679067D007C00124CEE907037
:103A7000397407F09070497411F0907059741BF00C
:103A80009070147401F0907018E0FFEF5401FF7E05
:103A900000EF4E70F1907038E0FFEF5401FF7E00B0
:103AA000EF4E70F1907048E0FFEF5401FF7E00EFA1
:103AB0004E70F1907058E0FFEF5401FF7E00EF4E22
:103AC00070F1222A2A2A23005649434831005649D8
:103AD0004348320049434D534C00464C594348003B
:103AE000464753454C0053005500430045002A000B
:103AF00023002A2A2A3F00535243454E0053524383
:103B00004453005352433045005352313045005323
:103B10005232304500535235304500533130304534
:103B20000053323030450053353030450053524356
:103B3000314B00535243324B00535243354B0053E9
:103B40005231304B00535232304B00535235304BD0
:103B500000533130304B00533230304B005335304E
:103B6000304B00535243314D0053524558310053AE
:103B70005245583200535245583300535245583439
:103B8000005352455835005352455836005352455C
:103B90005837004641494C00C0E0C083C082C08510
:103BA000C084C086758600C093759300C0D075D060
:103BB00000C006C0079000CAE4F0A2AFE433FF9053
:103BC00000CBEFF0D2AF9044F474FDF0906467E066
:103BD000FF9000C9EFF09000C9E0FFEF30E568907A
:103BE0006448E0FF900046E0FE74052EF582E43460
:103BF00000F583EFF09000CA7401F09000CAE0FF76
:103C0000EF6038900003E0FFEF600690000274015F
:103C1000F0900046E004F0900046E0FFEFC39420EF
:103C20004005900046E4F0900004E0FF900046E07C
:103C3000FEEEB507069000037401F0906467E0FFA4
:103C40009000C9EFF0808F9000CBE0FFEF24FF924F
:103C5000AFD007D006D0D0D093D086D084D085D036
:103C600082D083D0E0329000B5EFF0900047E0FFC3
:103C70009000B6EFF0900025E0FF9000B7EFF090D5
:103C800000B7E0FF9000B6E0FEEEC39F5026900024
:103C9000B7E0FF7E00EF24FFFFEE34FFFE9000B69A
:103CA000E0FD7C00EFB50508EEB504047F0180025D
:103CB0007F0080189000B7E0FF9000B6E0FEC3EEF2
:103CC0009FFFEFB41F047F0180027F00EF709C9084
:103CD00000B6E0FF9000B7E0FEEEB5071490646C0C
:103CE000E0FFEF20E20B9000B5E0FF90644CEFF0B6
:103CF000229000B6E0FFEFC3942040059000B6E4A8
:103D0000F09000B5E0FF9000B6E0FE74262EF5823C
:103D1000E43400F583EFF09000B6E004F09000B6D4
:103D2000E0FF900047EFF022C0E0C0F0C083C08207
:103D3000C085C084C086758600C093759300C0D0CE
:103D400075D000C000C001C002C003C004C005C0DF
:103D500006C0079044CB7401F0905101E0FF900140
:103D60002AEFF090012AE0FFEF6488FF90012AEF2C
:103D7000F090012AE0FFEF602190012AE0FFEF546C
:103D800077FFEF600A7F03123142124AD480149009
:103D900044C37401F0124AD48009124AD49044C337
:103DA0007401F0D007D006D005D004D003D002D0E3
:103DB00001D000D0D0D093D086D084D085D082D00E
:103DC00083D0F0D0E032900092E4F07F01123169AC
:103DD000900105E0FFEF607E900100E0FFEF14FF2F
:103DE000900092EFF0900100E0FFEF701A7BFF7AF5
:103DF0003A79C31244A9124DE6EF30E1F990010A75
:103E0000E0FF12432480477BFF7A3A79C31244A92A
:103E1000124DE6EF30E1F9900093E4F0900092E06B
:103E2000FF900093E0FEEED39F5023900093E0FFBD
:103E300074092FF582E43401F583E0FF1243241264
:103E40004DE6EF30E1F9900093E004F080CE900170
:103E500005E4F0023DCB7B017A01792B12001A02B6
:103E60003DCB22124DC17E3D7F281249F27F0112C7
:103E70003169905101E0FF90012AEFF090012AE0B2
:103E8000FFEF6488FF90012AEFF0905101E0FF906E
:103E90000142EFF0900142E0FFEF5477FF900142C2
:103EA000EFF0900142E0FFEF70E090012AE0FF9018
:103EB0000129EFF09044C37401F0900143E0FFEF5B
:103EC000701890501FE0FFEF54FEFFEFF090501F6E
:103ED000E0FFEF4401FFEFF08093900143E0FFEF3C
:103EE000B4018A90501FE0FFEF54FEFFEFF09050B6
:103EF0001FE0FFEF4401FFEFF0023E6D22C0E0C083
:103F000083C082C085C084C086758600C0937593C7
:103F100000C0D075D000C006C007A2AFE433FF9048
:103F200000CCEFF0D2AF9044F474FDF0900047E085
:103F3000FF900025E0FEEE6F603790646CE0FFEFCD
:103F400020E22E900025E0FFEFC394204005900072
:103F500025E4F0900025E0FF74262FF582E434007C
:103F6000F583E0FF90644CEFF0900025E004F080D2
:103F7000BB9000CCE0FFEF24FF92AFD007D006D07B
:103F8000D0D093D086D084D085D082D083D0E03278
:103F9000124D90900004E0FF9000B1EFF0900046C9
:103FA000E0FF9000B2EFF0900003E0FFEF700E90A2
:103FB00000B2E0FF9000B1E0FEEE6F60459000B10E
:103FC000E0FF74052FF582E43400F583E0FF9000F4
:103FD000B0EFF09000B1E004F09000B1E0FFEFC36B
:103FE000942040059000B1E4F09000B1E0FF900013
:103FF00004EFF0900003E0FFEF6011900003E4F0A5
:10400000800A906448E0FF9000B0EFF0124D899074
:1040100000B0E0FF229000A0EFF09000A1ECF0A330
:10402000EDF09000A0E0FFEFD3941F5003D3800188
:10403000C340057F00124B589000A0E0FFEF541FD3
:10404000FF7E00EF25E0FFEE33FEEF2400FFEE34AD
:1040500044FEAA06A9077B01124CDF9000A3EEF0F4
:10406000A3EFF09000A0E0FF7E02EF8EF0A4FFAE81
:10407000F0EF2400FFEE3444FEAA06A9077B01906E
:1040800000A1E0FEA3E0FFAD07AC06124CEE9000ED
:10409000A3E0FEA3E0FF227FE87E037D007C001208
:1040A000418E1249027D017F257E00123411124B90
:1040B000D6124BE9124B2E124B6D124B97124A6BD4
:1040C0007F81124782900146E4F0A3E4F01242BFE0
:1040D00012425A905016E0FFEF4401FFEFF090506B
:1040E00017E0FFEF4401FFEFF0905064E0FFEF4472
:1040F00001FFEFF012464B1247F3124BAC124DC8C2
:10410000124DCE124DD4124DDA124DE07F04123111
:10411000427F001230B9227F0A7E007D007C0012AF
:10412000418E124A4DEF3395E0FE900148EEF0A328
:10413000EFF0905037E0FFEF5410FF7E00EF4E702D
:1041400014900148E0FEA3E0FFEE4401FE90014818
:10415000EEF0A3EFF090501EE0FFEF54FEFFEFF003
:104160007F647E0012493490501EE0FFEF4401FF4F
:10417000EFF0900148E0FEA3E0FF1249AE124C6D53
:10418000EF30E2F97F647E00124934808A2290FF8A
:10419000FC1233ED1233A9850E83850F8212339101
:1041A000D3EF9400EE9480402F90013D1233911292
:1041B0004600850E83850F82C083C082123391EF43
:1041C0002400FFEE3480FEED34FFFDEC34FFFCD024
:1041D00082D0831233A980BF900133123391850EB0
:1041E00083850F8212339D123241124600900004E3
:1041F0001233ED2290647EE0FFEF54F8FF90008BC5
:10420000EFF090008BE0FF90647EEFF090647EE032
:10421000FFEF54FCFF90008BEFF090008BE0FF90DD
:10422000647EEFF0124D097F80124CBD7F80124CEE
:10423000AD7F00124C9D124DEC7F80124CCD124B85
:104240004390008CEFF090649DE0FFEF4410FFEF8F
:10425000F090008CE0FF124ABC22905016E0FFEF75
:1042600030E40B905016E0FFEF54FEFFEFF090505B
:1042700017E0FFEF30E40B905017E0FFEF54FEFF24
:10428000EFF0905064E0FFEF30E40B905064E0FFFB
:10429000EF54FEFFEFF0905065E0FFEF30E40B903D
:1042A0005065E0FFEF54FEFFEFF0905034E0FFEF79
:1042B00030E40B905034E0FFEF54FEFFEFF022901B
:1042C0005015E0FFEF30E40B905015E0FFEF54FE87
:1042D000FFEFF0905014E0FFEF30E40B905014E04B
:1042E000FFEF54FEFFEFF0905012E0FFEF30E40BD1
:1042F000905012E0FFEF54FEFFEFF0905013E0FFFC
:10430000EF30E40B905013E0FFEF54FEFFEFF0901E
:104310005011E0FFEF30E40B905011E0FFEF54FE3E
:10432000FFEFF0229000BCEFF0900001E0FFEF60A3
:1043300055124D9E900047E0FF900025E0FEEEB53F
:10434000071590646CE0FFEF20E20C9000BCE0FFEA
:1043500090644CEFF0802C900047E0FFEFC3942076
:104360004005900047E4F09000BCE0FF900047E07B
:10437000FE74262EF582E43400F583EFF0900047BA
:10438000E004F0124D97224200D0000A4200ED00F6
:104390000142014800004201460000410001004185
:1043A0000025004100470041000400410046004153
:1043B00000030041000200440138016E3600440150
:1043C0003300005DC04101371844013D2EE000007C
:1043D0004101500041015600410151004101570087
:1043E0004101580041015900007F011231697F2AC3
:1043F000124324124DE6EF30E1F97F2A12432412D2
:104400004DE6EF30E1F97F2A124324124DE6EF30FA
:10441000E1F97F2A124324124DE6EF30E1F97F2AB9
:10442000124324124DE6EF30E1F97F2A12432412A1
:104430004DE6EF30E1F97F3F124324124DE6EF30B5
:10444000E1F97F041230B980A0229000A0EFF09033
:1044500000A1EDF09000A1E0FFEFD394075003D34B
:104460008001C340057F00124B589000A0E0FFEF91
:10447000D3941F5003D38001C340057F00124B58D3
:104480009000A1E0FFEF5407FF7E00EF75F020A43D
:10449000FFAEF09000A0E0FEEE541FFE74802EF5FB
:1044A00082E43444F583EFF0229000B01233BE90E2
:1044B00000B3E4F0A3E4F0900001E0FFEF6042906D
:1044C00000B01233B59000B3E0FEA3E0FFE92FF98E
:1044D000EA3EFA1231C8FFEF60279000B01233B500
:1044E0009000B3E0FEA3E0FFE92FF9EA3EFA1231B3
:1044F000C8FF123C669000B3E475F0011231F380FE
:10450000BE22C0E0C0F0C083C082C085C084C08627
:10451000758600C093759300C0D075D000C000C0F0
:1045200001C002C003C004C005C006C0077F02125C
:104530003142D007D006D005D004D003D002D0013C
:10454000D000D0D0D093D086D084D085D082D083F4
:10455000D0F0D0E03290656AE0FFEF30E30B7B02F1
:104560007A65795A124CDF80EC124B4390008BEF46
:10457000F090659AE0FFEF4403FFEFF090659AE05A
:10458000FFEF54FCFFEFF090659BE0FFEF4403FF6B
:10459000EFF090659BE0FFEF54FCFFEFF090008B95
:1045A000E0FF124ABC2290658B740FF09044C874EF
:1045B00004F07C4D7DFB7F021240157D077F0212C7
:1045C000444A9044C87402F07C4D7DFC7F01124047
:1045D000157D077F0112444A124555124C6D124C4D
:1045E0007D90648F7405F090658A7418F0229000B5
:1045F000C6EFF09000C6E0FF9000C6EFF080FE220C
:10460000EC4D4E700D78FCEF24E950032840FD225C
:10461000000078C5904800E0C40303540390464767
:104620009325E0240FF404FBEF28FF78FFEE38FE1B
:10463000ED38FDEC38FC50D7EF2BFFEE38FEED38AF
:10464000FDEC38FC40F22205020304124B439000BB
:10465000B0EFF0906498E0FFEF4401FFEFF090645A
:1046600098E0FFEF54FEFFEFF09000B0E0FF124A39
:10467000BC124D90900004E4F0900046E4F09000ED
:1046800003E4F0900002E4F0124D89227C3B7D9817
:104690007F031240157D077F0312444A906488749B
:1046A00076F09064877420F07C3E7DFD7F0412409C
:1046B000157D077F0412444A90642F740FF09064B4
:1046C0003F7490F090648C7402F022124B4390007F
:1046D000A0EFF0906498E0FFEF4420FFEFF09064CB
:1046E00097E0FFEF4410FFEFF09044C07408F090A3
:1046F000649CE0FFEF4410FFEFF09044C07410F0B2
:104700009000A0E0FF124ABC22124B4390008BEFB6
:10471000F090659BE0FFEF4420FFEFF090649FE096
:10472000FFEF4410FFEFF090659AE0FFEF4410FFB9
:10473000EFF090008BE0FF124ABC9044C07404F08C
:104740009044C07402F022124B4390008BEFF09023
:104750006597E0FFEF4420FFEFF0906598E0FFEFF2
:104760004410FFEFF0906596E0FFEF4410FFEFF08C
:1047700090008BE0FF124ABC124AEB124DF8124D2A
:10478000F92290008BEFF090008BE0FFC3EF648084
:104790009480401090008BE0FFEF2480FF90008C0D
:1047A000EFF0800E90008BE0FFEFF404FF90008CA0
:1047B000EFF090008CE0FF124CAD22124B439000C2
:1047C000A0EFF0906498E0FFEF54DFFFEFF090640B
:1047D00097E0FFEF54EFFFEFF0124D9090649CE0F4
:1047E000FFEF54EFFFEFF0124D9E9000A0E0FF129C
:1047F0004ABC22124B439000B0EFF090649CE0FF63
:10480000EF4401FFEFF090649CE0FFEF54FEFFEFF8
:10481000F09000B0E0FF124ABC124D9E900025E4DB
:10482000F0900047E4F0124D9722906566E0FFEFAC
:1048300030E507906558E0FF80F0124B4390008B05
:10484000EFF0906598E0FFEF4401FFEFF09065987E
:10485000E0FFEF54FEFFEFF090008BE0FF124ABC48
:1048600022906476E0FFEF54C0FF9000A0EFF0903C
:1048700000A0E0FFEF4409FF906476EFF0906596AA
:10488000E0FFEF4401FFEFF07F01124C3D7F01128A
:104890004C4D7F01124C5D227B0C7A0179CF124D79
:1048A000469000C1EFF09000C1E0FFEF5407FF9089
:1048B000586EEFF09000C1E0FFEFC4540FFFEF54CB
:1048C0000FFF90586FEFF09058767444F022758681
:1048D00000EF4E6027EF60010E7593009000C6E078
:1048E000F595A3E0F585A3E0F5848B938A8389820F
:1048F000E0A30586F0A31586DFF6DEF4E4F593F574
:1049000095229044C87401F07B027A447900C00378
:10491000C002C0017BFF7A2E79D1AC02AD01D0017B
:10492000D002D003124CEE904480E4F09044C07466
:1049300001F02232EEFA900137E0F88FF0A4FFAEDA
:10494000F0E88AF0A42EFEE5F03400FDEF24C9FF64
:1049500078FFEE38FEED38FDE438FC5003024600E7
:1049600022124B439000A0EFF0906598E0FFEF44D7
:1049700001FFEFF0906598E0FFEF54FEFFEFF0903D
:1049800000A0E0FF124ABC22758600EF4E601BEFCC
:1049900060010E8C838D828B958A858984E493A334
:1049A0000586F0A31586DFF5DEF3E4F59522900089
:1049B000BFEEF0A3EFF090646FE0FFEF30E1F77B24
:1049C000027A65794A9000BFE0FCA3E0FD124CEE4C
:1049D000227F0F124C8D124B4390008BEFF09064AE
:1049E0009EE0FFEF4410FFEFF090008BE0FF124AD3
:1049F000BC229000B8EEF0A3EFF0124DBA9000B8D0
:104A0000E0FEA3E0FF124A2F7F01124B18124DB3B4
:104A10002290008BEEF0A3EFF07B027A44790A90AB
:104A2000008BE0FEA3E0FFAD07AC06124CEE229037
:104A300000BAEEF0A3EFF07B027A4479129000BA4C
:104A4000E0FEA3E0FFAD07AC06124CEE22124D6A69
:104A50009000C0EFF09000C0E0FF7E00EF2480FFE8
:104A60009000BFEFF09000BFE0FF22124BC17F80AB
:104A7000124CAD900157E0FFEF7009124DFA900112
:104A8000577401F01249D122906587740FF01248D3
:104A90002A124C0D124C1D906588E4F090658674C6
:104AA00030F0229000A5EFF0906568E0FFEF30E273
:104AB000F79000A5E0FF906548EFF022EF54016009
:104AC00004D2AF8002C2AFEF5402FF9044F4E0542E
:104AD000FD4FF022904585E0FFEF5404FF7E00EF8C
:104AE0007802CEC313CE13D8F9FF229043A2E0FF81
:104AF000EF4402FFEFF09043B2E0FFEF4402FFEF1C
:104B0000F02290008BEFF090008BE0FFEFC4335465
:104B1000E0FF904485EFF0229000BAEFF09000BAE9
:104B2000E0FFEFC43354E0FF904489EFF02290009F
:104B300001E0FFEF700912468C9000017401F01241
:104B400046CB229044F4E0F84402F0E85402FF100F
:104B5000AF012274014FFF2290FFFF1233EDEFF0FF
:104B60009046EA7401F09000011233ED229001505A
:104B7000E0FFEF7009124A889001507401F012476B
:104B80004722900156E0FFEF7009124861900156EC
:104B90007401F0124D2222900151E0FFEF700912D2
:104BA00045A69001517401F01247092290656AE010
:104BB000FFEF30E30B7B027A65795A124CDF80EC11
:104BC00022900158E0FFEF70091241F490015874EF
:104BD00001F0124D5E22124DAC7E457F02124A1149
:104BE0007F02124B02124DA522124DBA7E497F332D
:104BF000124A2F7F01124B18124DB322906566E0C6
:104C0000FFEF30E507906558E0FF80F0229065687F
:104C1000E0FF9000A5EFF09000A5E0FF2290656610
:104C2000E0FF9000A0EFF09000A0E0FF2290655818
:104C3000E0FF9000A0EFF09000A0E0FF229000A124
:104C4000EFF09000A1E0FF906506EFF0229000A148
:104C5000EFF09000A1E0FF906546EFF0229000A1F8
:104C6000EFF09000A1E0FF906526EFF02290646FD6
:104C7000E0FF9000BFEFF09000BFE0FF2290656A78
:104C8000E0FF90008BEFF090008BE0FF2290008C13
:104C9000EFF090008CE0FF90648EEFF02290008D9A
:104CA000EFF090008DE0FF90648DEFF02290008D8A
:104CB000EFF090008DE0FF90640AEFF02290008DFD
:104CC000EFF090008DE0FF90642AEFF02290008DCD
:104CD000EFF090008DE0FF90643AEFF0228B938A22
:104CE000838982E0FFA3E0FE759300228B938A8381
:104CF0008982EDF0A3ECF0759300222A2A2A230082
:104D00002A0023002A2A2A3F00124DECEF30E60544
:104D1000124DF280F4229046F6E0FFEF4401FFEFDF
:104D2000F022906476E0FFEF4480FFEFF022906481
:104D300076E0FFEF547FFFEFF02240973DC61182EF
:104D40003E6343E941178B938A838982E075930020
:104D5000FF228B938A838982EDF075930022906401
:104D60007EE0FFEF4480FFEFF02290640AE0FF90C6
:104D7000644AE0FF227B027A407980124CDF229065
:104D80004082E0FFEF5407FF229044C07408F022F5
:104D90009044C87408F0229044C07410F0229044EB
:104DA000C87410F0229044C07420F0229044C8745B
:104DB00020F0229044C17402F0229044C97402F0A1
:104DC000229044D97402F0227F01123030227F02F7
:104DD000123030227F03123030227F041230302212
:104DE0007F051230302290646CE0FF2290646DE009
:104DF000FF2290644AE0FF22222222323220000069
:104E0000000F000000000000040000000800000087
:104E10000000000000000300002001000006000068
:104E200000000000E0000000000000CC00FF3F0098
:104E3000000000000000000200000000009A0001D5
:104E400000000000011B0480002000C0009B000047
:104E50000304001A009B0000002400C8009B00000F
:104E60000002006400E40010000000010000011EC8
:104E7000040102E0000000880000001004000000AF
:104E800000000000000000000000000000000080A2
:104E90000000000000040400044140000100000084
:104EA0000000000000000000000000000000000002
:104EB0000000000000000000000000000001030EE0
:104EC00010E780180C1E0401002343DC3CDD0022A7
:104ED00033004CD033C64F39300080000000000052
:104EE000009008000050020020007D3F00E03F1FBE
:104EF000C01040000000080A02000000100000007E
:104F000000000000000000000000000000000000A1
:104F1000001A000400040400040000000100000066
:104F20000000000000000000000000000000000081
:104F3000000000000000000000000000000004006D
:104F4000004762381D4946360000468000240F1293
:104F50002038420704000040105B42240000420059
:104F6000046D01125A6D0412420000000000003F5F
:104F700018C0650007000000200000000056010373
:104F800000020E0C0005FFFFFF62A0F0410C0000C4
:104F900000000002130404040410000001000000DB
:104FA000000000400200103010001010120000003D
:104FB00000000000000000000000000000000100F0
:104FC000003000C90000000F0000000000FD0002DA
:104FD0000073000000000000009E00600000000060
:104FE000000000000094006000CF003003FF0200CA
:104FF000000001000000000000000001100000009F
:1050000000000000000000000000000000000000A0
:10501000000000080004040004202000010000003B
:105020000000000000000000000000000000000080
:105030000000000000000000000000000000000070
:105040000000030000001D00000204000800000032
:10505000100000001C00000000000303000000001E
:10506000200010000000040008001C0000010200E5
:105070003C0001020000220000000040106203001A
:1050800000004EC3021FFFFFFF00A0000118000038
:10509000000000000004040400330300014000800D
:1050A0000040408000400080004020800000000060
:1050B00000000000000000000000000000000908DF
:1050C00010002000400000001000200040051C00DF
:1050D000020010000C000C081100800703006000A3
:1050E00000001401000020004000200040020001E8
:1050F000600480081F000000000000541000000041
:10510000000000000000000000000000000000009F
:105110000000000800040400040220000100000058
:10512000000000000000000000000000000000007F
:10513000000000000000000000000000000000006F
:10514000000000000023080C0009002000005800A7
:105150000200322E440032000C100000000000005B
:1051600000030024012300046E0000000120301021
:105170004C0F01100E000220880000411131020086
:105180000000EC000B13FFFFFF0000F0440C0000D8
:1051900000010004000404040400000001000000F9
:1051A000000000C0000000400200000000000000FD
:1051B00000000000000000000000000000000000EF
:1051C0000C020800040000000000020000000000C3
:1051D00000000000000000030000000003000000C9
:1051E00000000000000000000000000000020100BC
:1051F000020108000400000000000001540000004B
:10520000000000000000000000000000000000009E
:10521000000F00000004040004333000050000000B
:10522000000000000000000000000000000000007E
:1052300000000000000000000000000000850042A7
:10524000000203E4000000000800001900870620A7
:105250000000000000080000000000000066068159
:1052600000E3000000060020000005080007000819
:10527000081007E400002000000000040000000007
:10528000000000000000000000000000000000809E
:10529000000F00040004040004333000010000008B
:1052A00000000000000000000000000000000000FE
:1052B00000000000000000000000000000010002EB
:1052C00000010006000002000100010002000100D0
:1052D0000601000A000201010200000000000000B7
:1052E000000000000000001000000000080400089A
:1052F000080303100400002020000000000100004B
:1053000000001050000AFF0FFF4020F005080000C9
:105310000041000400040404043320000140A840BC
:10532000200000000000000000000000000000005D
:10533000000000000000000000000000000000006D
:10534000000013002C00000000000000001C65009D
:105350001A0002000D064909060B00140000400067
:10536000000000000008001300000000001E000004
:1053700070010F000002000028000010003005003E
:10538000000001020005FFFFFF00A000041800005C
:10539000004000000004040404111400014000C097
:1053A000004040C000C000C000C000C000000000BD
:1053B00000000000000000000000000000000040AD
:1053C000000000010000008800101D0060F30004D0
:1053D000750000307D201D00600F00F000011400FA
:1053E000213F00C0023510CA400060CE1C0004FFFF
:1053F0000334700008008000280000040000000052
:10540000000000000000000000000000000000009C
:105410000000000224040400040010000100000049
:10542000000000000000000000000000000000007C
:10543000000000000000000000000000000060000C
:105440000000560909048000040000000000070065
:1054500038000A01100001020000040000040400EA
:105460008004840000008400000084000004000820
:105470007F0300008000080000000011406304501A
:105480000002CEF0BD3BFFFFFF2200F00804000049
:10549000000900000004040404101100010000C011
:1054A0000040011011C00100114001400100000046
:1054B00000000000000000000000000000000000EC
:1054C00000000300FC007700000000000000CC009A
:1054D00023030000000085001A00CA001500000028
:1054E00000000001000000000000BF004000F002CA
:1054F000000000010F000000000000440000000058
:10550000000000000000000000000000000000009B
:105510000000000800040400043020000100000026
:10552000000000000000000000000000000000007B
:10553000000000000000000000000000000000006B
:10554000000000000000000000000001000000005A
:10555000000000000000000000000000000001004A
:10556000000000000000000000000000000000003B
:1055700000000001010000000000000040010210D6
:10558000000600000000FFFFFF0200700C8C1000FE
:105590000020000400040424040828002100000066
:1055A00000000000004001C00100000000000000F9
:1055B00000000000000000000000000000000000EB
:1055C0000003C31C0824C3DB1000000002924349FF
:1055D000A0E0001C001C00E3006D00920000C3006E
:1055E00004B6004900B60049010000003C0001007B
:1055F0003E0080FF40000000000000405501031005
:105600000002FBE0CD3BFFFFFF2300F00C8C1000FD
:10561000000000022804042424008808310000004F
:1056200000000000004001C0010000000000000078
:10563000000000000000000000000000000000006A
:10564000000000000000000000000000000000005A
:10565000000000003A760000000F6F0F47000000C6
:10566000000000000000000000000000000000003A
:10567000000000000F0000780F000000001F000075
:105680000000000000000013000F0000001F0000D9
:105690000000000000000013000F000D00000000DB
:1056A00000000200000000000000000100000040B7
:1056B00000100000000000000000000000000000DA
:1056C00000000000000000000000000000000000DA
:1056D00000000000000000000000000000000000CA
:1056E00000000000000000000000000000000000BA
:1056F0000000000000010000200100000000000088
:105700000000000000000000000000000000000099
:105710000000000000000000000000000000000089
:105720000000000000100040000002000001000026
:105730000000000100010000200000000000000047
:105740000000000000000000000000010004000252
:105750000000000000000000000000000004000144
:10576000000C00000000000000000000000000002D
:10577000000100030000000000000000000000061F
:105780000000000100000000000100040000000013
:105790000000000000000000000000000000000207
:1057A00000000000000000000000000000000000F9
:1057B00000000000000000000000000000000000E9
:1057C00000000000000000000000000000000000D9
:1057D00000000000000000000000000000000000C9
:1057E00000000000000000000000000000000000B9
:1057F00000000000000400000000000000000000A5
:105800000000000000000000000000000000000098
:105810000000000000000000000000000000000088
:105820000001000000000000000000000001000076
:105830000000000000000000200000000000000048
:105840000000000000000000000000000000000058
:105850000000000000000000000000000002000046
:105860000000000000000000000000000000000038
:105870000000000200000000000000000000000026
:105880000000000000000000000000000000000018
:105890000000000000000000000000000000000008
:1058A00000000000000000000001000000000000F7
:1058B00000000000000000002000000000000000C8
:1058C00000000000000000000000000000000000D8
:1058D00000000000000000000000000000000000C8
:1058E00000000000000000000000000000000000B8
:1058F00000000000000000000000000000000000A8
:10590000000800000000000000000000000000008F
:105910000000000000000000000000000000000087
:105920000000000000000000000000002000000057
:105930000000000000000000000000000000000067
:105940000000000000000000000000000000000057
:105950000000000000000000000000000000000047
:105960000000000000000000000000000000000037
:105970000000000000000000000000000000000027
:10598000000800000000000000000000000000000F
:105990000000000000000000000000000000000007
:1059A00000000000000000000000000000000000F7
:1059B00000000000000000000000000000000000E7
:1059C00000000000000000000100000000000000D6
:1059D000000028000000000000000000000000009F
:1059E00000000000000000000000000000000000B7
:1059F00000000000000000000000000000000000A7
:105A000000000000000000000000000A000000008C
:105A10000000000000000000000000000000000086
:105A2000000000000000200000000800010000004D
:105A30000000000000000000000000000000000066
:105A40000000000000000000000000000000000056
:105A50000000000000000000000000000000000046
:105A60000000000000000000000000000000000036
:105A70000000000000000000000000000000000026
:105A80000000000000000000000000000000000016
:105A90000000000000000000000000000000000006
:105AA00000000000000000000000000000000000F6
:105AB00000000000000000000000000000000000E6
:105AC00000000000000000000000000000000000D6
:105AD00000000000000000000000000000000007BF
